{
  "contractName": "CompraToken",
  "abi": [
    {
      "constant": true,
      "inputs": [],
      "name": "tokenContract",
      "outputs": [
        {
          "name": "",
          "type": "address"
        }
      ],
      "payable": false,
      "stateMutability": "view",
      "type": "function"
    },
    {
      "constant": true,
      "inputs": [],
      "name": "tokensVendidos",
      "outputs": [
        {
          "name": "",
          "type": "uint256"
        }
      ],
      "payable": false,
      "stateMutability": "view",
      "type": "function"
    },
    {
      "constant": true,
      "inputs": [],
      "name": "PrecioToken",
      "outputs": [
        {
          "name": "",
          "type": "uint256"
        }
      ],
      "payable": false,
      "stateMutability": "view",
      "type": "function"
    },
    {
      "inputs": [
        {
          "name": "_tokenContract",
          "type": "address"
        },
        {
          "name": "_PrecioToken",
          "type": "uint256"
        }
      ],
      "payable": false,
      "stateMutability": "nonpayable",
      "type": "constructor"
    },
    {
      "anonymous": false,
      "inputs": [
        {
          "indexed": false,
          "name": "_comprador",
          "type": "address"
        },
        {
          "indexed": false,
          "name": "_tokens",
          "type": "uint256"
        }
      ],
      "name": "Venta",
      "type": "event"
    },
    {
      "anonymous": false,
      "inputs": [
        {
          "indexed": false,
          "name": "_depositante",
          "type": "address"
        },
        {
          "indexed": false,
          "name": "cantidad",
          "type": "uint256"
        }
      ],
      "name": "Deposito",
      "type": "event"
    },
    {
      "anonymous": false,
      "inputs": [
        {
          "indexed": false,
          "name": "_retira",
          "type": "address"
        },
        {
          "indexed": false,
          "name": "cantidad",
          "type": "uint256"
        }
      ],
      "name": "Retiro",
      "type": "event"
    },
    {
      "constant": false,
      "inputs": [
        {
          "name": "_numeroTokens",
          "type": "uint256"
        }
      ],
      "name": "compraTokens",
      "outputs": [],
      "payable": true,
      "stateMutability": "payable",
      "type": "function"
    },
    {
      "constant": false,
      "inputs": [
        {
          "name": "_contribucion",
          "type": "uint256"
        },
        {
          "name": "fechaEjecucion",
          "type": "uint256"
        }
      ],
      "name": "depositoAhorro",
      "outputs": [],
      "payable": true,
      "stateMutability": "payable",
      "type": "function"
    },
    {
      "constant": false,
      "inputs": [
        {
          "name": "_retiro",
          "type": "uint256"
        },
        {
          "name": "fechaEjecucion",
          "type": "uint256"
        }
      ],
      "name": "retiroTokens",
      "outputs": [],
      "payable": true,
      "stateMutability": "payable",
      "type": "function"
    }
  ],
  "bytecode": "0x608060405234801561001057600080fd5b50604051604080610b098339810180604052810190808051906020019092919080519060200190929190505050336000806101000a81548173ffffffffffffffffffffffffffffffffffffffff021916908373ffffffffffffffffffffffffffffffffffffffff16021790555081600160006101000a81548173ffffffffffffffffffffffffffffffffffffffff021916908373ffffffffffffffffffffffffffffffffffffffff160217905550806002819055505050610a33806100d66000396000f300608060405260043610610078576000357c0100000000000000000000000000000000000000000000000000000000900463ffffffff1680635125524b1461007d57806355a373d6146100a75780635d8d223a146100fe5780638896ffab14610129578063c29dd7c914610153578063cfa6628a14610173575b600080fd5b6100a5600480360381019080803590602001909291908035906020019092919050505061019e565b005b3480156100b357600080fd5b506100bc610436565b604051808273ffffffffffffffffffffffffffffffffffffffff1673ffffffffffffffffffffffffffffffffffffffff16815260200191505060405180910390f35b34801561010a57600080fd5b5061011361045c565b6040518082815260200191505060405180910390f35b6101516004803603810190808035906020019092919080359060200190929190505050610462565b005b6101716004803603810190808035906020019092919050505061071e565b005b34801561017f57600080fd5b506101886109c6565b6040518082815260200191505060405180910390f35b81600160009054906101000a900473ffffffffffffffffffffffffffffffffffffffff1673ffffffffffffffffffffffffffffffffffffffff166370a08231306040518263ffffffff167c0100000000000000000000000000000000000000000000000000000000028152600401808273ffffffffffffffffffffffffffffffffffffffff1673ffffffffffffffffffffffffffffffffffffffff168152602001915050602060405180830381600087803b15801561025c57600080fd5b505af1158015610270573d6000803e3d6000fd5b505050506040513d602081101561028657600080fd5b8101908080519060200190929190505050101515156102a457600080fd5b600160009054906101000a900473ffffffffffffffffffffffffffffffffffffffff1673ffffffffffffffffffffffffffffffffffffffff1663ec19175d3384846040518463ffffffff167c0100000000000000000000000000000000000000000000000000000000028152600401808473ffffffffffffffffffffffffffffffffffffffff1673ffffffffffffffffffffffffffffffffffffffff1681526020018381526020018281526020019350505050602060405180830381600087803b15801561037157600080fd5b505af1158015610385573d6000803e3d6000fd5b505050506040513d602081101561039b57600080fd5b810190808051906020019092919050505015156103b757600080fd5b816003600082825401925050819055507febdddb82f24ed849145a8f144818f7d383a31047a4a7f30b928c65100f9b8eab3383604051808373ffffffffffffffffffffffffffffffffffffffff1673ffffffffffffffffffffffffffffffffffffffff1681526020018281526020019250505060405180910390a15050565b600160009054906101000a900473ffffffffffffffffffffffffffffffffffffffff1681565b60035481565b81600160009054906101000a900473ffffffffffffffffffffffffffffffffffffffff1673ffffffffffffffffffffffffffffffffffffffff166370a08231336040518263ffffffff167c0100000000000000000000000000000000000000000000000000000000028152600401808273ffffffffffffffffffffffffffffffffffffffff1673ffffffffffffffffffffffffffffffffffffffff168152602001915050602060405180830381600087803b15801561052057600080fd5b505af1158015610534573d6000803e3d6000fd5b505050506040513d602081101561054a57600080fd5b81019080805190602001909291905050501015151561056857600080fd5b600160009054906101000a900473ffffffffffffffffffffffffffffffffffffffff1673ffffffffffffffffffffffffffffffffffffffff1663fe99049a333085856040518563ffffffff167c0100000000000000000000000000000000000000000000000000000000028152600401808573ffffffffffffffffffffffffffffffffffffffff1673ffffffffffffffffffffffffffffffffffffffff1681526020018473ffffffffffffffffffffffffffffffffffffffff1673ffffffffffffffffffffffffffffffffffffffff168152602001838152602001828152602001945050505050602060405180830381600087803b15801561066957600080fd5b505af115801561067d573d6000803e3d6000fd5b505050506040513d602081101561069357600080fd5b810190808051906020019092919050505015156106af57600080fd5b7f453529dac6ef979a41d67fbeeabdfae29903c185f64d77aa690df9eca5f1aa603383604051808373ffffffffffffffffffffffffffffffffffffffff1673ffffffffffffffffffffffffffffffffffffffff1681526020018281526020019250505060405180910390a15050565b61072a816002546109cc565b3414151561073757600080fd5b80600160009054906101000a900473ffffffffffffffffffffffffffffffffffffffff1673ffffffffffffffffffffffffffffffffffffffff166370a08231306040518263ffffffff167c0100000000000000000000000000000000000000000000000000000000028152600401808273ffffffffffffffffffffffffffffffffffffffff1673ffffffffffffffffffffffffffffffffffffffff168152602001915050602060405180830381600087803b1580156107f557600080fd5b505af1158015610809573d6000803e3d6000fd5b505050506040513d602081101561081f57600080fd5b81019080805190602001909291905050501015151561083d57600080fd5b600160009054906101000a900473ffffffffffffffffffffffffffffffffffffffff1673ffffffffffffffffffffffffffffffffffffffff1663a9059cbb33836040518363ffffffff167c0100000000000000000000000000000000000000000000000000000000028152600401808373ffffffffffffffffffffffffffffffffffffffff1673ffffffffffffffffffffffffffffffffffffffff16815260200182815260200192505050602060405180830381600087803b15801561090257600080fd5b505af1158015610916573d6000803e3d6000fd5b505050506040513d602081101561092c57600080fd5b8101908080519060200190929190505050151561094857600080fd5b806003600082825401925050819055507f73ab9be6246a9eb60faba3a7d2a824cb1915fbf017b6cdf338d65fbcf0f5bc9f3382604051808373ffffffffffffffffffffffffffffffffffffffff1673ffffffffffffffffffffffffffffffffffffffff1681526020018281526020019250505060405180910390a150565b60025481565b60008060008414156109e15760009150610a00565b82840290508284828115156109f257fe5b041415156109fc57fe5b8091505b50929150505600a165627a7a72305820b169f1ef4e7de2faf173faf65421d7106381d713cb306f98324803e6710761090029",
  "source": "pragma solidity ^0.4.2;\n\nimport \"./Token.sol\";\nimport \"./SafeMath.sol\";\n\ncontract CompraToken  {\n    address admin;\n    Token public tokenContract;\n    uint256 public PrecioToken;\n    uint256 public tokensVendidos;\n    \n    \n\n    event Venta(address _comprador, uint256 _tokens);\n    event Deposito(address _depositante, uint256 cantidad);\n    event Retiro(address _retira, uint256 cantidad);\n\n\n\n\n\n//** @title Constructor. */\n    constructor(Token _tokenContract, uint256 _PrecioToken) public {\n         /**@param _tokencontract address del contrato Token.sol.\n       @param _PrecioToken recibe el precio de los tokens definidos en el archivo de inicialización*/\n\n      /** @dev Asigna la cuenta administrador al que realiza el deploy\n      y asigna los valores recibidos las variables token contract y PrecioToken para utilizarlas en este contrato\n      */ \n        admin = msg.sender;\n        tokenContract = _tokenContract;\n        PrecioToken = _PrecioToken;\n    }\n//** @title Compra de tokens. */\n    function compraTokens(uint256 _numeroTokens) public payable {\n          /**@param _numeroTokens cantidad a comprarr.\n \n      /** @dev verificar que el precio a pagar sea el precio estblecido\n      verifica que el contrato cuente con los tokens solicitados para comprar\n      verifica que se haya realizado la transacción satisfactoriamente desde el contrato Token.sol.\n      Actualiza el valor de los tokens vendidos\n      */ \n        require(msg.value == SafeMath.mul(_numeroTokens, PrecioToken));\n        require(tokenContract.balanceOf(this) >= _numeroTokens);\n        require(tokenContract.transfer(msg.sender, _numeroTokens));\n\n        tokensVendidos += _numeroTokens;\n        /** @return devuelve el addres del que compra y la cantidad*/\n        emit Venta(msg.sender, _numeroTokens);\n    }\n//** @title Depotio de tokens. */\n    function depositoAhorro(uint256 _contribucion, uint fechaEjecucion) public payable {\n        /**@param _contribucion cantidad a ahorrar.\n       @param fechaEjecucion fecha en que se realiza el deposito.*/\n      /** @dev verificar que el balance de quien envía sea mayor a la cantidad a enviar\n      verifica que se haya realizado la transacción satisfactoriamente desde el contrato Token.sol.\n      */ \n       require(tokenContract.balanceOf(msg.sender) >= _contribucion);\n       require(tokenContract.transferFrom(msg.sender, this, _contribucion, fechaEjecucion));\n       /** @return devuelve el address del que solicita el deposito y la cantidad.*/\n       emit Deposito(msg.sender, _contribucion);\n    }\n//** @title Retiro de tokens. */\n    function retiroTokens(uint256 _retiro, uint fechaEjecucion) public payable {     \n        /**@param _retiro cantidad a retirar.\n       @param fechaEjecucion fecha en que se realiza el retiro.*/\n      /** @dev verificar que el balance del contrato sea mayor al solicitado por quien retira\n      verifica que se haya realizado la transacción satisfactoriamente desde el contrato Token.sol.\n      Actualiza el valor de los tokensVendidos*/ \n        require(tokenContract.balanceOf(this) >= _retiro);\n        require(tokenContract.transferRetiro(msg.sender, _retiro, fechaEjecucion));\n\n        tokensVendidos += _retiro;\n//** @return devuelve el address del que solicita el retiro y la cantidad.*/\n        emit Retiro(msg.sender, _retiro);\n    }\n}",
  "sourcePath": "/home/omar/ProyectoAhorro/contracts/CompraToken.sol",
  "compiler": {
    "name": "solc",
    "version": "0.4.24+commit.e67f0147.Emscripten.clang"
  },
  "schemaVersion": "2.0.1",
  "updatedAt": "2018-12-22T17:40:49.553Z"
}