{
  "contractName": "Cliente",
  "abi": [
    {
      "constant": true,
      "inputs": [],
      "name": "Activo",
      "outputs": [
        {
          "name": "",
          "type": "bool"
        }
      ],
      "payable": false,
      "stateMutability": "view",
      "type": "function",
      "signature": "0x12029e60"
    },
    {
      "constant": true,
      "inputs": [
        {
          "name": "",
          "type": "uint256"
        }
      ],
      "name": "Aleatorio",
      "outputs": [
        {
          "name": "",
          "type": "uint256"
        }
      ],
      "payable": false,
      "stateMutability": "view",
      "type": "function",
      "signature": "0x2c353ea9"
    },
    {
      "constant": true,
      "inputs": [
        {
          "name": "",
          "type": "address"
        }
      ],
      "name": "CostSeguro",
      "outputs": [
        {
          "name": "CostoTotal",
          "type": "uint256"
        },
        {
          "name": "KmCiudad",
          "type": "uint256"
        },
        {
          "name": "KmCarretera",
          "type": "uint256"
        },
        {
          "name": "TiempoAparcado",
          "type": "uint256"
        }
      ],
      "payable": false,
      "stateMutability": "view",
      "type": "function",
      "signature": "0x5977a96a"
    },
    {
      "constant": true,
      "inputs": [
        {
          "name": "",
          "type": "uint256"
        }
      ],
      "name": "aseguradoraPrecioAparcado",
      "outputs": [
        {
          "name": "",
          "type": "uint256"
        }
      ],
      "payable": false,
      "stateMutability": "view",
      "type": "function",
      "signature": "0x6cbbb62d"
    },
    {
      "constant": true,
      "inputs": [],
      "name": "PrecioAparcado",
      "outputs": [
        {
          "name": "",
          "type": "uint256"
        }
      ],
      "payable": false,
      "stateMutability": "view",
      "type": "function",
      "signature": "0x870b26d4"
    },
    {
      "constant": true,
      "inputs": [],
      "name": "PrecioKmCarretera",
      "outputs": [
        {
          "name": "",
          "type": "uint256"
        }
      ],
      "payable": false,
      "stateMutability": "view",
      "type": "function",
      "signature": "0xa7cf6dc9"
    },
    {
      "constant": true,
      "inputs": [
        {
          "name": "",
          "type": "address"
        }
      ],
      "name": "users",
      "outputs": [
        {
          "name": "IdUser",
          "type": "string"
        },
        {
          "name": "DNI",
          "type": "string"
        },
        {
          "name": "VATNumber",
          "type": "string"
        },
        {
          "name": "TypeUser",
          "type": "uint256"
        },
        {
          "name": "record",
          "type": "uint256"
        },
        {
          "name": "PrecioAparcado",
          "type": "uint256"
        },
        {
          "name": "PrecioKmCarretera",
          "type": "uint256"
        },
        {
          "name": "PrecioKmCiudad",
          "type": "uint256"
        },
        {
          "name": "MaxCredito",
          "type": "uint256"
        }
      ],
      "payable": false,
      "stateMutability": "view",
      "type": "function",
      "signature": "0xa87430ba"
    },
    {
      "constant": true,
      "inputs": [],
      "name": "IsAdmin",
      "outputs": [
        {
          "name": "",
          "type": "bool"
        }
      ],
      "payable": false,
      "stateMutability": "view",
      "type": "function",
      "signature": "0xacad8667"
    },
    {
      "constant": true,
      "inputs": [
        {
          "name": "",
          "type": "uint256"
        }
      ],
      "name": "aseguradoraPrecioCiudad",
      "outputs": [
        {
          "name": "",
          "type": "uint256"
        }
      ],
      "payable": false,
      "stateMutability": "view",
      "type": "function",
      "signature": "0xef9c6425"
    },
    {
      "constant": true,
      "inputs": [],
      "name": "PrecioKmCiudad",
      "outputs": [
        {
          "name": "",
          "type": "uint256"
        }
      ],
      "payable": false,
      "stateMutability": "view",
      "type": "function",
      "signature": "0xf329b3df"
    },
    {
      "constant": true,
      "inputs": [
        {
          "name": "",
          "type": "uint256"
        }
      ],
      "name": "aseguradoraPrecioCarretera",
      "outputs": [
        {
          "name": "",
          "type": "uint256"
        }
      ],
      "payable": false,
      "stateMutability": "view",
      "type": "function",
      "signature": "0xfd99aeec"
    },
    {
      "anonymous": false,
      "inputs": [
        {
          "indexed": false,
          "name": "record",
          "type": "uint256"
        }
      ],
      "name": "nuevoCliente",
      "type": "event",
      "signature": "0x6ba4ead7636d04e0c95d33e655db0853aa65a450a0414cf4be9f3f4bf8f35c32"
    },
    {
      "anonymous": false,
      "inputs": [
        {
          "indexed": false,
          "name": "idCoche",
          "type": "uint256"
        },
        {
          "indexed": false,
          "name": "TotalCost",
          "type": "uint256"
        }
      ],
      "name": "CostoSeguro",
      "type": "event",
      "signature": "0xcbaadd3cf1d7dce84c68c08077fb9a1c1795ff994854434cc380f18d79c4ddd8"
    },
    {
      "anonymous": false,
      "inputs": [
        {
          "indexed": false,
          "name": "",
          "type": "bytes"
        }
      ],
      "name": "newRandomNumber_bytes",
      "type": "event",
      "signature": "0xab2f9e7e7e74d54a49792fd7ff57c497b14cd2bad49d7537937a5a527a50f0ac"
    },
    {
      "anonymous": false,
      "inputs": [
        {
          "indexed": false,
          "name": "",
          "type": "uint256"
        }
      ],
      "name": "newRandomNumber_uint",
      "type": "event",
      "signature": "0xb084d8f103616749e12a8d363f0b50f8bb8568b4086c093bd88140c74042c47a"
    },
    {
      "constant": false,
      "inputs": [],
      "name": "DetenerContratoToken",
      "outputs": [
        {
          "name": "",
          "type": "bool"
        }
      ],
      "payable": false,
      "stateMutability": "nonpayable",
      "type": "function",
      "signature": "0xb5555627"
    },
    {
      "constant": false,
      "inputs": [],
      "name": "ActivarContratoToken",
      "outputs": [
        {
          "name": "",
          "type": "bool"
        }
      ],
      "payable": false,
      "stateMutability": "nonpayable",
      "type": "function",
      "signature": "0x8dae461d"
    },
    {
      "constant": false,
      "inputs": [
        {
          "name": "idEmpresa",
          "type": "uint256"
        },
        {
          "name": "precioAparcado",
          "type": "uint256"
        }
      ],
      "name": "actualizarPrecioAparcado",
      "outputs": [],
      "payable": false,
      "stateMutability": "nonpayable",
      "type": "function",
      "signature": "0x7208177a"
    },
    {
      "constant": false,
      "inputs": [
        {
          "name": "idEmpresa",
          "type": "uint256"
        },
        {
          "name": "precioCarretera",
          "type": "uint256"
        }
      ],
      "name": "actualizarPrecioCarretera",
      "outputs": [],
      "payable": false,
      "stateMutability": "nonpayable",
      "type": "function",
      "signature": "0x02f58854"
    },
    {
      "constant": false,
      "inputs": [
        {
          "name": "idEmpresa",
          "type": "uint256"
        },
        {
          "name": "precioCiudad",
          "type": "uint256"
        }
      ],
      "name": "actualizarPrecioCiudad",
      "outputs": [],
      "payable": false,
      "stateMutability": "nonpayable",
      "type": "function",
      "signature": "0xa87e71be"
    },
    {
      "constant": false,
      "inputs": [],
      "name": "costoSeguro",
      "outputs": [],
      "payable": false,
      "stateMutability": "nonpayable",
      "type": "function",
      "signature": "0x487b6651"
    },
    {
      "constant": false,
      "inputs": [],
      "name": "CheckAdmin",
      "outputs": [
        {
          "name": "",
          "type": "bool"
        }
      ],
      "payable": false,
      "stateMutability": "nonpayable",
      "type": "function",
      "signature": "0x4e4dc82c"
    },
    {
      "constant": true,
      "inputs": [],
      "name": "fetchUser",
      "outputs": [
        {
          "name": "",
          "type": "string"
        }
      ],
      "payable": false,
      "stateMutability": "view",
      "type": "function",
      "signature": "0x8337d90f"
    },
    {
      "constant": false,
      "inputs": [
        {
          "name": "IdUsuario",
          "type": "string"
        },
        {
          "name": "TypeUser",
          "type": "uint256"
        },
        {
          "name": "DNI",
          "type": "string"
        },
        {
          "name": "VATNumber",
          "type": "string"
        },
        {
          "name": "record",
          "type": "uint256"
        }
      ],
      "name": "NewUser",
      "outputs": [],
      "payable": false,
      "stateMutability": "nonpayable",
      "type": "function",
      "signature": "0x67ff5c23"
    },
    {
      "constant": false,
      "inputs": [
        {
          "name": "dir",
          "type": "address"
        }
      ],
      "name": "deleteUser",
      "outputs": [
        {
          "name": "",
          "type": "bool"
        }
      ],
      "payable": false,
      "stateMutability": "nonpayable",
      "type": "function",
      "signature": "0x5c60f226"
    },
    {
      "constant": false,
      "inputs": [
        {
          "name": "precioKmCiudad",
          "type": "uint256"
        },
        {
          "name": "precioKmCarretera",
          "type": "uint256"
        },
        {
          "name": "precioAparcado",
          "type": "uint256"
        }
      ],
      "name": "actualizarSeguro",
      "outputs": [
        {
          "name": "",
          "type": "bool"
        }
      ],
      "payable": false,
      "stateMutability": "nonpayable",
      "type": "function",
      "signature": "0xe737f07e"
    },
    {
      "constant": false,
      "inputs": [],
      "name": "RandomExample",
      "outputs": [],
      "payable": false,
      "stateMutability": "nonpayable",
      "type": "function",
      "signature": "0x949f80b0"
    },
    {
      "constant": false,
      "inputs": [
        {
          "name": "_myid",
          "type": "bytes32"
        },
        {
          "name": "_result",
          "type": "string"
        }
      ],
      "name": "__callback",
      "outputs": [],
      "payable": false,
      "stateMutability": "nonpayable",
      "type": "function",
      "signature": "0x27dc297e"
    },
    {
      "constant": false,
      "inputs": [
        {
          "name": "_queryId",
          "type": "bytes32"
        },
        {
          "name": "_result",
          "type": "string"
        },
        {
          "name": "_proof",
          "type": "bytes"
        }
      ],
      "name": "__callback",
      "outputs": [],
      "payable": false,
      "stateMutability": "nonpayable",
      "type": "function",
      "signature": "0x38bbfa50"
    },
    {
      "constant": false,
      "inputs": [],
      "name": "update",
      "outputs": [],
      "payable": true,
      "stateMutability": "payable",
      "type": "function",
      "signature": "0xa2e62045"
    },
    {
      "constant": false,
      "inputs": [
        {
          "name": "maxCredit",
          "type": "uint256"
        }
      ],
      "name": "asignaCreditoMaximo",
      "outputs": [
        {
          "name": "",
          "type": "uint256"
        }
      ],
      "payable": false,
      "stateMutability": "nonpayable",
      "type": "function",
      "signature": "0xadc4f95c"
    }
  ],
  "bytecode": "0x60806040526000600660006101000a81548160ff0219169083151502179055506000600660016101000a81548160ff0219169083151502179055506050600755336000806101000a81548173ffffffffffffffffffffffffffffffffffffffff021916908373ffffffffffffffffffffffffffffffffffffffff16021790555061547f8061008e6000396000f3fe60806040526004361061015f576000357c0100000000000000000000000000000000000000000000000000000000900463ffffffff16806302f588541461016457806312029e60146101a957806327dc297e146101d85780632c353ea9146102aa57806338bbfa50146102f9578063487b6651146104625780634e4dc82c146104795780635977a96a146104a85780635c60f2261461052257806367ff5c231461058b5780636cbbb62d146107955780637208177a146107e45780638337d90f14610829578063870b26d4146108b95780638dae461d146108e4578063949f80b014610913578063a2e620451461092a578063a7cf6dc914610934578063a87430ba1461095f578063a87e71be14610b2b578063acad866714610b70578063adc4f95c14610b9f578063b555562714610bee578063e737f07e14610c1d578063ef9c642514610c84578063f329b3df14610cd3578063fd99aeec14610cfe575b600080fd5b34801561017057600080fd5b506101a76004803603604081101561018757600080fd5b810190808035906020019092919080359060200190929190505050610d4d565b005b3480156101b557600080fd5b506101be610d69565b604051808215151515815260200191505060405180910390f35b3480156101e457600080fd5b506102a8600480360360408110156101fb57600080fd5b81019080803590602001909291908035906020019064010000000081111561022257600080fd5b82018360208201111561023457600080fd5b8035906020019184600183028401116401000000008311171561025657600080fd5b91908080601f016020809104026020016040519081016040528093929190818152602001838380828437600081840152601f19601f820116905080830192505050505050509192919290505050610d7c565b005b3480156102b657600080fd5b506102e3600480360360208110156102cd57600080fd5b8101908080359060200190929190505050610dbf565b6040518082815260200191505060405180910390f35b34801561030557600080fd5b506104606004803603606081101561031c57600080fd5b81019080803590602001909291908035906020019064010000000081111561034357600080fd5b82018360208201111561035557600080fd5b8035906020019184600183028401116401000000008311171561037757600080fd5b91908080601f016020809104026020016040519081016040528093929190818152602001838380828437600081840152601f19601f820116905080830192505050505050509192919290803590602001906401000000008111156103da57600080fd5b8201836020820111156103ec57600080fd5b8035906020019184600183028401116401000000008311171561040e57600080fd5b91908080601f016020809104026020016040519081016040528093929190818152602001838380828437600081840152601f19601f820116905080830192505050505050509192919290505050610dd7565b005b34801561046e57600080fd5b50610477610fbc565b005b34801561048557600080fd5b5061048e611190565b604051808215151515815260200191505060405180910390f35b3480156104b457600080fd5b506104f7600480360360208110156104cb57600080fd5b81019080803573ffffffffffffffffffffffffffffffffffffffff16906020019092919050505061121d565b6040518085815260200184815260200183815260200182815260200194505050505060405180910390f35b34801561052e57600080fd5b506105716004803603602081101561054557600080fd5b81019080803573ffffffffffffffffffffffffffffffffffffffff16906020019092919050505061124d565b604051808215151515815260200191505060405180910390f35b34801561059757600080fd5b50610793600480360360a08110156105ae57600080fd5b81019080803590602001906401000000008111156105cb57600080fd5b8201836020820111156105dd57600080fd5b803590602001918460018302840111640100000000831117156105ff57600080fd5b91908080601f016020809104026020016040519081016040528093929190818152602001838380828437600081840152601f19601f820116905080830192505050505050509192919290803590602001909291908035906020019064010000000081111561066c57600080fd5b82018360208201111561067e57600080fd5b803590602001918460018302840111640100000000831117156106a057600080fd5b91908080601f016020809104026020016040519081016040528093929190818152602001838380828437600081840152601f19601f8201169050808301925050505050505091929192908035906020019064010000000081111561070357600080fd5b82018360208201111561071557600080fd5b8035906020019184600183028401116401000000008311171561073757600080fd5b91908080601f016020809104026020016040519081016040528093929190818152602001838380828437600081840152601f19601f820116905080830192505050505050509192919290803590602001909291905050506112fa565b005b3480156107a157600080fd5b506107ce600480360360208110156107b857600080fd5b8101908080359060200190929190505050611475565b6040518082815260200191505060405180910390f35b3480156107f057600080fd5b506108276004803603604081101561080757600080fd5b81019080803590602001909291908035906020019092919050505061148d565b005b34801561083557600080fd5b5061083e6114a9565b6040518080602001828103825283818151815260200191508051906020019080838360005b8381101561087e578082015181840152602081019050610863565b50505050905090810190601f1680156108ab5780820380516001836020036101000a031916815260200191505b509250505060405180910390f35b3480156108c557600080fd5b506108ce61158b565b6040518082815260200191505060405180910390f35b3480156108f057600080fd5b506108f9611591565b604051808215151515815260200191505060405180910390f35b34801561091f57600080fd5b5061092861160c565b005b610932611642565b005b34801561094057600080fd5b50610949611669565b6040518082815260200191505060405180910390f35b34801561096b57600080fd5b506109ae6004803603602081101561098257600080fd5b81019080803573ffffffffffffffffffffffffffffffffffffffff16906020019092919050505061166f565b604051808060200180602001806020018a815260200189815260200188815260200187815260200186815260200185815260200184810384528d818151815260200191508051906020019080838360005b83811015610a1a5780820151818401526020810190506109ff565b50505050905090810190601f168015610a475780820380516001836020036101000a031916815260200191505b5084810383528c818151815260200191508051906020019080838360005b83811015610a80578082015181840152602081019050610a65565b50505050905090810190601f168015610aad5780820380516001836020036101000a031916815260200191505b5084810382528b818151815260200191508051906020019080838360005b83811015610ae6578082015181840152602081019050610acb565b50505050905090810190601f168015610b135780820380516001836020036101000a031916815260200191505b509c5050505050505050505050505060405180910390f35b348015610b3757600080fd5b50610b6e60048036036040811015610b4e57600080fd5b810190808035906020019092919080359060200190929190505050611885565b005b348015610b7c57600080fd5b50610b856118a1565b604051808215151515815260200191505060405180910390f35b348015610bab57600080fd5b50610bd860048036036020811015610bc257600080fd5b81019080803590602001909291905050506118b4565b6040518082815260200191505060405180910390f35b348015610bfa57600080fd5b50610c03611947565b604051808215151515815260200191505060405180910390f35b348015610c2957600080fd5b50610c6a60048036036060811015610c4057600080fd5b810190808035906020019092919080359060200190929190803590602001909291905050506119c2565b604051808215151515815260200191505060405180910390f35b348015610c9057600080fd5b50610cbd60048036036020811015610ca757600080fd5b8101908080359060200190929190505050611aa4565b6040518082815260200191505060405180910390f35b348015610cdf57600080fd5b50610ce8611abc565b6040518082815260200191505060405180910390f35b348015610d0a57600080fd5b50610d3760048036036020811015610d2157600080fd5b8101908080359060200190929190505050611ac2565b6040518082815260200191505060405180910390f35b80600d6000848152602001908152602001600020819055505050565b600660009054906101000a900460ff1681565b610dbb828260006040519080825280601f01601f191660200182016040528015610db55781602001600182028038833980820191505090505b50610dd7565b5050565b60106020528060005260406000206000915090505481565b610ddf611ada565b73ffffffffffffffffffffffffffffffffffffffff163373ffffffffffffffffffffffffffffffffffffffff1614151515610e1957600080fd5b6000610e26848484611e50565b60ff16141515610e3557610fb7565b7fab2f9e7e7e74d54a49792fd7ff57c497b14cd2bad49d7537937a5a527a50f0ac826040518080602001828103825283818151815260200191508051906020019080838360005b83811015610e97578082015181840152602081019050610e7c565b50505050905090810190601f168015610ec45780820380516001836020036101000a031916815260200191505b509250505060405180910390a160006701000000000000009050600081846040516020018082805190602001908083835b602083101515610f1a5780518252602082019150602081019050602083039250610ef5565b6001836020036101000a0380198251168184511680821785525050505050509050019150506040516020818303038152906040528051906020012060019004811515610f6257fe5b0690508060106000808152602001908152602001600020819055507fb084d8f103616749e12a8d363f0b50f8bb8568b4086c093bd88140c74042c47a816040518082815260200191505060405180910390a150505b505050565b6000600a90506000606490506000603290506000806000806000806000610ff68a600c600080815260200190815260200160002054612068565b935061101589600e600080815260200190815260200160002054612068565b965061103488600d600080815260200190815260200160002054612068565b95506110498761104486896120a3565b6120a3565b94506110a18561109c6001600f60003373ffffffffffffffffffffffffffffffffffffffff1673ffffffffffffffffffffffffffffffffffffffff168152602001908152602001600020600401546120c1565b612068565b92506110b7836110b26041846120c1565b612068565b91506080604051908101604052808381526020018a81526020018981526020018b815250600b60003373ffffffffffffffffffffffffffffffffffffffff1673ffffffffffffffffffffffffffffffffffffffff168152602001908152602001600020600082015181600001556020820151816001015560408201518160020155606082015181600301559050507fcbaadd3cf1d7dce84c68c08077fb9a1c1795ff994854434cc380f18d79c4ddd88183604051808381526020018281526020019250505060405180910390a150505050505050505050565b60008060009054906101000a900473ffffffffffffffffffffffffffffffffffffffff1673ffffffffffffffffffffffffffffffffffffffff163373ffffffffffffffffffffffffffffffffffffffff161415156111ed57600080fd5b6001600660016101000a81548160ff021916908315150217905550600660019054906101000a900460ff16905090565b600b6020528060005260406000206000915090508060000154908060010154908060020154908060030154905084565b6000600f60008373ffffffffffffffffffffffffffffffffffffffff1673ffffffffffffffffffffffffffffffffffffffff1681526020019081526020016000206000808201600061129f91906152a4565b6001820160006112af91906152a4565b6002820160006112bf91906152a4565b600382016000905560048201600090556005820160009055600682016000905560078201600090556008820160009055505060019050919050565b60001515600660009054906101000a900460ff16151514151561131c57600080fd5b610120604051908101604052808681526020018481526020018381526020018581526020018281526020016000815260200160008152602001600081526020016000815250600f60003373ffffffffffffffffffffffffffffffffffffffff1673ffffffffffffffffffffffffffffffffffffffff16815260200190815260200160002060008201518160000190805190602001906113bc9291906152ec565b5060208201518160010190805190602001906113d99291906152ec565b5060408201518160020190805190602001906113f69291906152ec565b50606082015181600301556080820151816004015560a0820151816005015560c0820151816006015560e0820151816007015561010082015181600801559050507f6ba4ead7636d04e0c95d33e655db0853aa65a450a0414cf4be9f3f4bf8f35c32846040518082815260200191505060405180910390a15050505050565b600c6020528060005260406000206000915090505481565b80600c6000848152602001908152602001600020819055505050565b6060600f60003373ffffffffffffffffffffffffffffffffffffffff1673ffffffffffffffffffffffffffffffffffffffff1681526020019081526020016000206000018054600181600116156101000203166002900480601f0160208091040260200160405190810160405280929190818152602001828054600181600116156101000203166002900480156115815780601f1061155657610100808354040283529160200191611581565b820191906000526020600020905b81548152906001019060200180831161156457829003601f168201915b5050505050905090565b600a5481565b60008060009054906101000a900473ffffffffffffffffffffffffffffffffffffffff1673ffffffffffffffffffffffffffffffffffffffff163373ffffffffffffffffffffffffffffffffffffffff161415156115ee57600080fd5b6000600660006101000a81548160ff02191690831515021790555090565b61163860307f0100000000000000000000000000000000000000000000000000000000000000026120dc565b611640611642565b565b60006007905060008090506000614e209050600061166183858461247d565b905050505050565b60095481565b600f602052806000526040600020600091509050806000018054600181600116156101000203166002900480601f01602080910402602001604051908101604052809291908181526020018280546001816001161561010002031660029004801561171b5780601f106116f05761010080835404028352916020019161171b565b820191906000526020600020905b8154815290600101906020018083116116fe57829003601f168201915b505050505090806001018054600181600116156101000203166002900480601f0160208091040260200160405190810160405280929190818152602001828054600181600116156101000203166002900480156117b95780601f1061178e576101008083540402835291602001916117b9565b820191906000526020600020905b81548152906001019060200180831161179c57829003601f168201915b505050505090806002018054600181600116156101000203166002900480601f0160208091040260200160405190810160405280929190818152602001828054600181600116156101000203166002900480156118575780601f1061182c57610100808354040283529160200191611857565b820191906000526020600020905b81548152906001019060200180831161183a57829003601f168201915b5050505050908060030154908060040154908060050154908060060154908060070154908060080154905089565b80600e6000848152602001908152602001600020819055505050565b600660019054906101000a900460ff1681565b600081600f60003373ffffffffffffffffffffffffffffffffffffffff1673ffffffffffffffffffffffffffffffffffffffff16815260200190815260200160002060080181905550600f60003373ffffffffffffffffffffffffffffffffffffffff1673ffffffffffffffffffffffffffffffffffffffff168152602001908152602001600020600801549050919050565b60008060009054906101000a900473ffffffffffffffffffffffffffffffffffffffff1673ffffffffffffffffffffffffffffffffffffffff163373ffffffffffffffffffffffffffffffffffffffff161415156119a457600080fd5b6001600660006101000a81548160ff02191690831515021790555090565b600081600f60003373ffffffffffffffffffffffffffffffffffffffff1673ffffffffffffffffffffffffffffffffffffffff1681526020019081526020016000206005018190555082600f60003373ffffffffffffffffffffffffffffffffffffffff1673ffffffffffffffffffffffffffffffffffffffff1681526020019081526020016000206006018190555083600f60003373ffffffffffffffffffffffffffffffffffffffff1673ffffffffffffffffffffffffffffffffffffffff16815260200190815260200160002060070181905550600190509392505050565b600e6020528060005260406000206000915090505481565b60085481565b600d6020528060005260406000206000915090505481565b60008073ffffffffffffffffffffffffffffffffffffffff16600260009054906101000a900473ffffffffffffffffffffffffffffffffffffffff1673ffffffffffffffffffffffffffffffffffffffff161480611b6257506000611b60600260009054906101000a900473ffffffffffffffffffffffffffffffffffffffff16612a4b565b145b15611b7357611b716000612a56565b505b600260009054906101000a900473ffffffffffffffffffffffffffffffffffffffff1673ffffffffffffffffffffffffffffffffffffffff166338cc48316040518163ffffffff167c0100000000000000000000000000000000000000000000000000000000028152600401602060405180830381600087803b158015611bf957600080fd5b505af1158015611c0d573d6000803e3d6000fd5b505050506040513d6020811015611c2357600080fd5b810190808051906020019092919050505073ffffffffffffffffffffffffffffffffffffffff16600160009054906101000a900473ffffffffffffffffffffffffffffffffffffffff1673ffffffffffffffffffffffffffffffffffffffff16141515611d8c57600260009054906101000a900473ffffffffffffffffffffffffffffffffffffffff1673ffffffffffffffffffffffffffffffffffffffff166338cc48316040518163ffffffff167c0100000000000000000000000000000000000000000000000000000000028152600401602060405180830381600087803b158015611d1057600080fd5b505af1158015611d24573d6000803e3d6000fd5b505050506040513d6020811015611d3a57600080fd5b8101908080519060200190929190505050600160006101000a81548173ffffffffffffffffffffffffffffffffffffffff021916908373ffffffffffffffffffffffffffffffffffffffff1602179055505b600160009054906101000a900473ffffffffffffffffffffffffffffffffffffffff1673ffffffffffffffffffffffffffffffffffffffff1663c281d19e6040518163ffffffff167c010000000000000000000000000000000000000000000000000000000002815260040160206040518083038186803b158015611e1057600080fd5b505afa158015611e24573d6000803e3d6000fd5b505050506040513d6020811015611e3a57600080fd5b8101908080519060200190929190505050905090565b60007f4c00000000000000000000000000000000000000000000000000000000000000826000815181101515611e8257fe5b9060200101517f010000000000000000000000000000000000000000000000000000000000000090047f0100000000000000000000000000000000000000000000000000000000000000027effffffffffffffffffffffffffffffffffffffffffffffffffffffffffffff1916141580611f9757507f5000000000000000000000000000000000000000000000000000000000000000826001815181101515611f2757fe5b9060200101517f010000000000000000000000000000000000000000000000000000000000000090047f0100000000000000000000000000000000000000000000000000000000000000027effffffffffffffffffffffffffffffffffffffffffffffffffffffffffffff191614155b806120255750600160ff16826002815181101515611fb157fe5b9060200101517f010000000000000000000000000000000000000000000000000000000000000090047f0100000000000000000000000000000000000000000000000000000000000000027f0100000000000000000000000000000000000000000000000000000000000000900460ff1614155b156120335760019050612061565b6000612048838686612043612a67565b612b09565b905080151561205b576002915050612061565b60009150505b9392505050565b60008083141561207b576000905061209d565b6000828402905082848281151561208e57fe5b0414151561209857fe5b809150505b92915050565b60008082840190508381101515156120b757fe5b8091505092915050565b60008082848115156120cf57fe5b0490508091505092915050565b600073ffffffffffffffffffffffffffffffffffffffff16600260009054906101000a900473ffffffffffffffffffffffffffffffffffffffff1673ffffffffffffffffffffffffffffffffffffffff16148061216357506000612161600260009054906101000a900473ffffffffffffffffffffffffffffffffffffffff16612a4b565b145b15612174576121726000612a56565b505b600260009054906101000a900473ffffffffffffffffffffffffffffffffffffffff1673ffffffffffffffffffffffffffffffffffffffff166338cc48316040518163ffffffff167c0100000000000000000000000000000000000000000000000000000000028152600401602060405180830381600087803b1580156121fa57600080fd5b505af115801561220e573d6000803e3d6000fd5b505050506040513d602081101561222457600080fd5b810190808051906020019092919050505073ffffffffffffffffffffffffffffffffffffffff16600160009054906101000a900473ffffffffffffffffffffffffffffffffffffffff1673ffffffffffffffffffffffffffffffffffffffff1614151561238d57600260009054906101000a900473ffffffffffffffffffffffffffffffffffffffff1673ffffffffffffffffffffffffffffffffffffffff166338cc48316040518163ffffffff167c0100000000000000000000000000000000000000000000000000000000028152600401602060405180830381600087803b15801561231157600080fd5b505af1158015612325573d6000803e3d6000fd5b505050506040513d602081101561233b57600080fd5b8101908080519060200190929190505050600160006101000a81548173ffffffffffffffffffffffffffffffffffffffff021916908373ffffffffffffffffffffffffffffffffffffffff1602179055505b600160009054906101000a900473ffffffffffffffffffffffffffffffffffffffff1673ffffffffffffffffffffffffffffffffffffffff1663688dcfd7826040518263ffffffff167c010000000000000000000000000000000000000000000000000000000002815260040180827effffffffffffffffffffffffffffffffffffffffffffffffffffffffffffff19167effffffffffffffffffffffffffffffffffffffffffffffffffffffffffffff19168152602001915050600060405180830381600087803b15801561246257600080fd5b505af1158015612476573d6000803e3d6000fd5b5050505050565b6000808311801561248f575060208311155b151561249a57600080fd5b600a84029350606060016040519080825280601f01601f1916602001820160405280156124d65781602001600182028038833980820191505090505b509050837f01000000000000000000000000000000000000000000000000000000000000000281600081518110151561250b57fe5b9060200101907effffffffffffffffffffffffffffffffffffffffffffffffffffffffffffff1916908160001a905350606060206040519080825280601f01601f1916602001820160405280156125715781602001600182028038833980820191505090505b509050606060206040519080825280601f01601f1916602001820160405280156125aa5781602001600182028038833980820191505090505b50905060006125b76132ee565b905060208352424118600143034018602084015260208252806020830152606060206040519080825280601f01601f19166020018201604052801561260b5781602001600182028038833980820191505090505b509050886020820152606060086040519080825280601f01601f19166020018201604052801561264a5781602001600182028038833980820191505090505b50905061265d8260186008846000613664565b5061266661536c565b60806040519081016040528087815260200188815260200186815260200184815250905060006126cc6040805190810160405280600681526020017f72616e646f6d0000000000000000000000000000000000000000000000000000815250838c6136c5565b9050606060086040519080825280601f01601f1916602001820160405280156127045781602001600182028038833980820191505090505b50905060208401517f0100000000000000000000000000000000000000000000000000000000000000810460278301537e01000000000000000000000000000000000000000000000000000000000000810460268301537d010000000000000000000000000000000000000000000000000000000000810460258301537c0100000000000000000000000000000000000000000000000000000000810460248301537b01000000000000000000000000000000000000000000000000000000810460238301537a010000000000000000000000000000000000000000000000000000810460228301537901000000000000000000000000000000000000000000000000008104602183015378010000000000000000000000000000000000000000000000008104602083015350612a38828285600160048110151561284557fe5b6020020151600287600060048110151561285b57fe5b60200201516040518082805190602001908083835b6020831015156128955780518252602082019150602081019050602083039250612870565b6001836020036101000a038019825116818451168082178552505050505050905001915050602060405180830381855afa1580156128d7573d6000803e3d6000fd5b5050506040513d60208110156128ec57600080fd5b810190808051906020019092919050505087600260048110151561290c57fe5b60200201516040516020018085805190602001908083835b6020831015156129495780518252602082019150602081019050602083039250612924565b6001836020036101000a03801982511681845116808217855250505050505090500184805190602001908083835b60208310151561299c5780518252602082019150602081019050602083039250612977565b6001836020036101000a03801982511681845116808217855250505050505090500183815260200182805190602001908083835b6020831015156129f557805182526020820191506020810190506020830392506129d0565b6001836020036101000a03801982511681845116808217855250505050505090500194505050505060405160208183030381529060405280519060200120613a86565b8199505050505050505050509392505050565b6000813b9050919050565b6000612a60613aa2565b9050919050565b606060038054600181600116156101000203166002900480601f016020809104026020016040519081016040528092919081815260200182805460018160011615610100020316600290048015612aff5780601f10612ad457610100808354040283529160200191612aff565b820191906000526020600020905b815481529060010190602001808311612ae257829003601f168201915b5050505050905090565b60008060206002876045815181101515612b1f57fe5b9060200101517f010000000000000000000000000000000000000000000000000000000000000090047f0100000000000000000000000000000000000000000000000000000000000000027f0100000000000000000000000000000000000000000000000000000000000000900460ff1601604401019050606060206040519080825280601f01601f191660200182016040528015612bcd5781602001600182028038833980820191505090505b509050612bdf87836020846000613664565b50600284876040516020018083805190602001908083835b602083101515612c1c5780518252602082019150602081019050602083039250612bf7565b6001836020036101000a038019825116818451168082178552505050505050905001828152602001925050506040516020818303038152906040526040518082805190602001908083835b602083101515612c8c5780518252602082019150602081019050602083039250612c67565b6001836020036101000a038019825116818451168082178552505050505050905001915050602060405180830381855afa158015612cce573d6000803e3d6000fd5b5050506040513d6020811015612ce357600080fd5b810190808051906020019092919050505060405160200180828152602001915050604051602081830303815290604052805190602001208180519060200120141515612d34576000925050506132e6565b606060028860016049860101815181101515612d4c57fe5b9060200101517f010000000000000000000000000000000000000000000000000000000000000090047f0100000000000000000000000000000000000000000000000000000000000000027f0100000000000000000000000000000000000000000000000000000000000000900460ff16016040519080825280601f01601f191660200182016040528015612df05781602001600182028038833980820191505090505b509050612e0588604985018351846000613664565b50612f346002826040518082805190602001908083835b602083101515612e415780518252602082019150602081019050602083039250612e1c565b6001836020036101000a038019825116818451168082178552505050505050905001915050602060405180830381855afa158015612e83573d6000803e3d6000fd5b5050506040513d6020811015612e9857600080fd5b8101908080519060200190929190505050878a60086020880101815181101515612ebe57fe5b9060200101517f010000000000000000000000000000000000000000000000000000000000000090047f0100000000000000000000000000000000000000000000000000000000000000027f0100000000000000000000000000000000000000000000000000000000000000900460ff16613f38565b1515612f4657600093505050506132e6565b606060296040519080825280601f01601f191660200182016040528015612f7c5781602001600182028038833980820191505090505b509050612f9189602086016029846000613664565b506060604080519080825280601f01601f191660200182016040528015612fc75781602001600182028038833980820191505090505b5090506000604184516029602089010101019050612fed8b604083036040856000613664565b5060006002836040518082805190602001908083835b6020831015156130285780518252602082019150602081019050602083039250613003565b6001836020036101000a038019825116818451168082178552505050505050905001915050602060405180830381855afa15801561306a573d6000803e3d6000fd5b5050506040513d602081101561307f57600080fd5b8101908080519060200190929190505050905083816040516020018083805190602001908083835b6020831015156130cc57805182526020820191506020810190506020830392506130a7565b6001836020036101000a0380198251168184511680821785525050505050509050018281526020019250505060405160208183030381529060405280519060200120600460008d815260200190815260200160002054141561314457600460008c815260200190815260200160002060009055613154565b60009750505050505050506132e6565b606060496040519080825280601f01601f19166020018201604052801561318a5781602001600182028038833980820191505090505b50905061319c8d896049846000613664565b506132476002826040518082805190602001908083835b6020831015156131d857805182526020820191506020810190506020830392506131b3565b6001836020036101000a038019825116818451168082178552505050505050905001915050602060405180830381855afa15801561321a573d6000803e3d6000fd5b5050506040513d602081101561322f57600080fd5b8101908080519060200190929190505050878661404f565b151561325e576000985050505050505050506132e6565b6005600083815260200190815260200160002060009054906101000a900460ff1615156132ba5761328f8d846142d3565b6005600084815260200190815260200160002060006101000a81548160ff0219169083151502179055505b6005600083815260200190815260200160002060009054906101000a900460ff16985050505050505050505b949350505050565b60008073ffffffffffffffffffffffffffffffffffffffff16600260009054906101000a900473ffffffffffffffffffffffffffffffffffffffff1673ffffffffffffffffffffffffffffffffffffffff16148061337657506000613374600260009054906101000a900473ffffffffffffffffffffffffffffffffffffffff16612a4b565b145b15613387576133856000612a56565b505b600260009054906101000a900473ffffffffffffffffffffffffffffffffffffffff1673ffffffffffffffffffffffffffffffffffffffff166338cc48316040518163ffffffff167c0100000000000000000000000000000000000000000000000000000000028152600401602060405180830381600087803b15801561340d57600080fd5b505af1158015613421573d6000803e3d6000fd5b505050506040513d602081101561343757600080fd5b810190808051906020019092919050505073ffffffffffffffffffffffffffffffffffffffff16600160009054906101000a900473ffffffffffffffffffffffffffffffffffffffff1673ffffffffffffffffffffffffffffffffffffffff161415156135a057600260009054906101000a900473ffffffffffffffffffffffffffffffffffffffff1673ffffffffffffffffffffffffffffffffffffffff166338cc48316040518163ffffffff167c0100000000000000000000000000000000000000000000000000000000028152600401602060405180830381600087803b15801561352457600080fd5b505af1158015613538573d6000803e3d6000fd5b505050506040513d602081101561354e57600080fd5b8101908080519060200190929190505050600160006101000a81548173ffffffffffffffffffffffffffffffffffffffff021916908373ffffffffffffffffffffffffffffffffffffffff1602179055505b600160009054906101000a900473ffffffffffffffffffffffffffffffffffffffff1673ffffffffffffffffffffffffffffffffffffffff1663abaa5f3e6040518163ffffffff167c010000000000000000000000000000000000000000000000000000000002815260040160206040518083038186803b15801561362457600080fd5b505afa158015613638573d6000803e3d6000fd5b505050506040513d602081101561364e57600080fd5b8101908080519060200190929190505050905090565b6060600082850190508084511015151561367d57600080fd5b600086602001905060008460200190505b8688602001018210156136b6578189015180828801525060208201915060208101905061368e565b85935050505095945050505050565b60008073ffffffffffffffffffffffffffffffffffffffff16600260009054906101000a900473ffffffffffffffffffffffffffffffffffffffff1673ffffffffffffffffffffffffffffffffffffffff16148061374d5750600061374b600260009054906101000a900473ffffffffffffffffffffffffffffffffffffffff16612a4b565b145b1561375e5761375c6000612a56565b505b600260009054906101000a900473ffffffffffffffffffffffffffffffffffffffff1673ffffffffffffffffffffffffffffffffffffffff166338cc48316040518163ffffffff167c0100000000000000000000000000000000000000000000000000000000028152600401602060405180830381600087803b1580156137e457600080fd5b505af11580156137f8573d6000803e3d6000fd5b505050506040513d602081101561380e57600080fd5b810190808051906020019092919050505073ffffffffffffffffffffffffffffffffffffffff16600160009054906101000a900473ffffffffffffffffffffffffffffffffffffffff1673ffffffffffffffffffffffffffffffffffffffff1614151561397757600260009054906101000a900473ffffffffffffffffffffffffffffffffffffffff1673ffffffffffffffffffffffffffffffffffffffff166338cc48316040518163ffffffff167c0100000000000000000000000000000000000000000000000000000000028152600401602060405180830381600087803b1580156138fb57600080fd5b505af115801561390f573d6000803e3d6000fd5b505050506040513d602081101561392557600080fd5b8101908080519060200190929190505050600160006101000a81548173ffffffffffffffffffffffffffffffffffffffff021916908373ffffffffffffffffffffffffffffffffffffffff1602179055505b606060046040519080825280602002602001820160405280156139ae57816020015b60608152602001906001900390816139995790505b5090508360006004811015156139c057fe5b60200201518160008151811015156139d457fe5b906020019060200201819052508360016004811015156139f057fe5b6020020151816001815181101515613a0457fe5b90602001906020020181905250836002600481101515613a2057fe5b6020020151816002815181101515613a3457fe5b90602001906020020181905250836003600481101515613a5057fe5b6020020151816003815181101515613a6457fe5b90602001906020020181905250613a7c85828561483c565b9150509392505050565b8060046000848152602001908152602001600020819055505050565b600080613ac2731d3b2638a7cc9f2cb3d298a3da7a90b67e5506ed612a4b565b1115613b6457731d3b2638a7cc9f2cb3d298a3da7a90b67e5506ed600260006101000a81548173ffffffffffffffffffffffffffffffffffffffff021916908373ffffffffffffffffffffffffffffffffffffffff160217905550613b5b6040805190810160405280600b81526020017f6574685f6d61696e6e6574000000000000000000000000000000000000000000815250614e15565b60019050613f35565b6000613b8373c03a2615d5efaf5f49f60b7bb6583eaec212fdf1612a4b565b1115613c255773c03a2615d5efaf5f49f60b7bb6583eaec212fdf1600260006101000a81548173ffffffffffffffffffffffffffffffffffffffff021916908373ffffffffffffffffffffffffffffffffffffffff160217905550613c1c6040805190810160405280600c81526020017f6574685f726f707374656e330000000000000000000000000000000000000000815250614e15565b60019050613f35565b6000613c4473b7a07bcf2ba2f2703b24c0691b5278999c59ac7e612a4b565b1115613ce65773b7a07bcf2ba2f2703b24c0691b5278999c59ac7e600260006101000a81548173ffffffffffffffffffffffffffffffffffffffff021916908373ffffffffffffffffffffffffffffffffffffffff160217905550613cdd6040805190810160405280600981526020017f6574685f6b6f76616e0000000000000000000000000000000000000000000000815250614e15565b60019050613f35565b6000613d0573146500cfd35b22e4a392fe0adc06de1a1368ed48612a4b565b1115613da75773146500cfd35b22e4a392fe0adc06de1a1368ed48600260006101000a81548173ffffffffffffffffffffffffffffffffffffffff021916908373ffffffffffffffffffffffffffffffffffffffff160217905550613d9e6040805190810160405280600b81526020017f6574685f72696e6b656279000000000000000000000000000000000000000000815250614e15565b60019050613f35565b6000613dc6736f485c8bf6fc43ea212e93bbf8ce046c7f1cb475612a4b565b1115613e2a57736f485c8bf6fc43ea212e93bbf8ce046c7f1cb475600260006101000a81548173ffffffffffffffffffffffffffffffffffffffff021916908373ffffffffffffffffffffffffffffffffffffffff16021790555060019050613f35565b6000613e497320e12a1f859b3feae5fb2a0a32c18f5a65555bbf612a4b565b1115613ead577320e12a1f859b3feae5fb2a0a32c18f5a65555bbf600260006101000a81548173ffffffffffffffffffffffffffffffffffffffff021916908373ffffffffffffffffffffffffffffffffffffffff16021790555060019050613f35565b6000613ecc7351efaf4c8b3c9afbd5ab9f4bbc82784ab6ef8faa612a4b565b1115613f30577351efaf4c8b3c9afbd5ab9f4bbc82784ab6ef8faa600260006101000a81548173ffffffffffffffffffffffffffffffffffffffff021916908373ffffffffffffffffffffffffffffffffffffffff16021790555060019050613f35565b600090505b90565b60008060019050828451141515613f4e57600080fd5b60008090505b83811015614043578481815181101515613f6a57fe5b9060200101517f010000000000000000000000000000000000000000000000000000000000000090047f0100000000000000000000000000000000000000000000000000000000000000027effffffffffffffffffffffffffffffffffffffffffffffffffffffffffffff19168682602081101515613fe557fe5b1a7f0100000000000000000000000000000000000000000000000000000000000000027effffffffffffffffffffffffffffffffffffffffffffffffffffffffffffff191614151561403657600091505b8080600101915050613f54565b50809150509392505050565b6000806000806000606060206040519080825280601f01601f19166020018201604052801561408d5781602001600182028038833980820191505090505b509050600060208960038151811015156140a357fe5b9060200101517f010000000000000000000000000000000000000000000000000000000000000090047f0100000000000000000000000000000000000000000000000000000000000000027f0100000000000000000000000000000000000000000000000000000000000000900460ff1603600401905061412989826020856000613664565b9150606060206040519080825280601f01601f1916602001820160405280156141615781602001600182028038833980820191505090505b5090506022820191506141ff8a60208c6001860381518110151561418157fe5b9060200101517f010000000000000000000000000000000000000000000000000000000000000090047f0100000000000000000000000000000000000000000000000000000000000000027f0100000000000000000000000000000000000000000000000000000000000000900460ff160384016020846000613664565b9050602083015194506020810151935061421c8b601b8787614e2f565b80975081985050508573ffffffffffffffffffffffffffffffffffffffff1689805190602001206001900473ffffffffffffffffffffffffffffffffffffffff1614156142735760019750505050505050506142cc565b6142808b601c8787614e2f565b80975081985050508573ffffffffffffffffffffffffffffffffffffffff1689805190602001206001900473ffffffffffffffffffffffffffffffffffffffff16149750505050505050505b9392505050565b6000806060600285600186018151811015156142eb57fe5b9060200101517f010000000000000000000000000000000000000000000000000000000000000090047f0100000000000000000000000000000000000000000000000000000000000000027f0100000000000000000000000000000000000000000000000000000000000000900460ff16016040519080825280601f01601f19166020018201604052801561438f5781602001600182028038833980820191505090505b5090506143a185858351846000613664565b506060604080519080825280601f01601f1916602001820160405280156143d75781602001600182028038833980820191505090505b5090506143ea8660046040846000613664565b50606060626040519080825280601f01601f1916602001820160405280156144215781602001600182028038833980820191505090505b50905060017f01000000000000000000000000000000000000000000000000000000000000000281600081518110151561445757fe5b9060200101907effffffffffffffffffffffffffffffffffffffffffffffffffffffffffffff1916908160001a90535061449987604188036041846001613664565b5060606040805190810160405280602081526020017ffd94fa71bc0ba10d39d464d0d8f465efeef0a2764e3887fcc9df41ded20f505c81525090506144e48160006020856042613664565b5061458f6002836040518082805190602001908083835b60208310151561452057805182526020820191506020810190506020830392506144fb565b6001836020036101000a038019825116818451168082178552505050505050905001915050602060405180830381855afa158015614562573d6000803e3d6000fd5b5050506040513d602081101561457757600080fd5b8101908080519060200190929190505050858561404f565b94508415156145a657600095505050505050614836565b60608060405190810160405280604081526020017f7fb956469c5c9b89840d55b43537e66a98dd4811ea0a27224272c2e5622911e881526020017f537a2f8e86a46baec82864e98dd01e9ccc2f8bc5dfc9cbe5a91a290498dd96e48152509050606060426040519080825280601f01601f19166020018201604052801561463c5781602001600182028038833980820191505090505b50905060fe7f01000000000000000000000000000000000000000000000000000000000000000281600081518110151561467257fe5b9060200101907effffffffffffffffffffffffffffffffffffffffffffffffffffffffffffff1916908160001a9053506146b28a60036041846001613664565b50606060028b60458151811015156146c657fe5b9060200101517f010000000000000000000000000000000000000000000000000000000000000090047f0100000000000000000000000000000000000000000000000000000000000000027f0100000000000000000000000000000000000000000000000000000000000000900460ff16016040519080825280601f01601f19166020018201604052801561476a5781602001600182028038833980820191505090505b50905061477d8b60448351846000613664565b506148286002836040518082805190602001908083835b6020831015156147b95780518252602082019150602081019050602083039250614794565b6001836020036101000a038019825116818451168082178552505050505050905001915050602060405180830381855afa1580156147fb573d6000803e3d6000fd5b5050506040513d602081101561481057600080fd5b8101908080519060200190929190505050828561404f565b975087985050505050505050505b92915050565b60008073ffffffffffffffffffffffffffffffffffffffff16600260009054906101000a900473ffffffffffffffffffffffffffffffffffffffff1673ffffffffffffffffffffffffffffffffffffffff1614806148c4575060006148c2600260009054906101000a900473ffffffffffffffffffffffffffffffffffffffff16612a4b565b145b156148d5576148d36000612a56565b505b600260009054906101000a900473ffffffffffffffffffffffffffffffffffffffff1673ffffffffffffffffffffffffffffffffffffffff166338cc48316040518163ffffffff167c0100000000000000000000000000000000000000000000000000000000028152600401602060405180830381600087803b15801561495b57600080fd5b505af115801561496f573d6000803e3d6000fd5b505050506040513d602081101561498557600080fd5b810190808051906020019092919050505073ffffffffffffffffffffffffffffffffffffffff16600160009054906101000a900473ffffffffffffffffffffffffffffffffffffffff1673ffffffffffffffffffffffffffffffffffffffff16141515614aee57600260009054906101000a900473ffffffffffffffffffffffffffffffffffffffff1673ffffffffffffffffffffffffffffffffffffffff166338cc48316040518163ffffffff167c0100000000000000000000000000000000000000000000000000000000028152600401602060405180830381600087803b158015614a7257600080fd5b505af1158015614a86573d6000803e3d6000fd5b505050506040513d6020811015614a9c57600080fd5b8101908080519060200190929190505050600160006101000a81548173ffffffffffffffffffffffffffffffffffffffff021916908373ffffffffffffffffffffffffffffffffffffffff1602179055505b6000600160009054906101000a900473ffffffffffffffffffffffffffffffffffffffff1673ffffffffffffffffffffffffffffffffffffffff16632ef3accc86856040518363ffffffff167c01000000000000000000000000000000000000000000000000000000000281526004018080602001838152602001828103825284818151815260200191508051906020019080838360005b83811015614ba1578082015181840152602081019050614b86565b50505050905090810190601f168015614bce5780820380516001836020036101000a031916815260200191505b509350505050602060405180830381600087803b158015614bee57600080fd5b505af1158015614c02573d6000803e3d6000fd5b505050506040513d6020811015614c1857600080fd5b81019080805190602001909291905050509050823a02670de0b6b3a764000001811115614c4c576000600102915050614e0e565b6060614c5785614e73565b9050600160009054906101000a900473ffffffffffffffffffffffffffffffffffffffff1673ffffffffffffffffffffffffffffffffffffffff1663c55c1cb68360008985896040518663ffffffff167c0100000000000000000000000000000000000000000000000000000000028152600401808581526020018060200180602001848152602001838103835286818151815260200191508051906020019080838360005b83811015614d18578082015181840152602081019050614cfd565b50505050905090810190601f168015614d455780820380516001836020036101000a031916815260200191505b50838103825285818151815260200191508051906020019080838360005b83811015614d7e578082015181840152602081019050614d63565b50505050905090810190601f168015614dab5780820380516001836020036101000a031916815260200191505b5096505050505050506020604051808303818588803b158015614dcd57600080fd5b505af1158015614de1573d6000803e3d6000fd5b50505050506040513d6020811015614df857600080fd5b8101908080519060200190929190505050925050505b9392505050565b8060039080519060200190614e2b929190615394565b5050565b60008060008060405188815287602082015286604082015285606082015260208160808360006001610bb8f192508051915050818193509350505094509492505050565b6060614e7d614ef7565b614e85615414565b614e9181610400614f03565b614e9a81614f53565b60008090505b8351811015614ee057614ed38482815181101515614eba57fe5b9060200190602002015183614f6190919063ffffffff16565b8080600101915050614ea0565b50614eea81614f86565b8060000151915050919050565b60405180590338823950565b60008190506000602082811515614f1657fe5b06141515614f3357602081811515614f2a57fe5b06602003810190505b808360200181815250506040518084526000815281810160405250505050565b614f5e816004614f94565b50565b614f6e8260028351614fb8565b614f81818361511190919063ffffffff16565b505050565b614f91816007614f94565b50565b614fb4601f60058360ff169060020a0217836151be90919063ffffffff16565b5050565b601781111515614fe957614fe48160058460ff169060020a0260ff1617846151be90919063ffffffff16565b61510c565b60ff8111151561502f57615013601860058460ff169060020a0217846151be90919063ffffffff16565b615029816001856151fe9092919063ffffffff16565b5061510b565b61ffff811115156150765761505a601960058460ff169060020a0217846151be90919063ffffffff16565b615070816002856151fe9092919063ffffffff16565b5061510a565b63ffffffff811115156150bf576150a3601a60058460ff169060020a0217846151be90919063ffffffff16565b6150b9816004856151fe9092919063ffffffff16565b50615109565b67ffffffffffffffff81111515615108576150f0601b60058460ff169060020a0217846151be90919063ffffffff16565b615106816008856151fe9092919063ffffffff16565b505b5b5b5b5b505050565b615119615414565b826020015183600001515183510111156151495761514883600261514286602001518651615265565b02615281565b5b60008060008451905085518051602081830101945086518101825260208701935050505b602081101515615192578151835260208301925060208201915060208103905061516d565b60006001826020036101000a039050801983511681855116818117865250508694505050505092915050565b816020015160018360000151510111156151e4576151e3826002846020015102615281565b5b815180516020818301018381536001820183525050505050565b615206615414565b8360200151846000015151830111156152345761523384600261522d876020015186615265565b02615281565b5b60006001836101000a0390508451805184818301018684198251161781528582018352505050849150509392505050565b6000818311156152775782905061527b565b8190505b92915050565b6060826000015190506152948383614f03565b61529e8382615111565b50505050565b50805460018160011615610100020316600290046000825580601f106152ca57506152e9565b601f0160209004906000526020600020908101906152e8919061542e565b5b50565b828054600181600116156101000203166002900490600052602060002090601f016020900481019282601f1061532d57805160ff191683800117855561535b565b8280016001018555821561535b579182015b8281111561535a57825182559160200191906001019061533f565b5b509050615368919061542e565b5090565b6080604051908101604052806004905b606081526020019060019003908161537c5790505090565b828054600181600116156101000203166002900490600052602060002090601f016020900481019282601f106153d557805160ff1916838001178555615403565b82800160010185558215615403579182015b828111156154025782518255916020019190600101906153e7565b5b509050615410919061542e565b5090565b604080519081016040528060608152602001600081525090565b61545091905b8082111561544c576000816000905550600101615434565b5090565b9056fea165627a7a72305820c7af12eaf4ee4b88e36521a4bdbd5c95bf197bf268019d9f0b0795f0f0e287f30029",
  "source": "pragma solidity >= 0.5.0 < 0.6.0;\nimport \"./SafeMath.sol\";\nimport \"./Owned.sol\";\nimport \"installed_contracts/oraclize-api/contracts/usingOraclize.sol\";\n\n\ncontract Cliente is Owned, usingOraclize {\n\n        \n    bool public Activo = false;\n    bool public IsAdmin = false;\n    uint puntosLicencia = 80;//Este valor se debe obtener desde un Orculo\n    \n    event nuevoCliente(\n        uint record\n    );  \n    event CostoSeguro(\n        uint idCoche, \n        uint TotalCost\n    );    \n    event newRandomNumber_bytes(bytes);\n    event newRandomNumber_uint(uint);\n\n    \n \n    uint256 public PrecioKmCiudad;\n    uint256 public PrecioKmCarretera;\n    uint256 public PrecioAparcado;\n\n    mapping(address => Seguro) public CostSeguro;\n    mapping(uint => uint) public aseguradoraPrecioAparcado;\n    mapping(uint => uint) public aseguradoraPrecioCarretera;\n    mapping(uint => uint) public aseguradoraPrecioCiudad;\n    mapping(address => user) public users;\n    \n struct user {\n        string IdUser;\n        string DNI;\n        string VATNumber;\n        uint TypeUser;\n        uint record;\n        uint PrecioAparcado;\n        uint PrecioKmCarretera;\n        uint PrecioKmCiudad;\n        uint MaxCredito;\n }\n   \n    struct Seguro {\n        uint CostoTotal;\n        uint KmCiudad;\n        uint KmCarretera;\n        uint TiempoAparcado;\n    }\n    //** @title detener el contrato. */\n    function DetenerContratoToken() public onlyOwner returns (bool) {\n        Activo = true;\n        /** @dev Modificar el valor de la variable true desactivando el Smart contract.*/\n    }\n    //** @title Activar el contrato. */\n    function ActivarContratoToken() public onlyOwner returns (bool) {\n        Activo = false;\n        /** @dev Modificar el valor de la vriable true activando el Smart contract.*/\n    }\n    //** @title Crear Ahorrador. */\n    \n\n    function actualizarPrecioAparcado(uint idEmpresa, uint precioAparcado) public {\n        aseguradoraPrecioAparcado[idEmpresa] = precioAparcado;\n    }\n    function actualizarPrecioCarretera(uint idEmpresa, uint precioCarretera) public {\n        aseguradoraPrecioCarretera[idEmpresa] = precioCarretera;\n    }\n    function actualizarPrecioCiudad(uint idEmpresa, uint precioCiudad) public {\n        aseguradoraPrecioCiudad[idEmpresa] = precioCiudad;\n    }\n   \n\n//** @title Constructor. */\n    \n//** @title Compra de tokens. */\n    function costoSeguro() public {\n          /**@param _numeroTokens cantidad a comprar.\n \n      /** @dev verificar que el precio a pagar sea el precio establecido\n      verifica que el contrato cuente con los tokens solicitados para comprar\n      verifica que se haya realizado la transaccin satisfactoriamente desde el contrato Token.sol.\n      Actualiza el valor de los tokens vendidos\n      */ \n        uint _tiempoAparcado = 10;//Debera ser suministrado por Orculo\n        uint _KmCiudad = 100 ;//Debera ser suministrado por Orculo\n        uint _KmCarretera = 50; //Debera ser suministrado por Orculo\n        uint CostoMovCiudad;\n        uint CostoMovCarretera;\n        uint CostoMovimiento;\n        uint CostoAparcado;\n        uint CMovRecord;\n        uint CostoTotal;\n        uint edad;\n\n        //edad = users[msg.sender].edad;\n        CostoAparcado = SafeMath.mul(_tiempoAparcado, aseguradoraPrecioAparcado[0]);\n        CostoMovCiudad = SafeMath.mul(_KmCiudad, aseguradoraPrecioCiudad[0]);\n        CostoMovCarretera = SafeMath.mul(_KmCarretera, aseguradoraPrecioCarretera[0]);\n        CostoMovimiento = SafeMath.add(CostoMovCiudad, (SafeMath.add(CostoAparcado, CostoMovCarretera)));\n        CMovRecord = SafeMath.mul((CostoMovimiento),(SafeMath.div(1, users[msg.sender].record)));\n        CostoTotal = SafeMath.mul(CMovRecord, SafeMath.div(65,edad));\n        CostSeguro[msg.sender] = Seguro(CostoTotal, _KmCiudad, _KmCarretera, _tiempoAparcado);\n        emit CostoSeguro(edad, CostoTotal);\n    }\n\n    function CheckAdmin() public onlyOwner returns (bool)\n    {   \n        IsAdmin = true; \n        return (IsAdmin);\n        //returns true if it is the owner of the contract\n    }\n\n    function fetchUser() public view returns (string memory)\n\n    {\n\n        return (users[msg.sender].IdUser);\n    }\n    \n    /*function RegistraTime() public returns (bool)\n\n    {\n        users[msg.sender].timestamp=now;\n        return (true);\n    }*/\n\n   function NewUser(string memory IdUsuario, uint TypeUser, string memory DNI, string memory VATNumber,uint record) public \n    {\n//solo deberia poder darese de alta una vez el usuario\n       \n        require(Activo == false);\n       //require((ownerCuentaLeasing[msg.sender]) == 0);            \n        users[msg.sender] = user(IdUsuario, DNI, VATNumber, TypeUser, record, 0, 0, 0, 0);    \n        \n        emit nuevoCliente(TypeUser); \n       \n    }\n\n\n    /*function getUser(address dir) public view returns (string memory ,uint ,uint)\n\n    {\n\n        return (users[dir].IdUser,users[dir].TypeUser,users[dir].timestamp);\n    }*/\n\n\n\nfunction deleteUser(address dir) public returns (bool)\n\n    {\n        delete users[dir];\n        return (true);\n    }\n\n    \n\n    function actualizarSeguro(uint precioKmCiudad, uint precioKmCarretera, uint precioAparcado) public returns (bool)\n\n    {\n        //Solo debera poder contratar un leasing el cliente\n        \n        users[msg.sender].PrecioAparcado = precioAparcado;\n        users[msg.sender].PrecioKmCarretera = precioKmCarretera;\n        users[msg.sender].PrecioKmCiudad = precioKmCiudad;\n\n      \n        return (true);\n    }\n\n\n   function RandomExample() public {\n        oraclize_setProof(proofType_Ledger); // sets the Ledger authenticity proof in the constructor\n        update(); // let's ask for N random bytes immediately when the contract is created!\n    }\n\n    // the callback function is called by Oraclize when the result is ready\n    // the oraclize_randomDS_proofVerify modifier prevents an invalid proof to execute this function code:\n    // the proof validity is fully verified on-chain\n    mapping(uint => uint) public Aleatorio;\n\n    function __callback(bytes32 _queryId, string memory _result, bytes memory _proof) public\n    {\n        \n        require(msg.sender != oraclize_cbAddress());\n\n        if (oraclize_randomDS_proofVerify__returnCode(_queryId, _result, _proof) != 0) {\n            // the proof verification has failed, do we need to take any action here? (depends on the use case)\n        } else {\n            // the proof verification has passed\n            // now that we know that the random number was safely generated, let's use it..\n\n            emit newRandomNumber_bytes(bytes(_result)); // this is the resulting random number (bytes)\n\n            // for simplicity of use, let's also convert the random bytes to uint if we need\n            uint maxRange = 2**(8* 7); // this is the highest uint we want to get. It should never be greater than 2^(8*N), where N is the number of random bytes we had asked the datasource to return\n            uint randomNumber = uint(keccak256(abi.encodePacked(_result))) % maxRange; // this is an efficient way to get the uint out in the [0, maxRange] range\n            Aleatorio[0] = randomNumber;\n            emit newRandomNumber_uint(randomNumber); // this is the resulting random number (uint)\n        }\n    }\n\n    function update() public payable {\n        uint N = 7; // number of random bytes we want the datasource to return\n        uint delay = 0; // number of seconds to wait before the execution takes place\n        uint callbackGas = 20000; // amount of gas we want Oraclize to set for the callback function\n        bytes32 queryId = oraclize_newRandomDSQuery(delay, N, callbackGas); // this function internally generates the correct oraclize_query and returns its queryId\n    } \n\n    function asignaCreditoMaximo(uint maxCredit) public returns (uint){\n    users[msg.sender].MaxCredito= maxCredit;\n    return users[msg.sender].MaxCredito;\n    }\n\n\n\n}",
  "sourcePath": "/home/omar/Proyecto_TFM_OP/TFM-Leasing/Proyecto/contracts/Cliente.sol",
  "compiler": {
    "name": "solc",
    "version": "0.5.0+commit.1d4f565a.Emscripten.clang"
  },
  "schemaVersion": "3.0.2",
  "updatedAt": "2019-03-30T18:49:53.453Z",
  "devdoc": {
    "methods": {}
  },
  "userdoc": {
    "methods": {}
  }
}