{
  "contractName": "Cliente",
  "abi": [
    {
      "constant": true,
      "inputs": [
        {
          "name": "",
          "type": "address"
        }
      ],
      "name": "IdEmpresa",
      "outputs": [
        {
          "name": "",
          "type": "uint256"
        }
      ],
      "payable": false,
      "stateMutability": "view",
      "type": "function",
      "signature": "0x0cb99e5f"
    },
    {
      "constant": true,
      "inputs": [],
      "name": "Activo",
      "outputs": [
        {
          "name": "",
          "type": "bool"
        }
      ],
      "payable": false,
      "stateMutability": "view",
      "type": "function",
      "signature": "0x12029e60"
    },
    {
      "constant": true,
      "inputs": [],
      "name": "tipoSeguroXDefecto",
      "outputs": [
        {
          "name": "",
          "type": "string"
        }
      ],
      "payable": false,
      "stateMutability": "view",
      "type": "function",
      "signature": "0x261e07f5"
    },
    {
      "constant": true,
      "inputs": [
        {
          "name": "",
          "type": "address"
        }
      ],
      "name": "ownerCuentaLeasing",
      "outputs": [
        {
          "name": "",
          "type": "uint256"
        }
      ],
      "payable": false,
      "stateMutability": "view",
      "type": "function",
      "signature": "0x3968cc47"
    },
    {
      "constant": true,
      "inputs": [
        {
          "name": "",
          "type": "address"
        }
      ],
      "name": "CostSeguro",
      "outputs": [
        {
          "name": "CostoTotal",
          "type": "uint256"
        },
        {
          "name": "KmCiudad",
          "type": "uint256"
        },
        {
          "name": "KmCarretera",
          "type": "uint256"
        },
        {
          "name": "TiempoAparcado",
          "type": "uint256"
        }
      ],
      "payable": false,
      "stateMutability": "view",
      "type": "function",
      "signature": "0x5977a96a"
    },
    {
      "constant": true,
      "inputs": [
        {
          "name": "",
          "type": "uint256"
        }
      ],
      "name": "aseguradoraPrecioAparcado",
      "outputs": [
        {
          "name": "",
          "type": "uint256"
        }
      ],
      "payable": false,
      "stateMutability": "view",
      "type": "function",
      "signature": "0x6cbbb62d"
    },
    {
      "constant": true,
      "inputs": [
        {
          "name": "",
          "type": "address"
        }
      ],
      "name": "clientes",
      "outputs": [
        {
          "name": "nombre",
          "type": "string"
        },
        {
          "name": "edad",
          "type": "uint256"
        },
        {
          "name": "idLicencia",
          "type": "string"
        },
        {
          "name": "AntiguedadLicencia",
          "type": "uint256"
        },
        {
          "name": "Seguro",
          "type": "bool"
        },
        {
          "name": "idCoche",
          "type": "string"
        },
        {
          "name": "credito",
          "type": "bool"
        },
        {
          "name": "recordCliente",
          "type": "uint256"
        },
        {
          "name": "leasing",
          "type": "bool"
        }
      ],
      "payable": false,
      "stateMutability": "view",
      "type": "function",
      "signature": "0x74b23349"
    },
    {
      "constant": true,
      "inputs": [],
      "name": "PrecioAparcado",
      "outputs": [
        {
          "name": "",
          "type": "uint256"
        }
      ],
      "payable": false,
      "stateMutability": "view",
      "type": "function",
      "signature": "0x870b26d4"
    },
    {
      "constant": true,
      "inputs": [],
      "name": "idCocheXDefecto",
      "outputs": [
        {
          "name": "",
          "type": "string"
        }
      ],
      "payable": false,
      "stateMutability": "view",
      "type": "function",
      "signature": "0xa645b277"
    },
    {
      "constant": true,
      "inputs": [],
      "name": "PrecioKmCarretera",
      "outputs": [
        {
          "name": "",
          "type": "uint256"
        }
      ],
      "payable": false,
      "stateMutability": "view",
      "type": "function",
      "signature": "0xa7cf6dc9"
    },
    {
      "constant": true,
      "inputs": [],
      "name": "IsAdmin",
      "outputs": [
        {
          "name": "",
          "type": "bool"
        }
      ],
      "payable": false,
      "stateMutability": "view",
      "type": "function",
      "signature": "0xacad8667"
    },
    {
      "constant": true,
      "inputs": [
        {
          "name": "",
          "type": "uint256"
        }
      ],
      "name": "adminAseguradora",
      "outputs": [
        {
          "name": "",
          "type": "address"
        }
      ],
      "payable": false,
      "stateMutability": "view",
      "type": "function",
      "signature": "0xec2c9d99"
    },
    {
      "constant": true,
      "inputs": [
        {
          "name": "",
          "type": "uint256"
        }
      ],
      "name": "aseguradoraPrecioCiudad",
      "outputs": [
        {
          "name": "",
          "type": "uint256"
        }
      ],
      "payable": false,
      "stateMutability": "view",
      "type": "function",
      "signature": "0xef9c6425"
    },
    {
      "constant": true,
      "inputs": [],
      "name": "PrecioKmCiudad",
      "outputs": [
        {
          "name": "",
          "type": "uint256"
        }
      ],
      "payable": false,
      "stateMutability": "view",
      "type": "function",
      "signature": "0xf329b3df"
    },
    {
      "constant": true,
      "inputs": [
        {
          "name": "",
          "type": "uint256"
        }
      ],
      "name": "aseguradoraPrecioCarretera",
      "outputs": [
        {
          "name": "",
          "type": "uint256"
        }
      ],
      "payable": false,
      "stateMutability": "view",
      "type": "function",
      "signature": "0xfd99aeec"
    },
    {
      "anonymous": false,
      "inputs": [
        {
          "indexed": false,
          "name": "idLicencia",
          "type": "string"
        },
        {
          "indexed": false,
          "name": "antiguedadLicencia",
          "type": "uint256"
        },
        {
          "indexed": false,
          "name": "record",
          "type": "uint256"
        }
      ],
      "name": "nuevoCliente",
      "type": "event",
      "signature": "0xabb347fe1e309ec2decea659ebd5f04813d4f1a66986b2639881814e26b3601f"
    },
    {
      "anonymous": false,
      "inputs": [
        {
          "indexed": false,
          "name": "idCoche",
          "type": "uint256"
        },
        {
          "indexed": false,
          "name": "TotalCost",
          "type": "uint256"
        }
      ],
      "name": "CostoSeguro",
      "type": "event",
      "signature": "0xcbaadd3cf1d7dce84c68c08077fb9a1c1795ff994854434cc380f18d79c4ddd8"
    },
    {
      "constant": false,
      "inputs": [],
      "name": "DetenerContratoToken",
      "outputs": [
        {
          "name": "",
          "type": "bool"
        }
      ],
      "payable": false,
      "stateMutability": "nonpayable",
      "type": "function",
      "signature": "0xb5555627"
    },
    {
      "constant": false,
      "inputs": [],
      "name": "ActivarContratoToken",
      "outputs": [
        {
          "name": "",
          "type": "bool"
        }
      ],
      "payable": false,
      "stateMutability": "nonpayable",
      "type": "function",
      "signature": "0x8dae461d"
    },
    {
      "constant": false,
      "inputs": [
        {
          "name": "nombre",
          "type": "string"
        },
        {
          "name": "edad",
          "type": "uint256"
        },
        {
          "name": "idLicencia",
          "type": "string"
        },
        {
          "name": "antiguedadLicencia",
          "type": "uint256"
        }
      ],
      "name": "crearCliente",
      "outputs": [],
      "payable": false,
      "stateMutability": "nonpayable",
      "type": "function",
      "signature": "0x4cf35650"
    },
    {
      "constant": false,
      "inputs": [
        {
          "name": "precioAparcado",
          "type": "uint256"
        }
      ],
      "name": "actualizarPrecioAparcado",
      "outputs": [],
      "payable": false,
      "stateMutability": "nonpayable",
      "type": "function",
      "signature": "0x36f8d582"
    },
    {
      "constant": false,
      "inputs": [
        {
          "name": "precioCarretera",
          "type": "uint256"
        }
      ],
      "name": "actualizarPrecioCarretera",
      "outputs": [],
      "payable": false,
      "stateMutability": "nonpayable",
      "type": "function",
      "signature": "0x7186d445"
    },
    {
      "constant": false,
      "inputs": [
        {
          "name": "precioCiudad",
          "type": "uint256"
        }
      ],
      "name": "actualizarPrecioCiudad",
      "outputs": [],
      "payable": false,
      "stateMutability": "nonpayable",
      "type": "function",
      "signature": "0xd61b388d"
    },
    {
      "constant": false,
      "inputs": [],
      "name": "costoSeguro",
      "outputs": [],
      "payable": false,
      "stateMutability": "nonpayable",
      "type": "function",
      "signature": "0x487b6651"
    },
    {
      "constant": false,
      "inputs": [],
      "name": "CheckAdmin",
      "outputs": [
        {
          "name": "",
          "type": "bool"
        }
      ],
      "payable": false,
      "stateMutability": "nonpayable",
      "type": "function",
      "signature": "0x4e4dc82c"
    }
  ],
  "bytecode": "0x608060405260008060146101000a81548160ff02191690831515021790555060008060156101000a81548160ff02191690831515021790555060086001556040805190810160405280600281526020017f3041000000000000000000000000000000000000000000000000000000000000815250600290805190602001906200008a9291906200012e565b506040805190810160405280600281526020017f304100000000000000000000000000000000000000000000000000000000000081525060039080519060200190620000d89291906200012e565b50600a60105560646011556032601255336000806101000a81548173ffffffffffffffffffffffffffffffffffffffff021916908373ffffffffffffffffffffffffffffffffffffffff160217905550620001dd565b828054600181600116156101000203166002900490600052602060002090601f016020900481019282601f106200017157805160ff1916838001178555620001a2565b82800160010185558215620001a2579182015b82811115620001a157825182559160200191906001019062000184565b5b509050620001b19190620001b5565b5090565b620001da91905b80821115620001d6576000816000905550600101620001bc565b5090565b90565b61169e80620001ed6000396000f300608060405260043610610133576000357c0100000000000000000000000000000000000000000000000000000000900463ffffffff1680630cb99e5f1461013857806312029e601461018f578063261e07f5146101be57806336f8d5821461024e5780633968cc471461027b578063487b6651146102d25780634cf35650146102e95780634e4dc82c146103ac5780635977a96a146103db5780636cbbb62d146104475780637186d4451461048857806374b23349146104b5578063870b26d41461067f5780638dae461d146106aa578063a645b277146106d9578063a7cf6dc914610769578063acad866714610794578063b5555627146107c3578063d61b388d146107f2578063ec2c9d991461081f578063ef9c64251461088c578063f329b3df146108cd578063fd99aeec146108f8575b600080fd5b34801561014457600080fd5b50610179600480360381019080803573ffffffffffffffffffffffffffffffffffffffff169060200190929190505050610939565b6040518082815260200191505060405180910390f35b34801561019b57600080fd5b506101a4610951565b604051808215151515815260200191505060405180910390f35b3480156101ca57600080fd5b506101d3610964565b6040518080602001828103825283818151815260200191508051906020019080838360005b838110156102135780820151818401526020810190506101f8565b50505050905090810190601f1680156102405780820380516001836020036101000a031916815260200191505b509250505060405180910390f35b34801561025a57600080fd5b5061027960048036038101908080359060200190929190505050610a02565b005b34801561028757600080fd5b506102bc600480360381019080803573ffffffffffffffffffffffffffffffffffffffff169060200190929190505050610a1d565b6040518082815260200191505060405180910390f35b3480156102de57600080fd5b506102e7610a35565b005b3480156102f557600080fd5b506103aa600480360381019080803590602001908201803590602001908080601f016020809104026020016040519081016040528093929190818152602001838380828437820191505050505050919291929080359060200190929190803590602001908201803590602001908080601f016020809104026020016040519081016040528093929190818152602001838380828437820191505050505050919291929080359060200190929190505050610c45565b005b3480156103b857600080fd5b506103c1610ff6565b604051808215151515815260200191505060405180910390f35b3480156103e757600080fd5b5061041c600480360381019080803573ffffffffffffffffffffffffffffffffffffffff169060200190929190505050611083565b6040518085815260200184815260200183815260200182815260200194505050505060405180910390f35b34801561045357600080fd5b50610472600480360381019080803590602001909291905050506110b3565b6040518082815260200191505060405180910390f35b34801561049457600080fd5b506104b3600480360381019080803590602001909291905050506110cb565b005b3480156104c157600080fd5b506104f6600480360381019080803573ffffffffffffffffffffffffffffffffffffffff1690602001909291905050506110e6565b60405180806020018a8152602001806020018981526020018815151515815260200180602001871515151581526020018681526020018515151515815260200184810384528d818151815260200191508051906020019080838360005b8381101561056e578082015181840152602081019050610553565b50505050905090810190601f16801561059b5780820380516001836020036101000a031916815260200191505b5084810383528b818151815260200191508051906020019080838360005b838110156105d45780820151818401526020810190506105b9565b50505050905090810190601f1680156106015780820380516001836020036101000a031916815260200191505b50848103825288818151815260200191508051906020019080838360005b8381101561063a57808201518184015260208101905061061f565b50505050905090810190601f1680156106675780820380516001836020036101000a031916815260200191505b509c5050505050505050505050505060405180910390f35b34801561068b57600080fd5b50610694611323565b6040518082815260200191505060405180910390f35b3480156106b657600080fd5b506106bf611329565b604051808215151515815260200191505060405180910390f35b3480156106e557600080fd5b506106ee6113a3565b6040518080602001828103825283818151815260200191508051906020019080838360005b8381101561072e578082015181840152602081019050610713565b50505050905090810190601f16801561075b5780820380516001836020036101000a031916815260200191505b509250505060405180910390f35b34801561077557600080fd5b5061077e611441565b6040518082815260200191505060405180910390f35b3480156107a057600080fd5b506107a9611447565b604051808215151515815260200191505060405180910390f35b3480156107cf57600080fd5b506107d861145a565b604051808215151515815260200191505060405180910390f35b3480156107fe57600080fd5b5061081d600480360381019080803590602001909291905050506114d5565b005b34801561082b57600080fd5b5061084a600480360381019080803590602001909291905050506114f0565b604051808273ffffffffffffffffffffffffffffffffffffffff1673ffffffffffffffffffffffffffffffffffffffff16815260200191505060405180910390f35b34801561089857600080fd5b506108b760048036038101908080359060200190929190505050611523565b6040518082815260200191505060405180910390f35b3480156108d957600080fd5b506108e261153b565b6040518082815260200191505060405180910390f35b34801561090457600080fd5b5061092360048036038101908080359060200190929190505050611541565b6040518082815260200191505060405180910390f35b600f6020528060005260406000206000915090505481565b600060149054906101000a900460ff1681565b60028054600181600116156101000203166002900480601f0160208091040260200160405190810160405280929190818152602001828054600181600116156101000203166002900480156109fa5780601f106109cf576101008083540402835291602001916109fa565b820191906000526020600020905b8154815290600101906020018083116109dd57829003601f168201915b505050505081565b80600b60008081526020019081526020016000208190555050565b600a6020528060005260406000206000915090505481565b6000806000806000806000600960003373ffffffffffffffffffffffffffffffffffffffff1673ffffffffffffffffffffffffffffffffffffffff168152602001908152602001600020600101549050610aa4601054600b600080815260200190815260200160002054611559565b9350610ac5601154600d600080815260200190815260200160002054611559565b9650610ae6601254600c600080815260200190815260200160002054611559565b9550610afb87610af68689611594565b611594565b9450610b5385610b4e6001600960003373ffffffffffffffffffffffffffffffffffffffff1673ffffffffffffffffffffffffffffffffffffffff168152602001908152602001600020600701546115b2565b611559565b9250610b6983610b646041846115b2565b611559565b915060806040519081016040528083815260200160115481526020016012548152602001601054815250600860003373ffffffffffffffffffffffffffffffffffffffff1673ffffffffffffffffffffffffffffffffffffffff168152602001908152602001600020600082015181600001556020820151816001015560408201518160020155606082015181600301559050507fcbaadd3cf1d7dce84c68c08077fb9a1c1795ff994854434cc380f18d79c4ddd88183604051808381526020018281526020019250505060405180910390a150505050505050565b6000801515600060149054906101000a900460ff161515141515610c6857600080fd5b600382111515610c8657610c7f60015460086115b2565b9050610cf8565b60068210158015610c98575060098210155b15610cb157610caa600154600c6115b2565b9050610cf7565b60098210158015610cc35750600c8211155b15610cdc57610cd5600154600e6115b2565b9050610cf6565b600f821115610cf557610cf2600154600f6115b2565b90505b5b5b5b6101206040519081016040528086815260200185815260200184815260200183815260200160001515815260200160038054600181600116156101000203166002900480601f016020809104026020016040519081016040528092919081815260200182805460018160011615610100020316600290048015610dbc5780601f10610d9157610100808354040283529160200191610dbc565b820191906000526020600020905b815481529060010190602001808311610d9f57829003601f168201915b5050505050815260200160001515815260200182815260200160001515815250600960003373ffffffffffffffffffffffffffffffffffffffff1673ffffffffffffffffffffffffffffffffffffffff1681526020019081526020016000206000820151816000019080519060200190610e379291906115cd565b50602082015181600101556040820151816002019080519060200190610e5e9291906115cd565b506060820151816003015560808201518160040160006101000a81548160ff02191690831515021790555060a0820151816005019080519060200190610ea59291906115cd565b5060c08201518160060160006101000a81548160ff02191690831515021790555060e082015181600701556101008201518160080160006101000a81548160ff021916908315150217905550905050600a60003373ffffffffffffffffffffffffffffffffffffffff1673ffffffffffffffffffffffffffffffffffffffff168152602001908152602001600020600081548092919060010191905055507fabb347fe1e309ec2decea659ebd5f04813d4f1a66986b2639881814e26b3601f8383836040518080602001848152602001838152602001828103825285818151815260200191508051906020019080838360005b83811015610fb3578082015181840152602081019050610f98565b50505050905090810190601f168015610fe05780820380516001836020036101000a031916815260200191505b5094505050505060405180910390a15050505050565b60008060009054906101000a900473ffffffffffffffffffffffffffffffffffffffff1673ffffffffffffffffffffffffffffffffffffffff163373ffffffffffffffffffffffffffffffffffffffff1614151561105357600080fd5b6001600060156101000a81548160ff021916908315150217905550600060159054906101000a900460ff16905090565b60086020528060005260406000206000915090508060000154908060010154908060020154908060030154905084565b600b6020528060005260406000206000915090505481565b80600c60008081526020019081526020016000208190555050565b6009602052806000526040600020600091509050806000018054600181600116156101000203166002900480601f0160208091040260200160405190810160405280929190818152602001828054600181600116156101000203166002900480156111925780601f1061116757610100808354040283529160200191611192565b820191906000526020600020905b81548152906001019060200180831161117557829003601f168201915b505050505090806001015490806002018054600181600116156101000203166002900480601f0160208091040260200160405190810160405280929190818152602001828054600181600116156101000203166002900480156112365780601f1061120b57610100808354040283529160200191611236565b820191906000526020600020905b81548152906001019060200180831161121957829003601f168201915b5050505050908060030154908060040160009054906101000a900460ff1690806005018054600181600116156101000203166002900480601f0160208091040260200160405190810160405280929190818152602001828054600181600116156101000203166002900480156112ed5780601f106112c2576101008083540402835291602001916112ed565b820191906000526020600020905b8154815290600101906020018083116112d057829003601f168201915b5050505050908060060160009054906101000a900460ff16908060070154908060080160009054906101000a900460ff16905089565b60075481565b60008060009054906101000a900473ffffffffffffffffffffffffffffffffffffffff1673ffffffffffffffffffffffffffffffffffffffff163373ffffffffffffffffffffffffffffffffffffffff1614151561138657600080fd5b60008060146101000a81548160ff02191690831515021790555090565b60038054600181600116156101000203166002900480601f0160208091040260200160405190810160405280929190818152602001828054600181600116156101000203166002900480156114395780601f1061140e57610100808354040283529160200191611439565b820191906000526020600020905b81548152906001019060200180831161141c57829003601f168201915b505050505081565b60065481565b600060159054906101000a900460ff1681565b60008060009054906101000a900473ffffffffffffffffffffffffffffffffffffffff1673ffffffffffffffffffffffffffffffffffffffff163373ffffffffffffffffffffffffffffffffffffffff161415156114b757600080fd5b6001600060146101000a81548160ff02191690831515021790555090565b80600d60008081526020019081526020016000208190555050565b600e6020528060005260406000206000915054906101000a900473ffffffffffffffffffffffffffffffffffffffff1681565b600d6020528060005260406000206000915090505481565b60055481565b600c6020528060005260406000206000915090505481565b600080600084141561156e576000915061158d565b828402905082848281151561157f57fe5b0414151561158957fe5b8091505b5092915050565b60008082840190508381101515156115a857fe5b8091505092915050565b60008082848115156115c057fe5b0490508091505092915050565b828054600181600116156101000203166002900490600052602060002090601f016020900481019282601f1061160e57805160ff191683800117855561163c565b8280016001018555821561163c579182015b8281111561163b578251825591602001919060010190611620565b5b509050611649919061164d565b5090565b61166f91905b8082111561166b576000816000905550600101611653565b5090565b905600a165627a7a723058200638be8eee5d678bfafeab852f9231a05a5701484c891f9d69b0b6eeb7afb57c0029",
  "source": "pragma solidity ^0.4.2;\nimport \"./SafeMath.sol\";\nimport \"./Owned.sol\";\n\n\ncontract Cliente is Owned {\n\n    bool public Activo = false;\n    bool public IsAdmin = false;\n    uint puntosLicencia = 8;\n    \n    event nuevoCliente(\n        string idLicencia, \n        uint antiguedadLicencia,\n        uint record\n    );  \n    event CostoSeguro(\n        uint idCoche, \n        uint TotalCost\n    );    \n    string public tipoSeguroXDefecto = \"0A\";\n    string public idCocheXDefecto = \"0A\";\n    address admin;    \n    uint256 public PrecioKmCiudad;\n    uint256 public PrecioKmCarretera;\n    uint256 public PrecioAparcado;\n\n    mapping(address => Seguro) public CostSeguro;\n    mapping(address => cliente) public clientes;\n    mapping(address => uint) public ownerCuentaLeasing;\n    mapping(uint => uint) public aseguradoraPrecioAparcado;\n    mapping(uint => uint) public aseguradoraPrecioCarretera;\n    mapping(uint => uint) public aseguradoraPrecioCiudad;\n    mapping(uint => address) public adminAseguradora;\n    mapping(address => uint) public IdEmpresa;\n\n    struct cliente {\n        string nombre;\n        uint edad;\n        string idLicencia;\n        uint AntiguedadLicencia;\n        bool Seguro;\n        string idCoche; \n        bool credito;\n        uint recordCliente;\n        bool leasing;\n    }\n    struct Seguro {\n        uint CostoTotal;\n        uint KmCiudad;\n        uint KmCarretera;\n        uint TiempoAparcado;\n    }\n    //** @title detener el contrato. */\n    function DetenerContratoToken() public onlyOwner returns (bool) {\n        Activo = true;\n        /** @dev Modificar el valor de la variable true desactivando el Smart contract.*/\n    }\n    //** @title Activar el contrato. */\n    function ActivarContratoToken() public onlyOwner returns (bool) {\n        Activo = false;\n        /** @dev Modificar el valor de la vriable true activando el Smart contract.*/\n    }\n\n    //** @title Crear Ahorrador. */\n    function crearCliente(string nombre, uint edad, string idLicencia, uint antiguedadLicencia) public {\n        /** @param nombre nombre del usuario.\n            @param idUsuario identifiación del usuario.\n            @param fecha fecha en la que se realiza el alta del usuario.\n        */\n        /** @dev verifica que el Smartcontract este activo\n        verifica que la address no haya creado un usuario ya en la DAAP y finalmente verifica que no se hayan asignado ya todos los \n        periodos de retiro de Tokens*/\n\n       uint record;\n       require(Activo == false);\n       //require((ownerCuentaLeasing[msg.sender]) == 0);\n        if (antiguedadLicencia <= 3){\n            record = SafeMath.div(puntosLicencia, 8);\n        }else if (antiguedadLicencia >= 6 && antiguedadLicencia >= 9){\n            record = SafeMath.div(puntosLicencia, 12);\n        }else if (antiguedadLicencia >= 9 && antiguedadLicencia <= 12){\n            record = SafeMath.div(puntosLicencia, 14);\n        }else if (antiguedadLicencia > 15){\n            record = SafeMath.div(puntosLicencia, 15);\n        }\n       /** @dev cuando se registra el sexto usuario, se inicializan las fechas para el contrato y para los usuarios, de acuerdo\n       a la fecha de registro de último usuario*/             \n        /** @dev se da de alta los valores del usuario que se ha registrado para cada uno de lo campos del strcut en el mapping Ahorrado\n        Se suma el 1 a los contadores mes y ownerCuenta Ahorro, mesCount y mes*/\n        clientes[msg.sender] = cliente(nombre, edad, idLicencia, antiguedadLicencia, false, idCocheXDefecto, false, record,false);\n        ownerCuentaLeasing[msg.sender] ++;\n        /**@return emite el evento con los datos de mes, nombre y fecha de comienzoAhorro.*/\n        emit nuevoCliente(idLicencia, antiguedadLicencia, record);        \n    }\n\n    function actualizarPrecioAparcado(uint precioAparcado) public {\n        /*uint idEmpresa;\n        idEmpresa = IdEmpresa[msg.sender];\n        require(adminAseguradora[idEmpresa] == msg.sender);\n        aseguradoraPrecioAparcado[idEmpresa] = precioAparcado;*/\n        aseguradoraPrecioAparcado[0] = precioAparcado;\n    }\n    function actualizarPrecioCarretera(uint precioCarretera) public {\n        /*uint idEmpresa;\n        idEmpresa = IdEmpresa[msg.sender];\n        require(adminAseguradora[idEmpresa] == msg.sender);\n        aseguradoraPrecioCarretera[idEmpresa] = precioCarretera;*/\n        aseguradoraPrecioCarretera[0] = precioCarretera;\n    }\n    function actualizarPrecioCiudad(uint precioCiudad) public {\n        /*uint idEmpresa;\n        idEmpresa = IdEmpresa[msg.sender];\n        require(adminAseguradora[idEmpresa] == msg.sender);\n        aseguradoraPrecioCiudad[idEmpresa] = precioCiudad;*/\n        aseguradoraPrecioCiudad[0] = precioCiudad;\n    }\n\n//para probar si funciona la función de calculo del seguro\n    uint _tiempoAparcado = 10;\n    uint _KmCiudad = 100 ;\n    uint _KmCarretera = 50; \n \n\n//** @title Constructor. */\n    \n//** @title Compra de tokens. */\n    function costoSeguro() public {\n          /**@param _numeroTokens cantidad a comprar.\n \n      /** @dev verificar que el precio a pagar sea el precio estblecido\n      verifica que el contrato cuente con los tokens solicitados para comprar\n      verifica que se haya realizado la transacción satisfactoriamente desde el contrato Token.sol.\n      Actualiza el valor de los tokens vendidos\n      */ \n        uint CostoMovCiudad;\n        uint CostoMovCarretera;\n        uint CostoMovimiento;\n        uint CostoAparcado;\n        uint CMovRecord;\n        uint CostoTotal;\n        uint edad;\n\n        edad = clientes[msg.sender].edad;\n        CostoAparcado = SafeMath.mul(_tiempoAparcado, aseguradoraPrecioAparcado[0]);\n        CostoMovCiudad = SafeMath.mul(_KmCiudad, aseguradoraPrecioCiudad[0]);\n        CostoMovCarretera = SafeMath.mul(_KmCarretera, aseguradoraPrecioCarretera[0]);\n        CostoMovimiento = SafeMath.add(CostoMovCiudad, (SafeMath.add(CostoAparcado, CostoMovCarretera)));\n        CMovRecord = SafeMath.mul((CostoMovimiento),(SafeMath.div(1, clientes[msg.sender].recordCliente)));\n        CostoTotal = SafeMath.mul(CMovRecord, SafeMath.div(65,edad));\n        CostSeguro[msg.sender] = Seguro(CostoTotal, _KmCiudad, _KmCarretera, _tiempoAparcado);\n        emit CostoSeguro(edad, CostoTotal);\n    }\n\n    function CheckAdmin() public onlyOwner returns (bool)\n    {   \n    \n        IsAdmin = true; \n        return (IsAdmin);\n\n    }\n\n    //returns true if it is the owner of the contract\n    \n}",
  "sourcePath": "/home/pedro/TFM/TFM-Leasing/Proyecto/contracts/Cliente.sol",
  "compiler": {
    "name": "solc",
    "version": "0.4.24+commit.e67f0147.Emscripten.clang"
  },
  "schemaVersion": "3.0.0",
  "updatedAt": "2019-03-10T06:53:02.588Z",
  "devdoc": {
    "methods": {}
  },
  "userdoc": {
    "methods": {}
  }
}