{
  "contractName": "Cliente",
  "abi": [
    {
      "constant": true,
      "inputs": [],
      "name": "Activo",
      "outputs": [
        {
          "name": "",
          "type": "bool"
        }
      ],
      "payable": false,
      "stateMutability": "view",
      "type": "function",
      "signature": "0x12029e60"
    },
    {
      "constant": true,
      "inputs": [
        {
          "name": "",
          "type": "uint256"
        }
      ],
      "name": "Aleatorio",
      "outputs": [
        {
          "name": "",
          "type": "uint256"
        }
      ],
      "payable": false,
      "stateMutability": "view",
      "type": "function",
      "signature": "0x2c353ea9"
    },
    {
      "constant": true,
      "inputs": [
        {
          "name": "",
          "type": "address"
        }
      ],
      "name": "CostSeguro",
      "outputs": [
        {
          "name": "CostoTotal",
          "type": "uint256"
        },
        {
          "name": "KmCiudad",
          "type": "uint256"
        },
        {
          "name": "KmCarretera",
          "type": "uint256"
        },
        {
          "name": "TiempoAparcado",
          "type": "uint256"
        }
      ],
      "payable": false,
      "stateMutability": "view",
      "type": "function",
      "signature": "0x5977a96a"
    },
    {
      "constant": true,
      "inputs": [
        {
          "name": "",
          "type": "uint256"
        }
      ],
      "name": "aseguradoraPrecioAparcado",
      "outputs": [
        {
          "name": "",
          "type": "uint256"
        }
      ],
      "payable": false,
      "stateMutability": "view",
      "type": "function",
      "signature": "0x6cbbb62d"
    },
    {
      "constant": true,
      "inputs": [],
      "name": "PrecioAparcado",
      "outputs": [
        {
          "name": "",
          "type": "uint256"
        }
      ],
      "payable": false,
      "stateMutability": "view",
      "type": "function",
      "signature": "0x870b26d4"
    },
    {
      "constant": true,
      "inputs": [],
      "name": "PrecioKmCarretera",
      "outputs": [
        {
          "name": "",
          "type": "uint256"
        }
      ],
      "payable": false,
      "stateMutability": "view",
      "type": "function",
      "signature": "0xa7cf6dc9"
    },
    {
      "constant": true,
      "inputs": [
        {
          "name": "",
          "type": "address"
        }
      ],
      "name": "users",
      "outputs": [
        {
          "name": "IdUser",
          "type": "string"
        },
        {
          "name": "DNI",
          "type": "string"
        },
        {
          "name": "VATNumber",
          "type": "string"
        },
        {
          "name": "TypeUser",
          "type": "uint256"
        },
        {
          "name": "record",
          "type": "uint256"
        },
        {
          "name": "PrecioAparcado",
          "type": "uint256"
        },
        {
          "name": "PrecioKmCarretera",
          "type": "uint256"
        },
        {
          "name": "PrecioKmCiudad",
          "type": "uint256"
        }
      ],
      "payable": false,
      "stateMutability": "view",
      "type": "function",
      "signature": "0xa87430ba"
    },
    {
      "constant": true,
      "inputs": [],
      "name": "IsAdmin",
      "outputs": [
        {
          "name": "",
          "type": "bool"
        }
      ],
      "payable": false,
      "stateMutability": "view",
      "type": "function",
      "signature": "0xacad8667"
    },
    {
      "constant": true,
      "inputs": [
        {
          "name": "",
          "type": "uint256"
        }
      ],
      "name": "aseguradoraPrecioCiudad",
      "outputs": [
        {
          "name": "",
          "type": "uint256"
        }
      ],
      "payable": false,
      "stateMutability": "view",
      "type": "function",
      "signature": "0xef9c6425"
    },
    {
      "constant": true,
      "inputs": [],
      "name": "PrecioKmCiudad",
      "outputs": [
        {
          "name": "",
          "type": "uint256"
        }
      ],
      "payable": false,
      "stateMutability": "view",
      "type": "function",
      "signature": "0xf329b3df"
    },
    {
      "constant": true,
      "inputs": [
        {
          "name": "",
          "type": "uint256"
        }
      ],
      "name": "aseguradoraPrecioCarretera",
      "outputs": [
        {
          "name": "",
          "type": "uint256"
        }
      ],
      "payable": false,
      "stateMutability": "view",
      "type": "function",
      "signature": "0xfd99aeec"
    },
    {
      "anonymous": false,
      "inputs": [
        {
          "indexed": false,
          "name": "record",
          "type": "uint256"
        }
      ],
      "name": "nuevoCliente",
      "type": "event",
      "signature": "0x6ba4ead7636d04e0c95d33e655db0853aa65a450a0414cf4be9f3f4bf8f35c32"
    },
    {
      "anonymous": false,
      "inputs": [
        {
          "indexed": false,
          "name": "idCoche",
          "type": "uint256"
        },
        {
          "indexed": false,
          "name": "TotalCost",
          "type": "uint256"
        }
      ],
      "name": "CostoSeguro",
      "type": "event",
      "signature": "0xcbaadd3cf1d7dce84c68c08077fb9a1c1795ff994854434cc380f18d79c4ddd8"
    },
    {
      "anonymous": false,
      "inputs": [
        {
          "indexed": false,
          "name": "",
          "type": "bytes"
        }
      ],
      "name": "newRandomNumber_bytes",
      "type": "event",
      "signature": "0xab2f9e7e7e74d54a49792fd7ff57c497b14cd2bad49d7537937a5a527a50f0ac"
    },
    {
      "anonymous": false,
      "inputs": [
        {
          "indexed": false,
          "name": "",
          "type": "uint256"
        }
      ],
      "name": "newRandomNumber_uint",
      "type": "event",
      "signature": "0xb084d8f103616749e12a8d363f0b50f8bb8568b4086c093bd88140c74042c47a"
    },
    {
      "constant": false,
      "inputs": [],
      "name": "DetenerContratoToken",
      "outputs": [
        {
          "name": "",
          "type": "bool"
        }
      ],
      "payable": false,
      "stateMutability": "nonpayable",
      "type": "function",
      "signature": "0xb5555627"
    },
    {
      "constant": false,
      "inputs": [],
      "name": "ActivarContratoToken",
      "outputs": [
        {
          "name": "",
          "type": "bool"
        }
      ],
      "payable": false,
      "stateMutability": "nonpayable",
      "type": "function",
      "signature": "0x8dae461d"
    },
    {
      "constant": false,
      "inputs": [
        {
          "name": "idEmpresa",
          "type": "uint256"
        },
        {
          "name": "precioAparcado",
          "type": "uint256"
        }
      ],
      "name": "actualizarPrecioAparcado",
      "outputs": [],
      "payable": false,
      "stateMutability": "nonpayable",
      "type": "function",
      "signature": "0x7208177a"
    },
    {
      "constant": false,
      "inputs": [
        {
          "name": "idEmpresa",
          "type": "uint256"
        },
        {
          "name": "precioCarretera",
          "type": "uint256"
        }
      ],
      "name": "actualizarPrecioCarretera",
      "outputs": [],
      "payable": false,
      "stateMutability": "nonpayable",
      "type": "function",
      "signature": "0x02f58854"
    },
    {
      "constant": false,
      "inputs": [
        {
          "name": "idEmpresa",
          "type": "uint256"
        },
        {
          "name": "precioCiudad",
          "type": "uint256"
        }
      ],
      "name": "actualizarPrecioCiudad",
      "outputs": [],
      "payable": false,
      "stateMutability": "nonpayable",
      "type": "function",
      "signature": "0xa87e71be"
    },
    {
      "constant": false,
      "inputs": [],
      "name": "costoSeguro",
      "outputs": [],
      "payable": false,
      "stateMutability": "nonpayable",
      "type": "function",
      "signature": "0x487b6651"
    },
    {
      "constant": false,
      "inputs": [],
      "name": "CheckAdmin",
      "outputs": [
        {
          "name": "",
          "type": "bool"
        }
      ],
      "payable": false,
      "stateMutability": "nonpayable",
      "type": "function",
      "signature": "0x4e4dc82c"
    },
    {
      "constant": true,
      "inputs": [],
      "name": "fetchUser",
      "outputs": [
        {
          "name": "",
          "type": "string"
        }
      ],
      "payable": false,
      "stateMutability": "view",
      "type": "function",
      "signature": "0x8337d90f"
    },
    {
      "constant": false,
      "inputs": [
        {
          "name": "IdUsuario",
          "type": "string"
        },
        {
          "name": "TypeUser",
          "type": "uint256"
        },
        {
          "name": "DNI",
          "type": "string"
        },
        {
          "name": "VATNumber",
          "type": "string"
        },
        {
          "name": "antiguedadLicencia",
          "type": "uint256"
        }
      ],
      "name": "NewUser",
      "outputs": [],
      "payable": false,
      "stateMutability": "nonpayable",
      "type": "function",
      "signature": "0x67ff5c23"
    },
    {
      "constant": false,
      "inputs": [
        {
          "name": "dir",
          "type": "address"
        }
      ],
      "name": "deleteUser",
      "outputs": [
        {
          "name": "",
          "type": "bool"
        }
      ],
      "payable": false,
      "stateMutability": "nonpayable",
      "type": "function",
      "signature": "0x5c60f226"
    },
    {
      "constant": false,
      "inputs": [
        {
          "name": "precioKmCiudad",
          "type": "uint256"
        },
        {
          "name": "precioKmCarretera",
          "type": "uint256"
        },
        {
          "name": "precioAparcado",
          "type": "uint256"
        }
      ],
      "name": "actualizarSeguro",
      "outputs": [
        {
          "name": "",
          "type": "bool"
        }
      ],
      "payable": false,
      "stateMutability": "nonpayable",
      "type": "function",
      "signature": "0xe737f07e"
    },
    {
      "constant": false,
      "inputs": [],
      "name": "RandomExample",
      "outputs": [],
      "payable": false,
      "stateMutability": "nonpayable",
      "type": "function",
      "signature": "0x949f80b0"
    },
    {
      "constant": false,
      "inputs": [
        {
          "name": "_myid",
          "type": "bytes32"
        },
        {
          "name": "_result",
          "type": "string"
        }
      ],
      "name": "__callback",
      "outputs": [],
      "payable": false,
      "stateMutability": "nonpayable",
      "type": "function",
      "signature": "0x27dc297e"
    },
    {
      "constant": false,
      "inputs": [
        {
          "name": "_queryId",
          "type": "bytes32"
        },
        {
          "name": "_result",
          "type": "string"
        },
        {
          "name": "_proof",
          "type": "bytes"
        }
      ],
      "name": "__callback",
      "outputs": [],
      "payable": false,
      "stateMutability": "nonpayable",
      "type": "function",
      "signature": "0x38bbfa50"
    },
    {
      "constant": false,
      "inputs": [],
      "name": "update",
      "outputs": [],
      "payable": true,
      "stateMutability": "payable",
      "type": "function",
      "signature": "0xa2e62045"
    }
  ],
  "bytecode": "0x60806040526000600660006101000a81548160ff0219169083151502179055506000600660016101000a81548160ff0219169083151502179055506050600755336000806101000a81548173ffffffffffffffffffffffffffffffffffffffff021916908373ffffffffffffffffffffffffffffffffffffffff1602179055506153fe8061008e6000396000f3fe608060405260043610610154576000357c0100000000000000000000000000000000000000000000000000000000900463ffffffff16806302f588541461015957806312029e601461019e57806327dc297e146101cd5780632c353ea91461029f57806338bbfa50146102ee578063487b6651146104575780634e4dc82c1461046e5780635977a96a1461049d5780635c60f2261461051757806367ff5c23146105805780636cbbb62d1461078a5780637208177a146107d95780638337d90f1461081e578063870b26d4146108ae5780638dae461d146108d9578063949f80b014610908578063a2e620451461091f578063a7cf6dc914610929578063a87430ba14610954578063a87e71be14610b19578063acad866714610b5e578063b555562714610b8d578063e737f07e14610bbc578063ef9c642514610c23578063f329b3df14610c72578063fd99aeec14610c9d575b600080fd5b34801561016557600080fd5b5061019c6004803603604081101561017c57600080fd5b810190808035906020019092919080359060200190929190505050610cec565b005b3480156101aa57600080fd5b506101b3610d08565b604051808215151515815260200191505060405180910390f35b3480156101d957600080fd5b5061029d600480360360408110156101f057600080fd5b81019080803590602001909291908035906020019064010000000081111561021757600080fd5b82018360208201111561022957600080fd5b8035906020019184600183028401116401000000008311171561024b57600080fd5b91908080601f016020809104026020016040519081016040528093929190818152602001838380828437600081840152601f19601f820116905080830192505050505050509192919290505050610d1b565b005b3480156102ab57600080fd5b506102d8600480360360208110156102c257600080fd5b8101908080359060200190929190505050610d5e565b6040518082815260200191505060405180910390f35b3480156102fa57600080fd5b506104556004803603606081101561031157600080fd5b81019080803590602001909291908035906020019064010000000081111561033857600080fd5b82018360208201111561034a57600080fd5b8035906020019184600183028401116401000000008311171561036c57600080fd5b91908080601f016020809104026020016040519081016040528093929190818152602001838380828437600081840152601f19601f820116905080830192505050505050509192919290803590602001906401000000008111156103cf57600080fd5b8201836020820111156103e157600080fd5b8035906020019184600183028401116401000000008311171561040357600080fd5b91908080601f016020809104026020016040519081016040528093929190818152602001838380828437600081840152601f19601f820116905080830192505050505050509192919290505050610d76565b005b34801561046357600080fd5b5061046c610f5b565b005b34801561047a57600080fd5b5061048361112f565b604051808215151515815260200191505060405180910390f35b3480156104a957600080fd5b506104ec600480360360208110156104c057600080fd5b81019080803573ffffffffffffffffffffffffffffffffffffffff1690602001909291905050506111bc565b6040518085815260200184815260200183815260200182815260200194505050505060405180910390f35b34801561052357600080fd5b506105666004803603602081101561053a57600080fd5b81019080803573ffffffffffffffffffffffffffffffffffffffff1690602001909291905050506111ec565b604051808215151515815260200191505060405180910390f35b34801561058c57600080fd5b50610788600480360360a08110156105a357600080fd5b81019080803590602001906401000000008111156105c057600080fd5b8201836020820111156105d257600080fd5b803590602001918460018302840111640100000000831117156105f457600080fd5b91908080601f016020809104026020016040519081016040528093929190818152602001838380828437600081840152601f19601f820116905080830192505050505050509192919290803590602001909291908035906020019064010000000081111561066157600080fd5b82018360208201111561067357600080fd5b8035906020019184600183028401116401000000008311171561069557600080fd5b91908080601f016020809104026020016040519081016040528093929190818152602001838380828437600081840152601f19601f820116905080830192505050505050509192919290803590602001906401000000008111156106f857600080fd5b82018360208201111561070a57600080fd5b8035906020019184600183028401116401000000008311171561072c57600080fd5b91908080601f016020809104026020016040519081016040528093929190818152602001838380828437600081840152601f19601f82011690508083019250505050505050919291929080359060200190929190505050611291565b005b34801561079657600080fd5b506107c3600480360360208110156107ad57600080fd5b810190808035906020019092919050505061148d565b6040518082815260200191505060405180910390f35b3480156107e557600080fd5b5061081c600480360360408110156107fc57600080fd5b8101908080359060200190929190803590602001909291905050506114a5565b005b34801561082a57600080fd5b506108336114c1565b6040518080602001828103825283818151815260200191508051906020019080838360005b83811015610873578082015181840152602081019050610858565b50505050905090810190601f1680156108a05780820380516001836020036101000a031916815260200191505b509250505060405180910390f35b3480156108ba57600080fd5b506108c36115a3565b6040518082815260200191505060405180910390f35b3480156108e557600080fd5b506108ee6115a9565b604051808215151515815260200191505060405180910390f35b34801561091457600080fd5b5061091d611624565b005b61092761165a565b005b34801561093557600080fd5b5061093e611681565b6040518082815260200191505060405180910390f35b34801561096057600080fd5b506109a36004803603602081101561097757600080fd5b81019080803573ffffffffffffffffffffffffffffffffffffffff169060200190929190505050611687565b6040518080602001806020018060200189815260200188815260200187815260200186815260200185815260200184810384528c818151815260200191508051906020019080838360005b83811015610a095780820151818401526020810190506109ee565b50505050905090810190601f168015610a365780820380516001836020036101000a031916815260200191505b5084810383528b818151815260200191508051906020019080838360005b83811015610a6f578082015181840152602081019050610a54565b50505050905090810190601f168015610a9c5780820380516001836020036101000a031916815260200191505b5084810382528a818151815260200191508051906020019080838360005b83811015610ad5578082015181840152602081019050610aba565b50505050905090810190601f168015610b025780820380516001836020036101000a031916815260200191505b509b50505050505050505050505060405180910390f35b348015610b2557600080fd5b50610b5c60048036036040811015610b3c57600080fd5b810190808035906020019092919080359060200190929190505050611897565b005b348015610b6a57600080fd5b50610b736118b3565b604051808215151515815260200191505060405180910390f35b348015610b9957600080fd5b50610ba26118c6565b604051808215151515815260200191505060405180910390f35b348015610bc857600080fd5b50610c0960048036036060811015610bdf57600080fd5b81019080803590602001909291908035906020019092919080359060200190929190505050611941565b604051808215151515815260200191505060405180910390f35b348015610c2f57600080fd5b50610c5c60048036036020811015610c4657600080fd5b8101908080359060200190929190505050611a23565b6040518082815260200191505060405180910390f35b348015610c7e57600080fd5b50610c87611a3b565b6040518082815260200191505060405180910390f35b348015610ca957600080fd5b50610cd660048036036020811015610cc057600080fd5b8101908080359060200190929190505050611a41565b6040518082815260200191505060405180910390f35b80600d6000848152602001908152602001600020819055505050565b600660009054906101000a900460ff1681565b610d5a828260006040519080825280601f01601f191660200182016040528015610d545781602001600182028038833980820191505090505b50610d76565b5050565b60106020528060005260406000206000915090505481565b610d7e611a59565b73ffffffffffffffffffffffffffffffffffffffff163373ffffffffffffffffffffffffffffffffffffffff1614151515610db857600080fd5b6000610dc5848484611dcf565b60ff16141515610dd457610f56565b7fab2f9e7e7e74d54a49792fd7ff57c497b14cd2bad49d7537937a5a527a50f0ac826040518080602001828103825283818151815260200191508051906020019080838360005b83811015610e36578082015181840152602081019050610e1b565b50505050905090810190601f168015610e635780820380516001836020036101000a031916815260200191505b509250505060405180910390a160006701000000000000009050600081846040516020018082805190602001908083835b602083101515610eb95780518252602082019150602081019050602083039250610e94565b6001836020036101000a0380198251168184511680821785525050505050509050019150506040516020818303038152906040528051906020012060019004811515610f0157fe5b0690508060106000808152602001908152602001600020819055507fb084d8f103616749e12a8d363f0b50f8bb8568b4086c093bd88140c74042c47a816040518082815260200191505060405180910390a150505b505050565b6000600a90506000606490506000603290506000806000806000806000610f958a600c600080815260200190815260200160002054611fe7565b9350610fb489600e600080815260200190815260200160002054611fe7565b9650610fd388600d600080815260200190815260200160002054611fe7565b9550610fe887610fe38689612022565b612022565b94506110408561103b6001600f60003373ffffffffffffffffffffffffffffffffffffffff1673ffffffffffffffffffffffffffffffffffffffff16815260200190815260200160002060040154612040565b611fe7565b925061105683611051604184612040565b611fe7565b91506080604051908101604052808381526020018a81526020018981526020018b815250600b60003373ffffffffffffffffffffffffffffffffffffffff1673ffffffffffffffffffffffffffffffffffffffff168152602001908152602001600020600082015181600001556020820151816001015560408201518160020155606082015181600301559050507fcbaadd3cf1d7dce84c68c08077fb9a1c1795ff994854434cc380f18d79c4ddd88183604051808381526020018281526020019250505060405180910390a150505050505050505050565b60008060009054906101000a900473ffffffffffffffffffffffffffffffffffffffff1673ffffffffffffffffffffffffffffffffffffffff163373ffffffffffffffffffffffffffffffffffffffff1614151561118c57600080fd5b6001600660016101000a81548160ff021916908315150217905550600660019054906101000a900460ff16905090565b600b6020528060005260406000206000915090508060000154908060010154908060020154908060030154905084565b6000600f60008373ffffffffffffffffffffffffffffffffffffffff1673ffffffffffffffffffffffffffffffffffffffff1681526020019081526020016000206000808201600061123e9190615223565b60018201600061124e9190615223565b60028201600061125e9190615223565b60038201600090556004820160009055600582016000905560068201600090556007820160009055505060019050919050565b6000801515600660009054906101000a900460ff1615151415156112b457600080fd5b6003821115156112d2576112cb6007546008612040565b9050611345565b600682101580156112e4575060098211155b156112fd576112f6600754600c612040565b9050611344565b6009821015801561130f5750600c8211155b1561132857611321600754600e612040565b9050611343565b600d821015156113425761133f600754600f612040565b90505b5b5b5b6101006040519081016040528087815260200185815260200184815260200186815260200182815260200160008152602001600081526020016000815250600f60003373ffffffffffffffffffffffffffffffffffffffff1673ffffffffffffffffffffffffffffffffffffffff16815260200190815260200160002060008201518160000190805190602001906113de92919061526b565b5060208201518160010190805190602001906113fb92919061526b565b50604082015181600201908051906020019061141892919061526b565b50606082015181600301556080820151816004015560a0820151816005015560c0820151816006015560e082015181600701559050507f6ba4ead7636d04e0c95d33e655db0853aa65a450a0414cf4be9f3f4bf8f35c32856040518082815260200191505060405180910390a1505050505050565b600c6020528060005260406000206000915090505481565b80600c6000848152602001908152602001600020819055505050565b6060600f60003373ffffffffffffffffffffffffffffffffffffffff1673ffffffffffffffffffffffffffffffffffffffff1681526020019081526020016000206000018054600181600116156101000203166002900480601f0160208091040260200160405190810160405280929190818152602001828054600181600116156101000203166002900480156115995780601f1061156e57610100808354040283529160200191611599565b820191906000526020600020905b81548152906001019060200180831161157c57829003601f168201915b5050505050905090565b600a5481565b60008060009054906101000a900473ffffffffffffffffffffffffffffffffffffffff1673ffffffffffffffffffffffffffffffffffffffff163373ffffffffffffffffffffffffffffffffffffffff1614151561160657600080fd5b6000600660006101000a81548160ff02191690831515021790555090565b61165060307f01000000000000000000000000000000000000000000000000000000000000000261205b565b61165861165a565b565b60006007905060008090506000614e20905060006116798385846123fc565b905050505050565b60095481565b600f602052806000526040600020600091509050806000018054600181600116156101000203166002900480601f0160208091040260200160405190810160405280929190818152602001828054600181600116156101000203166002900480156117335780601f1061170857610100808354040283529160200191611733565b820191906000526020600020905b81548152906001019060200180831161171657829003601f168201915b505050505090806001018054600181600116156101000203166002900480601f0160208091040260200160405190810160405280929190818152602001828054600181600116156101000203166002900480156117d15780601f106117a6576101008083540402835291602001916117d1565b820191906000526020600020905b8154815290600101906020018083116117b457829003601f168201915b505050505090806002018054600181600116156101000203166002900480601f01602080910402602001604051908101604052809291908181526020018280546001816001161561010002031660029004801561186f5780601f106118445761010080835404028352916020019161186f565b820191906000526020600020905b81548152906001019060200180831161185257829003601f168201915b5050505050908060030154908060040154908060050154908060060154908060070154905088565b80600e6000848152602001908152602001600020819055505050565b600660019054906101000a900460ff1681565b60008060009054906101000a900473ffffffffffffffffffffffffffffffffffffffff1673ffffffffffffffffffffffffffffffffffffffff163373ffffffffffffffffffffffffffffffffffffffff1614151561192357600080fd5b6001600660006101000a81548160ff02191690831515021790555090565b600081600f60003373ffffffffffffffffffffffffffffffffffffffff1673ffffffffffffffffffffffffffffffffffffffff1681526020019081526020016000206005018190555082600f60003373ffffffffffffffffffffffffffffffffffffffff1673ffffffffffffffffffffffffffffffffffffffff1681526020019081526020016000206006018190555083600f60003373ffffffffffffffffffffffffffffffffffffffff1673ffffffffffffffffffffffffffffffffffffffff16815260200190815260200160002060070181905550600190509392505050565b600e6020528060005260406000206000915090505481565b60085481565b600d6020528060005260406000206000915090505481565b60008073ffffffffffffffffffffffffffffffffffffffff16600260009054906101000a900473ffffffffffffffffffffffffffffffffffffffff1673ffffffffffffffffffffffffffffffffffffffff161480611ae157506000611adf600260009054906101000a900473ffffffffffffffffffffffffffffffffffffffff166129ca565b145b15611af257611af060006129d5565b505b600260009054906101000a900473ffffffffffffffffffffffffffffffffffffffff1673ffffffffffffffffffffffffffffffffffffffff166338cc48316040518163ffffffff167c0100000000000000000000000000000000000000000000000000000000028152600401602060405180830381600087803b158015611b7857600080fd5b505af1158015611b8c573d6000803e3d6000fd5b505050506040513d6020811015611ba257600080fd5b810190808051906020019092919050505073ffffffffffffffffffffffffffffffffffffffff16600160009054906101000a900473ffffffffffffffffffffffffffffffffffffffff1673ffffffffffffffffffffffffffffffffffffffff16141515611d0b57600260009054906101000a900473ffffffffffffffffffffffffffffffffffffffff1673ffffffffffffffffffffffffffffffffffffffff166338cc48316040518163ffffffff167c0100000000000000000000000000000000000000000000000000000000028152600401602060405180830381600087803b158015611c8f57600080fd5b505af1158015611ca3573d6000803e3d6000fd5b505050506040513d6020811015611cb957600080fd5b8101908080519060200190929190505050600160006101000a81548173ffffffffffffffffffffffffffffffffffffffff021916908373ffffffffffffffffffffffffffffffffffffffff1602179055505b600160009054906101000a900473ffffffffffffffffffffffffffffffffffffffff1673ffffffffffffffffffffffffffffffffffffffff1663c281d19e6040518163ffffffff167c010000000000000000000000000000000000000000000000000000000002815260040160206040518083038186803b158015611d8f57600080fd5b505afa158015611da3573d6000803e3d6000fd5b505050506040513d6020811015611db957600080fd5b8101908080519060200190929190505050905090565b60007f4c00000000000000000000000000000000000000000000000000000000000000826000815181101515611e0157fe5b9060200101517f010000000000000000000000000000000000000000000000000000000000000090047f0100000000000000000000000000000000000000000000000000000000000000027effffffffffffffffffffffffffffffffffffffffffffffffffffffffffffff1916141580611f1657507f5000000000000000000000000000000000000000000000000000000000000000826001815181101515611ea657fe5b9060200101517f010000000000000000000000000000000000000000000000000000000000000090047f0100000000000000000000000000000000000000000000000000000000000000027effffffffffffffffffffffffffffffffffffffffffffffffffffffffffffff191614155b80611fa45750600160ff16826002815181101515611f3057fe5b9060200101517f010000000000000000000000000000000000000000000000000000000000000090047f0100000000000000000000000000000000000000000000000000000000000000027f0100000000000000000000000000000000000000000000000000000000000000900460ff1614155b15611fb25760019050611fe0565b6000611fc7838686611fc26129e6565b612a88565b9050801515611fda576002915050611fe0565b60009150505b9392505050565b600080831415611ffa576000905061201c565b6000828402905082848281151561200d57fe5b0414151561201757fe5b809150505b92915050565b600080828401905083811015151561203657fe5b8091505092915050565b600080828481151561204e57fe5b0490508091505092915050565b600073ffffffffffffffffffffffffffffffffffffffff16600260009054906101000a900473ffffffffffffffffffffffffffffffffffffffff1673ffffffffffffffffffffffffffffffffffffffff1614806120e2575060006120e0600260009054906101000a900473ffffffffffffffffffffffffffffffffffffffff166129ca565b145b156120f3576120f160006129d5565b505b600260009054906101000a900473ffffffffffffffffffffffffffffffffffffffff1673ffffffffffffffffffffffffffffffffffffffff166338cc48316040518163ffffffff167c0100000000000000000000000000000000000000000000000000000000028152600401602060405180830381600087803b15801561217957600080fd5b505af115801561218d573d6000803e3d6000fd5b505050506040513d60208110156121a357600080fd5b810190808051906020019092919050505073ffffffffffffffffffffffffffffffffffffffff16600160009054906101000a900473ffffffffffffffffffffffffffffffffffffffff1673ffffffffffffffffffffffffffffffffffffffff1614151561230c57600260009054906101000a900473ffffffffffffffffffffffffffffffffffffffff1673ffffffffffffffffffffffffffffffffffffffff166338cc48316040518163ffffffff167c0100000000000000000000000000000000000000000000000000000000028152600401602060405180830381600087803b15801561229057600080fd5b505af11580156122a4573d6000803e3d6000fd5b505050506040513d60208110156122ba57600080fd5b8101908080519060200190929190505050600160006101000a81548173ffffffffffffffffffffffffffffffffffffffff021916908373ffffffffffffffffffffffffffffffffffffffff1602179055505b600160009054906101000a900473ffffffffffffffffffffffffffffffffffffffff1673ffffffffffffffffffffffffffffffffffffffff1663688dcfd7826040518263ffffffff167c010000000000000000000000000000000000000000000000000000000002815260040180827effffffffffffffffffffffffffffffffffffffffffffffffffffffffffffff19167effffffffffffffffffffffffffffffffffffffffffffffffffffffffffffff19168152602001915050600060405180830381600087803b1580156123e157600080fd5b505af11580156123f5573d6000803e3d6000fd5b5050505050565b6000808311801561240e575060208311155b151561241957600080fd5b600a84029350606060016040519080825280601f01601f1916602001820160405280156124555781602001600182028038833980820191505090505b509050837f01000000000000000000000000000000000000000000000000000000000000000281600081518110151561248a57fe5b9060200101907effffffffffffffffffffffffffffffffffffffffffffffffffffffffffffff1916908160001a905350606060206040519080825280601f01601f1916602001820160405280156124f05781602001600182028038833980820191505090505b509050606060206040519080825280601f01601f1916602001820160405280156125295781602001600182028038833980820191505090505b509050600061253661326d565b905060208352424118600143034018602084015260208252806020830152606060206040519080825280601f01601f19166020018201604052801561258a5781602001600182028038833980820191505090505b509050886020820152606060086040519080825280601f01601f1916602001820160405280156125c95781602001600182028038833980820191505090505b5090506125dc82601860088460006135e3565b506125e56152eb565b608060405190810160405280878152602001888152602001868152602001848152509050600061264b6040805190810160405280600681526020017f72616e646f6d0000000000000000000000000000000000000000000000000000815250838c613644565b9050606060086040519080825280601f01601f1916602001820160405280156126835781602001600182028038833980820191505090505b50905060208401517f0100000000000000000000000000000000000000000000000000000000000000810460278301537e01000000000000000000000000000000000000000000000000000000000000810460268301537d010000000000000000000000000000000000000000000000000000000000810460258301537c0100000000000000000000000000000000000000000000000000000000810460248301537b01000000000000000000000000000000000000000000000000000000810460238301537a0100000000000000000000000000000000000000000000000000008104602283015379010000000000000000000000000000000000000000000000000081046021830153780100000000000000000000000000000000000000000000000081046020830153506129b782828560016004811015156127c457fe5b602002015160028760006004811015156127da57fe5b60200201516040518082805190602001908083835b60208310151561281457805182526020820191506020810190506020830392506127ef565b6001836020036101000a038019825116818451168082178552505050505050905001915050602060405180830381855afa158015612856573d6000803e3d6000fd5b5050506040513d602081101561286b57600080fd5b810190808051906020019092919050505087600260048110151561288b57fe5b60200201516040516020018085805190602001908083835b6020831015156128c857805182526020820191506020810190506020830392506128a3565b6001836020036101000a03801982511681845116808217855250505050505090500184805190602001908083835b60208310151561291b57805182526020820191506020810190506020830392506128f6565b6001836020036101000a03801982511681845116808217855250505050505090500183815260200182805190602001908083835b602083101515612974578051825260208201915060208101905060208303925061294f565b6001836020036101000a03801982511681845116808217855250505050505090500194505050505060405160208183030381529060405280519060200120613a05565b8199505050505050505050509392505050565b6000813b9050919050565b60006129df613a21565b9050919050565b606060038054600181600116156101000203166002900480601f016020809104026020016040519081016040528092919081815260200182805460018160011615610100020316600290048015612a7e5780601f10612a5357610100808354040283529160200191612a7e565b820191906000526020600020905b815481529060010190602001808311612a6157829003601f168201915b5050505050905090565b60008060206002876045815181101515612a9e57fe5b9060200101517f010000000000000000000000000000000000000000000000000000000000000090047f0100000000000000000000000000000000000000000000000000000000000000027f0100000000000000000000000000000000000000000000000000000000000000900460ff1601604401019050606060206040519080825280601f01601f191660200182016040528015612b4c5781602001600182028038833980820191505090505b509050612b5e878360208460006135e3565b50600284876040516020018083805190602001908083835b602083101515612b9b5780518252602082019150602081019050602083039250612b76565b6001836020036101000a038019825116818451168082178552505050505050905001828152602001925050506040516020818303038152906040526040518082805190602001908083835b602083101515612c0b5780518252602082019150602081019050602083039250612be6565b6001836020036101000a038019825116818451168082178552505050505050905001915050602060405180830381855afa158015612c4d573d6000803e3d6000fd5b5050506040513d6020811015612c6257600080fd5b810190808051906020019092919050505060405160200180828152602001915050604051602081830303815290604052805190602001208180519060200120141515612cb357600092505050613265565b606060028860016049860101815181101515612ccb57fe5b9060200101517f010000000000000000000000000000000000000000000000000000000000000090047f0100000000000000000000000000000000000000000000000000000000000000027f0100000000000000000000000000000000000000000000000000000000000000900460ff16016040519080825280601f01601f191660200182016040528015612d6f5781602001600182028038833980820191505090505b509050612d84886049850183518460006135e3565b50612eb36002826040518082805190602001908083835b602083101515612dc05780518252602082019150602081019050602083039250612d9b565b6001836020036101000a038019825116818451168082178552505050505050905001915050602060405180830381855afa158015612e02573d6000803e3d6000fd5b5050506040513d6020811015612e1757600080fd5b8101908080519060200190929190505050878a60086020880101815181101515612e3d57fe5b9060200101517f010000000000000000000000000000000000000000000000000000000000000090047f0100000000000000000000000000000000000000000000000000000000000000027f0100000000000000000000000000000000000000000000000000000000000000900460ff16613eb7565b1515612ec55760009350505050613265565b606060296040519080825280601f01601f191660200182016040528015612efb5781602001600182028038833980820191505090505b509050612f10896020860160298460006135e3565b506060604080519080825280601f01601f191660200182016040528015612f465781602001600182028038833980820191505090505b5090506000604184516029602089010101019050612f6c8b6040830360408560006135e3565b5060006002836040518082805190602001908083835b602083101515612fa75780518252602082019150602081019050602083039250612f82565b6001836020036101000a038019825116818451168082178552505050505050905001915050602060405180830381855afa158015612fe9573d6000803e3d6000fd5b5050506040513d6020811015612ffe57600080fd5b8101908080519060200190929190505050905083816040516020018083805190602001908083835b60208310151561304b5780518252602082019150602081019050602083039250613026565b6001836020036101000a0380198251168184511680821785525050505050509050018281526020019250505060405160208183030381529060405280519060200120600460008d81526020019081526020016000205414156130c357600460008c8152602001908152602001600020600090556130d3565b6000975050505050505050613265565b606060496040519080825280601f01601f1916602001820160405280156131095781602001600182028038833980820191505090505b50905061311b8d8960498460006135e3565b506131c66002826040518082805190602001908083835b6020831015156131575780518252602082019150602081019050602083039250613132565b6001836020036101000a038019825116818451168082178552505050505050905001915050602060405180830381855afa158015613199573d6000803e3d6000fd5b5050506040513d60208110156131ae57600080fd5b81019080805190602001909291905050508786613fce565b15156131dd57600098505050505050505050613265565b6005600083815260200190815260200160002060009054906101000a900460ff1615156132395761320e8d84614252565b6005600084815260200190815260200160002060006101000a81548160ff0219169083151502179055505b6005600083815260200190815260200160002060009054906101000a900460ff16985050505050505050505b949350505050565b60008073ffffffffffffffffffffffffffffffffffffffff16600260009054906101000a900473ffffffffffffffffffffffffffffffffffffffff1673ffffffffffffffffffffffffffffffffffffffff1614806132f5575060006132f3600260009054906101000a900473ffffffffffffffffffffffffffffffffffffffff166129ca565b145b156133065761330460006129d5565b505b600260009054906101000a900473ffffffffffffffffffffffffffffffffffffffff1673ffffffffffffffffffffffffffffffffffffffff166338cc48316040518163ffffffff167c0100000000000000000000000000000000000000000000000000000000028152600401602060405180830381600087803b15801561338c57600080fd5b505af11580156133a0573d6000803e3d6000fd5b505050506040513d60208110156133b657600080fd5b810190808051906020019092919050505073ffffffffffffffffffffffffffffffffffffffff16600160009054906101000a900473ffffffffffffffffffffffffffffffffffffffff1673ffffffffffffffffffffffffffffffffffffffff1614151561351f57600260009054906101000a900473ffffffffffffffffffffffffffffffffffffffff1673ffffffffffffffffffffffffffffffffffffffff166338cc48316040518163ffffffff167c0100000000000000000000000000000000000000000000000000000000028152600401602060405180830381600087803b1580156134a357600080fd5b505af11580156134b7573d6000803e3d6000fd5b505050506040513d60208110156134cd57600080fd5b8101908080519060200190929190505050600160006101000a81548173ffffffffffffffffffffffffffffffffffffffff021916908373ffffffffffffffffffffffffffffffffffffffff1602179055505b600160009054906101000a900473ffffffffffffffffffffffffffffffffffffffff1673ffffffffffffffffffffffffffffffffffffffff1663abaa5f3e6040518163ffffffff167c010000000000000000000000000000000000000000000000000000000002815260040160206040518083038186803b1580156135a357600080fd5b505afa1580156135b7573d6000803e3d6000fd5b505050506040513d60208110156135cd57600080fd5b8101908080519060200190929190505050905090565b606060008285019050808451101515156135fc57600080fd5b600086602001905060008460200190505b868860200101821015613635578189015180828801525060208201915060208101905061360d565b85935050505095945050505050565b60008073ffffffffffffffffffffffffffffffffffffffff16600260009054906101000a900473ffffffffffffffffffffffffffffffffffffffff1673ffffffffffffffffffffffffffffffffffffffff1614806136cc575060006136ca600260009054906101000a900473ffffffffffffffffffffffffffffffffffffffff166129ca565b145b156136dd576136db60006129d5565b505b600260009054906101000a900473ffffffffffffffffffffffffffffffffffffffff1673ffffffffffffffffffffffffffffffffffffffff166338cc48316040518163ffffffff167c0100000000000000000000000000000000000000000000000000000000028152600401602060405180830381600087803b15801561376357600080fd5b505af1158015613777573d6000803e3d6000fd5b505050506040513d602081101561378d57600080fd5b810190808051906020019092919050505073ffffffffffffffffffffffffffffffffffffffff16600160009054906101000a900473ffffffffffffffffffffffffffffffffffffffff1673ffffffffffffffffffffffffffffffffffffffff161415156138f657600260009054906101000a900473ffffffffffffffffffffffffffffffffffffffff1673ffffffffffffffffffffffffffffffffffffffff166338cc48316040518163ffffffff167c0100000000000000000000000000000000000000000000000000000000028152600401602060405180830381600087803b15801561387a57600080fd5b505af115801561388e573d6000803e3d6000fd5b505050506040513d60208110156138a457600080fd5b8101908080519060200190929190505050600160006101000a81548173ffffffffffffffffffffffffffffffffffffffff021916908373ffffffffffffffffffffffffffffffffffffffff1602179055505b6060600460405190808252806020026020018201604052801561392d57816020015b60608152602001906001900390816139185790505b50905083600060048110151561393f57fe5b602002015181600081518110151561395357fe5b9060200190602002018190525083600160048110151561396f57fe5b602002015181600181518110151561398357fe5b9060200190602002018190525083600260048110151561399f57fe5b60200201518160028151811015156139b357fe5b906020019060200201819052508360036004811015156139cf57fe5b60200201518160038151811015156139e357fe5b906020019060200201819052506139fb8582856147bb565b9150509392505050565b8060046000848152602001908152602001600020819055505050565b600080613a41731d3b2638a7cc9f2cb3d298a3da7a90b67e5506ed6129ca565b1115613ae357731d3b2638a7cc9f2cb3d298a3da7a90b67e5506ed600260006101000a81548173ffffffffffffffffffffffffffffffffffffffff021916908373ffffffffffffffffffffffffffffffffffffffff160217905550613ada6040805190810160405280600b81526020017f6574685f6d61696e6e6574000000000000000000000000000000000000000000815250614d94565b60019050613eb4565b6000613b0273c03a2615d5efaf5f49f60b7bb6583eaec212fdf16129ca565b1115613ba45773c03a2615d5efaf5f49f60b7bb6583eaec212fdf1600260006101000a81548173ffffffffffffffffffffffffffffffffffffffff021916908373ffffffffffffffffffffffffffffffffffffffff160217905550613b9b6040805190810160405280600c81526020017f6574685f726f707374656e330000000000000000000000000000000000000000815250614d94565b60019050613eb4565b6000613bc373b7a07bcf2ba2f2703b24c0691b5278999c59ac7e6129ca565b1115613c655773b7a07bcf2ba2f2703b24c0691b5278999c59ac7e600260006101000a81548173ffffffffffffffffffffffffffffffffffffffff021916908373ffffffffffffffffffffffffffffffffffffffff160217905550613c5c6040805190810160405280600981526020017f6574685f6b6f76616e0000000000000000000000000000000000000000000000815250614d94565b60019050613eb4565b6000613c8473146500cfd35b22e4a392fe0adc06de1a1368ed486129ca565b1115613d265773146500cfd35b22e4a392fe0adc06de1a1368ed48600260006101000a81548173ffffffffffffffffffffffffffffffffffffffff021916908373ffffffffffffffffffffffffffffffffffffffff160217905550613d1d6040805190810160405280600b81526020017f6574685f72696e6b656279000000000000000000000000000000000000000000815250614d94565b60019050613eb4565b6000613d45736f485c8bf6fc43ea212e93bbf8ce046c7f1cb4756129ca565b1115613da957736f485c8bf6fc43ea212e93bbf8ce046c7f1cb475600260006101000a81548173ffffffffffffffffffffffffffffffffffffffff021916908373ffffffffffffffffffffffffffffffffffffffff16021790555060019050613eb4565b6000613dc87320e12a1f859b3feae5fb2a0a32c18f5a65555bbf6129ca565b1115613e2c577320e12a1f859b3feae5fb2a0a32c18f5a65555bbf600260006101000a81548173ffffffffffffffffffffffffffffffffffffffff021916908373ffffffffffffffffffffffffffffffffffffffff16021790555060019050613eb4565b6000613e4b7351efaf4c8b3c9afbd5ab9f4bbc82784ab6ef8faa6129ca565b1115613eaf577351efaf4c8b3c9afbd5ab9f4bbc82784ab6ef8faa600260006101000a81548173ffffffffffffffffffffffffffffffffffffffff021916908373ffffffffffffffffffffffffffffffffffffffff16021790555060019050613eb4565b600090505b90565b60008060019050828451141515613ecd57600080fd5b60008090505b83811015613fc2578481815181101515613ee957fe5b9060200101517f010000000000000000000000000000000000000000000000000000000000000090047f0100000000000000000000000000000000000000000000000000000000000000027effffffffffffffffffffffffffffffffffffffffffffffffffffffffffffff19168682602081101515613f6457fe5b1a7f0100000000000000000000000000000000000000000000000000000000000000027effffffffffffffffffffffffffffffffffffffffffffffffffffffffffffff1916141515613fb557600091505b8080600101915050613ed3565b50809150509392505050565b6000806000806000606060206040519080825280601f01601f19166020018201604052801561400c5781602001600182028038833980820191505090505b5090506000602089600381518110151561402257fe5b9060200101517f010000000000000000000000000000000000000000000000000000000000000090047f0100000000000000000000000000000000000000000000000000000000000000027f0100000000000000000000000000000000000000000000000000000000000000900460ff160360040190506140a8898260208560006135e3565b9150606060206040519080825280601f01601f1916602001820160405280156140e05781602001600182028038833980820191505090505b50905060228201915061417e8a60208c6001860381518110151561410057fe5b9060200101517f010000000000000000000000000000000000000000000000000000000000000090047f0100000000000000000000000000000000000000000000000000000000000000027f0100000000000000000000000000000000000000000000000000000000000000900460ff1603840160208460006135e3565b9050602083015194506020810151935061419b8b601b8787614dae565b80975081985050508573ffffffffffffffffffffffffffffffffffffffff1689805190602001206001900473ffffffffffffffffffffffffffffffffffffffff1614156141f257600197505050505050505061424b565b6141ff8b601c8787614dae565b80975081985050508573ffffffffffffffffffffffffffffffffffffffff1689805190602001206001900473ffffffffffffffffffffffffffffffffffffffff16149750505050505050505b9392505050565b60008060606002856001860181518110151561426a57fe5b9060200101517f010000000000000000000000000000000000000000000000000000000000000090047f0100000000000000000000000000000000000000000000000000000000000000027f0100000000000000000000000000000000000000000000000000000000000000900460ff16016040519080825280601f01601f19166020018201604052801561430e5781602001600182028038833980820191505090505b509050614320858583518460006135e3565b506060604080519080825280601f01601f1916602001820160405280156143565781602001600182028038833980820191505090505b50905061436986600460408460006135e3565b50606060626040519080825280601f01601f1916602001820160405280156143a05781602001600182028038833980820191505090505b50905060017f0100000000000000000000000000000000000000000000000000000000000000028160008151811015156143d657fe5b9060200101907effffffffffffffffffffffffffffffffffffffffffffffffffffffffffffff1916908160001a905350614418876041880360418460016135e3565b5060606040805190810160405280602081526020017ffd94fa71bc0ba10d39d464d0d8f465efeef0a2764e3887fcc9df41ded20f505c815250905061446381600060208560426135e3565b5061450e6002836040518082805190602001908083835b60208310151561449f578051825260208201915060208101905060208303925061447a565b6001836020036101000a038019825116818451168082178552505050505050905001915050602060405180830381855afa1580156144e1573d6000803e3d6000fd5b5050506040513d60208110156144f657600080fd5b81019080805190602001909291905050508585613fce565b9450841515614525576000955050505050506147b5565b60608060405190810160405280604081526020017f7fb956469c5c9b89840d55b43537e66a98dd4811ea0a27224272c2e5622911e881526020017f537a2f8e86a46baec82864e98dd01e9ccc2f8bc5dfc9cbe5a91a290498dd96e48152509050606060426040519080825280601f01601f1916602001820160405280156145bb5781602001600182028038833980820191505090505b50905060fe7f0100000000000000000000000000000000000000000000000000000000000000028160008151811015156145f157fe5b9060200101907effffffffffffffffffffffffffffffffffffffffffffffffffffffffffffff1916908160001a9053506146318a600360418460016135e3565b50606060028b604581518110151561464557fe5b9060200101517f010000000000000000000000000000000000000000000000000000000000000090047f0100000000000000000000000000000000000000000000000000000000000000027f0100000000000000000000000000000000000000000000000000000000000000900460ff16016040519080825280601f01601f1916602001820160405280156146e95781602001600182028038833980820191505090505b5090506146fc8b604483518460006135e3565b506147a76002836040518082805190602001908083835b6020831015156147385780518252602082019150602081019050602083039250614713565b6001836020036101000a038019825116818451168082178552505050505050905001915050602060405180830381855afa15801561477a573d6000803e3d6000fd5b5050506040513d602081101561478f57600080fd5b81019080805190602001909291905050508285613fce565b975087985050505050505050505b92915050565b60008073ffffffffffffffffffffffffffffffffffffffff16600260009054906101000a900473ffffffffffffffffffffffffffffffffffffffff1673ffffffffffffffffffffffffffffffffffffffff16148061484357506000614841600260009054906101000a900473ffffffffffffffffffffffffffffffffffffffff166129ca565b145b156148545761485260006129d5565b505b600260009054906101000a900473ffffffffffffffffffffffffffffffffffffffff1673ffffffffffffffffffffffffffffffffffffffff166338cc48316040518163ffffffff167c0100000000000000000000000000000000000000000000000000000000028152600401602060405180830381600087803b1580156148da57600080fd5b505af11580156148ee573d6000803e3d6000fd5b505050506040513d602081101561490457600080fd5b810190808051906020019092919050505073ffffffffffffffffffffffffffffffffffffffff16600160009054906101000a900473ffffffffffffffffffffffffffffffffffffffff1673ffffffffffffffffffffffffffffffffffffffff16141515614a6d57600260009054906101000a900473ffffffffffffffffffffffffffffffffffffffff1673ffffffffffffffffffffffffffffffffffffffff166338cc48316040518163ffffffff167c0100000000000000000000000000000000000000000000000000000000028152600401602060405180830381600087803b1580156149f157600080fd5b505af1158015614a05573d6000803e3d6000fd5b505050506040513d6020811015614a1b57600080fd5b8101908080519060200190929190505050600160006101000a81548173ffffffffffffffffffffffffffffffffffffffff021916908373ffffffffffffffffffffffffffffffffffffffff1602179055505b6000600160009054906101000a900473ffffffffffffffffffffffffffffffffffffffff1673ffffffffffffffffffffffffffffffffffffffff16632ef3accc86856040518363ffffffff167c01000000000000000000000000000000000000000000000000000000000281526004018080602001838152602001828103825284818151815260200191508051906020019080838360005b83811015614b20578082015181840152602081019050614b05565b50505050905090810190601f168015614b4d5780820380516001836020036101000a031916815260200191505b509350505050602060405180830381600087803b158015614b6d57600080fd5b505af1158015614b81573d6000803e3d6000fd5b505050506040513d6020811015614b9757600080fd5b81019080805190602001909291905050509050823a02670de0b6b3a764000001811115614bcb576000600102915050614d8d565b6060614bd685614df2565b9050600160009054906101000a900473ffffffffffffffffffffffffffffffffffffffff1673ffffffffffffffffffffffffffffffffffffffff1663c55c1cb68360008985896040518663ffffffff167c0100000000000000000000000000000000000000000000000000000000028152600401808581526020018060200180602001848152602001838103835286818151815260200191508051906020019080838360005b83811015614c97578082015181840152602081019050614c7c565b50505050905090810190601f168015614cc45780820380516001836020036101000a031916815260200191505b50838103825285818151815260200191508051906020019080838360005b83811015614cfd578082015181840152602081019050614ce2565b50505050905090810190601f168015614d2a5780820380516001836020036101000a031916815260200191505b5096505050505050506020604051808303818588803b158015614d4c57600080fd5b505af1158015614d60573d6000803e3d6000fd5b50505050506040513d6020811015614d7757600080fd5b8101908080519060200190929190505050925050505b9392505050565b8060039080519060200190614daa929190615313565b5050565b60008060008060405188815287602082015286604082015285606082015260208160808360006001610bb8f192508051915050818193509350505094509492505050565b6060614dfc614e76565b614e04615393565b614e1081610400614e82565b614e1981614ed2565b60008090505b8351811015614e5f57614e528482815181101515614e3957fe5b9060200190602002015183614ee090919063ffffffff16565b8080600101915050614e1f565b50614e6981614f05565b8060000151915050919050565b60405180590338823950565b60008190506000602082811515614e9557fe5b06141515614eb257602081811515614ea957fe5b06602003810190505b808360200181815250506040518084526000815281810160405250505050565b614edd816004614f13565b50565b614eed8260028351614f37565b614f00818361509090919063ffffffff16565b505050565b614f10816007614f13565b50565b614f33601f60058360ff169060020a02178361513d90919063ffffffff16565b5050565b601781111515614f6857614f638160058460ff169060020a0260ff16178461513d90919063ffffffff16565b61508b565b60ff81111515614fae57614f92601860058460ff169060020a02178461513d90919063ffffffff16565b614fa88160018561517d9092919063ffffffff16565b5061508a565b61ffff81111515614ff557614fd9601960058460ff169060020a02178461513d90919063ffffffff16565b614fef8160028561517d9092919063ffffffff16565b50615089565b63ffffffff8111151561503e57615022601a60058460ff169060020a02178461513d90919063ffffffff16565b6150388160048561517d9092919063ffffffff16565b50615088565b67ffffffffffffffff811115156150875761506f601b60058460ff169060020a02178461513d90919063ffffffff16565b6150858160088561517d9092919063ffffffff16565b505b5b5b5b5b505050565b615098615393565b826020015183600001515183510111156150c8576150c78360026150c1866020015186516151e4565b02615200565b5b60008060008451905085518051602081830101945086518101825260208701935050505b60208110151561511157815183526020830192506020820191506020810390506150ec565b60006001826020036101000a039050801983511681855116818117865250508694505050505092915050565b8160200151600183600001515101111561516357615162826002846020015102615200565b5b815180516020818301018381536001820183525050505050565b615185615393565b8360200151846000015151830111156151b3576151b28460026151ac8760200151866151e4565b02615200565b5b60006001836101000a0390508451805184818301018684198251161781528582018352505050849150509392505050565b6000818311156151f6578290506151fa565b8190505b92915050565b6060826000015190506152138383614e82565b61521d8382615090565b50505050565b50805460018160011615610100020316600290046000825580601f106152495750615268565b601f01602090049060005260206000209081019061526791906153ad565b5b50565b828054600181600116156101000203166002900490600052602060002090601f016020900481019282601f106152ac57805160ff19168380011785556152da565b828001600101855582156152da579182015b828111156152d95782518255916020019190600101906152be565b5b5090506152e791906153ad565b5090565b6080604051908101604052806004905b60608152602001906001900390816152fb5790505090565b828054600181600116156101000203166002900490600052602060002090601f016020900481019282601f1061535457805160ff1916838001178555615382565b82800160010185558215615382579182015b82811115615381578251825591602001919060010190615366565b5b50905061538f91906153ad565b5090565b604080519081016040528060608152602001600081525090565b6153cf91905b808211156153cb5760008160009055506001016153b3565b5090565b9056fea165627a7a72305820212e2f0f6ffb5b697bdc175fd8a7d406be32b2a0959748cb2b9181280428d84b0029",
  "source": "pragma solidity >= 0.5.0 < 0.6.0;\nimport \"./SafeMath.sol\";\nimport \"./Owned.sol\";\nimport \"installed_contracts/oraclize-api/contracts/usingOraclize.sol\";\n\n\ncontract Cliente is Owned, usingOraclize {\n\n        \n    bool public Activo = false;\n    bool public IsAdmin = false;\n    uint puntosLicencia = 80;//Este valor se debe obtener desde un Orculo\n    \n    event nuevoCliente(\n        uint record\n    );  \n    event CostoSeguro(\n        uint idCoche, \n        uint TotalCost\n    );    \n    event newRandomNumber_bytes(bytes);\n    event newRandomNumber_uint(uint);\n\n    \n \n    uint256 public PrecioKmCiudad;\n    uint256 public PrecioKmCarretera;\n    uint256 public PrecioAparcado;\n\n    mapping(address => Seguro) public CostSeguro;\n    mapping(uint => uint) public aseguradoraPrecioAparcado;\n    mapping(uint => uint) public aseguradoraPrecioCarretera;\n    mapping(uint => uint) public aseguradoraPrecioCiudad;\n    mapping(address => user) public users;\n    \n struct user {\n        string IdUser;\n        string DNI;\n        string VATNumber;\n        uint TypeUser;\n        uint record;\n        uint PrecioAparcado;\n        uint PrecioKmCarretera;\n        uint PrecioKmCiudad;\n }\n   \n    struct Seguro {\n        uint CostoTotal;\n        uint KmCiudad;\n        uint KmCarretera;\n        uint TiempoAparcado;\n    }\n    //** @title detener el contrato. */\n    function DetenerContratoToken() public onlyOwner returns (bool) {\n        Activo = true;\n        /** @dev Modificar el valor de la variable true desactivando el Smart contract.*/\n    }\n    //** @title Activar el contrato. */\n    function ActivarContratoToken() public onlyOwner returns (bool) {\n        Activo = false;\n        /** @dev Modificar el valor de la vriable true activando el Smart contract.*/\n    }\n    //** @title Crear Ahorrador. */\n    \n\n    function actualizarPrecioAparcado(uint idEmpresa, uint precioAparcado) public {\n        aseguradoraPrecioAparcado[idEmpresa] = precioAparcado;\n    }\n    function actualizarPrecioCarretera(uint idEmpresa, uint precioCarretera) public {\n        aseguradoraPrecioCarretera[idEmpresa] = precioCarretera;\n    }\n    function actualizarPrecioCiudad(uint idEmpresa, uint precioCiudad) public {\n        aseguradoraPrecioCiudad[idEmpresa] = precioCiudad;\n    }\n   \n\n//** @title Constructor. */\n    \n//** @title Compra de tokens. */\n    function costoSeguro() public {\n          /**@param _numeroTokens cantidad a comprar.\n \n      /** @dev verificar que el precio a pagar sea el precio establecido\n      verifica que el contrato cuente con los tokens solicitados para comprar\n      verifica que se haya realizado la transaccin satisfactoriamente desde el contrato Token.sol.\n      Actualiza el valor de los tokens vendidos\n      */ \n        uint _tiempoAparcado = 10;//Debera ser suministrado por Orculo\n        uint _KmCiudad = 100 ;//Debera ser suministrado por Orculo\n        uint _KmCarretera = 50; //Debera ser suministrado por Orculo\n        uint CostoMovCiudad;\n        uint CostoMovCarretera;\n        uint CostoMovimiento;\n        uint CostoAparcado;\n        uint CMovRecord;\n        uint CostoTotal;\n        uint edad;\n\n        //edad = users[msg.sender].edad;\n        CostoAparcado = SafeMath.mul(_tiempoAparcado, aseguradoraPrecioAparcado[0]);\n        CostoMovCiudad = SafeMath.mul(_KmCiudad, aseguradoraPrecioCiudad[0]);\n        CostoMovCarretera = SafeMath.mul(_KmCarretera, aseguradoraPrecioCarretera[0]);\n        CostoMovimiento = SafeMath.add(CostoMovCiudad, (SafeMath.add(CostoAparcado, CostoMovCarretera)));\n        CMovRecord = SafeMath.mul((CostoMovimiento),(SafeMath.div(1, users[msg.sender].record)));\n        CostoTotal = SafeMath.mul(CMovRecord, SafeMath.div(65,edad));\n        CostSeguro[msg.sender] = Seguro(CostoTotal, _KmCiudad, _KmCarretera, _tiempoAparcado);\n        emit CostoSeguro(edad, CostoTotal);\n    }\n\n    function CheckAdmin() public onlyOwner returns (bool)\n    {   \n        IsAdmin = true; \n        return (IsAdmin);\n        //returns true if it is the owner of the contract\n    }\n\n    function fetchUser() public view returns (string memory)\n\n    {\n\n        return (users[msg.sender].IdUser);\n    }\n    \n    /*function RegistraTime() public returns (bool)\n\n    {\n        users[msg.sender].timestamp=now;\n        return (true);\n    }*/\n\n   function NewUser(string memory IdUsuario, uint TypeUser, string memory DNI, string memory VATNumber, uint antiguedadLicencia) public \n    {\n//solo deberia poder darese de alta una vez el usuario\n       uint record;\n        require(Activo == false);\n       //require((ownerCuentaLeasing[msg.sender]) == 0);\n        if (antiguedadLicencia <= 3){\n            record = SafeMath.div(puntosLicencia, 8);\n        }else if (antiguedadLicencia >= 6 && antiguedadLicencia <= 9){\n            record = SafeMath.div(puntosLicencia, 12);\n        }else if (antiguedadLicencia >= 9 && antiguedadLicencia <= 12){\n            record = SafeMath.div(puntosLicencia, 14);\n        }else if (antiguedadLicencia >= 13){\n            record = SafeMath.div(puntosLicencia, 15);\n        }\n       \n        users[msg.sender] = user(IdUsuario, DNI, VATNumber, TypeUser, record, 0, 0, 0);\n        \n        \n        emit nuevoCliente(TypeUser); \n       \n    }\n\n\n    /*function getUser(address dir) public view returns (string memory ,uint ,uint)\n\n    {\n\n        return (users[dir].IdUser,users[dir].TypeUser,users[dir].timestamp);\n    }*/\n\n\n\nfunction deleteUser(address dir) public returns (bool)\n\n    {\n        delete users[dir];\n        return (true);\n    }\n\n    \n\n    function actualizarSeguro(uint precioKmCiudad, uint precioKmCarretera, uint precioAparcado) public returns (bool)\n\n    {\n        //Solo debera poder contratar un leasing el cliente\n        \n        users[msg.sender].PrecioAparcado = precioAparcado;\n        users[msg.sender].PrecioKmCarretera = precioKmCarretera;\n        users[msg.sender].PrecioKmCiudad = precioKmCiudad;\n\n      \n        return (true);\n    }\n\n\n   function RandomExample() public {\n        oraclize_setProof(proofType_Ledger); // sets the Ledger authenticity proof in the constructor\n        update(); // let's ask for N random bytes immediately when the contract is created!\n    }\n\n    // the callback function is called by Oraclize when the result is ready\n    // the oraclize_randomDS_proofVerify modifier prevents an invalid proof to execute this function code:\n    // the proof validity is fully verified on-chain\n    mapping(uint => uint) public Aleatorio;\n\n    function __callback(bytes32 _queryId, string memory _result, bytes memory _proof) public\n    {\n        \n        require(msg.sender != oraclize_cbAddress());\n\n        if (oraclize_randomDS_proofVerify__returnCode(_queryId, _result, _proof) != 0) {\n            // the proof verification has failed, do we need to take any action here? (depends on the use case)\n        } else {\n            // the proof verification has passed\n            // now that we know that the random number was safely generated, let's use it..\n\n            emit newRandomNumber_bytes(bytes(_result)); // this is the resulting random number (bytes)\n\n            // for simplicity of use, let's also convert the random bytes to uint if we need\n            uint maxRange = 2**(8* 7); // this is the highest uint we want to get. It should never be greater than 2^(8*N), where N is the number of random bytes we had asked the datasource to return\n            uint randomNumber = uint(keccak256(abi.encodePacked(_result))) % maxRange; // this is an efficient way to get the uint out in the [0, maxRange] range\n            Aleatorio[0] = randomNumber;\n            emit newRandomNumber_uint(randomNumber); // this is the resulting random number (uint)\n        }\n    }\n\n    function update() public payable {\n        uint N = 7; // number of random bytes we want the datasource to return\n        uint delay = 0; // number of seconds to wait before the execution takes place\n        uint callbackGas = 20000; // amount of gas we want Oraclize to set for the callback function\n        bytes32 queryId = oraclize_newRandomDSQuery(delay, N, callbackGas); // this function internally generates the correct oraclize_query and returns its queryId\n    } \n\n\n\n}",
  "sourcePath": "/home/pedro/TFM/TFM-Leasing/Proyecto/contracts/Cliente.sol",
  "compiler": {
    "name": "solc",
    "version": "0.5.0+commit.1d4f565a.Emscripten.clang"
  },
  "schemaVersion": "3.0.0",
  "updatedAt": "2019-03-30T14:49:57.570Z",
  "devdoc": {
    "methods": {}
  },
  "userdoc": {
    "methods": {}
  }
}