{
  "contractName": "Cliente",
  "abi": [
    {
      "constant": true,
      "inputs": [
        {
          "name": "",
          "type": "address"
        }
      ],
      "name": "IdEmpresa",
      "outputs": [
        {
          "name": "",
          "type": "uint256"
        }
      ],
      "payable": false,
      "stateMutability": "view",
      "type": "function",
      "signature": "0x0cb99e5f"
    },
    {
      "constant": true,
      "inputs": [],
      "name": "Activo",
      "outputs": [
        {
          "name": "",
          "type": "bool"
        }
      ],
      "payable": false,
      "stateMutability": "view",
      "type": "function",
      "signature": "0x12029e60"
    },
    {
      "constant": true,
      "inputs": [],
      "name": "tipoSeguroXDefecto",
      "outputs": [
        {
          "name": "",
          "type": "string"
        }
      ],
      "payable": false,
      "stateMutability": "view",
      "type": "function",
      "signature": "0x261e07f5"
    },
    {
      "constant": true,
      "inputs": [
        {
          "name": "",
          "type": "address"
        }
      ],
      "name": "ownerCuentaLeasing",
      "outputs": [
        {
          "name": "",
          "type": "uint256"
        }
      ],
      "payable": false,
      "stateMutability": "view",
      "type": "function",
      "signature": "0x3968cc47"
    },
    {
      "constant": true,
      "inputs": [
        {
          "name": "",
          "type": "address"
        }
      ],
      "name": "CostSeguro",
      "outputs": [
        {
          "name": "CostoTotal",
          "type": "uint256"
        },
        {
          "name": "KmCiudad",
          "type": "uint256"
        },
        {
          "name": "KmCarretera",
          "type": "uint256"
        },
        {
          "name": "TiempoAparcado",
          "type": "uint256"
        }
      ],
      "payable": false,
      "stateMutability": "view",
      "type": "function",
      "signature": "0x5977a96a"
    },
    {
      "constant": true,
      "inputs": [
        {
          "name": "",
          "type": "uint256"
        }
      ],
      "name": "aseguradoraPrecioAparcado",
      "outputs": [
        {
          "name": "",
          "type": "uint256"
        }
      ],
      "payable": false,
      "stateMutability": "view",
      "type": "function",
      "signature": "0x6cbbb62d"
    },
    {
      "constant": true,
      "inputs": [
        {
          "name": "",
          "type": "address"
        }
      ],
      "name": "clientes",
      "outputs": [
        {
          "name": "nombre",
          "type": "string"
        },
        {
          "name": "edad",
          "type": "uint256"
        },
        {
          "name": "idLicencia",
          "type": "string"
        },
        {
          "name": "AntiguedadLicencia",
          "type": "uint256"
        },
        {
          "name": "Seguro",
          "type": "bool"
        },
        {
          "name": "idCoche",
          "type": "string"
        },
        {
          "name": "credito",
          "type": "bool"
        },
        {
          "name": "recordCliente",
          "type": "uint256"
        },
        {
          "name": "leasing",
          "type": "bool"
        }
      ],
      "payable": false,
      "stateMutability": "view",
      "type": "function",
      "signature": "0x74b23349"
    },
    {
      "constant": true,
      "inputs": [],
      "name": "PrecioAparcado",
      "outputs": [
        {
          "name": "",
          "type": "uint256"
        }
      ],
      "payable": false,
      "stateMutability": "view",
      "type": "function",
      "signature": "0x870b26d4"
    },
    {
      "constant": true,
      "inputs": [],
      "name": "idCocheXDefecto",
      "outputs": [
        {
          "name": "",
          "type": "string"
        }
      ],
      "payable": false,
      "stateMutability": "view",
      "type": "function",
      "signature": "0xa645b277"
    },
    {
      "constant": true,
      "inputs": [],
      "name": "PrecioKmCarretera",
      "outputs": [
        {
          "name": "",
          "type": "uint256"
        }
      ],
      "payable": false,
      "stateMutability": "view",
      "type": "function",
      "signature": "0xa7cf6dc9"
    },
    {
      "constant": true,
      "inputs": [
        {
          "name": "",
          "type": "address"
        }
      ],
      "name": "users",
      "outputs": [
        {
          "name": "IdUser",
          "type": "string"
        },
        {
          "name": "Password",
          "type": "string"
        },
        {
          "name": "DNI",
          "type": "string"
        },
        {
          "name": "VATNumber",
          "type": "string"
        },
        {
          "name": "TypeUser",
          "type": "uint256"
        },
        {
          "name": "timestamp",
          "type": "uint256"
        }
      ],
      "payable": false,
      "stateMutability": "view",
      "type": "function",
      "signature": "0xa87430ba"
    },
    {
      "constant": true,
      "inputs": [],
      "name": "IsAdmin",
      "outputs": [
        {
          "name": "",
          "type": "bool"
        }
      ],
      "payable": false,
      "stateMutability": "view",
      "type": "function",
      "signature": "0xacad8667"
    },
    {
      "constant": true,
      "inputs": [
        {
          "name": "",
          "type": "uint256"
        }
      ],
      "name": "adminAseguradora",
      "outputs": [
        {
          "name": "",
          "type": "address"
        }
      ],
      "payable": false,
      "stateMutability": "view",
      "type": "function",
      "signature": "0xec2c9d99"
    },
    {
      "constant": true,
      "inputs": [
        {
          "name": "",
          "type": "uint256"
        }
      ],
      "name": "aseguradoraPrecioCiudad",
      "outputs": [
        {
          "name": "",
          "type": "uint256"
        }
      ],
      "payable": false,
      "stateMutability": "view",
      "type": "function",
      "signature": "0xef9c6425"
    },
    {
      "constant": true,
      "inputs": [],
      "name": "PrecioKmCiudad",
      "outputs": [
        {
          "name": "",
          "type": "uint256"
        }
      ],
      "payable": false,
      "stateMutability": "view",
      "type": "function",
      "signature": "0xf329b3df"
    },
    {
      "constant": true,
      "inputs": [
        {
          "name": "",
          "type": "uint256"
        }
      ],
      "name": "aseguradoraPrecioCarretera",
      "outputs": [
        {
          "name": "",
          "type": "uint256"
        }
      ],
      "payable": false,
      "stateMutability": "view",
      "type": "function",
      "signature": "0xfd99aeec"
    },
    {
      "anonymous": false,
      "inputs": [
        {
          "indexed": false,
          "name": "idLicencia",
          "type": "string"
        },
        {
          "indexed": false,
          "name": "antiguedadLicencia",
          "type": "uint256"
        },
        {
          "indexed": false,
          "name": "record",
          "type": "uint256"
        }
      ],
      "name": "nuevoCliente",
      "type": "event",
      "signature": "0xabb347fe1e309ec2decea659ebd5f04813d4f1a66986b2639881814e26b3601f"
    },
    {
      "anonymous": false,
      "inputs": [
        {
          "indexed": false,
          "name": "idCoche",
          "type": "uint256"
        },
        {
          "indexed": false,
          "name": "TotalCost",
          "type": "uint256"
        }
      ],
      "name": "CostoSeguro",
      "type": "event",
      "signature": "0xcbaadd3cf1d7dce84c68c08077fb9a1c1795ff994854434cc380f18d79c4ddd8"
    },
    {
      "constant": false,
      "inputs": [],
      "name": "DetenerContratoToken",
      "outputs": [
        {
          "name": "",
          "type": "bool"
        }
      ],
      "payable": false,
      "stateMutability": "nonpayable",
      "type": "function",
      "signature": "0xb5555627"
    },
    {
      "constant": false,
      "inputs": [],
      "name": "ActivarContratoToken",
      "outputs": [
        {
          "name": "",
          "type": "bool"
        }
      ],
      "payable": false,
      "stateMutability": "nonpayable",
      "type": "function",
      "signature": "0x8dae461d"
    },
    {
      "constant": false,
      "inputs": [
        {
          "name": "nombre",
          "type": "string"
        },
        {
          "name": "edad",
          "type": "uint256"
        },
        {
          "name": "idLicencia",
          "type": "string"
        },
        {
          "name": "antiguedadLicencia",
          "type": "uint256"
        }
      ],
      "name": "crearCliente",
      "outputs": [],
      "payable": false,
      "stateMutability": "nonpayable",
      "type": "function",
      "signature": "0x4cf35650"
    },
    {
      "constant": false,
      "inputs": [
        {
          "name": "precioAparcado",
          "type": "uint256"
        }
      ],
      "name": "actualizarPrecioAparcado",
      "outputs": [],
      "payable": false,
      "stateMutability": "nonpayable",
      "type": "function",
      "signature": "0x36f8d582"
    },
    {
      "constant": false,
      "inputs": [
        {
          "name": "precioCarretera",
          "type": "uint256"
        }
      ],
      "name": "actualizarPrecioCarretera",
      "outputs": [],
      "payable": false,
      "stateMutability": "nonpayable",
      "type": "function",
      "signature": "0x7186d445"
    },
    {
      "constant": false,
      "inputs": [
        {
          "name": "precioCiudad",
          "type": "uint256"
        }
      ],
      "name": "actualizarPrecioCiudad",
      "outputs": [],
      "payable": false,
      "stateMutability": "nonpayable",
      "type": "function",
      "signature": "0xd61b388d"
    },
    {
      "constant": false,
      "inputs": [],
      "name": "costoSeguro",
      "outputs": [],
      "payable": false,
      "stateMutability": "nonpayable",
      "type": "function",
      "signature": "0x487b6651"
    },
    {
      "constant": false,
      "inputs": [],
      "name": "CheckAdmin",
      "outputs": [
        {
          "name": "",
          "type": "bool"
        }
      ],
      "payable": false,
      "stateMutability": "nonpayable",
      "type": "function",
      "signature": "0x4e4dc82c"
    },
    {
      "constant": true,
      "inputs": [],
      "name": "fetchUser",
      "outputs": [
        {
          "name": "",
          "type": "string"
        },
        {
          "name": "",
          "type": "string"
        }
      ],
      "payable": false,
      "stateMutability": "view",
      "type": "function",
      "signature": "0x8337d90f"
    },
    {
      "constant": false,
      "inputs": [],
      "name": "RegistraTime",
      "outputs": [
        {
          "name": "",
          "type": "bool"
        }
      ],
      "payable": false,
      "stateMutability": "nonpayable",
      "type": "function",
      "signature": "0xe261426f"
    },
    {
      "constant": false,
      "inputs": [
        {
          "name": "_IdUsuario",
          "type": "string"
        },
        {
          "name": "_Password",
          "type": "string"
        },
        {
          "name": "_TypeUser",
          "type": "uint256"
        },
        {
          "name": "_DNI",
          "type": "string"
        },
        {
          "name": "_VATNumber",
          "type": "string"
        }
      ],
      "name": "NewUser",
      "outputs": [
        {
          "name": "",
          "type": "bool"
        }
      ],
      "payable": false,
      "stateMutability": "nonpayable",
      "type": "function",
      "signature": "0xbdfbb398"
    }
  ],
  "bytecode": "0x608060405260008060146101000a81548160ff02191690831515021790555060008060156101000a81548160ff02191690831515021790555060086001556040805190810160405280600281526020017f3041000000000000000000000000000000000000000000000000000000000000815250600290805190602001906200008a9291906200012e565b506040805190810160405280600281526020017f304100000000000000000000000000000000000000000000000000000000000081525060039080519060200190620000d89291906200012e565b50600a60115560646012556032601355336000806101000a81548173ffffffffffffffffffffffffffffffffffffffff021916908373ffffffffffffffffffffffffffffffffffffffff160217905550620001dd565b828054600181600116156101000203166002900490600052602060002090601f016020900481019282601f106200017157805160ff1916838001178555620001a2565b82800160010185558215620001a2579182015b82811115620001a157825182559160200191906001019062000184565b5b509050620001b19190620001b5565b5090565b620001da91905b80821115620001d6576000816000905550600101620001bc565b5090565b90565b61228c80620001ed6000396000f30060806040526004361061015f576000357c0100000000000000000000000000000000000000000000000000000000900463ffffffff1680630cb99e5f1461016457806312029e60146101bb578063261e07f5146101ea57806336f8d5821461027a5780633968cc47146102a7578063487b6651146102fe5780634cf35650146103155780634e4dc82c146103d85780635977a96a146104075780636cbbb62d146104735780637186d445146104b457806374b23349146104e15780638337d90f146106ab578063870b26d4146107a75780638dae461d146107d2578063a645b27714610801578063a7cf6dc914610891578063a87430ba146108bc578063acad866714610aca578063b555562714610af9578063bdfbb39814610b28578063d61b388d14610c85578063e261426f14610cb2578063ec2c9d9914610ce1578063ef9c642514610d4e578063f329b3df14610d8f578063fd99aeec14610dba575b600080fd5b34801561017057600080fd5b506101a5600480360381019080803573ffffffffffffffffffffffffffffffffffffffff169060200190929190505050610dfb565b6040518082815260200191505060405180910390f35b3480156101c757600080fd5b506101d0610e13565b604051808215151515815260200191505060405180910390f35b3480156101f657600080fd5b506101ff610e26565b6040518080602001828103825283818151815260200191508051906020019080838360005b8381101561023f578082015181840152602081019050610224565b50505050905090810190601f16801561026c5780820380516001836020036101000a031916815260200191505b509250505060405180910390f35b34801561028657600080fd5b506102a560048036038101908080359060200190929190505050610ec4565b005b3480156102b357600080fd5b506102e8600480360381019080803573ffffffffffffffffffffffffffffffffffffffff169060200190929190505050610edf565b6040518082815260200191505060405180910390f35b34801561030a57600080fd5b50610313610ef7565b005b34801561032157600080fd5b506103d6600480360381019080803590602001908201803590602001908080601f016020809104026020016040519081016040528093929190818152602001838380828437820191505050505050919291929080359060200190929190803590602001908201803590602001908080601f016020809104026020016040519081016040528093929190818152602001838380828437820191505050505050919291929080359060200190929190505050611107565b005b3480156103e457600080fd5b506103ed6114b8565b604051808215151515815260200191505060405180910390f35b34801561041357600080fd5b50610448600480360381019080803573ffffffffffffffffffffffffffffffffffffffff169060200190929190505050611545565b6040518085815260200184815260200183815260200182815260200194505050505060405180910390f35b34801561047f57600080fd5b5061049e60048036038101908080359060200190929190505050611575565b6040518082815260200191505060405180910390f35b3480156104c057600080fd5b506104df6004803603810190808035906020019092919050505061158d565b005b3480156104ed57600080fd5b50610522600480360381019080803573ffffffffffffffffffffffffffffffffffffffff1690602001909291905050506115a8565b60405180806020018a8152602001806020018981526020018815151515815260200180602001871515151581526020018681526020018515151515815260200184810384528d818151815260200191508051906020019080838360005b8381101561059a57808201518184015260208101905061057f565b50505050905090810190601f1680156105c75780820380516001836020036101000a031916815260200191505b5084810383528b818151815260200191508051906020019080838360005b838110156106005780820151818401526020810190506105e5565b50505050905090810190601f16801561062d5780820380516001836020036101000a031916815260200191505b50848103825288818151815260200191508051906020019080838360005b8381101561066657808201518184015260208101905061064b565b50505050905090810190601f1680156106935780820380516001836020036101000a031916815260200191505b509c5050505050505050505050505060405180910390f35b3480156106b757600080fd5b506106c06117e5565b604051808060200180602001838103835285818151815260200191508051906020019080838360005b838110156107045780820151818401526020810190506106e9565b50505050905090810190601f1680156107315780820380516001836020036101000a031916815260200191505b50838103825284818151815260200191508051906020019080838360005b8381101561076a57808201518184015260208101905061074f565b50505050905090810190601f1680156107975780820380516001836020036101000a031916815260200191505b5094505050505060405180910390f35b3480156107b357600080fd5b506107bc6119ac565b6040518082815260200191505060405180910390f35b3480156107de57600080fd5b506107e76119b2565b604051808215151515815260200191505060405180910390f35b34801561080d57600080fd5b50610816611a2c565b6040518080602001828103825283818151815260200191508051906020019080838360005b8381101561085657808201518184015260208101905061083b565b50505050905090810190601f1680156108835780820380516001836020036101000a031916815260200191505b509250505060405180910390f35b34801561089d57600080fd5b506108a6611aca565b6040518082815260200191505060405180910390f35b3480156108c857600080fd5b506108fd600480360381019080803573ffffffffffffffffffffffffffffffffffffffff169060200190929190505050611ad0565b604051808060200180602001806020018060200187815260200186815260200185810385528b818151815260200191508051906020019080838360005b8381101561095557808201518184015260208101905061093a565b50505050905090810190601f1680156109825780820380516001836020036101000a031916815260200191505b5085810384528a818151815260200191508051906020019080838360005b838110156109bb5780820151818401526020810190506109a0565b50505050905090810190601f1680156109e85780820380516001836020036101000a031916815260200191505b50858103835289818151815260200191508051906020019080838360005b83811015610a21578082015181840152602081019050610a06565b50505050905090810190601f168015610a4e5780820380516001836020036101000a031916815260200191505b50858103825288818151815260200191508051906020019080838360005b83811015610a87578082015181840152602081019050610a6c565b50505050905090810190601f168015610ab45780820380516001836020036101000a031916815260200191505b509a505050505050505050505060405180910390f35b348015610ad657600080fd5b50610adf611d6c565b604051808215151515815260200191505060405180910390f35b348015610b0557600080fd5b50610b0e611d7f565b604051808215151515815260200191505060405180910390f35b348015610b3457600080fd5b50610c6b600480360381019080803590602001908201803590602001908080601f0160208091040260200160405190810160405280939291908181526020018383808284378201915050505050509192919290803590602001908201803590602001908080601f016020809104026020016040519081016040528093929190818152602001838380828437820191505050505050919291929080359060200190929190803590602001908201803590602001908080601f0160208091040260200160405190810160405280939291908181526020018383808284378201915050505050509192919290803590602001908201803590602001908080601f0160208091040260200160405190810160405280939291908181526020018383808284378201915050505050509192919290505050611dfa565b604051808215151515815260200191505060405180910390f35b348015610c9157600080fd5b50610cb060048036038101908080359060200190929190505050611ff3565b005b348015610cbe57600080fd5b50610cc761200e565b604051808215151515815260200191505060405180910390f35b348015610ced57600080fd5b50610d0c6004803603810190808035906020019092919050505061205e565b604051808273ffffffffffffffffffffffffffffffffffffffff1673ffffffffffffffffffffffffffffffffffffffff16815260200191505060405180910390f35b348015610d5a57600080fd5b50610d7960048036038101908080359060200190929190505050612091565b6040518082815260200191505060405180910390f35b348015610d9b57600080fd5b50610da46120a9565b6040518082815260200191505060405180910390f35b348015610dc657600080fd5b50610de5600480360381019080803590602001909291905050506120af565b6040518082815260200191505060405180910390f35b600f6020528060005260406000206000915090505481565b600060149054906101000a900460ff1681565b60028054600181600116156101000203166002900480601f016020809104026020016040519081016040528092919081815260200182805460018160011615610100020316600290048015610ebc5780601f10610e9157610100808354040283529160200191610ebc565b820191906000526020600020905b815481529060010190602001808311610e9f57829003601f168201915b505050505081565b80600b60008081526020019081526020016000208190555050565b600a6020528060005260406000206000915090505481565b6000806000806000806000600960003373ffffffffffffffffffffffffffffffffffffffff1673ffffffffffffffffffffffffffffffffffffffff168152602001908152602001600020600101549050610f66601154600b6000808152602001908152602001600020546120c7565b9350610f87601254600d6000808152602001908152602001600020546120c7565b9650610fa8601354600c6000808152602001908152602001600020546120c7565b9550610fbd87610fb88689612102565b612102565b9450611015856110106001600960003373ffffffffffffffffffffffffffffffffffffffff1673ffffffffffffffffffffffffffffffffffffffff16815260200190815260200160002060070154612120565b6120c7565b925061102b83611026604184612120565b6120c7565b915060806040519081016040528083815260200160125481526020016013548152602001601154815250600860003373ffffffffffffffffffffffffffffffffffffffff1673ffffffffffffffffffffffffffffffffffffffff168152602001908152602001600020600082015181600001556020820151816001015560408201518160020155606082015181600301559050507fcbaadd3cf1d7dce84c68c08077fb9a1c1795ff994854434cc380f18d79c4ddd88183604051808381526020018281526020019250505060405180910390a150505050505050565b6000801515600060149054906101000a900460ff16151514151561112a57600080fd5b600382111515611148576111416001546008612120565b90506111ba565b6006821015801561115a575060098210155b156111735761116c600154600c612120565b90506111b9565b600982101580156111855750600c8211155b1561119e57611197600154600e612120565b90506111b8565b600f8211156111b7576111b4600154600f612120565b90505b5b5b5b6101206040519081016040528086815260200185815260200184815260200183815260200160001515815260200160038054600181600116156101000203166002900480601f01602080910402602001604051908101604052809291908181526020018280546001816001161561010002031660029004801561127e5780601f106112535761010080835404028352916020019161127e565b820191906000526020600020905b81548152906001019060200180831161126157829003601f168201915b5050505050815260200160001515815260200182815260200160001515815250600960003373ffffffffffffffffffffffffffffffffffffffff1673ffffffffffffffffffffffffffffffffffffffff16815260200190815260200160002060008201518160000190805190602001906112f992919061213b565b5060208201518160010155604082015181600201908051906020019061132092919061213b565b506060820151816003015560808201518160040160006101000a81548160ff02191690831515021790555060a082015181600501908051906020019061136792919061213b565b5060c08201518160060160006101000a81548160ff02191690831515021790555060e082015181600701556101008201518160080160006101000a81548160ff021916908315150217905550905050600a60003373ffffffffffffffffffffffffffffffffffffffff1673ffffffffffffffffffffffffffffffffffffffff168152602001908152602001600020600081548092919060010191905055507fabb347fe1e309ec2decea659ebd5f04813d4f1a66986b2639881814e26b3601f8383836040518080602001848152602001838152602001828103825285818151815260200191508051906020019080838360005b8381101561147557808201518184015260208101905061145a565b50505050905090810190601f1680156114a25780820380516001836020036101000a031916815260200191505b5094505050505060405180910390a15050505050565b60008060009054906101000a900473ffffffffffffffffffffffffffffffffffffffff1673ffffffffffffffffffffffffffffffffffffffff163373ffffffffffffffffffffffffffffffffffffffff1614151561151557600080fd5b6001600060156101000a81548160ff021916908315150217905550600060159054906101000a900460ff16905090565b60086020528060005260406000206000915090508060000154908060010154908060020154908060030154905084565b600b6020528060005260406000206000915090505481565b80600c60008081526020019081526020016000208190555050565b6009602052806000526040600020600091509050806000018054600181600116156101000203166002900480601f0160208091040260200160405190810160405280929190818152602001828054600181600116156101000203166002900480156116545780601f1061162957610100808354040283529160200191611654565b820191906000526020600020905b81548152906001019060200180831161163757829003601f168201915b505050505090806001015490806002018054600181600116156101000203166002900480601f0160208091040260200160405190810160405280929190818152602001828054600181600116156101000203166002900480156116f85780601f106116cd576101008083540402835291602001916116f8565b820191906000526020600020905b8154815290600101906020018083116116db57829003601f168201915b5050505050908060030154908060040160009054906101000a900460ff1690806005018054600181600116156101000203166002900480601f0160208091040260200160405190810160405280929190818152602001828054600181600116156101000203166002900480156117af5780601f10611784576101008083540402835291602001916117af565b820191906000526020600020905b81548152906001019060200180831161179257829003601f168201915b5050505050908060060160009054906101000a900460ff16908060070154908060080160009054906101000a900460ff16905089565b606080601060003373ffffffffffffffffffffffffffffffffffffffff1673ffffffffffffffffffffffffffffffffffffffff168152602001908152602001600020600001601060003373ffffffffffffffffffffffffffffffffffffffff1673ffffffffffffffffffffffffffffffffffffffff168152602001908152602001600020600101818054600181600116156101000203166002900480601f0160208091040260200160405190810160405280929190818152602001828054600181600116156101000203166002900480156119015780601f106118d657610100808354040283529160200191611901565b820191906000526020600020905b8154815290600101906020018083116118e457829003601f168201915b50505050509150808054600181600116156101000203166002900480601f01602080910402602001604051908101604052809291908181526020018280546001816001161561010002031660029004801561199d5780601f106119725761010080835404028352916020019161199d565b820191906000526020600020905b81548152906001019060200180831161198057829003601f168201915b50505050509050915091509091565b60075481565b60008060009054906101000a900473ffffffffffffffffffffffffffffffffffffffff1673ffffffffffffffffffffffffffffffffffffffff163373ffffffffffffffffffffffffffffffffffffffff16141515611a0f57600080fd5b60008060146101000a81548160ff02191690831515021790555090565b60038054600181600116156101000203166002900480601f016020809104026020016040519081016040528092919081815260200182805460018160011615610100020316600290048015611ac25780601f10611a9757610100808354040283529160200191611ac2565b820191906000526020600020905b815481529060010190602001808311611aa557829003601f168201915b505050505081565b60065481565b6010602052806000526040600020600091509050806000018054600181600116156101000203166002900480601f016020809104026020016040519081016040528092919081815260200182805460018160011615610100020316600290048015611b7c5780601f10611b5157610100808354040283529160200191611b7c565b820191906000526020600020905b815481529060010190602001808311611b5f57829003601f168201915b505050505090806001018054600181600116156101000203166002900480601f016020809104026020016040519081016040528092919081815260200182805460018160011615610100020316600290048015611c1a5780601f10611bef57610100808354040283529160200191611c1a565b820191906000526020600020905b815481529060010190602001808311611bfd57829003601f168201915b505050505090806002018054600181600116156101000203166002900480601f016020809104026020016040519081016040528092919081815260200182805460018160011615610100020316600290048015611cb85780601f10611c8d57610100808354040283529160200191611cb8565b820191906000526020600020905b815481529060010190602001808311611c9b57829003601f168201915b505050505090806003018054600181600116156101000203166002900480601f016020809104026020016040519081016040528092919081815260200182805460018160011615610100020316600290048015611d565780601f10611d2b57610100808354040283529160200191611d56565b820191906000526020600020905b815481529060010190602001808311611d3957829003601f168201915b5050505050908060040154908060050154905086565b600060159054906101000a900460ff1681565b60008060009054906101000a900473ffffffffffffffffffffffffffffffffffffffff1673ffffffffffffffffffffffffffffffffffffffff163373ffffffffffffffffffffffffffffffffffffffff16141515611ddc57600080fd5b6001600060146101000a81548160ff02191690831515021790555090565b600042601060003373ffffffffffffffffffffffffffffffffffffffff1673ffffffffffffffffffffffffffffffffffffffff1681526020019081526020016000206005018190555085601060003373ffffffffffffffffffffffffffffffffffffffff1673ffffffffffffffffffffffffffffffffffffffff1681526020019081526020016000206000019080519060200190611e999291906121bb565b5084601060003373ffffffffffffffffffffffffffffffffffffffff1673ffffffffffffffffffffffffffffffffffffffff1681526020019081526020016000206001019080519060200190611ef09291906121bb565b5083601060003373ffffffffffffffffffffffffffffffffffffffff1673ffffffffffffffffffffffffffffffffffffffff1681526020019081526020016000206004018190555082601060003373ffffffffffffffffffffffffffffffffffffffff1673ffffffffffffffffffffffffffffffffffffffff1681526020019081526020016000206002019080519060200190611f8e9291906121bb565b5081601060003373ffffffffffffffffffffffffffffffffffffffff1673ffffffffffffffffffffffffffffffffffffffff1681526020019081526020016000206003019080519060200190611fe59291906121bb565b506001905095945050505050565b80600d60008081526020019081526020016000208190555050565b600042601060003373ffffffffffffffffffffffffffffffffffffffff1673ffffffffffffffffffffffffffffffffffffffff168152602001908152602001600020600501819055506001905090565b600e6020528060005260406000206000915054906101000a900473ffffffffffffffffffffffffffffffffffffffff1681565b600d6020528060005260406000206000915090505481565b60055481565b600c6020528060005260406000206000915090505481565b60008060008414156120dc57600091506120fb565b82840290508284828115156120ed57fe5b041415156120f757fe5b8091505b5092915050565b600080828401905083811015151561211657fe5b8091505092915050565b600080828481151561212e57fe5b0490508091505092915050565b828054600181600116156101000203166002900490600052602060002090601f016020900481019282601f1061217c57805160ff19168380011785556121aa565b828001600101855582156121aa579182015b828111156121a957825182559160200191906001019061218e565b5b5090506121b7919061223b565b5090565b828054600181600116156101000203166002900490600052602060002090601f016020900481019282601f106121fc57805160ff191683800117855561222a565b8280016001018555821561222a579182015b8281111561222957825182559160200191906001019061220e565b5b509050612237919061223b565b5090565b61225d91905b80821115612259576000816000905550600101612241565b5090565b905600a165627a7a72305820644ca6d5443a2397b3538390226bd54e64c2a15c8b451a1fbb560f2ae26850020029",
  "source": "pragma solidity ^0.4.2;\nimport \"./SafeMath.sol\";\nimport \"./Owned.sol\";\n\n\ncontract Cliente is Owned {\n\n    bool public Activo = false;\n    bool public IsAdmin = false;\n    uint puntosLicencia = 8;\n    \n    event nuevoCliente(\n        string idLicencia, \n        uint antiguedadLicencia,\n        uint record\n    );  \n    event CostoSeguro(\n        uint idCoche, \n        uint TotalCost\n    );    \n    string public tipoSeguroXDefecto = \"0A\";\n    string public idCocheXDefecto = \"0A\";\n    address admin;    \n    uint256 public PrecioKmCiudad;\n    uint256 public PrecioKmCarretera;\n    uint256 public PrecioAparcado;\n\n    mapping(address => Seguro) public CostSeguro;\n    mapping(address => cliente) public clientes;\n    mapping(address => uint) public ownerCuentaLeasing;\n    mapping(uint => uint) public aseguradoraPrecioAparcado;\n    mapping(uint => uint) public aseguradoraPrecioCarretera;\n    mapping(uint => uint) public aseguradoraPrecioCiudad;\n    mapping(uint => address) public adminAseguradora;\n    mapping(address => uint) public IdEmpresa;\n    mapping(address => user) public users;\n\n   struct user {\n        string IdUser;\n        string Password;\n        string DNI;\n        string VATNumber;\n        uint TypeUser;\n        uint256 timestamp;\n    }\n   \n\n    struct cliente {\n        string nombre;\n        uint edad;\n        string idLicencia;\n        uint AntiguedadLicencia;\n        bool Seguro;\n        string idCoche; \n        bool credito;\n        uint recordCliente;\n        bool leasing;\n    }\n    struct Seguro {\n        uint CostoTotal;\n        uint KmCiudad;\n        uint KmCarretera;\n        uint TiempoAparcado;\n    }\n    //** @title detener el contrato. */\n    function DetenerContratoToken() public onlyOwner returns (bool) {\n        Activo = true;\n        /** @dev Modificar el valor de la variable true desactivando el Smart contract.*/\n    }\n    //** @title Activar el contrato. */\n    function ActivarContratoToken() public onlyOwner returns (bool) {\n        Activo = false;\n        /** @dev Modificar el valor de la vriable true activando el Smart contract.*/\n    }\n\n    //** @title Crear Ahorrador. */\n    function crearCliente(string nombre, uint edad, string idLicencia, uint antiguedadLicencia) public {\n        /** @param nombre nombre del usuario.\n            @param idUsuario identifiacin del usuario.\n            @param fecha fecha en la que se realiza el alta del usuario.\n        */\n        /** @dev verifica que el Smartcontract este activo\n        verifica que la address no haya creado un usuario ya en la DAAP y finalmente verifica que no se hayan asignado ya todos los \n        periodos de retiro de Tokens*/\n\n       uint record;\n       require(Activo == false);\n       //require((ownerCuentaLeasing[msg.sender]) == 0);\n        if (antiguedadLicencia <= 3){\n            record = SafeMath.div(puntosLicencia, 8);\n        }else if (antiguedadLicencia >= 6 && antiguedadLicencia >= 9){\n            record = SafeMath.div(puntosLicencia, 12);\n        }else if (antiguedadLicencia >= 9 && antiguedadLicencia <= 12){\n            record = SafeMath.div(puntosLicencia, 14);\n        }else if (antiguedadLicencia > 15){\n            record = SafeMath.div(puntosLicencia, 15);\n        }\n       /** @dev cuando se registra el sexto usuario, se inicializan las fechas para el contrato y para los usuarios, de acuerdo\n       a la fecha de registro de ltimo usuario*/             \n        /** @dev se da de alta los valores del usuario que se ha registrado para cada uno de lo campos del strcut en el mapping Ahorrado\n        Se suma el 1 a los contadores mes y ownerCuenta Ahorro, mesCount y mes*/\n        clientes[msg.sender] = cliente(nombre, edad, idLicencia, antiguedadLicencia, false, idCocheXDefecto, false, record,false);\n        ownerCuentaLeasing[msg.sender] ++;\n        /**@return emite el evento con los datos de mes, nombre y fecha de comienzoAhorro.*/\n        emit nuevoCliente(idLicencia, antiguedadLicencia, record);        \n    }\n\n    function actualizarPrecioAparcado(uint precioAparcado) public {\n        /*uint idEmpresa;\n        idEmpresa = IdEmpresa[msg.sender];\n        require(adminAseguradora[idEmpresa] == msg.sender);\n        aseguradoraPrecioAparcado[idEmpresa] = precioAparcado;*/\n        aseguradoraPrecioAparcado[0] = precioAparcado;\n    }\n    function actualizarPrecioCarretera(uint precioCarretera) public {\n        /*uint idEmpresa;\n        idEmpresa = IdEmpresa[msg.sender];\n        require(adminAseguradora[idEmpresa] == msg.sender);\n        aseguradoraPrecioCarretera[idEmpresa] = precioCarretera;*/\n        aseguradoraPrecioCarretera[0] = precioCarretera;\n    }\n    function actualizarPrecioCiudad(uint precioCiudad) public {\n        /*uint idEmpresa;\n        idEmpresa = IdEmpresa[msg.sender];\n        require(adminAseguradora[idEmpresa] == msg.sender);\n        aseguradoraPrecioCiudad[idEmpresa] = precioCiudad;*/\n        aseguradoraPrecioCiudad[0] = precioCiudad;\n    }\n\n//para probar si funciona la funcin de calculo del seguro\n    uint _tiempoAparcado = 10;\n    uint _KmCiudad = 100 ;\n    uint _KmCarretera = 50; \n \n\n//** @title Constructor. */\n    \n//** @title Compra de tokens. */\n    function costoSeguro() public {\n          /**@param _numeroTokens cantidad a comprar.\n \n      /** @dev verificar que el precio a pagar sea el precio estblecido\n      verifica que el contrato cuente con los tokens solicitados para comprar\n      verifica que se haya realizado la transaccin satisfactoriamente desde el contrato Token.sol.\n      Actualiza el valor de los tokens vendidos\n      */ \n        uint CostoMovCiudad;\n        uint CostoMovCarretera;\n        uint CostoMovimiento;\n        uint CostoAparcado;\n        uint CMovRecord;\n        uint CostoTotal;\n        uint edad;\n\n        edad = clientes[msg.sender].edad;\n        CostoAparcado = SafeMath.mul(_tiempoAparcado, aseguradoraPrecioAparcado[0]);\n        CostoMovCiudad = SafeMath.mul(_KmCiudad, aseguradoraPrecioCiudad[0]);\n        CostoMovCarretera = SafeMath.mul(_KmCarretera, aseguradoraPrecioCarretera[0]);\n        CostoMovimiento = SafeMath.add(CostoMovCiudad, (SafeMath.add(CostoAparcado, CostoMovCarretera)));\n        CMovRecord = SafeMath.mul((CostoMovimiento),(SafeMath.div(1, clientes[msg.sender].recordCliente)));\n        CostoTotal = SafeMath.mul(CMovRecord, SafeMath.div(65,edad));\n        CostSeguro[msg.sender] = Seguro(CostoTotal, _KmCiudad, _KmCarretera, _tiempoAparcado);\n        emit CostoSeguro(edad, CostoTotal);\n    }\n\n    function CheckAdmin() public onlyOwner returns (bool)\n    {   \n    \n        IsAdmin = true; \n        return (IsAdmin);\n        //returns true if it is the owner of the contract\n\n    }\n\n    function fetchUser() public view returns (string, string)\n\n    {\n\n        return (users[msg.sender].IdUser,users[msg.sender].Password);\n    }\n    \n    function RegistraTime() public returns (bool)\n\n    {\n        users[msg.sender].timestamp=now;\n        return (true);\n    }\n\n    function NewUser(string _IdUsuario, string _Password,uint _TypeUser,string _DNI,string _VATNumber) public returns (bool)\n\n    {\n        users[msg.sender].timestamp=now;\n        users[msg.sender].IdUser=_IdUsuario;\n        users[msg.sender].Password=_Password;\n        users[msg.sender].TypeUser=_TypeUser;\n        users[msg.sender].DNI=_DNI;\n        users[msg.sender].VATNumber=_VATNumber;\n        return (true);\n    }\n\n\n\n}",
  "sourcePath": "/home/pedro/TFM/TFM-Leasing/Proyecto/contracts/Cliente.sol",
  "compiler": {
    "name": "solc",
    "version": "0.4.24+commit.e67f0147.Emscripten.clang"
  },
  "schemaVersion": "3.0.0",
  "updatedAt": "2019-03-10T15:04:44.284Z",
  "devdoc": {
    "methods": {}
  },
  "userdoc": {
    "methods": {}
  }
}