{
  "contractName": "Cliente",
  "abi": [
    {
      "constant": true,
      "inputs": [],
      "name": "Activo",
      "outputs": [
        {
          "name": "",
          "type": "bool"
        }
      ],
      "payable": false,
      "stateMutability": "view",
      "type": "function",
      "signature": "0x12029e60"
    },
    {
      "constant": true,
      "inputs": [
        {
          "name": "",
          "type": "uint256"
        }
      ],
      "name": "Aleatorio",
      "outputs": [
        {
          "name": "",
          "type": "uint256"
        }
      ],
      "payable": false,
      "stateMutability": "view",
      "type": "function",
      "signature": "0x2c353ea9"
    },
    {
      "constant": true,
      "inputs": [
        {
          "name": "",
          "type": "address"
        }
      ],
      "name": "CostSeguro",
      "outputs": [
        {
          "name": "CostoTotal",
          "type": "uint256"
        },
        {
          "name": "KmCiudad",
          "type": "uint256"
        },
        {
          "name": "KmCarretera",
          "type": "uint256"
        },
        {
          "name": "TiempoAparcado",
          "type": "uint256"
        }
      ],
      "payable": false,
      "stateMutability": "view",
      "type": "function",
      "signature": "0x5977a96a"
    },
    {
      "constant": true,
      "inputs": [
        {
          "name": "",
          "type": "uint256"
        }
      ],
      "name": "aseguradoraPrecioAparcado",
      "outputs": [
        {
          "name": "",
          "type": "uint256"
        }
      ],
      "payable": false,
      "stateMutability": "view",
      "type": "function",
      "signature": "0x6cbbb62d"
    },
    {
      "constant": true,
      "inputs": [],
      "name": "PrecioAparcado",
      "outputs": [
        {
          "name": "",
          "type": "uint256"
        }
      ],
      "payable": false,
      "stateMutability": "view",
      "type": "function",
      "signature": "0x870b26d4"
    },
    {
      "constant": true,
      "inputs": [],
      "name": "PrecioKmCarretera",
      "outputs": [
        {
          "name": "",
          "type": "uint256"
        }
      ],
      "payable": false,
      "stateMutability": "view",
      "type": "function",
      "signature": "0xa7cf6dc9"
    },
    {
      "constant": true,
      "inputs": [
        {
          "name": "",
          "type": "address"
        }
      ],
      "name": "users",
      "outputs": [
        {
          "name": "IdUser",
          "type": "string"
        },
        {
          "name": "DNI",
          "type": "string"
        },
        {
          "name": "VATNumber",
          "type": "string"
        },
        {
          "name": "TypeUser",
          "type": "uint256"
        },
        {
          "name": "record",
          "type": "uint256"
        },
        {
          "name": "PrecioAparcado",
          "type": "uint256"
        },
        {
          "name": "PrecioKmCarretera",
          "type": "uint256"
        },
        {
          "name": "PrecioKmCiudad",
          "type": "uint256"
        },
        {
          "name": "MaxCredito",
          "type": "uint256"
        },
        {
          "name": "IdCoche",
          "type": "uint256"
        }
      ],
      "payable": false,
      "stateMutability": "view",
      "type": "function",
      "signature": "0xa87430ba"
    },
    {
      "constant": true,
      "inputs": [],
      "name": "IsAdmin",
      "outputs": [
        {
          "name": "",
          "type": "bool"
        }
      ],
      "payable": false,
      "stateMutability": "view",
      "type": "function",
      "signature": "0xacad8667"
    },
    {
      "constant": true,
      "inputs": [
        {
          "name": "",
          "type": "uint256"
        }
      ],
      "name": "aseguradoraPrecioCiudad",
      "outputs": [
        {
          "name": "",
          "type": "uint256"
        }
      ],
      "payable": false,
      "stateMutability": "view",
      "type": "function",
      "signature": "0xef9c6425"
    },
    {
      "constant": true,
      "inputs": [],
      "name": "PrecioKmCiudad",
      "outputs": [
        {
          "name": "",
          "type": "uint256"
        }
      ],
      "payable": false,
      "stateMutability": "view",
      "type": "function",
      "signature": "0xf329b3df"
    },
    {
      "constant": true,
      "inputs": [
        {
          "name": "",
          "type": "uint256"
        }
      ],
      "name": "aseguradoraPrecioCarretera",
      "outputs": [
        {
          "name": "",
          "type": "uint256"
        }
      ],
      "payable": false,
      "stateMutability": "view",
      "type": "function",
      "signature": "0xfd99aeec"
    },
    {
      "anonymous": false,
      "inputs": [
        {
          "indexed": false,
          "name": "record",
          "type": "uint256"
        }
      ],
      "name": "nuevoCliente",
      "type": "event",
      "signature": "0x6ba4ead7636d04e0c95d33e655db0853aa65a450a0414cf4be9f3f4bf8f35c32"
    },
    {
      "anonymous": false,
      "inputs": [
        {
          "indexed": false,
          "name": "idCoche",
          "type": "uint256"
        },
        {
          "indexed": false,
          "name": "TotalCost",
          "type": "uint256"
        }
      ],
      "name": "CostoSeguro",
      "type": "event",
      "signature": "0xcbaadd3cf1d7dce84c68c08077fb9a1c1795ff994854434cc380f18d79c4ddd8"
    },
    {
      "anonymous": false,
      "inputs": [
        {
          "indexed": false,
          "name": "",
          "type": "bytes"
        }
      ],
      "name": "newRandomNumber_bytes",
      "type": "event",
      "signature": "0xab2f9e7e7e74d54a49792fd7ff57c497b14cd2bad49d7537937a5a527a50f0ac"
    },
    {
      "anonymous": false,
      "inputs": [
        {
          "indexed": false,
          "name": "",
          "type": "uint256"
        }
      ],
      "name": "newRandomNumber_uint",
      "type": "event",
      "signature": "0xb084d8f103616749e12a8d363f0b50f8bb8568b4086c093bd88140c74042c47a"
    },
    {
      "constant": false,
      "inputs": [],
      "name": "DetenerContratoToken",
      "outputs": [
        {
          "name": "",
          "type": "bool"
        }
      ],
      "payable": false,
      "stateMutability": "nonpayable",
      "type": "function",
      "signature": "0xb5555627"
    },
    {
      "constant": false,
      "inputs": [],
      "name": "ActivarContratoToken",
      "outputs": [
        {
          "name": "",
          "type": "bool"
        }
      ],
      "payable": false,
      "stateMutability": "nonpayable",
      "type": "function",
      "signature": "0x8dae461d"
    },
    {
      "constant": false,
      "inputs": [
        {
          "name": "idEmpresa",
          "type": "uint256"
        },
        {
          "name": "precioAparcado",
          "type": "uint256"
        }
      ],
      "name": "actualizarPrecioAparcado",
      "outputs": [],
      "payable": false,
      "stateMutability": "nonpayable",
      "type": "function",
      "signature": "0x7208177a"
    },
    {
      "constant": false,
      "inputs": [
        {
          "name": "idEmpresa",
          "type": "uint256"
        },
        {
          "name": "precioCarretera",
          "type": "uint256"
        }
      ],
      "name": "actualizarPrecioCarretera",
      "outputs": [],
      "payable": false,
      "stateMutability": "nonpayable",
      "type": "function",
      "signature": "0x02f58854"
    },
    {
      "constant": false,
      "inputs": [
        {
          "name": "idEmpresa",
          "type": "uint256"
        },
        {
          "name": "precioCiudad",
          "type": "uint256"
        }
      ],
      "name": "actualizarPrecioCiudad",
      "outputs": [],
      "payable": false,
      "stateMutability": "nonpayable",
      "type": "function",
      "signature": "0xa87e71be"
    },
    {
      "constant": false,
      "inputs": [],
      "name": "costoSeguro",
      "outputs": [],
      "payable": false,
      "stateMutability": "nonpayable",
      "type": "function",
      "signature": "0x487b6651"
    },
    {
      "constant": false,
      "inputs": [],
      "name": "CheckAdmin",
      "outputs": [
        {
          "name": "",
          "type": "bool"
        }
      ],
      "payable": false,
      "stateMutability": "nonpayable",
      "type": "function",
      "signature": "0x4e4dc82c"
    },
    {
      "constant": true,
      "inputs": [],
      "name": "fetchUser",
      "outputs": [
        {
          "name": "",
          "type": "string"
        }
      ],
      "payable": false,
      "stateMutability": "view",
      "type": "function",
      "signature": "0x8337d90f"
    },
    {
      "constant": false,
      "inputs": [
        {
          "name": "IdUsuario",
          "type": "string"
        },
        {
          "name": "TypeUser",
          "type": "uint256"
        },
        {
          "name": "DNI",
          "type": "string"
        },
        {
          "name": "VATNumber",
          "type": "string"
        },
        {
          "name": "record",
          "type": "uint256"
        }
      ],
      "name": "NewUser",
      "outputs": [],
      "payable": false,
      "stateMutability": "nonpayable",
      "type": "function",
      "signature": "0x67ff5c23"
    },
    {
      "constant": false,
      "inputs": [
        {
          "name": "dir",
          "type": "address"
        }
      ],
      "name": "deleteUser",
      "outputs": [
        {
          "name": "",
          "type": "bool"
        }
      ],
      "payable": false,
      "stateMutability": "nonpayable",
      "type": "function",
      "signature": "0x5c60f226"
    },
    {
      "constant": false,
      "inputs": [
        {
          "name": "precioKmCiudad",
          "type": "uint256"
        },
        {
          "name": "precioKmCarretera",
          "type": "uint256"
        },
        {
          "name": "precioAparcado",
          "type": "uint256"
        }
      ],
      "name": "actualizarSeguro",
      "outputs": [
        {
          "name": "",
          "type": "bool"
        }
      ],
      "payable": false,
      "stateMutability": "nonpayable",
      "type": "function",
      "signature": "0xe737f07e"
    },
    {
      "constant": false,
      "inputs": [],
      "name": "RandomExample",
      "outputs": [],
      "payable": false,
      "stateMutability": "nonpayable",
      "type": "function",
      "signature": "0x949f80b0"
    },
    {
      "constant": false,
      "inputs": [
        {
          "name": "_myid",
          "type": "bytes32"
        },
        {
          "name": "_result",
          "type": "string"
        }
      ],
      "name": "__callback",
      "outputs": [],
      "payable": false,
      "stateMutability": "nonpayable",
      "type": "function",
      "signature": "0x27dc297e"
    },
    {
      "constant": false,
      "inputs": [
        {
          "name": "_queryId",
          "type": "bytes32"
        },
        {
          "name": "_result",
          "type": "string"
        },
        {
          "name": "_proof",
          "type": "bytes"
        }
      ],
      "name": "__callback",
      "outputs": [],
      "payable": false,
      "stateMutability": "nonpayable",
      "type": "function",
      "signature": "0x38bbfa50"
    },
    {
      "constant": false,
      "inputs": [],
      "name": "update",
      "outputs": [],
      "payable": true,
      "stateMutability": "payable",
      "type": "function",
      "signature": "0xa2e62045"
    },
    {
      "constant": false,
      "inputs": [
        {
          "name": "maxCredit",
          "type": "uint256"
        }
      ],
      "name": "asignaCreditoMaximo",
      "outputs": [
        {
          "name": "",
          "type": "uint256"
        }
      ],
      "payable": false,
      "stateMutability": "nonpayable",
      "type": "function",
      "signature": "0xadc4f95c"
    }
  ],
  "bytecode": "0x60806040526000600660006101000a81548160ff0219169083151502179055506000600660016101000a81548160ff0219169083151502179055506050600755336000806101000a81548173ffffffffffffffffffffffffffffffffffffffff021916908373ffffffffffffffffffffffffffffffffffffffff1602179055506154a68061008e6000396000f3fe60806040526004361061015f576000357c0100000000000000000000000000000000000000000000000000000000900463ffffffff16806302f588541461016457806312029e60146101a957806327dc297e146101d85780632c353ea9146102aa57806338bbfa50146102f9578063487b6651146104625780634e4dc82c146104795780635977a96a146104a85780635c60f2261461052257806367ff5c231461058b5780636cbbb62d146107955780637208177a146107e45780638337d90f14610829578063870b26d4146108b95780638dae461d146108e4578063949f80b014610913578063a2e620451461092a578063a7cf6dc914610934578063a87430ba1461095f578063a87e71be14610b32578063acad866714610b77578063adc4f95c14610ba6578063b555562714610bf5578063e737f07e14610c24578063ef9c642514610c8b578063f329b3df14610cda578063fd99aeec14610d05575b600080fd5b34801561017057600080fd5b506101a76004803603604081101561018757600080fd5b810190808035906020019092919080359060200190929190505050610d54565b005b3480156101b557600080fd5b506101be610d70565b604051808215151515815260200191505060405180910390f35b3480156101e457600080fd5b506102a8600480360360408110156101fb57600080fd5b81019080803590602001909291908035906020019064010000000081111561022257600080fd5b82018360208201111561023457600080fd5b8035906020019184600183028401116401000000008311171561025657600080fd5b91908080601f016020809104026020016040519081016040528093929190818152602001838380828437600081840152601f19601f820116905080830192505050505050509192919290505050610d83565b005b3480156102b657600080fd5b506102e3600480360360208110156102cd57600080fd5b8101908080359060200190929190505050610dc6565b6040518082815260200191505060405180910390f35b34801561030557600080fd5b506104606004803603606081101561031c57600080fd5b81019080803590602001909291908035906020019064010000000081111561034357600080fd5b82018360208201111561035557600080fd5b8035906020019184600183028401116401000000008311171561037757600080fd5b91908080601f016020809104026020016040519081016040528093929190818152602001838380828437600081840152601f19601f820116905080830192505050505050509192919290803590602001906401000000008111156103da57600080fd5b8201836020820111156103ec57600080fd5b8035906020019184600183028401116401000000008311171561040e57600080fd5b91908080601f016020809104026020016040519081016040528093929190818152602001838380828437600081840152601f19601f820116905080830192505050505050509192919290505050610dde565b005b34801561046e57600080fd5b50610477610fc3565b005b34801561048557600080fd5b5061048e611197565b604051808215151515815260200191505060405180910390f35b3480156104b457600080fd5b506104f7600480360360208110156104cb57600080fd5b81019080803573ffffffffffffffffffffffffffffffffffffffff169060200190929190505050611224565b6040518085815260200184815260200183815260200182815260200194505050505060405180910390f35b34801561052e57600080fd5b506105716004803603602081101561054557600080fd5b81019080803573ffffffffffffffffffffffffffffffffffffffff169060200190929190505050611254565b604051808215151515815260200191505060405180910390f35b34801561059757600080fd5b50610793600480360360a08110156105ae57600080fd5b81019080803590602001906401000000008111156105cb57600080fd5b8201836020820111156105dd57600080fd5b803590602001918460018302840111640100000000831117156105ff57600080fd5b91908080601f016020809104026020016040519081016040528093929190818152602001838380828437600081840152601f19601f820116905080830192505050505050509192919290803590602001909291908035906020019064010000000081111561066c57600080fd5b82018360208201111561067e57600080fd5b803590602001918460018302840111640100000000831117156106a057600080fd5b91908080601f016020809104026020016040519081016040528093929190818152602001838380828437600081840152601f19601f8201169050808301925050505050505091929192908035906020019064010000000081111561070357600080fd5b82018360208201111561071557600080fd5b8035906020019184600183028401116401000000008311171561073757600080fd5b91908080601f016020809104026020016040519081016040528093929190818152602001838380828437600081840152601f19601f82011690508083019250505050505050919291929080359060200190929190505050611309565b005b3480156107a157600080fd5b506107ce600480360360208110156107b857600080fd5b8101908080359060200190929190505050611496565b6040518082815260200191505060405180910390f35b3480156107f057600080fd5b506108276004803603604081101561080757600080fd5b8101908080359060200190929190803590602001909291905050506114ae565b005b34801561083557600080fd5b5061083e6114ca565b6040518080602001828103825283818151815260200191508051906020019080838360005b8381101561087e578082015181840152602081019050610863565b50505050905090810190601f1680156108ab5780820380516001836020036101000a031916815260200191505b509250505060405180910390f35b3480156108c557600080fd5b506108ce6115ac565b6040518082815260200191505060405180910390f35b3480156108f057600080fd5b506108f96115b2565b604051808215151515815260200191505060405180910390f35b34801561091f57600080fd5b5061092861162d565b005b610932611663565b005b34801561094057600080fd5b5061094961168a565b6040518082815260200191505060405180910390f35b34801561096b57600080fd5b506109ae6004803603602081101561098257600080fd5b81019080803573ffffffffffffffffffffffffffffffffffffffff169060200190929190505050611690565b604051808060200180602001806020018b81526020018a815260200189815260200188815260200187815260200186815260200185815260200184810384528e818151815260200191508051906020019080838360005b83811015610a20578082015181840152602081019050610a05565b50505050905090810190601f168015610a4d5780820380516001836020036101000a031916815260200191505b5084810383528d818151815260200191508051906020019080838360005b83811015610a86578082015181840152602081019050610a6b565b50505050905090810190601f168015610ab35780820380516001836020036101000a031916815260200191505b5084810382528c818151815260200191508051906020019080838360005b83811015610aec578082015181840152602081019050610ad1565b50505050905090810190601f168015610b195780820380516001836020036101000a031916815260200191505b509d505050505050505050505050505060405180910390f35b348015610b3e57600080fd5b50610b7560048036036040811015610b5557600080fd5b8101908080359060200190929190803590602001909291905050506118ac565b005b348015610b8357600080fd5b50610b8c6118c8565b604051808215151515815260200191505060405180910390f35b348015610bb257600080fd5b50610bdf60048036036020811015610bc957600080fd5b81019080803590602001909291905050506118db565b6040518082815260200191505060405180910390f35b348015610c0157600080fd5b50610c0a61196e565b604051808215151515815260200191505060405180910390f35b348015610c3057600080fd5b50610c7160048036036060811015610c4757600080fd5b810190808035906020019092919080359060200190929190803590602001909291905050506119e9565b604051808215151515815260200191505060405180910390f35b348015610c9757600080fd5b50610cc460048036036020811015610cae57600080fd5b8101908080359060200190929190505050611acb565b6040518082815260200191505060405180910390f35b348015610ce657600080fd5b50610cef611ae3565b6040518082815260200191505060405180910390f35b348015610d1157600080fd5b50610d3e60048036036020811015610d2857600080fd5b8101908080359060200190929190505050611ae9565b6040518082815260200191505060405180910390f35b80600d6000848152602001908152602001600020819055505050565b600660009054906101000a900460ff1681565b610dc2828260006040519080825280601f01601f191660200182016040528015610dbc5781602001600182028038833980820191505090505b50610dde565b5050565b60106020528060005260406000206000915090505481565b610de6611b01565b73ffffffffffffffffffffffffffffffffffffffff163373ffffffffffffffffffffffffffffffffffffffff1614151515610e2057600080fd5b6000610e2d848484611e77565b60ff16141515610e3c57610fbe565b7fab2f9e7e7e74d54a49792fd7ff57c497b14cd2bad49d7537937a5a527a50f0ac826040518080602001828103825283818151815260200191508051906020019080838360005b83811015610e9e578082015181840152602081019050610e83565b50505050905090810190601f168015610ecb5780820380516001836020036101000a031916815260200191505b509250505060405180910390a160006701000000000000009050600081846040516020018082805190602001908083835b602083101515610f215780518252602082019150602081019050602083039250610efc565b6001836020036101000a0380198251168184511680821785525050505050509050019150506040516020818303038152906040528051906020012060019004811515610f6957fe5b0690508060106000808152602001908152602001600020819055507fb084d8f103616749e12a8d363f0b50f8bb8568b4086c093bd88140c74042c47a816040518082815260200191505060405180910390a150505b505050565b6000600a90506000606490506000603290506000806000806000806000610ffd8a600c60008081526020019081526020016000205461208f565b935061101c89600e60008081526020019081526020016000205461208f565b965061103b88600d60008081526020019081526020016000205461208f565b95506110508761104b86896120ca565b6120ca565b94506110a8856110a36001600f60003373ffffffffffffffffffffffffffffffffffffffff1673ffffffffffffffffffffffffffffffffffffffff168152602001908152602001600020600401546120e8565b61208f565b92506110be836110b96041846120e8565b61208f565b91506080604051908101604052808381526020018a81526020018981526020018b815250600b60003373ffffffffffffffffffffffffffffffffffffffff1673ffffffffffffffffffffffffffffffffffffffff168152602001908152602001600020600082015181600001556020820151816001015560408201518160020155606082015181600301559050507fcbaadd3cf1d7dce84c68c08077fb9a1c1795ff994854434cc380f18d79c4ddd88183604051808381526020018281526020019250505060405180910390a150505050505050505050565b60008060009054906101000a900473ffffffffffffffffffffffffffffffffffffffff1673ffffffffffffffffffffffffffffffffffffffff163373ffffffffffffffffffffffffffffffffffffffff161415156111f457600080fd5b6001600660016101000a81548160ff021916908315150217905550600660019054906101000a900460ff16905090565b600b6020528060005260406000206000915090508060000154908060010154908060020154908060030154905084565b6000600f60008373ffffffffffffffffffffffffffffffffffffffff1673ffffffffffffffffffffffffffffffffffffffff168152602001908152602001600020600080820160006112a691906152cb565b6001820160006112b691906152cb565b6002820160006112c691906152cb565b6003820160009055600482016000905560058201600090556006820160009055600782016000905560088201600090556009820160009055505060019050919050565b60001515600660009054906101000a900460ff16151514151561132b57600080fd5b61014060405190810160405280868152602001848152602001838152602001858152602001828152602001600081526020016000815260200160008152602001600081526020016000815250600f60003373ffffffffffffffffffffffffffffffffffffffff1673ffffffffffffffffffffffffffffffffffffffff16815260200190815260200160002060008201518160000190805190602001906113d2929190615313565b5060208201518160010190805190602001906113ef929190615313565b50604082015181600201908051906020019061140c929190615313565b50606082015181600301556080820151816004015560a0820151816005015560c0820151816006015560e08201518160070155610100820151816008015561012082015181600901559050507f6ba4ead7636d04e0c95d33e655db0853aa65a450a0414cf4be9f3f4bf8f35c32846040518082815260200191505060405180910390a15050505050565b600c6020528060005260406000206000915090505481565b80600c6000848152602001908152602001600020819055505050565b6060600f60003373ffffffffffffffffffffffffffffffffffffffff1673ffffffffffffffffffffffffffffffffffffffff1681526020019081526020016000206000018054600181600116156101000203166002900480601f0160208091040260200160405190810160405280929190818152602001828054600181600116156101000203166002900480156115a25780601f10611577576101008083540402835291602001916115a2565b820191906000526020600020905b81548152906001019060200180831161158557829003601f168201915b5050505050905090565b600a5481565b60008060009054906101000a900473ffffffffffffffffffffffffffffffffffffffff1673ffffffffffffffffffffffffffffffffffffffff163373ffffffffffffffffffffffffffffffffffffffff1614151561160f57600080fd5b6000600660006101000a81548160ff02191690831515021790555090565b61165960307f010000000000000000000000000000000000000000000000000000000000000002612103565b611661611663565b565b60006007905060008090506000614e20905060006116828385846124a4565b905050505050565b60095481565b600f602052806000526040600020600091509050806000018054600181600116156101000203166002900480601f01602080910402602001604051908101604052809291908181526020018280546001816001161561010002031660029004801561173c5780601f106117115761010080835404028352916020019161173c565b820191906000526020600020905b81548152906001019060200180831161171f57829003601f168201915b505050505090806001018054600181600116156101000203166002900480601f0160208091040260200160405190810160405280929190818152602001828054600181600116156101000203166002900480156117da5780601f106117af576101008083540402835291602001916117da565b820191906000526020600020905b8154815290600101906020018083116117bd57829003601f168201915b505050505090806002018054600181600116156101000203166002900480601f0160208091040260200160405190810160405280929190818152602001828054600181600116156101000203166002900480156118785780601f1061184d57610100808354040283529160200191611878565b820191906000526020600020905b81548152906001019060200180831161185b57829003601f168201915b505050505090806003015490806004015490806005015490806006015490806007015490806008015490806009015490508a565b80600e6000848152602001908152602001600020819055505050565b600660019054906101000a900460ff1681565b600081600f60003373ffffffffffffffffffffffffffffffffffffffff1673ffffffffffffffffffffffffffffffffffffffff16815260200190815260200160002060080181905550600f60003373ffffffffffffffffffffffffffffffffffffffff1673ffffffffffffffffffffffffffffffffffffffff168152602001908152602001600020600801549050919050565b60008060009054906101000a900473ffffffffffffffffffffffffffffffffffffffff1673ffffffffffffffffffffffffffffffffffffffff163373ffffffffffffffffffffffffffffffffffffffff161415156119cb57600080fd5b6001600660006101000a81548160ff02191690831515021790555090565b600081600f60003373ffffffffffffffffffffffffffffffffffffffff1673ffffffffffffffffffffffffffffffffffffffff1681526020019081526020016000206005018190555082600f60003373ffffffffffffffffffffffffffffffffffffffff1673ffffffffffffffffffffffffffffffffffffffff1681526020019081526020016000206006018190555083600f60003373ffffffffffffffffffffffffffffffffffffffff1673ffffffffffffffffffffffffffffffffffffffff16815260200190815260200160002060070181905550600190509392505050565b600e6020528060005260406000206000915090505481565b60085481565b600d6020528060005260406000206000915090505481565b60008073ffffffffffffffffffffffffffffffffffffffff16600260009054906101000a900473ffffffffffffffffffffffffffffffffffffffff1673ffffffffffffffffffffffffffffffffffffffff161480611b8957506000611b87600260009054906101000a900473ffffffffffffffffffffffffffffffffffffffff16612a72565b145b15611b9a57611b986000612a7d565b505b600260009054906101000a900473ffffffffffffffffffffffffffffffffffffffff1673ffffffffffffffffffffffffffffffffffffffff166338cc48316040518163ffffffff167c0100000000000000000000000000000000000000000000000000000000028152600401602060405180830381600087803b158015611c2057600080fd5b505af1158015611c34573d6000803e3d6000fd5b505050506040513d6020811015611c4a57600080fd5b810190808051906020019092919050505073ffffffffffffffffffffffffffffffffffffffff16600160009054906101000a900473ffffffffffffffffffffffffffffffffffffffff1673ffffffffffffffffffffffffffffffffffffffff16141515611db357600260009054906101000a900473ffffffffffffffffffffffffffffffffffffffff1673ffffffffffffffffffffffffffffffffffffffff166338cc48316040518163ffffffff167c0100000000000000000000000000000000000000000000000000000000028152600401602060405180830381600087803b158015611d3757600080fd5b505af1158015611d4b573d6000803e3d6000fd5b505050506040513d6020811015611d6157600080fd5b8101908080519060200190929190505050600160006101000a81548173ffffffffffffffffffffffffffffffffffffffff021916908373ffffffffffffffffffffffffffffffffffffffff1602179055505b600160009054906101000a900473ffffffffffffffffffffffffffffffffffffffff1673ffffffffffffffffffffffffffffffffffffffff1663c281d19e6040518163ffffffff167c010000000000000000000000000000000000000000000000000000000002815260040160206040518083038186803b158015611e3757600080fd5b505afa158015611e4b573d6000803e3d6000fd5b505050506040513d6020811015611e6157600080fd5b8101908080519060200190929190505050905090565b60007f4c00000000000000000000000000000000000000000000000000000000000000826000815181101515611ea957fe5b9060200101517f010000000000000000000000000000000000000000000000000000000000000090047f0100000000000000000000000000000000000000000000000000000000000000027effffffffffffffffffffffffffffffffffffffffffffffffffffffffffffff1916141580611fbe57507f5000000000000000000000000000000000000000000000000000000000000000826001815181101515611f4e57fe5b9060200101517f010000000000000000000000000000000000000000000000000000000000000090047f0100000000000000000000000000000000000000000000000000000000000000027effffffffffffffffffffffffffffffffffffffffffffffffffffffffffffff191614155b8061204c5750600160ff16826002815181101515611fd857fe5b9060200101517f010000000000000000000000000000000000000000000000000000000000000090047f0100000000000000000000000000000000000000000000000000000000000000027f0100000000000000000000000000000000000000000000000000000000000000900460ff1614155b1561205a5760019050612088565b600061206f83868661206a612a8e565b612b30565b9050801515612082576002915050612088565b60009150505b9392505050565b6000808314156120a257600090506120c4565b600082840290508284828115156120b557fe5b041415156120bf57fe5b809150505b92915050565b60008082840190508381101515156120de57fe5b8091505092915050565b60008082848115156120f657fe5b0490508091505092915050565b600073ffffffffffffffffffffffffffffffffffffffff16600260009054906101000a900473ffffffffffffffffffffffffffffffffffffffff1673ffffffffffffffffffffffffffffffffffffffff16148061218a57506000612188600260009054906101000a900473ffffffffffffffffffffffffffffffffffffffff16612a72565b145b1561219b576121996000612a7d565b505b600260009054906101000a900473ffffffffffffffffffffffffffffffffffffffff1673ffffffffffffffffffffffffffffffffffffffff166338cc48316040518163ffffffff167c0100000000000000000000000000000000000000000000000000000000028152600401602060405180830381600087803b15801561222157600080fd5b505af1158015612235573d6000803e3d6000fd5b505050506040513d602081101561224b57600080fd5b810190808051906020019092919050505073ffffffffffffffffffffffffffffffffffffffff16600160009054906101000a900473ffffffffffffffffffffffffffffffffffffffff1673ffffffffffffffffffffffffffffffffffffffff161415156123b457600260009054906101000a900473ffffffffffffffffffffffffffffffffffffffff1673ffffffffffffffffffffffffffffffffffffffff166338cc48316040518163ffffffff167c0100000000000000000000000000000000000000000000000000000000028152600401602060405180830381600087803b15801561233857600080fd5b505af115801561234c573d6000803e3d6000fd5b505050506040513d602081101561236257600080fd5b8101908080519060200190929190505050600160006101000a81548173ffffffffffffffffffffffffffffffffffffffff021916908373ffffffffffffffffffffffffffffffffffffffff1602179055505b600160009054906101000a900473ffffffffffffffffffffffffffffffffffffffff1673ffffffffffffffffffffffffffffffffffffffff1663688dcfd7826040518263ffffffff167c010000000000000000000000000000000000000000000000000000000002815260040180827effffffffffffffffffffffffffffffffffffffffffffffffffffffffffffff19167effffffffffffffffffffffffffffffffffffffffffffffffffffffffffffff19168152602001915050600060405180830381600087803b15801561248957600080fd5b505af115801561249d573d6000803e3d6000fd5b5050505050565b600080831180156124b6575060208311155b15156124c157600080fd5b600a84029350606060016040519080825280601f01601f1916602001820160405280156124fd5781602001600182028038833980820191505090505b509050837f01000000000000000000000000000000000000000000000000000000000000000281600081518110151561253257fe5b9060200101907effffffffffffffffffffffffffffffffffffffffffffffffffffffffffffff1916908160001a905350606060206040519080825280601f01601f1916602001820160405280156125985781602001600182028038833980820191505090505b509050606060206040519080825280601f01601f1916602001820160405280156125d15781602001600182028038833980820191505090505b50905060006125de613315565b905060208352424118600143034018602084015260208252806020830152606060206040519080825280601f01601f1916602001820160405280156126325781602001600182028038833980820191505090505b509050886020820152606060086040519080825280601f01601f1916602001820160405280156126715781602001600182028038833980820191505090505b509050612684826018600884600061368b565b5061268d615393565b60806040519081016040528087815260200188815260200186815260200184815250905060006126f36040805190810160405280600681526020017f72616e646f6d0000000000000000000000000000000000000000000000000000815250838c6136ec565b9050606060086040519080825280601f01601f19166020018201604052801561272b5781602001600182028038833980820191505090505b50905060208401517f0100000000000000000000000000000000000000000000000000000000000000810460278301537e01000000000000000000000000000000000000000000000000000000000000810460268301537d010000000000000000000000000000000000000000000000000000000000810460258301537c0100000000000000000000000000000000000000000000000000000000810460248301537b01000000000000000000000000000000000000000000000000000000810460238301537a010000000000000000000000000000000000000000000000000000810460228301537901000000000000000000000000000000000000000000000000008104602183015378010000000000000000000000000000000000000000000000008104602083015350612a5f828285600160048110151561286c57fe5b6020020151600287600060048110151561288257fe5b60200201516040518082805190602001908083835b6020831015156128bc5780518252602082019150602081019050602083039250612897565b6001836020036101000a038019825116818451168082178552505050505050905001915050602060405180830381855afa1580156128fe573d6000803e3d6000fd5b5050506040513d602081101561291357600080fd5b810190808051906020019092919050505087600260048110151561293357fe5b60200201516040516020018085805190602001908083835b602083101515612970578051825260208201915060208101905060208303925061294b565b6001836020036101000a03801982511681845116808217855250505050505090500184805190602001908083835b6020831015156129c3578051825260208201915060208101905060208303925061299e565b6001836020036101000a03801982511681845116808217855250505050505090500183815260200182805190602001908083835b602083101515612a1c57805182526020820191506020810190506020830392506129f7565b6001836020036101000a03801982511681845116808217855250505050505090500194505050505060405160208183030381529060405280519060200120613aad565b8199505050505050505050509392505050565b6000813b9050919050565b6000612a87613ac9565b9050919050565b606060038054600181600116156101000203166002900480601f016020809104026020016040519081016040528092919081815260200182805460018160011615610100020316600290048015612b265780601f10612afb57610100808354040283529160200191612b26565b820191906000526020600020905b815481529060010190602001808311612b0957829003601f168201915b5050505050905090565b60008060206002876045815181101515612b4657fe5b9060200101517f010000000000000000000000000000000000000000000000000000000000000090047f0100000000000000000000000000000000000000000000000000000000000000027f0100000000000000000000000000000000000000000000000000000000000000900460ff1601604401019050606060206040519080825280601f01601f191660200182016040528015612bf45781602001600182028038833980820191505090505b509050612c068783602084600061368b565b50600284876040516020018083805190602001908083835b602083101515612c435780518252602082019150602081019050602083039250612c1e565b6001836020036101000a038019825116818451168082178552505050505050905001828152602001925050506040516020818303038152906040526040518082805190602001908083835b602083101515612cb35780518252602082019150602081019050602083039250612c8e565b6001836020036101000a038019825116818451168082178552505050505050905001915050602060405180830381855afa158015612cf5573d6000803e3d6000fd5b5050506040513d6020811015612d0a57600080fd5b810190808051906020019092919050505060405160200180828152602001915050604051602081830303815290604052805190602001208180519060200120141515612d5b5760009250505061330d565b606060028860016049860101815181101515612d7357fe5b9060200101517f010000000000000000000000000000000000000000000000000000000000000090047f0100000000000000000000000000000000000000000000000000000000000000027f0100000000000000000000000000000000000000000000000000000000000000900460ff16016040519080825280601f01601f191660200182016040528015612e175781602001600182028038833980820191505090505b509050612e2c8860498501835184600061368b565b50612f5b6002826040518082805190602001908083835b602083101515612e685780518252602082019150602081019050602083039250612e43565b6001836020036101000a038019825116818451168082178552505050505050905001915050602060405180830381855afa158015612eaa573d6000803e3d6000fd5b5050506040513d6020811015612ebf57600080fd5b8101908080519060200190929190505050878a60086020880101815181101515612ee557fe5b9060200101517f010000000000000000000000000000000000000000000000000000000000000090047f0100000000000000000000000000000000000000000000000000000000000000027f0100000000000000000000000000000000000000000000000000000000000000900460ff16613f5f565b1515612f6d576000935050505061330d565b606060296040519080825280601f01601f191660200182016040528015612fa35781602001600182028038833980820191505090505b509050612fb88960208601602984600061368b565b506060604080519080825280601f01601f191660200182016040528015612fee5781602001600182028038833980820191505090505b50905060006041845160296020890101010190506130148b60408303604085600061368b565b5060006002836040518082805190602001908083835b60208310151561304f578051825260208201915060208101905060208303925061302a565b6001836020036101000a038019825116818451168082178552505050505050905001915050602060405180830381855afa158015613091573d6000803e3d6000fd5b5050506040513d60208110156130a657600080fd5b8101908080519060200190929190505050905083816040516020018083805190602001908083835b6020831015156130f357805182526020820191506020810190506020830392506130ce565b6001836020036101000a0380198251168184511680821785525050505050509050018281526020019250505060405160208183030381529060405280519060200120600460008d815260200190815260200160002054141561316b57600460008c81526020019081526020016000206000905561317b565b600097505050505050505061330d565b606060496040519080825280601f01601f1916602001820160405280156131b15781602001600182028038833980820191505090505b5090506131c38d89604984600061368b565b5061326e6002826040518082805190602001908083835b6020831015156131ff57805182526020820191506020810190506020830392506131da565b6001836020036101000a038019825116818451168082178552505050505050905001915050602060405180830381855afa158015613241573d6000803e3d6000fd5b5050506040513d602081101561325657600080fd5b81019080805190602001909291905050508786614076565b15156132855760009850505050505050505061330d565b6005600083815260200190815260200160002060009054906101000a900460ff1615156132e1576132b68d846142fa565b6005600084815260200190815260200160002060006101000a81548160ff0219169083151502179055505b6005600083815260200190815260200160002060009054906101000a900460ff16985050505050505050505b949350505050565b60008073ffffffffffffffffffffffffffffffffffffffff16600260009054906101000a900473ffffffffffffffffffffffffffffffffffffffff1673ffffffffffffffffffffffffffffffffffffffff16148061339d5750600061339b600260009054906101000a900473ffffffffffffffffffffffffffffffffffffffff16612a72565b145b156133ae576133ac6000612a7d565b505b600260009054906101000a900473ffffffffffffffffffffffffffffffffffffffff1673ffffffffffffffffffffffffffffffffffffffff166338cc48316040518163ffffffff167c0100000000000000000000000000000000000000000000000000000000028152600401602060405180830381600087803b15801561343457600080fd5b505af1158015613448573d6000803e3d6000fd5b505050506040513d602081101561345e57600080fd5b810190808051906020019092919050505073ffffffffffffffffffffffffffffffffffffffff16600160009054906101000a900473ffffffffffffffffffffffffffffffffffffffff1673ffffffffffffffffffffffffffffffffffffffff161415156135c757600260009054906101000a900473ffffffffffffffffffffffffffffffffffffffff1673ffffffffffffffffffffffffffffffffffffffff166338cc48316040518163ffffffff167c0100000000000000000000000000000000000000000000000000000000028152600401602060405180830381600087803b15801561354b57600080fd5b505af115801561355f573d6000803e3d6000fd5b505050506040513d602081101561357557600080fd5b8101908080519060200190929190505050600160006101000a81548173ffffffffffffffffffffffffffffffffffffffff021916908373ffffffffffffffffffffffffffffffffffffffff1602179055505b600160009054906101000a900473ffffffffffffffffffffffffffffffffffffffff1673ffffffffffffffffffffffffffffffffffffffff1663abaa5f3e6040518163ffffffff167c010000000000000000000000000000000000000000000000000000000002815260040160206040518083038186803b15801561364b57600080fd5b505afa15801561365f573d6000803e3d6000fd5b505050506040513d602081101561367557600080fd5b8101908080519060200190929190505050905090565b606060008285019050808451101515156136a457600080fd5b600086602001905060008460200190505b8688602001018210156136dd57818901518082880152506020820191506020810190506136b5565b85935050505095945050505050565b60008073ffffffffffffffffffffffffffffffffffffffff16600260009054906101000a900473ffffffffffffffffffffffffffffffffffffffff1673ffffffffffffffffffffffffffffffffffffffff16148061377457506000613772600260009054906101000a900473ffffffffffffffffffffffffffffffffffffffff16612a72565b145b15613785576137836000612a7d565b505b600260009054906101000a900473ffffffffffffffffffffffffffffffffffffffff1673ffffffffffffffffffffffffffffffffffffffff166338cc48316040518163ffffffff167c0100000000000000000000000000000000000000000000000000000000028152600401602060405180830381600087803b15801561380b57600080fd5b505af115801561381f573d6000803e3d6000fd5b505050506040513d602081101561383557600080fd5b810190808051906020019092919050505073ffffffffffffffffffffffffffffffffffffffff16600160009054906101000a900473ffffffffffffffffffffffffffffffffffffffff1673ffffffffffffffffffffffffffffffffffffffff1614151561399e57600260009054906101000a900473ffffffffffffffffffffffffffffffffffffffff1673ffffffffffffffffffffffffffffffffffffffff166338cc48316040518163ffffffff167c0100000000000000000000000000000000000000000000000000000000028152600401602060405180830381600087803b15801561392257600080fd5b505af1158015613936573d6000803e3d6000fd5b505050506040513d602081101561394c57600080fd5b8101908080519060200190929190505050600160006101000a81548173ffffffffffffffffffffffffffffffffffffffff021916908373ffffffffffffffffffffffffffffffffffffffff1602179055505b606060046040519080825280602002602001820160405280156139d557816020015b60608152602001906001900390816139c05790505b5090508360006004811015156139e757fe5b60200201518160008151811015156139fb57fe5b90602001906020020181905250836001600481101515613a1757fe5b6020020151816001815181101515613a2b57fe5b90602001906020020181905250836002600481101515613a4757fe5b6020020151816002815181101515613a5b57fe5b90602001906020020181905250836003600481101515613a7757fe5b6020020151816003815181101515613a8b57fe5b90602001906020020181905250613aa3858285614863565b9150509392505050565b8060046000848152602001908152602001600020819055505050565b600080613ae9731d3b2638a7cc9f2cb3d298a3da7a90b67e5506ed612a72565b1115613b8b57731d3b2638a7cc9f2cb3d298a3da7a90b67e5506ed600260006101000a81548173ffffffffffffffffffffffffffffffffffffffff021916908373ffffffffffffffffffffffffffffffffffffffff160217905550613b826040805190810160405280600b81526020017f6574685f6d61696e6e6574000000000000000000000000000000000000000000815250614e3c565b60019050613f5c565b6000613baa73c03a2615d5efaf5f49f60b7bb6583eaec212fdf1612a72565b1115613c4c5773c03a2615d5efaf5f49f60b7bb6583eaec212fdf1600260006101000a81548173ffffffffffffffffffffffffffffffffffffffff021916908373ffffffffffffffffffffffffffffffffffffffff160217905550613c436040805190810160405280600c81526020017f6574685f726f707374656e330000000000000000000000000000000000000000815250614e3c565b60019050613f5c565b6000613c6b73b7a07bcf2ba2f2703b24c0691b5278999c59ac7e612a72565b1115613d0d5773b7a07bcf2ba2f2703b24c0691b5278999c59ac7e600260006101000a81548173ffffffffffffffffffffffffffffffffffffffff021916908373ffffffffffffffffffffffffffffffffffffffff160217905550613d046040805190810160405280600981526020017f6574685f6b6f76616e0000000000000000000000000000000000000000000000815250614e3c565b60019050613f5c565b6000613d2c73146500cfd35b22e4a392fe0adc06de1a1368ed48612a72565b1115613dce5773146500cfd35b22e4a392fe0adc06de1a1368ed48600260006101000a81548173ffffffffffffffffffffffffffffffffffffffff021916908373ffffffffffffffffffffffffffffffffffffffff160217905550613dc56040805190810160405280600b81526020017f6574685f72696e6b656279000000000000000000000000000000000000000000815250614e3c565b60019050613f5c565b6000613ded736f485c8bf6fc43ea212e93bbf8ce046c7f1cb475612a72565b1115613e5157736f485c8bf6fc43ea212e93bbf8ce046c7f1cb475600260006101000a81548173ffffffffffffffffffffffffffffffffffffffff021916908373ffffffffffffffffffffffffffffffffffffffff16021790555060019050613f5c565b6000613e707320e12a1f859b3feae5fb2a0a32c18f5a65555bbf612a72565b1115613ed4577320e12a1f859b3feae5fb2a0a32c18f5a65555bbf600260006101000a81548173ffffffffffffffffffffffffffffffffffffffff021916908373ffffffffffffffffffffffffffffffffffffffff16021790555060019050613f5c565b6000613ef37351efaf4c8b3c9afbd5ab9f4bbc82784ab6ef8faa612a72565b1115613f57577351efaf4c8b3c9afbd5ab9f4bbc82784ab6ef8faa600260006101000a81548173ffffffffffffffffffffffffffffffffffffffff021916908373ffffffffffffffffffffffffffffffffffffffff16021790555060019050613f5c565b600090505b90565b60008060019050828451141515613f7557600080fd5b60008090505b8381101561406a578481815181101515613f9157fe5b9060200101517f010000000000000000000000000000000000000000000000000000000000000090047f0100000000000000000000000000000000000000000000000000000000000000027effffffffffffffffffffffffffffffffffffffffffffffffffffffffffffff1916868260208110151561400c57fe5b1a7f0100000000000000000000000000000000000000000000000000000000000000027effffffffffffffffffffffffffffffffffffffffffffffffffffffffffffff191614151561405d57600091505b8080600101915050613f7b565b50809150509392505050565b6000806000806000606060206040519080825280601f01601f1916602001820160405280156140b45781602001600182028038833980820191505090505b509050600060208960038151811015156140ca57fe5b9060200101517f010000000000000000000000000000000000000000000000000000000000000090047f0100000000000000000000000000000000000000000000000000000000000000027f0100000000000000000000000000000000000000000000000000000000000000900460ff160360040190506141508982602085600061368b565b9150606060206040519080825280601f01601f1916602001820160405280156141885781602001600182028038833980820191505090505b5090506022820191506142268a60208c600186038151811015156141a857fe5b9060200101517f010000000000000000000000000000000000000000000000000000000000000090047f0100000000000000000000000000000000000000000000000000000000000000027f0100000000000000000000000000000000000000000000000000000000000000900460ff16038401602084600061368b565b905060208301519450602081015193506142438b601b8787614e56565b80975081985050508573ffffffffffffffffffffffffffffffffffffffff1689805190602001206001900473ffffffffffffffffffffffffffffffffffffffff16141561429a5760019750505050505050506142f3565b6142a78b601c8787614e56565b80975081985050508573ffffffffffffffffffffffffffffffffffffffff1689805190602001206001900473ffffffffffffffffffffffffffffffffffffffff16149750505050505050505b9392505050565b60008060606002856001860181518110151561431257fe5b9060200101517f010000000000000000000000000000000000000000000000000000000000000090047f0100000000000000000000000000000000000000000000000000000000000000027f0100000000000000000000000000000000000000000000000000000000000000900460ff16016040519080825280601f01601f1916602001820160405280156143b65781602001600182028038833980820191505090505b5090506143c88585835184600061368b565b506060604080519080825280601f01601f1916602001820160405280156143fe5781602001600182028038833980820191505090505b509050614411866004604084600061368b565b50606060626040519080825280601f01601f1916602001820160405280156144485781602001600182028038833980820191505090505b50905060017f01000000000000000000000000000000000000000000000000000000000000000281600081518110151561447e57fe5b9060200101907effffffffffffffffffffffffffffffffffffffffffffffffffffffffffffff1916908160001a9053506144c08760418803604184600161368b565b5060606040805190810160405280602081526020017ffd94fa71bc0ba10d39d464d0d8f465efeef0a2764e3887fcc9df41ded20f505c815250905061450b816000602085604261368b565b506145b66002836040518082805190602001908083835b6020831015156145475780518252602082019150602081019050602083039250614522565b6001836020036101000a038019825116818451168082178552505050505050905001915050602060405180830381855afa158015614589573d6000803e3d6000fd5b5050506040513d602081101561459e57600080fd5b81019080805190602001909291905050508585614076565b94508415156145cd5760009550505050505061485d565b60608060405190810160405280604081526020017f7fb956469c5c9b89840d55b43537e66a98dd4811ea0a27224272c2e5622911e881526020017f537a2f8e86a46baec82864e98dd01e9ccc2f8bc5dfc9cbe5a91a290498dd96e48152509050606060426040519080825280601f01601f1916602001820160405280156146635781602001600182028038833980820191505090505b50905060fe7f01000000000000000000000000000000000000000000000000000000000000000281600081518110151561469957fe5b9060200101907effffffffffffffffffffffffffffffffffffffffffffffffffffffffffffff1916908160001a9053506146d98a6003604184600161368b565b50606060028b60458151811015156146ed57fe5b9060200101517f010000000000000000000000000000000000000000000000000000000000000090047f0100000000000000000000000000000000000000000000000000000000000000027f0100000000000000000000000000000000000000000000000000000000000000900460ff16016040519080825280601f01601f1916602001820160405280156147915781602001600182028038833980820191505090505b5090506147a48b6044835184600061368b565b5061484f6002836040518082805190602001908083835b6020831015156147e057805182526020820191506020810190506020830392506147bb565b6001836020036101000a038019825116818451168082178552505050505050905001915050602060405180830381855afa158015614822573d6000803e3d6000fd5b5050506040513d602081101561483757600080fd5b81019080805190602001909291905050508285614076565b975087985050505050505050505b92915050565b60008073ffffffffffffffffffffffffffffffffffffffff16600260009054906101000a900473ffffffffffffffffffffffffffffffffffffffff1673ffffffffffffffffffffffffffffffffffffffff1614806148eb575060006148e9600260009054906101000a900473ffffffffffffffffffffffffffffffffffffffff16612a72565b145b156148fc576148fa6000612a7d565b505b600260009054906101000a900473ffffffffffffffffffffffffffffffffffffffff1673ffffffffffffffffffffffffffffffffffffffff166338cc48316040518163ffffffff167c0100000000000000000000000000000000000000000000000000000000028152600401602060405180830381600087803b15801561498257600080fd5b505af1158015614996573d6000803e3d6000fd5b505050506040513d60208110156149ac57600080fd5b810190808051906020019092919050505073ffffffffffffffffffffffffffffffffffffffff16600160009054906101000a900473ffffffffffffffffffffffffffffffffffffffff1673ffffffffffffffffffffffffffffffffffffffff16141515614b1557600260009054906101000a900473ffffffffffffffffffffffffffffffffffffffff1673ffffffffffffffffffffffffffffffffffffffff166338cc48316040518163ffffffff167c0100000000000000000000000000000000000000000000000000000000028152600401602060405180830381600087803b158015614a9957600080fd5b505af1158015614aad573d6000803e3d6000fd5b505050506040513d6020811015614ac357600080fd5b8101908080519060200190929190505050600160006101000a81548173ffffffffffffffffffffffffffffffffffffffff021916908373ffffffffffffffffffffffffffffffffffffffff1602179055505b6000600160009054906101000a900473ffffffffffffffffffffffffffffffffffffffff1673ffffffffffffffffffffffffffffffffffffffff16632ef3accc86856040518363ffffffff167c01000000000000000000000000000000000000000000000000000000000281526004018080602001838152602001828103825284818151815260200191508051906020019080838360005b83811015614bc8578082015181840152602081019050614bad565b50505050905090810190601f168015614bf55780820380516001836020036101000a031916815260200191505b509350505050602060405180830381600087803b158015614c1557600080fd5b505af1158015614c29573d6000803e3d6000fd5b505050506040513d6020811015614c3f57600080fd5b81019080805190602001909291905050509050823a02670de0b6b3a764000001811115614c73576000600102915050614e35565b6060614c7e85614e9a565b9050600160009054906101000a900473ffffffffffffffffffffffffffffffffffffffff1673ffffffffffffffffffffffffffffffffffffffff1663c55c1cb68360008985896040518663ffffffff167c0100000000000000000000000000000000000000000000000000000000028152600401808581526020018060200180602001848152602001838103835286818151815260200191508051906020019080838360005b83811015614d3f578082015181840152602081019050614d24565b50505050905090810190601f168015614d6c5780820380516001836020036101000a031916815260200191505b50838103825285818151815260200191508051906020019080838360005b83811015614da5578082015181840152602081019050614d8a565b50505050905090810190601f168015614dd25780820380516001836020036101000a031916815260200191505b5096505050505050506020604051808303818588803b158015614df457600080fd5b505af1158015614e08573d6000803e3d6000fd5b50505050506040513d6020811015614e1f57600080fd5b8101908080519060200190929190505050925050505b9392505050565b8060039080519060200190614e529291906153bb565b5050565b60008060008060405188815287602082015286604082015285606082015260208160808360006001610bb8f192508051915050818193509350505094509492505050565b6060614ea4614f1e565b614eac61543b565b614eb881610400614f2a565b614ec181614f7a565b60008090505b8351811015614f0757614efa8482815181101515614ee157fe5b9060200190602002015183614f8890919063ffffffff16565b8080600101915050614ec7565b50614f1181614fad565b8060000151915050919050565b60405180590338823950565b60008190506000602082811515614f3d57fe5b06141515614f5a57602081811515614f5157fe5b06602003810190505b808360200181815250506040518084526000815281810160405250505050565b614f85816004614fbb565b50565b614f958260028351614fdf565b614fa8818361513890919063ffffffff16565b505050565b614fb8816007614fbb565b50565b614fdb601f60058360ff169060020a0217836151e590919063ffffffff16565b5050565b6017811115156150105761500b8160058460ff169060020a0260ff1617846151e590919063ffffffff16565b615133565b60ff811115156150565761503a601860058460ff169060020a0217846151e590919063ffffffff16565b615050816001856152259092919063ffffffff16565b50615132565b61ffff8111151561509d57615081601960058460ff169060020a0217846151e590919063ffffffff16565b615097816002856152259092919063ffffffff16565b50615131565b63ffffffff811115156150e6576150ca601a60058460ff169060020a0217846151e590919063ffffffff16565b6150e0816004856152259092919063ffffffff16565b50615130565b67ffffffffffffffff8111151561512f57615117601b60058460ff169060020a0217846151e590919063ffffffff16565b61512d816008856152259092919063ffffffff16565b505b5b5b5b5b505050565b61514061543b565b826020015183600001515183510111156151705761516f8360026151698660200151865161528c565b026152a8565b5b60008060008451905085518051602081830101945086518101825260208701935050505b6020811015156151b95781518352602083019250602082019150602081039050615194565b60006001826020036101000a039050801983511681855116818117865250508694505050505092915050565b8160200151600183600001515101111561520b5761520a8260028460200151026152a8565b5b815180516020818301018381536001820183525050505050565b61522d61543b565b83602001518460000151518301111561525b5761525a84600261525487602001518661528c565b026152a8565b5b60006001836101000a0390508451805184818301018684198251161781528582018352505050849150509392505050565b60008183111561529e578290506152a2565b8190505b92915050565b6060826000015190506152bb8383614f2a565b6152c58382615138565b50505050565b50805460018160011615610100020316600290046000825580601f106152f15750615310565b601f01602090049060005260206000209081019061530f9190615455565b5b50565b828054600181600116156101000203166002900490600052602060002090601f016020900481019282601f1061535457805160ff1916838001178555615382565b82800160010185558215615382579182015b82811115615381578251825591602001919060010190615366565b5b50905061538f9190615455565b5090565b6080604051908101604052806004905b60608152602001906001900390816153a35790505090565b828054600181600116156101000203166002900490600052602060002090601f016020900481019282601f106153fc57805160ff191683800117855561542a565b8280016001018555821561542a579182015b8281111561542957825182559160200191906001019061540e565b5b5090506154379190615455565b5090565b604080519081016040528060608152602001600081525090565b61547791905b8082111561547357600081600090555060010161545b565b5090565b9056fea165627a7a72305820b06a955d395aeb7092d68fc9d9b6fcbbf075be375b08b5fb96982dc9e4ebdd530029",
  "source": "pragma solidity >= 0.5.0 < 0.6.0;\nimport \"./SafeMath.sol\";\nimport \"./Owned.sol\";\nimport \"installed_contracts/oraclize-api/contracts/usingOraclize.sol\";\n\n\ncontract Cliente is Owned, usingOraclize {\n\n        \n    bool public Activo = false;\n    bool public IsAdmin = false;\n    uint puntosLicencia = 80;//Este valor se debe obtener desde un Orculo\n    \n    event nuevoCliente(\n        uint record\n    );  \n    event CostoSeguro(\n        uint idCoche, \n        uint TotalCost\n    );    \n    event newRandomNumber_bytes(bytes);\n    event newRandomNumber_uint(uint);\n\n    \n \n    uint256 public PrecioKmCiudad;\n    uint256 public PrecioKmCarretera;\n    uint256 public PrecioAparcado;\n\n    mapping(address => Seguro) public CostSeguro;\n    mapping(uint => uint) public aseguradoraPrecioAparcado;\n    mapping(uint => uint) public aseguradoraPrecioCarretera;\n    mapping(uint => uint) public aseguradoraPrecioCiudad;\n    mapping(address => user) public users;\n    \n struct user {\n        string IdUser;\n        string DNI;\n        string VATNumber;\n        uint TypeUser;\n        uint record;\n        uint PrecioAparcado;\n        uint PrecioKmCarretera;\n        uint PrecioKmCiudad;        \n        uint MaxCredito;\n        uint IdCoche;\n }\n   \n    struct Seguro {\n        uint CostoTotal;\n        uint KmCiudad;\n        uint KmCarretera;\n        uint TiempoAparcado;\n    }\n    //** @title detener el contrato. */\n    function DetenerContratoToken() public onlyOwner returns (bool) {\n        Activo = true;\n        /** @dev Modificar el valor de la variable true desactivando el Smart contract.*/\n    }\n    //** @title Activar el contrato. */\n    function ActivarContratoToken() public onlyOwner returns (bool) {\n        Activo = false;\n        /** @dev Modificar el valor de la vriable true activando el Smart contract.*/\n    }\n    //** @title Crear Ahorrador. */\n    \n\n    function actualizarPrecioAparcado(uint idEmpresa, uint precioAparcado) public {\n        aseguradoraPrecioAparcado[idEmpresa] = precioAparcado;\n    }\n    function actualizarPrecioCarretera(uint idEmpresa, uint precioCarretera) public {\n        aseguradoraPrecioCarretera[idEmpresa] = precioCarretera;\n    }\n    function actualizarPrecioCiudad(uint idEmpresa, uint precioCiudad) public {\n        aseguradoraPrecioCiudad[idEmpresa] = precioCiudad;\n    }\n   \n\n//** @title Constructor. */\n    \n//** @title Compra de tokens. */\n    function costoSeguro() public {\n          /**@param _numeroTokens cantidad a comprar.\n \n      /** @dev verificar que el precio a pagar sea el precio establecido\n      verifica que el contrato cuente con los tokens solicitados para comprar\n      verifica que se haya realizado la transaccin satisfactoriamente desde el contrato Token.sol.\n      Actualiza el valor de los tokens vendidos\n      */ \n        uint _tiempoAparcado = 10;//Debera ser suministrado por Orculo\n        uint _KmCiudad = 100 ;//Debera ser suministrado por Orculo\n        uint _KmCarretera = 50; //Debera ser suministrado por Orculo\n        uint CostoMovCiudad;\n        uint CostoMovCarretera;\n        uint CostoMovimiento;\n        uint CostoAparcado;\n        uint CMovRecord;\n        uint CostoTotal;\n        uint edad;\n\n        //edad = users[msg.sender].edad;\n        CostoAparcado = SafeMath.mul(_tiempoAparcado, aseguradoraPrecioAparcado[0]);\n        CostoMovCiudad = SafeMath.mul(_KmCiudad, aseguradoraPrecioCiudad[0]);\n        CostoMovCarretera = SafeMath.mul(_KmCarretera, aseguradoraPrecioCarretera[0]);\n        CostoMovimiento = SafeMath.add(CostoMovCiudad, (SafeMath.add(CostoAparcado, CostoMovCarretera)));\n        CMovRecord = SafeMath.mul((CostoMovimiento),(SafeMath.div(1, users[msg.sender].record)));\n        CostoTotal = SafeMath.mul(CMovRecord, SafeMath.div(65,edad));\n        CostSeguro[msg.sender] = Seguro(CostoTotal, _KmCiudad, _KmCarretera, _tiempoAparcado);\n        emit CostoSeguro(edad, CostoTotal);\n    }\n\n    function CheckAdmin() public onlyOwner returns (bool)\n    {   \n        IsAdmin = true; \n        return (IsAdmin);\n        //returns true if it is the owner of the contract\n    }\n\n    function fetchUser() public view returns (string memory)\n\n    {\n\n        return (users[msg.sender].IdUser);\n    }\n    \n    /*function RegistraTime() public returns (bool)\n\n    {\n        users[msg.sender].timestamp=now;\n        return (true);\n    }*/\n\n   function NewUser(string memory IdUsuario, uint TypeUser, string memory DNI, string memory VATNumber, uint record) public \n    {\n//solo deberia poder darese de alta una vez el usuario\n       \n        require(Activo == false);\n       //require((ownerCuentaLeasing[msg.sender]) == 0);      \n       \n        users[msg.sender] = user(IdUsuario, DNI, VATNumber, TypeUser, record, 0, 0, 0, 0, 0);\n        \n        \n        emit nuevoCliente(TypeUser); \n       \n    }\n\n\n    /*function getUser(address dir) public view returns (string memory ,uint ,uint)\n\n    {\n\n        return (users[dir].IdUser,users[dir].TypeUser,users[dir].timestamp);\n    }*/\n\n\n\nfunction deleteUser(address dir) public returns (bool)\n\n    {\n        delete users[dir];\n        return (true);\n    }\n\n    \n\n    function actualizarSeguro(uint precioKmCiudad, uint precioKmCarretera, uint precioAparcado) public returns (bool)\n\n    {\n        //Solo debera poder contratar un leasing el cliente\n        \n        users[msg.sender].PrecioAparcado = precioAparcado;\n        users[msg.sender].PrecioKmCarretera = precioKmCarretera;\n        users[msg.sender].PrecioKmCiudad = precioKmCiudad;\n\n      \n        return (true);\n    }\n\n\n   function RandomExample() public {\n        oraclize_setProof(proofType_Ledger); // sets the Ledger authenticity proof in the constructor\n        update(); // let's ask for N random bytes immediately when the contract is created!\n    }\n\n    // the callback function is called by Oraclize when the result is ready\n    // the oraclize_randomDS_proofVerify modifier prevents an invalid proof to execute this function code:\n    // the proof validity is fully verified on-chain\n    mapping(uint => uint) public Aleatorio;\n\n    function __callback(bytes32 _queryId, string memory _result, bytes memory _proof) public\n    {\n        \n        require(msg.sender != oraclize_cbAddress());\n\n        if (oraclize_randomDS_proofVerify__returnCode(_queryId, _result, _proof) != 0) {\n            // the proof verification has failed, do we need to take any action here? (depends on the use case)\n        } else {\n            // the proof verification has passed\n            // now that we know that the random number was safely generated, let's use it..\n\n            emit newRandomNumber_bytes(bytes(_result)); // this is the resulting random number (bytes)\n\n            // for simplicity of use, let's also convert the random bytes to uint if we need\n            uint maxRange = 2**(8* 7); // this is the highest uint we want to get. It should never be greater than 2^(8*N), where N is the number of random bytes we had asked the datasource to return\n            uint randomNumber = uint(keccak256(abi.encodePacked(_result))) % maxRange; // this is an efficient way to get the uint out in the [0, maxRange] range\n            Aleatorio[0] = randomNumber;\n            emit newRandomNumber_uint(randomNumber); // this is the resulting random number (uint)\n        }\n    }\n\n    function update() public payable {\n        uint N = 7; // number of random bytes we want the datasource to return\n        uint delay = 0; // number of seconds to wait before the execution takes place\n        uint callbackGas = 20000; // amount of gas we want Oraclize to set for the callback function\n        bytes32 queryId = oraclize_newRandomDSQuery(delay, N, callbackGas); // this function internally generates the correct oraclize_query and returns its queryId\n    } \n\n    function asignaCreditoMaximo(uint maxCredit) public returns (uint){\n    users[msg.sender].MaxCredito= maxCredit;\n    return users[msg.sender].MaxCredito;\n    //asignacin de crdito mximo por direccin de usuario\n    }\n\n\n\n}",
  "sourcePath": "/home/omar/TFM_OP_1/TFM-Leasing/Proyecto/contracts/Cliente.sol",
  "compiler": {
    "name": "solc",
    "version": "0.5.0+commit.1d4f565a.Emscripten.clang"
  },
  "schemaVersion": "3.0.2",
  "updatedAt": "2019-03-31T10:20:05.046Z",
  "devdoc": {
    "methods": {}
  },
  "userdoc": {
    "methods": {}
  }
}