{
  "contractName": "Cliente",
  "abi": [
    {
      "constant": true,
      "inputs": [],
      "name": "Activo",
      "outputs": [
        {
          "name": "",
          "type": "bool"
        }
      ],
      "payable": false,
      "stateMutability": "view",
      "type": "function",
      "signature": "0x12029e60"
    },
    {
      "constant": true,
      "inputs": [
        {
          "name": "",
          "type": "uint256"
        }
      ],
      "name": "Aleatorio",
      "outputs": [
        {
          "name": "",
          "type": "uint256"
        }
      ],
      "payable": false,
      "stateMutability": "view",
      "type": "function",
      "signature": "0x2c353ea9"
    },
    {
      "constant": true,
      "inputs": [
        {
          "name": "",
          "type": "address"
        }
      ],
      "name": "CostSeguro",
      "outputs": [
        {
          "name": "CostoTotal",
          "type": "uint256"
        },
        {
          "name": "KmCiudad",
          "type": "uint256"
        },
        {
          "name": "KmCarretera",
          "type": "uint256"
        },
        {
          "name": "TiempoAparcado",
          "type": "uint256"
        }
      ],
      "payable": false,
      "stateMutability": "view",
      "type": "function",
      "signature": "0x5977a96a"
    },
    {
      "constant": true,
      "inputs": [
        {
          "name": "",
          "type": "uint256"
        }
      ],
      "name": "aseguradoraPrecioAparcado",
      "outputs": [
        {
          "name": "",
          "type": "uint256"
        }
      ],
      "payable": false,
      "stateMutability": "view",
      "type": "function",
      "signature": "0x6cbbb62d"
    },
    {
      "constant": true,
      "inputs": [
        {
          "name": "",
          "type": "address"
        }
      ],
      "name": "clientes",
      "outputs": [
        {
          "name": "nombre",
          "type": "string"
        },
        {
          "name": "DNI",
          "type": "string"
        },
        {
          "name": "VATNumber",
          "type": "string"
        },
        {
          "name": "Typeuser",
          "type": "uint256"
        },
        {
          "name": "record",
          "type": "uint256"
        },
        {
          "name": "PrecioAparcado",
          "type": "uint256"
        },
        {
          "name": "PrecioKmCarretera",
          "type": "uint256"
        },
        {
          "name": "PrecioKmCiudad",
          "type": "uint256"
        }
      ],
      "payable": false,
      "stateMutability": "view",
      "type": "function",
      "signature": "0x74b23349"
    },
    {
      "constant": true,
      "inputs": [],
      "name": "PrecioAparcado",
      "outputs": [
        {
          "name": "",
          "type": "uint256"
        }
      ],
      "payable": false,
      "stateMutability": "view",
      "type": "function",
      "signature": "0x870b26d4"
    },
    {
      "constant": true,
      "inputs": [],
      "name": "PrecioKmCarretera",
      "outputs": [
        {
          "name": "",
          "type": "uint256"
        }
      ],
      "payable": false,
      "stateMutability": "view",
      "type": "function",
      "signature": "0xa7cf6dc9"
    },
    {
      "constant": true,
      "inputs": [
        {
          "name": "",
          "type": "address"
        }
      ],
      "name": "users",
      "outputs": [
        {
          "name": "IdUser",
          "type": "string"
        },
        {
          "name": "DNI",
          "type": "string"
        },
        {
          "name": "VATNumber",
          "type": "string"
        },
        {
          "name": "TypeUser",
          "type": "uint256"
        },
        {
          "name": "record",
          "type": "uint256"
        },
        {
          "name": "PrecioAparcado",
          "type": "uint256"
        },
        {
          "name": "PrecioKmCarretera",
          "type": "uint256"
        },
        {
          "name": "PrecioKmCiudad",
          "type": "uint256"
        }
      ],
      "payable": false,
      "stateMutability": "view",
      "type": "function",
      "signature": "0xa87430ba"
    },
    {
      "constant": true,
      "inputs": [],
      "name": "IsAdmin",
      "outputs": [
        {
          "name": "",
          "type": "bool"
        }
      ],
      "payable": false,
      "stateMutability": "view",
      "type": "function",
      "signature": "0xacad8667"
    },
    {
      "constant": true,
      "inputs": [
        {
          "name": "",
          "type": "uint256"
        }
      ],
      "name": "aseguradoraPrecioCiudad",
      "outputs": [
        {
          "name": "",
          "type": "uint256"
        }
      ],
      "payable": false,
      "stateMutability": "view",
      "type": "function",
      "signature": "0xef9c6425"
    },
    {
      "constant": true,
      "inputs": [],
      "name": "PrecioKmCiudad",
      "outputs": [
        {
          "name": "",
          "type": "uint256"
        }
      ],
      "payable": false,
      "stateMutability": "view",
      "type": "function",
      "signature": "0xf329b3df"
    },
    {
      "constant": true,
      "inputs": [
        {
          "name": "",
          "type": "uint256"
        }
      ],
      "name": "aseguradoraPrecioCarretera",
      "outputs": [
        {
          "name": "",
          "type": "uint256"
        }
      ],
      "payable": false,
      "stateMutability": "view",
      "type": "function",
      "signature": "0xfd99aeec"
    },
    {
      "anonymous": false,
      "inputs": [
        {
          "indexed": false,
          "name": "record",
          "type": "uint256"
        }
      ],
      "name": "nuevoCliente",
      "type": "event",
      "signature": "0x6ba4ead7636d04e0c95d33e655db0853aa65a450a0414cf4be9f3f4bf8f35c32"
    },
    {
      "anonymous": false,
      "inputs": [
        {
          "indexed": false,
          "name": "idCoche",
          "type": "uint256"
        },
        {
          "indexed": false,
          "name": "TotalCost",
          "type": "uint256"
        }
      ],
      "name": "CostoSeguro",
      "type": "event",
      "signature": "0xcbaadd3cf1d7dce84c68c08077fb9a1c1795ff994854434cc380f18d79c4ddd8"
    },
    {
      "anonymous": false,
      "inputs": [
        {
          "indexed": false,
          "name": "",
          "type": "bytes"
        }
      ],
      "name": "newRandomNumber_bytes",
      "type": "event",
      "signature": "0xab2f9e7e7e74d54a49792fd7ff57c497b14cd2bad49d7537937a5a527a50f0ac"
    },
    {
      "anonymous": false,
      "inputs": [
        {
          "indexed": false,
          "name": "",
          "type": "uint256"
        }
      ],
      "name": "newRandomNumber_uint",
      "type": "event",
      "signature": "0xb084d8f103616749e12a8d363f0b50f8bb8568b4086c093bd88140c74042c47a"
    },
    {
      "constant": false,
      "inputs": [],
      "name": "DetenerContratoToken",
      "outputs": [
        {
          "name": "",
          "type": "bool"
        }
      ],
      "payable": false,
      "stateMutability": "nonpayable",
      "type": "function",
      "signature": "0xb5555627"
    },
    {
      "constant": false,
      "inputs": [],
      "name": "ActivarContratoToken",
      "outputs": [
        {
          "name": "",
          "type": "bool"
        }
      ],
      "payable": false,
      "stateMutability": "nonpayable",
      "type": "function",
      "signature": "0x8dae461d"
    },
    {
      "constant": false,
      "inputs": [
        {
          "name": "idEmpresa",
          "type": "uint256"
        },
        {
          "name": "precioAparcado",
          "type": "uint256"
        }
      ],
      "name": "actualizarPrecioAparcado",
      "outputs": [],
      "payable": false,
      "stateMutability": "nonpayable",
      "type": "function",
      "signature": "0x7208177a"
    },
    {
      "constant": false,
      "inputs": [
        {
          "name": "idEmpresa",
          "type": "uint256"
        },
        {
          "name": "precioCarretera",
          "type": "uint256"
        }
      ],
      "name": "actualizarPrecioCarretera",
      "outputs": [],
      "payable": false,
      "stateMutability": "nonpayable",
      "type": "function",
      "signature": "0x02f58854"
    },
    {
      "constant": false,
      "inputs": [
        {
          "name": "idEmpresa",
          "type": "uint256"
        },
        {
          "name": "precioCiudad",
          "type": "uint256"
        }
      ],
      "name": "actualizarPrecioCiudad",
      "outputs": [],
      "payable": false,
      "stateMutability": "nonpayable",
      "type": "function",
      "signature": "0xa87e71be"
    },
    {
      "constant": false,
      "inputs": [
        {
          "name": "nombre",
          "type": "string"
        },
        {
          "name": "TypeUser",
          "type": "uint256"
        },
        {
          "name": "DNI",
          "type": "string"
        },
        {
          "name": "VATNumber",
          "type": "string"
        },
        {
          "name": "antiguedadLicencia",
          "type": "uint256"
        }
      ],
      "name": "crearCliente",
      "outputs": [],
      "payable": false,
      "stateMutability": "nonpayable",
      "type": "function",
      "signature": "0x69346c01"
    },
    {
      "constant": false,
      "inputs": [],
      "name": "costoSeguro",
      "outputs": [],
      "payable": false,
      "stateMutability": "nonpayable",
      "type": "function",
      "signature": "0x487b6651"
    },
    {
      "constant": false,
      "inputs": [],
      "name": "CheckAdmin",
      "outputs": [
        {
          "name": "",
          "type": "bool"
        }
      ],
      "payable": false,
      "stateMutability": "nonpayable",
      "type": "function",
      "signature": "0x4e4dc82c"
    },
    {
      "constant": true,
      "inputs": [],
      "name": "fetchUser",
      "outputs": [
        {
          "name": "",
          "type": "string"
        }
      ],
      "payable": false,
      "stateMutability": "view",
      "type": "function",
      "signature": "0x8337d90f"
    },
    {
      "constant": false,
      "inputs": [
        {
          "name": "IdUsuario",
          "type": "string"
        },
        {
          "name": "TypeUser",
          "type": "uint256"
        },
        {
          "name": "DNI",
          "type": "string"
        },
        {
          "name": "VATNumber",
          "type": "string"
        },
        {
          "name": "antiguedadLicencia",
          "type": "uint256"
        }
      ],
      "name": "NewUser",
      "outputs": [],
      "payable": false,
      "stateMutability": "nonpayable",
      "type": "function",
      "signature": "0x67ff5c23"
    },
    {
      "constant": false,
      "inputs": [
        {
          "name": "dir",
          "type": "address"
        }
      ],
      "name": "deleteUser",
      "outputs": [
        {
          "name": "",
          "type": "bool"
        }
      ],
      "payable": false,
      "stateMutability": "nonpayable",
      "type": "function",
      "signature": "0x5c60f226"
    },
    {
      "constant": false,
      "inputs": [
        {
          "name": "precioKmCiudad",
          "type": "uint256"
        },
        {
          "name": "precioKmCarretera",
          "type": "uint256"
        },
        {
          "name": "PrecioAparcados",
          "type": "uint256"
        }
      ],
      "name": "actualizarSeguro",
      "outputs": [
        {
          "name": "",
          "type": "bool"
        }
      ],
      "payable": false,
      "stateMutability": "nonpayable",
      "type": "function",
      "signature": "0xe737f07e"
    },
    {
      "constant": false,
      "inputs": [],
      "name": "RandomExample",
      "outputs": [],
      "payable": false,
      "stateMutability": "nonpayable",
      "type": "function",
      "signature": "0x949f80b0"
    },
    {
      "constant": false,
      "inputs": [
        {
          "name": "_myid",
          "type": "bytes32"
        },
        {
          "name": "_result",
          "type": "string"
        }
      ],
      "name": "__callback",
      "outputs": [],
      "payable": false,
      "stateMutability": "nonpayable",
      "type": "function",
      "signature": "0x27dc297e"
    },
    {
      "constant": false,
      "inputs": [
        {
          "name": "_queryId",
          "type": "bytes32"
        },
        {
          "name": "_result",
          "type": "string"
        },
        {
          "name": "_proof",
          "type": "bytes"
        }
      ],
      "name": "__callback",
      "outputs": [],
      "payable": false,
      "stateMutability": "nonpayable",
      "type": "function",
      "signature": "0x38bbfa50"
    },
    {
      "constant": false,
      "inputs": [],
      "name": "update",
      "outputs": [],
      "payable": true,
      "stateMutability": "payable",
      "type": "function",
      "signature": "0xa2e62045"
    }
  ],
  "bytecode": "0x60806040526000600660006101000a81548160ff0219169083151502179055506000600660016101000a81548160ff0219169083151502179055506050600755336000806101000a81548173ffffffffffffffffffffffffffffffffffffffff021916908373ffffffffffffffffffffffffffffffffffffffff160217905550615ba98061008e6000396000f3fe60806040526004361061016a576000357c0100000000000000000000000000000000000000000000000000000000900463ffffffff16806302f588541461016f57806312029e60146101b457806327dc297e146101e35780632c353ea9146102b557806338bbfa5014610304578063487b66511461046d5780634e4dc82c146104845780635977a96a146104b35780635c60f2261461052d57806367ff5c231461059657806369346c01146107a05780636cbbb62d146109aa5780637208177a146109f957806374b2334914610a3e5780638337d90f14610c03578063870b26d414610c935780638dae461d14610cbe578063949f80b014610ced578063a2e6204514610d04578063a7cf6dc914610d0e578063a87430ba14610d39578063a87e71be14610efe578063acad866714610f43578063b555562714610f72578063e737f07e14610fa1578063ef9c642514611008578063f329b3df14611057578063fd99aeec14611082575b600080fd5b34801561017b57600080fd5b506101b26004803603604081101561019257600080fd5b8101908080359060200190929190803590602001909291905050506110d1565b005b3480156101c057600080fd5b506101c96110ed565b604051808215151515815260200191505060405180910390f35b3480156101ef57600080fd5b506102b36004803603604081101561020657600080fd5b81019080803590602001909291908035906020019064010000000081111561022d57600080fd5b82018360208201111561023f57600080fd5b8035906020019184600183028401116401000000008311171561026157600080fd5b91908080601f016020809104026020016040519081016040528093929190818152602001838380828437600081840152601f19601f820116905080830192505050505050509192919290505050611100565b005b3480156102c157600080fd5b506102ee600480360360208110156102d857600080fd5b8101908080359060200190929190505050611143565b6040518082815260200191505060405180910390f35b34801561031057600080fd5b5061046b6004803603606081101561032757600080fd5b81019080803590602001909291908035906020019064010000000081111561034e57600080fd5b82018360208201111561036057600080fd5b8035906020019184600183028401116401000000008311171561038257600080fd5b91908080601f016020809104026020016040519081016040528093929190818152602001838380828437600081840152601f19601f820116905080830192505050505050509192919290803590602001906401000000008111156103e557600080fd5b8201836020820111156103f757600080fd5b8035906020019184600183028401116401000000008311171561041957600080fd5b91908080601f016020809104026020016040519081016040528093929190818152602001838380828437600081840152601f19601f82011690508083019250505050505050919291929050505061115b565b005b34801561047957600080fd5b50610482611340565b005b34801561049057600080fd5b50610499611514565b604051808215151515815260200191505060405180910390f35b3480156104bf57600080fd5b50610502600480360360208110156104d657600080fd5b81019080803573ffffffffffffffffffffffffffffffffffffffff1690602001909291905050506115a1565b6040518085815260200184815260200183815260200182815260200194505050505060405180910390f35b34801561053957600080fd5b5061057c6004803603602081101561055057600080fd5b81019080803573ffffffffffffffffffffffffffffffffffffffff1690602001909291905050506115d1565b604051808215151515815260200191505060405180910390f35b3480156105a257600080fd5b5061079e600480360360a08110156105b957600080fd5b81019080803590602001906401000000008111156105d657600080fd5b8201836020820111156105e857600080fd5b8035906020019184600183028401116401000000008311171561060a57600080fd5b91908080601f016020809104026020016040519081016040528093929190818152602001838380828437600081840152601f19601f820116905080830192505050505050509192919290803590602001909291908035906020019064010000000081111561067757600080fd5b82018360208201111561068957600080fd5b803590602001918460018302840111640100000000831117156106ab57600080fd5b91908080601f016020809104026020016040519081016040528093929190818152602001838380828437600081840152601f19601f8201169050808301925050505050505091929192908035906020019064010000000081111561070e57600080fd5b82018360208201111561072057600080fd5b8035906020019184600183028401116401000000008311171561074257600080fd5b91908080601f016020809104026020016040519081016040528093929190818152602001838380828437600081840152601f19601f82011690508083019250505050505050919291929080359060200190929190505050611676565b005b3480156107ac57600080fd5b506109a8600480360360a08110156107c357600080fd5b81019080803590602001906401000000008111156107e057600080fd5b8201836020820111156107f257600080fd5b8035906020019184600183028401116401000000008311171561081457600080fd5b91908080601f016020809104026020016040519081016040528093929190818152602001838380828437600081840152601f19601f820116905080830192505050505050509192919290803590602001909291908035906020019064010000000081111561088157600080fd5b82018360208201111561089357600080fd5b803590602001918460018302840111640100000000831117156108b557600080fd5b91908080601f016020809104026020016040519081016040528093929190818152602001838380828437600081840152601f19601f8201169050808301925050505050505091929192908035906020019064010000000081111561091857600080fd5b82018360208201111561092a57600080fd5b8035906020019184600183028401116401000000008311171561094c57600080fd5b91908080601f016020809104026020016040519081016040528093929190818152602001838380828437600081840152601f19601f82011690508083019250505050505050919291929080359060200190929190505050611871565b005b3480156109b657600080fd5b506109e3600480360360208110156109cd57600080fd5b8101908080359060200190929190505050611a6b565b6040518082815260200191505060405180910390f35b348015610a0557600080fd5b50610a3c60048036036040811015610a1c57600080fd5b810190808035906020019092919080359060200190929190505050611a83565b005b348015610a4a57600080fd5b50610a8d60048036036020811015610a6157600080fd5b81019080803573ffffffffffffffffffffffffffffffffffffffff169060200190929190505050611a9f565b6040518080602001806020018060200189815260200188815260200187815260200186815260200185815260200184810384528c818151815260200191508051906020019080838360005b83811015610af3578082015181840152602081019050610ad8565b50505050905090810190601f168015610b205780820380516001836020036101000a031916815260200191505b5084810383528b818151815260200191508051906020019080838360005b83811015610b59578082015181840152602081019050610b3e565b50505050905090810190601f168015610b865780820380516001836020036101000a031916815260200191505b5084810382528a818151815260200191508051906020019080838360005b83811015610bbf578082015181840152602081019050610ba4565b50505050905090810190601f168015610bec5780820380516001836020036101000a031916815260200191505b509b50505050505050505050505060405180910390f35b348015610c0f57600080fd5b50610c18611caf565b6040518080602001828103825283818151815260200191508051906020019080838360005b83811015610c58578082015181840152602081019050610c3d565b50505050905090810190601f168015610c855780820380516001836020036101000a031916815260200191505b509250505060405180910390f35b348015610c9f57600080fd5b50610ca8611d91565b6040518082815260200191505060405180910390f35b348015610cca57600080fd5b50610cd3611d97565b604051808215151515815260200191505060405180910390f35b348015610cf957600080fd5b50610d02611e12565b005b610d0c611e48565b005b348015610d1a57600080fd5b50610d23611e6f565b6040518082815260200191505060405180910390f35b348015610d4557600080fd5b50610d8860048036036020811015610d5c57600080fd5b81019080803573ffffffffffffffffffffffffffffffffffffffff169060200190929190505050611e75565b6040518080602001806020018060200189815260200188815260200187815260200186815260200185815260200184810384528c818151815260200191508051906020019080838360005b83811015610dee578082015181840152602081019050610dd3565b50505050905090810190601f168015610e1b5780820380516001836020036101000a031916815260200191505b5084810383528b818151815260200191508051906020019080838360005b83811015610e54578082015181840152602081019050610e39565b50505050905090810190601f168015610e815780820380516001836020036101000a031916815260200191505b5084810382528a818151815260200191508051906020019080838360005b83811015610eba578082015181840152602081019050610e9f565b50505050905090810190601f168015610ee75780820380516001836020036101000a031916815260200191505b509b50505050505050505050505060405180910390f35b348015610f0a57600080fd5b50610f4160048036036040811015610f2157600080fd5b810190808035906020019092919080359060200190929190505050612085565b005b348015610f4f57600080fd5b50610f586120a1565b604051808215151515815260200191505060405180910390f35b348015610f7e57600080fd5b50610f876120b4565b604051808215151515815260200191505060405180910390f35b348015610fad57600080fd5b50610fee60048036036060811015610fc457600080fd5b8101908080359060200190929190803590602001909291908035906020019092919050505061212f565b604051808215151515815260200191505060405180910390f35b34801561101457600080fd5b506110416004803603602081101561102b57600080fd5b81019080803590602001909291905050506121ce565b6040518082815260200191505060405180910390f35b34801561106357600080fd5b5061106c6121e6565b6040518082815260200191505060405180910390f35b34801561108e57600080fd5b506110bb600480360360208110156110a557600080fd5b81019080803590602001909291905050506121ec565b6040518082815260200191505060405180910390f35b80600d6000848152602001908152602001600020819055505050565b600660009054906101000a900460ff1681565b61113f828260006040519080825280601f01601f1916602001820160405280156111395781602001600182028038833980820191505090505b5061115b565b5050565b60116020528060005260406000206000915090505481565b611163612204565b73ffffffffffffffffffffffffffffffffffffffff163373ffffffffffffffffffffffffffffffffffffffff161415151561119d57600080fd5b60006111aa84848461257a565b60ff161415156111b95761133b565b7fab2f9e7e7e74d54a49792fd7ff57c497b14cd2bad49d7537937a5a527a50f0ac826040518080602001828103825283818151815260200191508051906020019080838360005b8381101561121b578082015181840152602081019050611200565b50505050905090810190601f1680156112485780820380516001836020036101000a031916815260200191505b509250505060405180910390a160006701000000000000009050600081846040516020018082805190602001908083835b60208310151561129e5780518252602082019150602081019050602083039250611279565b6001836020036101000a03801982511681845116808217855250505050505090500191505060405160208183030381529060405280519060200120600190048115156112e657fe5b0690508060116000808152602001908152602001600020819055507fb084d8f103616749e12a8d363f0b50f8bb8568b4086c093bd88140c74042c47a816040518082815260200191505060405180910390a150505b505050565b6000600a9050600060649050600060329050600080600080600080600061137a8a600c600080815260200190815260200160002054612792565b935061139989600e600080815260200190815260200160002054612792565b96506113b888600d600080815260200190815260200160002054612792565b95506113cd876113c886896127cd565b6127cd565b9450611425856114206001600f60003373ffffffffffffffffffffffffffffffffffffffff1673ffffffffffffffffffffffffffffffffffffffff168152602001908152602001600020600401546127eb565b612792565b925061143b836114366041846127eb565b612792565b91506080604051908101604052808381526020018a81526020018981526020018b815250600b60003373ffffffffffffffffffffffffffffffffffffffff1673ffffffffffffffffffffffffffffffffffffffff168152602001908152602001600020600082015181600001556020820151816001015560408201518160020155606082015181600301559050507fcbaadd3cf1d7dce84c68c08077fb9a1c1795ff994854434cc380f18d79c4ddd88183604051808381526020018281526020019250505060405180910390a150505050505050505050565b60008060009054906101000a900473ffffffffffffffffffffffffffffffffffffffff1673ffffffffffffffffffffffffffffffffffffffff163373ffffffffffffffffffffffffffffffffffffffff1614151561157157600080fd5b6001600660016101000a81548160ff021916908315150217905550600660019054906101000a900460ff16905090565b600b6020528060005260406000206000915090508060000154908060010154908060020154908060030154905084565b6000600f60008373ffffffffffffffffffffffffffffffffffffffff1673ffffffffffffffffffffffffffffffffffffffff1681526020019081526020016000206000808201600061162391906159ce565b60018201600061163391906159ce565b60028201600061164391906159ce565b60038201600090556004820160009055600582016000905560068201600090556007820160009055505060019050919050565b6000801515600660009054906101000a900460ff16151514151561169957600080fd5b6003821115156116b7576116b060075460086127eb565b9050611729565b600682101580156116c9575060098210155b156116e2576116db600754600c6127eb565b9050611728565b600982101580156116f45750600c8211155b1561170d57611706600754600e6127eb565b9050611727565b600f82111561172657611723600754600f6127eb565b90505b5b5b5b6101006040519081016040528087815260200185815260200184815260200186815260200182815260200160008152602001600081526020016000815250600f60003373ffffffffffffffffffffffffffffffffffffffff1673ffffffffffffffffffffffffffffffffffffffff16815260200190815260200160002060008201518160000190805190602001906117c2929190615a16565b5060208201518160010190805190602001906117df929190615a16565b5060408201518160020190805190602001906117fc929190615a16565b50606082015181600301556080820151816004015560a0820151816005015560c0820151816006015560e082015181600701559050507f6ba4ead7636d04e0c95d33e655db0853aa65a450a0414cf4be9f3f4bf8f35c32856040518082815260200191505060405180910390a1505050505050565b6000801515600660009054906101000a900460ff16151514151561189457600080fd5b6003821115156118b2576118ab60075460086127eb565b9050611923565b6003821180156118c3575060068211155b156118dc576118d5600754600c6127eb565b9050611922565b600982101580156118ee5750600c8211155b1561190757611900600754600e6127eb565b9050611921565b600c8211156119205761191d600754600f6127eb565b90505b5b5b5b6101006040519081016040528087815260200185815260200184815260200186815260200182815260200160008152602001600081526020016000815250601060003373ffffffffffffffffffffffffffffffffffffffff1673ffffffffffffffffffffffffffffffffffffffff16815260200190815260200160002060008201518160000190805190602001906119bc929190615a16565b5060208201518160010190805190602001906119d9929190615a16565b5060408201518160020190805190602001906119f6929190615a16565b50606082015181600301556080820151816004015560a0820151816005015560c0820151816006015560e082015181600701559050507f6ba4ead7636d04e0c95d33e655db0853aa65a450a0414cf4be9f3f4bf8f35c32856040518082815260200191505060405180910390a1505050505050565b600c6020528060005260406000206000915090505481565b80600c6000848152602001908152602001600020819055505050565b6010602052806000526040600020600091509050806000018054600181600116156101000203166002900480601f016020809104026020016040519081016040528092919081815260200182805460018160011615610100020316600290048015611b4b5780601f10611b2057610100808354040283529160200191611b4b565b820191906000526020600020905b815481529060010190602001808311611b2e57829003601f168201915b505050505090806001018054600181600116156101000203166002900480601f016020809104026020016040519081016040528092919081815260200182805460018160011615610100020316600290048015611be95780601f10611bbe57610100808354040283529160200191611be9565b820191906000526020600020905b815481529060010190602001808311611bcc57829003601f168201915b505050505090806002018054600181600116156101000203166002900480601f016020809104026020016040519081016040528092919081815260200182805460018160011615610100020316600290048015611c875780601f10611c5c57610100808354040283529160200191611c87565b820191906000526020600020905b815481529060010190602001808311611c6a57829003601f168201915b5050505050908060030154908060040154908060050154908060060154908060070154905088565b6060600f60003373ffffffffffffffffffffffffffffffffffffffff1673ffffffffffffffffffffffffffffffffffffffff1681526020019081526020016000206000018054600181600116156101000203166002900480601f016020809104026020016040519081016040528092919081815260200182805460018160011615610100020316600290048015611d875780601f10611d5c57610100808354040283529160200191611d87565b820191906000526020600020905b815481529060010190602001808311611d6a57829003601f168201915b5050505050905090565b600a5481565b60008060009054906101000a900473ffffffffffffffffffffffffffffffffffffffff1673ffffffffffffffffffffffffffffffffffffffff163373ffffffffffffffffffffffffffffffffffffffff16141515611df457600080fd5b6000600660006101000a81548160ff02191690831515021790555090565b611e3e60307f010000000000000000000000000000000000000000000000000000000000000002612806565b611e46611e48565b565b60006007905060008090506000614e2090506000611e67838584612ba7565b905050505050565b60095481565b600f602052806000526040600020600091509050806000018054600181600116156101000203166002900480601f016020809104026020016040519081016040528092919081815260200182805460018160011615610100020316600290048015611f215780601f10611ef657610100808354040283529160200191611f21565b820191906000526020600020905b815481529060010190602001808311611f0457829003601f168201915b505050505090806001018054600181600116156101000203166002900480601f016020809104026020016040519081016040528092919081815260200182805460018160011615610100020316600290048015611fbf5780601f10611f9457610100808354040283529160200191611fbf565b820191906000526020600020905b815481529060010190602001808311611fa257829003601f168201915b505050505090806002018054600181600116156101000203166002900480601f01602080910402602001604051908101604052809291908181526020018280546001816001161561010002031660029004801561205d5780601f106120325761010080835404028352916020019161205d565b820191906000526020600020905b81548152906001019060200180831161204057829003601f168201915b5050505050908060030154908060040154908060050154908060060154908060070154905088565b80600e6000848152602001908152602001600020819055505050565b600660019054906101000a900460ff1681565b60008060009054906101000a900473ffffffffffffffffffffffffffffffffffffffff1673ffffffffffffffffffffffffffffffffffffffff163373ffffffffffffffffffffffffffffffffffffffff1614151561211157600080fd5b6001600660006101000a81548160ff02191690831515021790555090565b6000806000905060806040519081016040528082815260200186815260200185815260200184815250600b60003373ffffffffffffffffffffffffffffffffffffffff1673ffffffffffffffffffffffffffffffffffffffff1681526020019081526020016000206000820151816000015560208201518160010155604082015181600201556060820151816003015590505060019150509392505050565b600e6020528060005260406000206000915090505481565b60085481565b600d6020528060005260406000206000915090505481565b60008073ffffffffffffffffffffffffffffffffffffffff16600260009054906101000a900473ffffffffffffffffffffffffffffffffffffffff1673ffffffffffffffffffffffffffffffffffffffff16148061228c5750600061228a600260009054906101000a900473ffffffffffffffffffffffffffffffffffffffff16613175565b145b1561229d5761229b6000613180565b505b600260009054906101000a900473ffffffffffffffffffffffffffffffffffffffff1673ffffffffffffffffffffffffffffffffffffffff166338cc48316040518163ffffffff167c0100000000000000000000000000000000000000000000000000000000028152600401602060405180830381600087803b15801561232357600080fd5b505af1158015612337573d6000803e3d6000fd5b505050506040513d602081101561234d57600080fd5b810190808051906020019092919050505073ffffffffffffffffffffffffffffffffffffffff16600160009054906101000a900473ffffffffffffffffffffffffffffffffffffffff1673ffffffffffffffffffffffffffffffffffffffff161415156124b657600260009054906101000a900473ffffffffffffffffffffffffffffffffffffffff1673ffffffffffffffffffffffffffffffffffffffff166338cc48316040518163ffffffff167c0100000000000000000000000000000000000000000000000000000000028152600401602060405180830381600087803b15801561243a57600080fd5b505af115801561244e573d6000803e3d6000fd5b505050506040513d602081101561246457600080fd5b8101908080519060200190929190505050600160006101000a81548173ffffffffffffffffffffffffffffffffffffffff021916908373ffffffffffffffffffffffffffffffffffffffff1602179055505b600160009054906101000a900473ffffffffffffffffffffffffffffffffffffffff1673ffffffffffffffffffffffffffffffffffffffff1663c281d19e6040518163ffffffff167c010000000000000000000000000000000000000000000000000000000002815260040160206040518083038186803b15801561253a57600080fd5b505afa15801561254e573d6000803e3d6000fd5b505050506040513d602081101561256457600080fd5b8101908080519060200190929190505050905090565b60007f4c000000000000000000000000000000000000000000000000000000000000008260008151811015156125ac57fe5b9060200101517f010000000000000000000000000000000000000000000000000000000000000090047f0100000000000000000000000000000000000000000000000000000000000000027effffffffffffffffffffffffffffffffffffffffffffffffffffffffffffff19161415806126c157507f500000000000000000000000000000000000000000000000000000000000000082600181518110151561265157fe5b9060200101517f010000000000000000000000000000000000000000000000000000000000000090047f0100000000000000000000000000000000000000000000000000000000000000027effffffffffffffffffffffffffffffffffffffffffffffffffffffffffffff191614155b8061274f5750600160ff168260028151811015156126db57fe5b9060200101517f010000000000000000000000000000000000000000000000000000000000000090047f0100000000000000000000000000000000000000000000000000000000000000027f0100000000000000000000000000000000000000000000000000000000000000900460ff1614155b1561275d576001905061278b565b600061277283868661276d613191565b613233565b905080151561278557600291505061278b565b60009150505b9392505050565b6000808314156127a557600090506127c7565b600082840290508284828115156127b857fe5b041415156127c257fe5b809150505b92915050565b60008082840190508381101515156127e157fe5b8091505092915050565b60008082848115156127f957fe5b0490508091505092915050565b600073ffffffffffffffffffffffffffffffffffffffff16600260009054906101000a900473ffffffffffffffffffffffffffffffffffffffff1673ffffffffffffffffffffffffffffffffffffffff16148061288d5750600061288b600260009054906101000a900473ffffffffffffffffffffffffffffffffffffffff16613175565b145b1561289e5761289c6000613180565b505b600260009054906101000a900473ffffffffffffffffffffffffffffffffffffffff1673ffffffffffffffffffffffffffffffffffffffff166338cc48316040518163ffffffff167c0100000000000000000000000000000000000000000000000000000000028152600401602060405180830381600087803b15801561292457600080fd5b505af1158015612938573d6000803e3d6000fd5b505050506040513d602081101561294e57600080fd5b810190808051906020019092919050505073ffffffffffffffffffffffffffffffffffffffff16600160009054906101000a900473ffffffffffffffffffffffffffffffffffffffff1673ffffffffffffffffffffffffffffffffffffffff16141515612ab757600260009054906101000a900473ffffffffffffffffffffffffffffffffffffffff1673ffffffffffffffffffffffffffffffffffffffff166338cc48316040518163ffffffff167c0100000000000000000000000000000000000000000000000000000000028152600401602060405180830381600087803b158015612a3b57600080fd5b505af1158015612a4f573d6000803e3d6000fd5b505050506040513d6020811015612a6557600080fd5b8101908080519060200190929190505050600160006101000a81548173ffffffffffffffffffffffffffffffffffffffff021916908373ffffffffffffffffffffffffffffffffffffffff1602179055505b600160009054906101000a900473ffffffffffffffffffffffffffffffffffffffff1673ffffffffffffffffffffffffffffffffffffffff1663688dcfd7826040518263ffffffff167c010000000000000000000000000000000000000000000000000000000002815260040180827effffffffffffffffffffffffffffffffffffffffffffffffffffffffffffff19167effffffffffffffffffffffffffffffffffffffffffffffffffffffffffffff19168152602001915050600060405180830381600087803b158015612b8c57600080fd5b505af1158015612ba0573d6000803e3d6000fd5b5050505050565b60008083118015612bb9575060208311155b1515612bc457600080fd5b600a84029350606060016040519080825280601f01601f191660200182016040528015612c005781602001600182028038833980820191505090505b509050837f010000000000000000000000000000000000000000000000000000000000000002816000815181101515612c3557fe5b9060200101907effffffffffffffffffffffffffffffffffffffffffffffffffffffffffffff1916908160001a905350606060206040519080825280601f01601f191660200182016040528015612c9b5781602001600182028038833980820191505090505b509050606060206040519080825280601f01601f191660200182016040528015612cd45781602001600182028038833980820191505090505b5090506000612ce1613a18565b905060208352424118600143034018602084015260208252806020830152606060206040519080825280601f01601f191660200182016040528015612d355781602001600182028038833980820191505090505b509050886020820152606060086040519080825280601f01601f191660200182016040528015612d745781602001600182028038833980820191505090505b509050612d878260186008846000613d8e565b50612d90615a96565b6080604051908101604052808781526020018881526020018681526020018481525090506000612df66040805190810160405280600681526020017f72616e646f6d0000000000000000000000000000000000000000000000000000815250838c613def565b9050606060086040519080825280601f01601f191660200182016040528015612e2e5781602001600182028038833980820191505090505b50905060208401517f0100000000000000000000000000000000000000000000000000000000000000810460278301537e01000000000000000000000000000000000000000000000000000000000000810460268301537d010000000000000000000000000000000000000000000000000000000000810460258301537c0100000000000000000000000000000000000000000000000000000000810460248301537b01000000000000000000000000000000000000000000000000000000810460238301537a0100000000000000000000000000000000000000000000000000008104602283015379010000000000000000000000000000000000000000000000000081046021830153780100000000000000000000000000000000000000000000000081046020830153506131628282856001600481101515612f6f57fe5b60200201516002876000600481101515612f8557fe5b60200201516040518082805190602001908083835b602083101515612fbf5780518252602082019150602081019050602083039250612f9a565b6001836020036101000a038019825116818451168082178552505050505050905001915050602060405180830381855afa158015613001573d6000803e3d6000fd5b5050506040513d602081101561301657600080fd5b810190808051906020019092919050505087600260048110151561303657fe5b60200201516040516020018085805190602001908083835b602083101515613073578051825260208201915060208101905060208303925061304e565b6001836020036101000a03801982511681845116808217855250505050505090500184805190602001908083835b6020831015156130c657805182526020820191506020810190506020830392506130a1565b6001836020036101000a03801982511681845116808217855250505050505090500183815260200182805190602001908083835b60208310151561311f57805182526020820191506020810190506020830392506130fa565b6001836020036101000a038019825116818451168082178552505050505050905001945050505050604051602081830303815290604052805190602001206141b0565b8199505050505050505050509392505050565b6000813b9050919050565b600061318a6141cc565b9050919050565b606060038054600181600116156101000203166002900480601f0160208091040260200160405190810160405280929190818152602001828054600181600116156101000203166002900480156132295780601f106131fe57610100808354040283529160200191613229565b820191906000526020600020905b81548152906001019060200180831161320c57829003601f168201915b5050505050905090565b6000806020600287604581518110151561324957fe5b9060200101517f010000000000000000000000000000000000000000000000000000000000000090047f0100000000000000000000000000000000000000000000000000000000000000027f0100000000000000000000000000000000000000000000000000000000000000900460ff1601604401019050606060206040519080825280601f01601f1916602001820160405280156132f75781602001600182028038833980820191505090505b50905061330987836020846000613d8e565b50600284876040516020018083805190602001908083835b6020831015156133465780518252602082019150602081019050602083039250613321565b6001836020036101000a038019825116818451168082178552505050505050905001828152602001925050506040516020818303038152906040526040518082805190602001908083835b6020831015156133b65780518252602082019150602081019050602083039250613391565b6001836020036101000a038019825116818451168082178552505050505050905001915050602060405180830381855afa1580156133f8573d6000803e3d6000fd5b5050506040513d602081101561340d57600080fd5b81019080805190602001909291905050506040516020018082815260200191505060405160208183030381529060405280519060200120818051906020012014151561345e57600092505050613a10565b60606002886001604986010181518110151561347657fe5b9060200101517f010000000000000000000000000000000000000000000000000000000000000090047f0100000000000000000000000000000000000000000000000000000000000000027f0100000000000000000000000000000000000000000000000000000000000000900460ff16016040519080825280601f01601f19166020018201604052801561351a5781602001600182028038833980820191505090505b50905061352f88604985018351846000613d8e565b5061365e6002826040518082805190602001908083835b60208310151561356b5780518252602082019150602081019050602083039250613546565b6001836020036101000a038019825116818451168082178552505050505050905001915050602060405180830381855afa1580156135ad573d6000803e3d6000fd5b5050506040513d60208110156135c257600080fd5b8101908080519060200190929190505050878a600860208801018151811015156135e857fe5b9060200101517f010000000000000000000000000000000000000000000000000000000000000090047f0100000000000000000000000000000000000000000000000000000000000000027f0100000000000000000000000000000000000000000000000000000000000000900460ff16614662565b15156136705760009350505050613a10565b606060296040519080825280601f01601f1916602001820160405280156136a65781602001600182028038833980820191505090505b5090506136bb89602086016029846000613d8e565b506060604080519080825280601f01601f1916602001820160405280156136f15781602001600182028038833980820191505090505b50905060006041845160296020890101010190506137178b604083036040856000613d8e565b5060006002836040518082805190602001908083835b602083101515613752578051825260208201915060208101905060208303925061372d565b6001836020036101000a038019825116818451168082178552505050505050905001915050602060405180830381855afa158015613794573d6000803e3d6000fd5b5050506040513d60208110156137a957600080fd5b8101908080519060200190929190505050905083816040516020018083805190602001908083835b6020831015156137f657805182526020820191506020810190506020830392506137d1565b6001836020036101000a0380198251168184511680821785525050505050509050018281526020019250505060405160208183030381529060405280519060200120600460008d815260200190815260200160002054141561386e57600460008c81526020019081526020016000206000905561387e565b6000975050505050505050613a10565b606060496040519080825280601f01601f1916602001820160405280156138b45781602001600182028038833980820191505090505b5090506138c68d896049846000613d8e565b506139716002826040518082805190602001908083835b60208310151561390257805182526020820191506020810190506020830392506138dd565b6001836020036101000a038019825116818451168082178552505050505050905001915050602060405180830381855afa158015613944573d6000803e3d6000fd5b5050506040513d602081101561395957600080fd5b81019080805190602001909291905050508786614779565b151561398857600098505050505050505050613a10565b6005600083815260200190815260200160002060009054906101000a900460ff1615156139e4576139b98d846149fd565b6005600084815260200190815260200160002060006101000a81548160ff0219169083151502179055505b6005600083815260200190815260200160002060009054906101000a900460ff16985050505050505050505b949350505050565b60008073ffffffffffffffffffffffffffffffffffffffff16600260009054906101000a900473ffffffffffffffffffffffffffffffffffffffff1673ffffffffffffffffffffffffffffffffffffffff161480613aa057506000613a9e600260009054906101000a900473ffffffffffffffffffffffffffffffffffffffff16613175565b145b15613ab157613aaf6000613180565b505b600260009054906101000a900473ffffffffffffffffffffffffffffffffffffffff1673ffffffffffffffffffffffffffffffffffffffff166338cc48316040518163ffffffff167c0100000000000000000000000000000000000000000000000000000000028152600401602060405180830381600087803b158015613b3757600080fd5b505af1158015613b4b573d6000803e3d6000fd5b505050506040513d6020811015613b6157600080fd5b810190808051906020019092919050505073ffffffffffffffffffffffffffffffffffffffff16600160009054906101000a900473ffffffffffffffffffffffffffffffffffffffff1673ffffffffffffffffffffffffffffffffffffffff16141515613cca57600260009054906101000a900473ffffffffffffffffffffffffffffffffffffffff1673ffffffffffffffffffffffffffffffffffffffff166338cc48316040518163ffffffff167c0100000000000000000000000000000000000000000000000000000000028152600401602060405180830381600087803b158015613c4e57600080fd5b505af1158015613c62573d6000803e3d6000fd5b505050506040513d6020811015613c7857600080fd5b8101908080519060200190929190505050600160006101000a81548173ffffffffffffffffffffffffffffffffffffffff021916908373ffffffffffffffffffffffffffffffffffffffff1602179055505b600160009054906101000a900473ffffffffffffffffffffffffffffffffffffffff1673ffffffffffffffffffffffffffffffffffffffff1663abaa5f3e6040518163ffffffff167c010000000000000000000000000000000000000000000000000000000002815260040160206040518083038186803b158015613d4e57600080fd5b505afa158015613d62573d6000803e3d6000fd5b505050506040513d6020811015613d7857600080fd5b8101908080519060200190929190505050905090565b60606000828501905080845110151515613da757600080fd5b600086602001905060008460200190505b868860200101821015613de05781890151808288015250602082019150602081019050613db8565b85935050505095945050505050565b60008073ffffffffffffffffffffffffffffffffffffffff16600260009054906101000a900473ffffffffffffffffffffffffffffffffffffffff1673ffffffffffffffffffffffffffffffffffffffff161480613e7757506000613e75600260009054906101000a900473ffffffffffffffffffffffffffffffffffffffff16613175565b145b15613e8857613e866000613180565b505b600260009054906101000a900473ffffffffffffffffffffffffffffffffffffffff1673ffffffffffffffffffffffffffffffffffffffff166338cc48316040518163ffffffff167c0100000000000000000000000000000000000000000000000000000000028152600401602060405180830381600087803b158015613f0e57600080fd5b505af1158015613f22573d6000803e3d6000fd5b505050506040513d6020811015613f3857600080fd5b810190808051906020019092919050505073ffffffffffffffffffffffffffffffffffffffff16600160009054906101000a900473ffffffffffffffffffffffffffffffffffffffff1673ffffffffffffffffffffffffffffffffffffffff161415156140a157600260009054906101000a900473ffffffffffffffffffffffffffffffffffffffff1673ffffffffffffffffffffffffffffffffffffffff166338cc48316040518163ffffffff167c0100000000000000000000000000000000000000000000000000000000028152600401602060405180830381600087803b15801561402557600080fd5b505af1158015614039573d6000803e3d6000fd5b505050506040513d602081101561404f57600080fd5b8101908080519060200190929190505050600160006101000a81548173ffffffffffffffffffffffffffffffffffffffff021916908373ffffffffffffffffffffffffffffffffffffffff1602179055505b606060046040519080825280602002602001820160405280156140d857816020015b60608152602001906001900390816140c35790505b5090508360006004811015156140ea57fe5b60200201518160008151811015156140fe57fe5b9060200190602002018190525083600160048110151561411a57fe5b602002015181600181518110151561412e57fe5b9060200190602002018190525083600260048110151561414a57fe5b602002015181600281518110151561415e57fe5b9060200190602002018190525083600360048110151561417a57fe5b602002015181600381518110151561418e57fe5b906020019060200201819052506141a6858285614f66565b9150509392505050565b8060046000848152602001908152602001600020819055505050565b6000806141ec731d3b2638a7cc9f2cb3d298a3da7a90b67e5506ed613175565b111561428e57731d3b2638a7cc9f2cb3d298a3da7a90b67e5506ed600260006101000a81548173ffffffffffffffffffffffffffffffffffffffff021916908373ffffffffffffffffffffffffffffffffffffffff1602179055506142856040805190810160405280600b81526020017f6574685f6d61696e6e657400000000000000000000000000000000000000000081525061553f565b6001905061465f565b60006142ad73c03a2615d5efaf5f49f60b7bb6583eaec212fdf1613175565b111561434f5773c03a2615d5efaf5f49f60b7bb6583eaec212fdf1600260006101000a81548173ffffffffffffffffffffffffffffffffffffffff021916908373ffffffffffffffffffffffffffffffffffffffff1602179055506143466040805190810160405280600c81526020017f6574685f726f707374656e33000000000000000000000000000000000000000081525061553f565b6001905061465f565b600061436e73b7a07bcf2ba2f2703b24c0691b5278999c59ac7e613175565b11156144105773b7a07bcf2ba2f2703b24c0691b5278999c59ac7e600260006101000a81548173ffffffffffffffffffffffffffffffffffffffff021916908373ffffffffffffffffffffffffffffffffffffffff1602179055506144076040805190810160405280600981526020017f6574685f6b6f76616e000000000000000000000000000000000000000000000081525061553f565b6001905061465f565b600061442f73146500cfd35b22e4a392fe0adc06de1a1368ed48613175565b11156144d15773146500cfd35b22e4a392fe0adc06de1a1368ed48600260006101000a81548173ffffffffffffffffffffffffffffffffffffffff021916908373ffffffffffffffffffffffffffffffffffffffff1602179055506144c86040805190810160405280600b81526020017f6574685f72696e6b65627900000000000000000000000000000000000000000081525061553f565b6001905061465f565b60006144f0736f485c8bf6fc43ea212e93bbf8ce046c7f1cb475613175565b111561455457736f485c8bf6fc43ea212e93bbf8ce046c7f1cb475600260006101000a81548173ffffffffffffffffffffffffffffffffffffffff021916908373ffffffffffffffffffffffffffffffffffffffff1602179055506001905061465f565b60006145737320e12a1f859b3feae5fb2a0a32c18f5a65555bbf613175565b11156145d7577320e12a1f859b3feae5fb2a0a32c18f5a65555bbf600260006101000a81548173ffffffffffffffffffffffffffffffffffffffff021916908373ffffffffffffffffffffffffffffffffffffffff1602179055506001905061465f565b60006145f67351efaf4c8b3c9afbd5ab9f4bbc82784ab6ef8faa613175565b111561465a577351efaf4c8b3c9afbd5ab9f4bbc82784ab6ef8faa600260006101000a81548173ffffffffffffffffffffffffffffffffffffffff021916908373ffffffffffffffffffffffffffffffffffffffff1602179055506001905061465f565b600090505b90565b6000806001905082845114151561467857600080fd5b60008090505b8381101561476d57848181518110151561469457fe5b9060200101517f010000000000000000000000000000000000000000000000000000000000000090047f0100000000000000000000000000000000000000000000000000000000000000027effffffffffffffffffffffffffffffffffffffffffffffffffffffffffffff1916868260208110151561470f57fe5b1a7f0100000000000000000000000000000000000000000000000000000000000000027effffffffffffffffffffffffffffffffffffffffffffffffffffffffffffff191614151561476057600091505b808060010191505061467e565b50809150509392505050565b6000806000806000606060206040519080825280601f01601f1916602001820160405280156147b75781602001600182028038833980820191505090505b509050600060208960038151811015156147cd57fe5b9060200101517f010000000000000000000000000000000000000000000000000000000000000090047f0100000000000000000000000000000000000000000000000000000000000000027f0100000000000000000000000000000000000000000000000000000000000000900460ff1603600401905061485389826020856000613d8e565b9150606060206040519080825280601f01601f19166020018201604052801561488b5781602001600182028038833980820191505090505b5090506022820191506149298a60208c600186038151811015156148ab57fe5b9060200101517f010000000000000000000000000000000000000000000000000000000000000090047f0100000000000000000000000000000000000000000000000000000000000000027f0100000000000000000000000000000000000000000000000000000000000000900460ff160384016020846000613d8e565b905060208301519450602081015193506149468b601b8787615559565b80975081985050508573ffffffffffffffffffffffffffffffffffffffff1689805190602001206001900473ffffffffffffffffffffffffffffffffffffffff16141561499d5760019750505050505050506149f6565b6149aa8b601c8787615559565b80975081985050508573ffffffffffffffffffffffffffffffffffffffff1689805190602001206001900473ffffffffffffffffffffffffffffffffffffffff16149750505050505050505b9392505050565b600080606060028560018601815181101515614a1557fe5b9060200101517f010000000000000000000000000000000000000000000000000000000000000090047f0100000000000000000000000000000000000000000000000000000000000000027f0100000000000000000000000000000000000000000000000000000000000000900460ff16016040519080825280601f01601f191660200182016040528015614ab95781602001600182028038833980820191505090505b509050614acb85858351846000613d8e565b506060604080519080825280601f01601f191660200182016040528015614b015781602001600182028038833980820191505090505b509050614b148660046040846000613d8e565b50606060626040519080825280601f01601f191660200182016040528015614b4b5781602001600182028038833980820191505090505b50905060017f010000000000000000000000000000000000000000000000000000000000000002816000815181101515614b8157fe5b9060200101907effffffffffffffffffffffffffffffffffffffffffffffffffffffffffffff1916908160001a905350614bc387604188036041846001613d8e565b5060606040805190810160405280602081526020017ffd94fa71bc0ba10d39d464d0d8f465efeef0a2764e3887fcc9df41ded20f505c8152509050614c0e8160006020856042613d8e565b50614cb96002836040518082805190602001908083835b602083101515614c4a5780518252602082019150602081019050602083039250614c25565b6001836020036101000a038019825116818451168082178552505050505050905001915050602060405180830381855afa158015614c8c573d6000803e3d6000fd5b5050506040513d6020811015614ca157600080fd5b81019080805190602001909291905050508585614779565b9450841515614cd057600095505050505050614f60565b60608060405190810160405280604081526020017f7fb956469c5c9b89840d55b43537e66a98dd4811ea0a27224272c2e5622911e881526020017f537a2f8e86a46baec82864e98dd01e9ccc2f8bc5dfc9cbe5a91a290498dd96e48152509050606060426040519080825280601f01601f191660200182016040528015614d665781602001600182028038833980820191505090505b50905060fe7f010000000000000000000000000000000000000000000000000000000000000002816000815181101515614d9c57fe5b9060200101907effffffffffffffffffffffffffffffffffffffffffffffffffffffffffffff1916908160001a905350614ddc8a60036041846001613d8e565b50606060028b6045815181101515614df057fe5b9060200101517f010000000000000000000000000000000000000000000000000000000000000090047f0100000000000000000000000000000000000000000000000000000000000000027f0100000000000000000000000000000000000000000000000000000000000000900460ff16016040519080825280601f01601f191660200182016040528015614e945781602001600182028038833980820191505090505b509050614ea78b60448351846000613d8e565b50614f526002836040518082805190602001908083835b602083101515614ee35780518252602082019150602081019050602083039250614ebe565b6001836020036101000a038019825116818451168082178552505050505050905001915050602060405180830381855afa158015614f25573d6000803e3d6000fd5b5050506040513d6020811015614f3a57600080fd5b81019080805190602001909291905050508285614779565b975087985050505050505050505b92915050565b60008073ffffffffffffffffffffffffffffffffffffffff16600260009054906101000a900473ffffffffffffffffffffffffffffffffffffffff1673ffffffffffffffffffffffffffffffffffffffff161480614fee57506000614fec600260009054906101000a900473ffffffffffffffffffffffffffffffffffffffff16613175565b145b15614fff57614ffd6000613180565b505b600260009054906101000a900473ffffffffffffffffffffffffffffffffffffffff1673ffffffffffffffffffffffffffffffffffffffff166338cc48316040518163ffffffff167c0100000000000000000000000000000000000000000000000000000000028152600401602060405180830381600087803b15801561508557600080fd5b505af1158015615099573d6000803e3d6000fd5b505050506040513d60208110156150af57600080fd5b810190808051906020019092919050505073ffffffffffffffffffffffffffffffffffffffff16600160009054906101000a900473ffffffffffffffffffffffffffffffffffffffff1673ffffffffffffffffffffffffffffffffffffffff1614151561521857600260009054906101000a900473ffffffffffffffffffffffffffffffffffffffff1673ffffffffffffffffffffffffffffffffffffffff166338cc48316040518163ffffffff167c0100000000000000000000000000000000000000000000000000000000028152600401602060405180830381600087803b15801561519c57600080fd5b505af11580156151b0573d6000803e3d6000fd5b505050506040513d60208110156151c657600080fd5b8101908080519060200190929190505050600160006101000a81548173ffffffffffffffffffffffffffffffffffffffff021916908373ffffffffffffffffffffffffffffffffffffffff1602179055505b6000600160009054906101000a900473ffffffffffffffffffffffffffffffffffffffff1673ffffffffffffffffffffffffffffffffffffffff16632ef3accc86856040518363ffffffff167c01000000000000000000000000000000000000000000000000000000000281526004018080602001838152602001828103825284818151815260200191508051906020019080838360005b838110156152cb5780820151818401526020810190506152b0565b50505050905090810190601f1680156152f85780820380516001836020036101000a031916815260200191505b509350505050602060405180830381600087803b15801561531857600080fd5b505af115801561532c573d6000803e3d6000fd5b505050506040513d602081101561534257600080fd5b81019080805190602001909291905050509050823a02670de0b6b3a764000001811115615376576000600102915050615538565b60606153818561559d565b9050600160009054906101000a900473ffffffffffffffffffffffffffffffffffffffff1673ffffffffffffffffffffffffffffffffffffffff1663c55c1cb68360008985896040518663ffffffff167c0100000000000000000000000000000000000000000000000000000000028152600401808581526020018060200180602001848152602001838103835286818151815260200191508051906020019080838360005b83811015615442578082015181840152602081019050615427565b50505050905090810190601f16801561546f5780820380516001836020036101000a031916815260200191505b50838103825285818151815260200191508051906020019080838360005b838110156154a857808201518184015260208101905061548d565b50505050905090810190601f1680156154d55780820380516001836020036101000a031916815260200191505b5096505050505050506020604051808303818588803b1580156154f757600080fd5b505af115801561550b573d6000803e3d6000fd5b50505050506040513d602081101561552257600080fd5b8101908080519060200190929190505050925050505b9392505050565b8060039080519060200190615555929190615abe565b5050565b60008060008060405188815287602082015286604082015285606082015260208160808360006001610bb8f192508051915050818193509350505094509492505050565b60606155a7615621565b6155af615b3e565b6155bb8161040061562d565b6155c48161567d565b60008090505b835181101561560a576155fd84828151811015156155e457fe5b906020019060200201518361568b90919063ffffffff16565b80806001019150506155ca565b50615614816156b0565b8060000151915050919050565b60405180590338823950565b6000819050600060208281151561564057fe5b0614151561565d5760208181151561565457fe5b06602003810190505b808360200181815250506040518084526000815281810160405250505050565b6156888160046156be565b50565b61569882600283516156e2565b6156ab818361583b90919063ffffffff16565b505050565b6156bb8160076156be565b50565b6156de601f60058360ff169060020a0217836158e890919063ffffffff16565b5050565b6017811115156157135761570e8160058460ff169060020a0260ff1617846158e890919063ffffffff16565b615836565b60ff811115156157595761573d601860058460ff169060020a0217846158e890919063ffffffff16565b615753816001856159289092919063ffffffff16565b50615835565b61ffff811115156157a057615784601960058460ff169060020a0217846158e890919063ffffffff16565b61579a816002856159289092919063ffffffff16565b50615834565b63ffffffff811115156157e9576157cd601a60058460ff169060020a0217846158e890919063ffffffff16565b6157e3816004856159289092919063ffffffff16565b50615833565b67ffffffffffffffff811115156158325761581a601b60058460ff169060020a0217846158e890919063ffffffff16565b615830816008856159289092919063ffffffff16565b505b5b5b5b5b505050565b615843615b3e565b826020015183600001515183510111156158735761587283600261586c8660200151865161598f565b026159ab565b5b60008060008451905085518051602081830101945086518101825260208701935050505b6020811015156158bc5781518352602083019250602082019150602081039050615897565b60006001826020036101000a039050801983511681855116818117865250508694505050505092915050565b8160200151600183600001515101111561590e5761590d8260028460200151026159ab565b5b815180516020818301018381536001820183525050505050565b615930615b3e565b83602001518460000151518301111561595e5761595d84600261595787602001518661598f565b026159ab565b5b60006001836101000a0390508451805184818301018684198251161781528582018352505050849150509392505050565b6000818311156159a1578290506159a5565b8190505b92915050565b6060826000015190506159be838361562d565b6159c8838261583b565b50505050565b50805460018160011615610100020316600290046000825580601f106159f45750615a13565b601f016020900490600052602060002090810190615a129190615b58565b5b50565b828054600181600116156101000203166002900490600052602060002090601f016020900481019282601f10615a5757805160ff1916838001178555615a85565b82800160010185558215615a85579182015b82811115615a84578251825591602001919060010190615a69565b5b509050615a929190615b58565b5090565b6080604051908101604052806004905b6060815260200190600190039081615aa65790505090565b828054600181600116156101000203166002900490600052602060002090601f016020900481019282601f10615aff57805160ff1916838001178555615b2d565b82800160010185558215615b2d579182015b82811115615b2c578251825591602001919060010190615b11565b5b509050615b3a9190615b58565b5090565b604080519081016040528060608152602001600081525090565b615b7a91905b80821115615b76576000816000905550600101615b5e565b5090565b9056fea165627a7a7230582064a3cf65b0f49a52d272707f95919b3c5ba234fd56c8bc5b803360dbcb6f137f0029",
  "source": "pragma solidity >= 0.5.0 < 0.6.0;\nimport \"./SafeMath.sol\";\nimport \"./Owned.sol\";\nimport \"installed_contracts/oraclize-api/contracts/usingOraclize.sol\";\n\n\ncontract Cliente is Owned, usingOraclize {\n\n        \n    bool public Activo = false;\n    bool public IsAdmin = false;\n    uint puntosLicencia = 80;//Este valor se debe obtener desde un Orculo\n    \n    event nuevoCliente(\n        uint record\n    );  \n    event CostoSeguro(\n        uint idCoche, \n        uint TotalCost\n    );    \n    event newRandomNumber_bytes(bytes);\n    event newRandomNumber_uint(uint);\n\n    \n \n    uint256 public PrecioKmCiudad;\n    uint256 public PrecioKmCarretera;\n    uint256 public PrecioAparcado;\n\n    mapping(address => Seguro) public CostSeguro;\n    mapping(uint => uint) public aseguradoraPrecioAparcado;\n    mapping(uint => uint) public aseguradoraPrecioCarretera;\n    mapping(uint => uint) public aseguradoraPrecioCiudad;\n    mapping(address => user) public users;\n    mapping(address => cliente) public clientes;\n\n    struct cliente {\n        string nombre;\n        string DNI;\n        string VATNumber;\n        uint Typeuser;\n        uint record;\n        uint PrecioAparcado;\n        uint PrecioKmCarretera;\n        uint PrecioKmCiudad;\n    }\n\n struct user {\n        string IdUser;\n        string DNI;\n        string VATNumber;\n        uint TypeUser;\n        uint record;\n        uint PrecioAparcado;\n        uint PrecioKmCarretera;\n        uint PrecioKmCiudad;\n }\n   \n    struct Seguro {\n        uint CostoTotal;\n        uint KmCiudad;\n        uint KmCarretera;\n        uint TiempoAparcado;\n    }\n    //** @title detener el contrato. */\n    function DetenerContratoToken() public onlyOwner returns (bool) {\n        Activo = true;\n        /** @dev Modificar el valor de la variable true desactivando el Smart contract.*/\n    }\n    //** @title Activar el contrato. */\n    function ActivarContratoToken() public onlyOwner returns (bool) {\n        Activo = false;\n        /** @dev Modificar el valor de la vriable true activando el Smart contract.*/\n    }\n    //** @title Crear Ahorrador. */\n    \n\n    function actualizarPrecioAparcado(uint idEmpresa, uint precioAparcado) public {\n        aseguradoraPrecioAparcado[idEmpresa] = precioAparcado;\n    }\n    function actualizarPrecioCarretera(uint idEmpresa, uint precioCarretera) public {\n        aseguradoraPrecioCarretera[idEmpresa] = precioCarretera;\n    }\n    function actualizarPrecioCiudad(uint idEmpresa, uint precioCiudad) public {\n        aseguradoraPrecioCiudad[idEmpresa] = precioCiudad;\n    }\n\n//para probar si funciona la funcin de calculo del seguro\n   function crearCliente(string memory nombre, uint TypeUser, string memory DNI, string memory VATNumber, uint antiguedadLicencia) public {\n        /** @param nombre nomhttps://github.com/DappLeasingRenting/TFM-Leasing.gitbre del usuario.\n            @param idUsuario identifiacin del usuario.\n            @param fecha fecha en la que se realiza el alta del usuario.\n        */\n        /** @dev verifica que el Smartcontract este activo\n        verifica que la address no haya creado un usuario ya en la DAAP y finalmente verifica que no se hayan asignado ya todos los \n        periodos de retiro de Tokens*/\n\n        uint recordCliente;\n        require(Activo == false);\n       //require((ownerCuentaLeasing[msg.sender]) == 0);\n        if (antiguedadLicencia <= 3){\n            recordCliente = SafeMath.div(puntosLicencia, 8);\n            \n        }else if (antiguedadLicencia > 3 && antiguedadLicencia <= 6){\n            recordCliente = SafeMath.div(puntosLicencia, 12);\n            \n        }else if (antiguedadLicencia >= 9 && antiguedadLicencia <= 12){\n            recordCliente = SafeMath.div(puntosLicencia, 14);\n            \n        }else if (antiguedadLicencia > 12){\n            recordCliente = SafeMath.div(puntosLicencia, 15);\n            \n        }\n       /** @dev cuando se registra el sexto usuario, se inicializan las fechas para el contrato y para los usuarios, de acuerdo\n       a la fecha de registro de ltimo usuario*/             \n        /** @dev se da de alta los valores del usuario que se ha registrado para cada uno de lo campos del strcut en el mapping Ahorrado\n        Se suma el 1 a los contadores mes y ownerCuenta Ahorro, mesCount y mes*/\n        clientes[msg.sender] = cliente(nombre, DNI, VATNumber,TypeUser,recordCliente, 0, 0, 0);\n      \n        /**@return emite el evento con los datos de mes, nombre y fecha de comienzoAhorro.*/\n        emit nuevoCliente(TypeUser);        \n    }\n      \n      \n\n//** @title Constructor. */\n    \n//** @title Compra de tokens. */\n    function costoSeguro() public {\n          /**@param _numeroTokens cantidad a comprar.\n \n      /** @dev verificar que el precio a pagar sea el precio estblecido\n      verifica que el contrato cuente con los tokens solicitados para comprar\n      verifica que se haya realizado la transaccin satisfactoriamente desde el contrato Token.sol.\n      Actualiza el valor de los tokens vendidos\n      */ \n        uint _tiempoAparcado = 10;//Debera ser suministrado por Orculo\n        uint _KmCiudad = 100 ;//Debera ser suministrado por Orculo\n        uint _KmCarretera = 50; //Debera ser suministrado por Orculo\n        uint CostoMovCiudad;\n        uint CostoMovCarretera;\n        uint CostoMovimiento;\n        uint CostoAparcado;\n        uint CMovRecord;\n        uint CostoTotal;\n        uint edad;\n\n        //edad = users[msg.sender].edad;\n        CostoAparcado = SafeMath.mul(_tiempoAparcado, aseguradoraPrecioAparcado[0]);\n        CostoMovCiudad = SafeMath.mul(_KmCiudad, aseguradoraPrecioCiudad[0]);\n        CostoMovCarretera = SafeMath.mul(_KmCarretera, aseguradoraPrecioCarretera[0]);\n        CostoMovimiento = SafeMath.add(CostoMovCiudad, (SafeMath.add(CostoAparcado, CostoMovCarretera)));\n        CMovRecord = SafeMath.mul((CostoMovimiento),(SafeMath.div(1, users[msg.sender].record)));\n        CostoTotal = SafeMath.mul(CMovRecord, SafeMath.div(65,edad));\n        CostSeguro[msg.sender] = Seguro(CostoTotal, _KmCiudad, _KmCarretera, _tiempoAparcado);\n        emit CostoSeguro(edad, CostoTotal);\n    }\n\n    function CheckAdmin() public onlyOwner returns (bool)\n    {   \n        IsAdmin = true; \n        return (IsAdmin);\n        //returns true if it is the owner of the contract\n    }\n\n    function fetchUser() public view returns (string memory)\n\n    {\n\n        return (users[msg.sender].IdUser);\n    }\n    \n    /*function RegistraTime() public returns (bool)\n\n    {\n        users[msg.sender].timestamp=now;\n        return (true);\n    }*/\n\n   function NewUser(string memory IdUsuario, uint TypeUser, string memory DNI, string memory VATNumber, uint antiguedadLicencia) public \n    {\n\n       uint record;\n        require(Activo == false);\n       //require((ownerCuentaLeasing[msg.sender]) == 0);\n        if (antiguedadLicencia <= 3){\n            record = SafeMath.div(puntosLicencia, 8);\n        }else if (antiguedadLicencia >= 6 && antiguedadLicencia >= 9){\n            record = SafeMath.div(puntosLicencia, 12);\n        }else if (antiguedadLicencia >= 9 && antiguedadLicencia <= 12){\n            record = SafeMath.div(puntosLicencia, 14);\n        }else if (antiguedadLicencia > 15){\n            record = SafeMath.div(puntosLicencia, 15);\n        }\n        /*uint recordCliente;\n\n       require(Activo == false);\n        if (antiguedadLicencia <= 3){\n            record = SafeMath.div(puntosLicencia, 8);\n            users[msg.sender].record = record;\n        }else if (antiguedadLicencia > 3 && antiguedadLicencia <= 6){\n            record = SafeMath.div(puntosLicencia, 12);\n            users[msg.sender].record = record;\n        }else if (antiguedadLicencia >= 9 && antiguedadLicencia <= 12){\n            record = SafeMath.div(puntosLicencia, 14);\n            users[msg.sender].record = record;\n        }else if (antiguedadLicencia > 12){\n            record = SafeMath.div(puntosLicencia, 15);\n            users[msg.sender].record = record;\n        }*/\n        users[msg.sender] = user(IdUsuario, DNI, VATNumber, TypeUser, record, 0, 0, 0);\n        /*users[msg.sender].timestamp = now;\n        users[msg.sender].IdUser = IdUsuario;\n        users[msg.sender].TypeUser = TypeUser;\n        users[msg.sender].DNI = DNI;\n        users[msg.sender].VATNumber = VATNumber;*/\n        \n        emit nuevoCliente(TypeUser); \n       \n    }\n\n\n    /*function getUser(address dir) public view returns (string memory ,uint ,uint)\n\n    {\n\n        return (users[dir].IdUser,users[dir].TypeUser,users[dir].timestamp);\n    }*/\n\n\n\nfunction deleteUser(address dir) public returns (bool)\n\n    {\n        delete users[dir];\n        return (true);\n    }\n\n    function actualizarSeguro(uint precioKmCiudad, uint precioKmCarretera, uint PrecioAparcados) public returns (bool)\n\n    {\n        uint CostoTotal = 0;\n        \n        CostSeguro[msg.sender] = Seguro(CostoTotal, precioKmCiudad, precioKmCarretera, PrecioAparcados);\n      \n        return (true);\n    }\n\n\n   function RandomExample() public {\n        oraclize_setProof(proofType_Ledger); // sets the Ledger authenticity proof in the constructor\n        update(); // let's ask for N random bytes immediately when the contract is created!\n    }\n\n    // the callback function is called by Oraclize when the result is ready\n    // the oraclize_randomDS_proofVerify modifier prevents an invalid proof to execute this function code:\n    // the proof validity is fully verified on-chain\n    mapping(uint => uint) public Aleatorio;\n\n    function __callback(bytes32 _queryId, string memory _result, bytes memory _proof) public\n    {\n        \n        require(msg.sender != oraclize_cbAddress());\n\n        if (oraclize_randomDS_proofVerify__returnCode(_queryId, _result, _proof) != 0) {\n            // the proof verification has failed, do we need to take any action here? (depends on the use case)\n        } else {\n            // the proof verification has passed\n            // now that we know that the random number was safely generated, let's use it..\n\n            emit newRandomNumber_bytes(bytes(_result)); // this is the resulting random number (bytes)\n\n            // for simplicity of use, let's also convert the random bytes to uint if we need\n            uint maxRange = 2**(8* 7); // this is the highest uint we want to get. It should never be greater than 2^(8*N), where N is the number of random bytes we had asked the datasource to return\n            uint randomNumber = uint(keccak256(abi.encodePacked(_result))) % maxRange; // this is an efficient way to get the uint out in the [0, maxRange] range\n            Aleatorio[0] = randomNumber;\n            emit newRandomNumber_uint(randomNumber); // this is the resulting random number (uint)\n        }\n    }\n\n    function update() public payable {\n        uint N = 7; // number of random bytes we want the datasource to return\n        uint delay = 0; // number of seconds to wait before the execution takes place\n        uint callbackGas = 20000; // amount of gas we want Oraclize to set for the callback function\n        bytes32 queryId = oraclize_newRandomDSQuery(delay, N, callbackGas); // this function internally generates the correct oraclize_query and returns its queryId\n    } \n\n\n\n}",
  "sourcePath": "/home/omar/Documentos/Copia TFM/TFM-Leasing/Proyecto/contracts/Cliente.sol",
  "compiler": {
    "name": "solc",
    "version": "0.5.0+commit.1d4f565a.Emscripten.clang"
  },
  "schemaVersion": "3.0.2",
  "updatedAt": "2019-03-24T21:22:21.970Z",
  "devdoc": {
    "methods": {}
  },
  "userdoc": {
    "methods": {}
  }
}