{
  "contractName": "Cliente",
  "abi": [
    {
      "constant": true,
      "inputs": [
        {
          "name": "",
          "type": "address"
        }
      ],
      "name": "IdEmpresa",
      "outputs": [
        {
          "name": "",
          "type": "uint256"
        }
      ],
      "payable": false,
      "stateMutability": "view",
      "type": "function",
      "signature": "0x0cb99e5f"
    },
    {
      "constant": true,
      "inputs": [],
      "name": "Activo",
      "outputs": [
        {
          "name": "",
          "type": "bool"
        }
      ],
      "payable": false,
      "stateMutability": "view",
      "type": "function",
      "signature": "0x12029e60"
    },
    {
      "constant": true,
      "inputs": [],
      "name": "tipoSeguroXDefecto",
      "outputs": [
        {
          "name": "",
          "type": "string"
        }
      ],
      "payable": false,
      "stateMutability": "view",
      "type": "function",
      "signature": "0x261e07f5"
    },
    {
      "constant": true,
      "inputs": [
        {
          "name": "",
          "type": "address"
        }
      ],
      "name": "ownerCuentaLeasing",
      "outputs": [
        {
          "name": "",
          "type": "uint256"
        }
      ],
      "payable": false,
      "stateMutability": "view",
      "type": "function",
      "signature": "0x3968cc47"
    },
    {
      "constant": true,
      "inputs": [
        {
          "name": "",
          "type": "address"
        }
      ],
      "name": "CostSeguro",
      "outputs": [
        {
          "name": "CostoTotal",
          "type": "uint256"
        },
        {
          "name": "KmCiudad",
          "type": "uint256"
        },
        {
          "name": "KmCarretera",
          "type": "uint256"
        },
        {
          "name": "TiempoAparcado",
          "type": "uint256"
        }
      ],
      "payable": false,
      "stateMutability": "view",
      "type": "function",
      "signature": "0x5977a96a"
    },
    {
      "constant": true,
      "inputs": [
        {
          "name": "",
          "type": "uint256"
        }
      ],
      "name": "aseguradoraPrecioAparcado",
      "outputs": [
        {
          "name": "",
          "type": "uint256"
        }
      ],
      "payable": false,
      "stateMutability": "view",
      "type": "function",
      "signature": "0x6cbbb62d"
    },
    {
      "constant": true,
      "inputs": [
        {
          "name": "",
          "type": "address"
        }
      ],
      "name": "clientes",
      "outputs": [
        {
          "name": "nombre",
          "type": "string"
        },
        {
          "name": "edad",
          "type": "uint256"
        },
        {
          "name": "idLicencia",
          "type": "string"
        },
        {
          "name": "AntiguedadLicencia",
          "type": "uint256"
        },
        {
          "name": "Seguro",
          "type": "bool"
        },
        {
          "name": "idCoche",
          "type": "string"
        },
        {
          "name": "credito",
          "type": "bool"
        },
        {
          "name": "recordCliente",
          "type": "uint256"
        },
        {
          "name": "leasing",
          "type": "bool"
        }
      ],
      "payable": false,
      "stateMutability": "view",
      "type": "function",
      "signature": "0x74b23349"
    },
    {
      "constant": true,
      "inputs": [],
      "name": "PrecioAparcado",
      "outputs": [
        {
          "name": "",
          "type": "uint256"
        }
      ],
      "payable": false,
      "stateMutability": "view",
      "type": "function",
      "signature": "0x870b26d4"
    },
    {
      "constant": true,
      "inputs": [],
      "name": "idCocheXDefecto",
      "outputs": [
        {
          "name": "",
          "type": "string"
        }
      ],
      "payable": false,
      "stateMutability": "view",
      "type": "function",
      "signature": "0xa645b277"
    },
    {
      "constant": true,
      "inputs": [],
      "name": "PrecioKmCarretera",
      "outputs": [
        {
          "name": "",
          "type": "uint256"
        }
      ],
      "payable": false,
      "stateMutability": "view",
      "type": "function",
      "signature": "0xa7cf6dc9"
    },
    {
      "constant": true,
      "inputs": [
        {
          "name": "",
          "type": "address"
        }
      ],
      "name": "users",
      "outputs": [
        {
          "name": "IdUser",
          "type": "string"
        },
        {
          "name": "Password",
          "type": "string"
        },
        {
          "name": "TypeUser",
          "type": "uint256"
        },
        {
          "name": "timestamp",
          "type": "uint256"
        }
      ],
      "payable": false,
      "stateMutability": "view",
      "type": "function",
      "signature": "0xa87430ba"
    },
    {
      "constant": true,
      "inputs": [],
      "name": "IsAdmin",
      "outputs": [
        {
          "name": "",
          "type": "bool"
        }
      ],
      "payable": false,
      "stateMutability": "view",
      "type": "function",
      "signature": "0xacad8667"
    },
    {
      "constant": true,
      "inputs": [
        {
          "name": "",
          "type": "uint256"
        }
      ],
      "name": "adminAseguradora",
      "outputs": [
        {
          "name": "",
          "type": "address"
        }
      ],
      "payable": false,
      "stateMutability": "view",
      "type": "function",
      "signature": "0xec2c9d99"
    },
    {
      "constant": true,
      "inputs": [
        {
          "name": "",
          "type": "uint256"
        }
      ],
      "name": "aseguradoraPrecioCiudad",
      "outputs": [
        {
          "name": "",
          "type": "uint256"
        }
      ],
      "payable": false,
      "stateMutability": "view",
      "type": "function",
      "signature": "0xef9c6425"
    },
    {
      "constant": true,
      "inputs": [],
      "name": "PrecioKmCiudad",
      "outputs": [
        {
          "name": "",
          "type": "uint256"
        }
      ],
      "payable": false,
      "stateMutability": "view",
      "type": "function",
      "signature": "0xf329b3df"
    },
    {
      "constant": true,
      "inputs": [
        {
          "name": "",
          "type": "uint256"
        }
      ],
      "name": "aseguradoraPrecioCarretera",
      "outputs": [
        {
          "name": "",
          "type": "uint256"
        }
      ],
      "payable": false,
      "stateMutability": "view",
      "type": "function",
      "signature": "0xfd99aeec"
    },
    {
      "anonymous": false,
      "inputs": [
        {
          "indexed": false,
          "name": "idLicencia",
          "type": "string"
        },
        {
          "indexed": false,
          "name": "antiguedadLicencia",
          "type": "uint256"
        },
        {
          "indexed": false,
          "name": "record",
          "type": "uint256"
        }
      ],
      "name": "nuevoCliente",
      "type": "event",
      "signature": "0xabb347fe1e309ec2decea659ebd5f04813d4f1a66986b2639881814e26b3601f"
    },
    {
      "anonymous": false,
      "inputs": [
        {
          "indexed": false,
          "name": "idCoche",
          "type": "uint256"
        },
        {
          "indexed": false,
          "name": "TotalCost",
          "type": "uint256"
        }
      ],
      "name": "CostoSeguro",
      "type": "event",
      "signature": "0xcbaadd3cf1d7dce84c68c08077fb9a1c1795ff994854434cc380f18d79c4ddd8"
    },
    {
      "constant": false,
      "inputs": [],
      "name": "DetenerContratoToken",
      "outputs": [
        {
          "name": "",
          "type": "bool"
        }
      ],
      "payable": false,
      "stateMutability": "nonpayable",
      "type": "function",
      "signature": "0xb5555627"
    },
    {
      "constant": false,
      "inputs": [],
      "name": "ActivarContratoToken",
      "outputs": [
        {
          "name": "",
          "type": "bool"
        }
      ],
      "payable": false,
      "stateMutability": "nonpayable",
      "type": "function",
      "signature": "0x8dae461d"
    },
    {
      "constant": false,
      "inputs": [
        {
          "name": "nombre",
          "type": "string"
        },
        {
          "name": "edad",
          "type": "uint256"
        },
        {
          "name": "idLicencia",
          "type": "string"
        },
        {
          "name": "antiguedadLicencia",
          "type": "uint256"
        }
      ],
      "name": "crearCliente",
      "outputs": [],
      "payable": false,
      "stateMutability": "nonpayable",
      "type": "function",
      "signature": "0x4cf35650"
    },
    {
      "constant": false,
      "inputs": [
        {
          "name": "precioAparcado",
          "type": "uint256"
        }
      ],
      "name": "actualizarPrecioAparcado",
      "outputs": [],
      "payable": false,
      "stateMutability": "nonpayable",
      "type": "function",
      "signature": "0x36f8d582"
    },
    {
      "constant": false,
      "inputs": [
        {
          "name": "precioCarretera",
          "type": "uint256"
        }
      ],
      "name": "actualizarPrecioCarretera",
      "outputs": [],
      "payable": false,
      "stateMutability": "nonpayable",
      "type": "function",
      "signature": "0x7186d445"
    },
    {
      "constant": false,
      "inputs": [
        {
          "name": "precioCiudad",
          "type": "uint256"
        }
      ],
      "name": "actualizarPrecioCiudad",
      "outputs": [],
      "payable": false,
      "stateMutability": "nonpayable",
      "type": "function",
      "signature": "0xd61b388d"
    },
    {
      "constant": false,
      "inputs": [],
      "name": "costoSeguro",
      "outputs": [],
      "payable": false,
      "stateMutability": "nonpayable",
      "type": "function",
      "signature": "0x487b6651"
    },
    {
      "constant": false,
      "inputs": [],
      "name": "CheckAdmin",
      "outputs": [
        {
          "name": "",
          "type": "bool"
        }
      ],
      "payable": false,
      "stateMutability": "nonpayable",
      "type": "function",
      "signature": "0x4e4dc82c"
    },
    {
      "constant": true,
      "inputs": [],
      "name": "fetchUser",
      "outputs": [
        {
          "name": "",
          "type": "string"
        },
        {
          "name": "",
          "type": "string"
        }
      ],
      "payable": false,
      "stateMutability": "view",
      "type": "function",
      "signature": "0x8337d90f"
    },
    {
      "constant": false,
      "inputs": [],
      "name": "RegistraTime",
      "outputs": [
        {
          "name": "",
          "type": "bool"
        }
      ],
      "payable": false,
      "stateMutability": "nonpayable",
      "type": "function",
      "signature": "0xe261426f"
    }
  ],
  "bytecode": "0x608060405260008060146101000a81548160ff02191690831515021790555060008060156101000a81548160ff02191690831515021790555060086001556040805190810160405280600281526020017f3041000000000000000000000000000000000000000000000000000000000000815250600290805190602001906200008a9291906200012e565b506040805190810160405280600281526020017f304100000000000000000000000000000000000000000000000000000000000081525060039080519060200190620000d89291906200012e565b50600a60115560646012556032601355336000806101000a81548173ffffffffffffffffffffffffffffffffffffffff021916908373ffffffffffffffffffffffffffffffffffffffff160217905550620001dd565b828054600181600116156101000203166002900490600052602060002090601f016020900481019282601f106200017157805160ff1916838001178555620001a2565b82800160010185558215620001a2579182015b82811115620001a157825182559160200191906001019062000184565b5b509050620001b19190620001b5565b5090565b620001da91905b80821115620001d6576000816000905550600101620001bc565b5090565b90565b611c9780620001ed6000396000f300608060405260043610610154576000357c0100000000000000000000000000000000000000000000000000000000900463ffffffff1680630cb99e5f1461015957806312029e60146101b0578063261e07f5146101df57806336f8d5821461026f5780633968cc471461029c578063487b6651146102f35780634cf356501461030a5780634e4dc82c146103cd5780635977a96a146103fc5780636cbbb62d146104685780637186d445146104a957806374b23349146104d65780638337d90f146106a0578063870b26d41461079c5780638dae461d146107c7578063a645b277146107f6578063a7cf6dc914610886578063a87430ba146108b1578063acad8667146109e7578063b555562714610a16578063d61b388d14610a45578063e261426f14610a72578063ec2c9d9914610aa1578063ef9c642514610b0e578063f329b3df14610b4f578063fd99aeec14610b7a575b600080fd5b34801561016557600080fd5b5061019a600480360381019080803573ffffffffffffffffffffffffffffffffffffffff169060200190929190505050610bbb565b6040518082815260200191505060405180910390f35b3480156101bc57600080fd5b506101c5610bd3565b604051808215151515815260200191505060405180910390f35b3480156101eb57600080fd5b506101f4610be6565b6040518080602001828103825283818151815260200191508051906020019080838360005b83811015610234578082015181840152602081019050610219565b50505050905090810190601f1680156102615780820380516001836020036101000a031916815260200191505b509250505060405180910390f35b34801561027b57600080fd5b5061029a60048036038101908080359060200190929190505050610c84565b005b3480156102a857600080fd5b506102dd600480360381019080803573ffffffffffffffffffffffffffffffffffffffff169060200190929190505050610c9f565b6040518082815260200191505060405180910390f35b3480156102ff57600080fd5b50610308610cb7565b005b34801561031657600080fd5b506103cb600480360381019080803590602001908201803590602001908080601f016020809104026020016040519081016040528093929190818152602001838380828437820191505050505050919291929080359060200190929190803590602001908201803590602001908080601f016020809104026020016040519081016040528093929190818152602001838380828437820191505050505050919291929080359060200190929190505050610ec7565b005b3480156103d957600080fd5b506103e2611278565b604051808215151515815260200191505060405180910390f35b34801561040857600080fd5b5061043d600480360381019080803573ffffffffffffffffffffffffffffffffffffffff169060200190929190505050611305565b6040518085815260200184815260200183815260200182815260200194505050505060405180910390f35b34801561047457600080fd5b5061049360048036038101908080359060200190929190505050611335565b6040518082815260200191505060405180910390f35b3480156104b557600080fd5b506104d46004803603810190808035906020019092919050505061134d565b005b3480156104e257600080fd5b50610517600480360381019080803573ffffffffffffffffffffffffffffffffffffffff169060200190929190505050611368565b60405180806020018a8152602001806020018981526020018815151515815260200180602001871515151581526020018681526020018515151515815260200184810384528d818151815260200191508051906020019080838360005b8381101561058f578082015181840152602081019050610574565b50505050905090810190601f1680156105bc5780820380516001836020036101000a031916815260200191505b5084810383528b818151815260200191508051906020019080838360005b838110156105f55780820151818401526020810190506105da565b50505050905090810190601f1680156106225780820380516001836020036101000a031916815260200191505b50848103825288818151815260200191508051906020019080838360005b8381101561065b578082015181840152602081019050610640565b50505050905090810190601f1680156106885780820380516001836020036101000a031916815260200191505b509c5050505050505050505050505060405180910390f35b3480156106ac57600080fd5b506106b56115a5565b604051808060200180602001838103835285818151815260200191508051906020019080838360005b838110156106f95780820151818401526020810190506106de565b50505050905090810190601f1680156107265780820380516001836020036101000a031916815260200191505b50838103825284818151815260200191508051906020019080838360005b8381101561075f578082015181840152602081019050610744565b50505050905090810190601f16801561078c5780820380516001836020036101000a031916815260200191505b5094505050505060405180910390f35b3480156107a857600080fd5b506107b161176c565b6040518082815260200191505060405180910390f35b3480156107d357600080fd5b506107dc611772565b604051808215151515815260200191505060405180910390f35b34801561080257600080fd5b5061080b6117ec565b6040518080602001828103825283818151815260200191508051906020019080838360005b8381101561084b578082015181840152602081019050610830565b50505050905090810190601f1680156108785780820380516001836020036101000a031916815260200191505b509250505060405180910390f35b34801561089257600080fd5b5061089b61188a565b6040518082815260200191505060405180910390f35b3480156108bd57600080fd5b506108f2600480360381019080803573ffffffffffffffffffffffffffffffffffffffff169060200190929190505050611890565b604051808060200180602001858152602001848152602001838103835287818151815260200191508051906020019080838360005b83811015610942578082015181840152602081019050610927565b50505050905090810190601f16801561096f5780820380516001836020036101000a031916815260200191505b50838103825286818151815260200191508051906020019080838360005b838110156109a857808201518184015260208101905061098d565b50505050905090810190601f1680156109d55780820380516001836020036101000a031916815260200191505b50965050505050505060405180910390f35b3480156109f357600080fd5b506109fc6119f0565b604051808215151515815260200191505060405180910390f35b348015610a2257600080fd5b50610a2b611a03565b604051808215151515815260200191505060405180910390f35b348015610a5157600080fd5b50610a7060048036038101908080359060200190929190505050611a7e565b005b348015610a7e57600080fd5b50610a87611a99565b604051808215151515815260200191505060405180910390f35b348015610aad57600080fd5b50610acc60048036038101908080359060200190929190505050611ae9565b604051808273ffffffffffffffffffffffffffffffffffffffff1673ffffffffffffffffffffffffffffffffffffffff16815260200191505060405180910390f35b348015610b1a57600080fd5b50610b3960048036038101908080359060200190929190505050611b1c565b6040518082815260200191505060405180910390f35b348015610b5b57600080fd5b50610b64611b34565b6040518082815260200191505060405180910390f35b348015610b8657600080fd5b50610ba560048036038101908080359060200190929190505050611b3a565b6040518082815260200191505060405180910390f35b600f6020528060005260406000206000915090505481565b600060149054906101000a900460ff1681565b60028054600181600116156101000203166002900480601f016020809104026020016040519081016040528092919081815260200182805460018160011615610100020316600290048015610c7c5780601f10610c5157610100808354040283529160200191610c7c565b820191906000526020600020905b815481529060010190602001808311610c5f57829003601f168201915b505050505081565b80600b60008081526020019081526020016000208190555050565b600a6020528060005260406000206000915090505481565b6000806000806000806000600960003373ffffffffffffffffffffffffffffffffffffffff1673ffffffffffffffffffffffffffffffffffffffff168152602001908152602001600020600101549050610d26601154600b600080815260200190815260200160002054611b52565b9350610d47601254600d600080815260200190815260200160002054611b52565b9650610d68601354600c600080815260200190815260200160002054611b52565b9550610d7d87610d788689611b8d565b611b8d565b9450610dd585610dd06001600960003373ffffffffffffffffffffffffffffffffffffffff1673ffffffffffffffffffffffffffffffffffffffff16815260200190815260200160002060070154611bab565b611b52565b9250610deb83610de6604184611bab565b611b52565b915060806040519081016040528083815260200160125481526020016013548152602001601154815250600860003373ffffffffffffffffffffffffffffffffffffffff1673ffffffffffffffffffffffffffffffffffffffff168152602001908152602001600020600082015181600001556020820151816001015560408201518160020155606082015181600301559050507fcbaadd3cf1d7dce84c68c08077fb9a1c1795ff994854434cc380f18d79c4ddd88183604051808381526020018281526020019250505060405180910390a150505050505050565b6000801515600060149054906101000a900460ff161515141515610eea57600080fd5b600382111515610f0857610f016001546008611bab565b9050610f7a565b60068210158015610f1a575060098210155b15610f3357610f2c600154600c611bab565b9050610f79565b60098210158015610f455750600c8211155b15610f5e57610f57600154600e611bab565b9050610f78565b600f821115610f7757610f74600154600f611bab565b90505b5b5b5b6101206040519081016040528086815260200185815260200184815260200183815260200160001515815260200160038054600181600116156101000203166002900480601f01602080910402602001604051908101604052809291908181526020018280546001816001161561010002031660029004801561103e5780601f106110135761010080835404028352916020019161103e565b820191906000526020600020905b81548152906001019060200180831161102157829003601f168201915b5050505050815260200160001515815260200182815260200160001515815250600960003373ffffffffffffffffffffffffffffffffffffffff1673ffffffffffffffffffffffffffffffffffffffff16815260200190815260200160002060008201518160000190805190602001906110b9929190611bc6565b506020820151816001015560408201518160020190805190602001906110e0929190611bc6565b506060820151816003015560808201518160040160006101000a81548160ff02191690831515021790555060a0820151816005019080519060200190611127929190611bc6565b5060c08201518160060160006101000a81548160ff02191690831515021790555060e082015181600701556101008201518160080160006101000a81548160ff021916908315150217905550905050600a60003373ffffffffffffffffffffffffffffffffffffffff1673ffffffffffffffffffffffffffffffffffffffff168152602001908152602001600020600081548092919060010191905055507fabb347fe1e309ec2decea659ebd5f04813d4f1a66986b2639881814e26b3601f8383836040518080602001848152602001838152602001828103825285818151815260200191508051906020019080838360005b8381101561123557808201518184015260208101905061121a565b50505050905090810190601f1680156112625780820380516001836020036101000a031916815260200191505b5094505050505060405180910390a15050505050565b60008060009054906101000a900473ffffffffffffffffffffffffffffffffffffffff1673ffffffffffffffffffffffffffffffffffffffff163373ffffffffffffffffffffffffffffffffffffffff161415156112d557600080fd5b6001600060156101000a81548160ff021916908315150217905550600060159054906101000a900460ff16905090565b60086020528060005260406000206000915090508060000154908060010154908060020154908060030154905084565b600b6020528060005260406000206000915090505481565b80600c60008081526020019081526020016000208190555050565b6009602052806000526040600020600091509050806000018054600181600116156101000203166002900480601f0160208091040260200160405190810160405280929190818152602001828054600181600116156101000203166002900480156114145780601f106113e957610100808354040283529160200191611414565b820191906000526020600020905b8154815290600101906020018083116113f757829003601f168201915b505050505090806001015490806002018054600181600116156101000203166002900480601f0160208091040260200160405190810160405280929190818152602001828054600181600116156101000203166002900480156114b85780601f1061148d576101008083540402835291602001916114b8565b820191906000526020600020905b81548152906001019060200180831161149b57829003601f168201915b5050505050908060030154908060040160009054906101000a900460ff1690806005018054600181600116156101000203166002900480601f01602080910402602001604051908101604052809291908181526020018280546001816001161561010002031660029004801561156f5780601f106115445761010080835404028352916020019161156f565b820191906000526020600020905b81548152906001019060200180831161155257829003601f168201915b5050505050908060060160009054906101000a900460ff16908060070154908060080160009054906101000a900460ff16905089565b606080601060003373ffffffffffffffffffffffffffffffffffffffff1673ffffffffffffffffffffffffffffffffffffffff168152602001908152602001600020600001601060003373ffffffffffffffffffffffffffffffffffffffff1673ffffffffffffffffffffffffffffffffffffffff168152602001908152602001600020600101818054600181600116156101000203166002900480601f0160208091040260200160405190810160405280929190818152602001828054600181600116156101000203166002900480156116c15780601f10611696576101008083540402835291602001916116c1565b820191906000526020600020905b8154815290600101906020018083116116a457829003601f168201915b50505050509150808054600181600116156101000203166002900480601f01602080910402602001604051908101604052809291908181526020018280546001816001161561010002031660029004801561175d5780601f106117325761010080835404028352916020019161175d565b820191906000526020600020905b81548152906001019060200180831161174057829003601f168201915b50505050509050915091509091565b60075481565b60008060009054906101000a900473ffffffffffffffffffffffffffffffffffffffff1673ffffffffffffffffffffffffffffffffffffffff163373ffffffffffffffffffffffffffffffffffffffff161415156117cf57600080fd5b60008060146101000a81548160ff02191690831515021790555090565b60038054600181600116156101000203166002900480601f0160208091040260200160405190810160405280929190818152602001828054600181600116156101000203166002900480156118825780601f1061185757610100808354040283529160200191611882565b820191906000526020600020905b81548152906001019060200180831161186557829003601f168201915b505050505081565b60065481565b6010602052806000526040600020600091509050806000018054600181600116156101000203166002900480601f01602080910402602001604051908101604052809291908181526020018280546001816001161561010002031660029004801561193c5780601f106119115761010080835404028352916020019161193c565b820191906000526020600020905b81548152906001019060200180831161191f57829003601f168201915b505050505090806001018054600181600116156101000203166002900480601f0160208091040260200160405190810160405280929190818152602001828054600181600116156101000203166002900480156119da5780601f106119af576101008083540402835291602001916119da565b820191906000526020600020905b8154815290600101906020018083116119bd57829003601f168201915b5050505050908060020154908060030154905084565b600060159054906101000a900460ff1681565b60008060009054906101000a900473ffffffffffffffffffffffffffffffffffffffff1673ffffffffffffffffffffffffffffffffffffffff163373ffffffffffffffffffffffffffffffffffffffff16141515611a6057600080fd5b6001600060146101000a81548160ff02191690831515021790555090565b80600d60008081526020019081526020016000208190555050565b600042601060003373ffffffffffffffffffffffffffffffffffffffff1673ffffffffffffffffffffffffffffffffffffffff168152602001908152602001600020600301819055506001905090565b600e6020528060005260406000206000915054906101000a900473ffffffffffffffffffffffffffffffffffffffff1681565b600d6020528060005260406000206000915090505481565b60055481565b600c6020528060005260406000206000915090505481565b6000806000841415611b675760009150611b86565b8284029050828482811515611b7857fe5b04141515611b8257fe5b8091505b5092915050565b6000808284019050838110151515611ba157fe5b8091505092915050565b6000808284811515611bb957fe5b0490508091505092915050565b828054600181600116156101000203166002900490600052602060002090601f016020900481019282601f10611c0757805160ff1916838001178555611c35565b82800160010185558215611c35579182015b82811115611c34578251825591602001919060010190611c19565b5b509050611c429190611c46565b5090565b611c6891905b80821115611c64576000816000905550600101611c4c565b5090565b905600a165627a7a723058203e2c194bf21f46106c3f4d89e928fec5a8770210756f06aa543413610b15e0070029",
  "source": "pragma solidity ^0.4.2;\nimport \"./SafeMath.sol\";\nimport \"./Owned.sol\";\n\n\ncontract Cliente is Owned {\n\n    bool public Activo = false;\n    bool public IsAdmin = false;\n    uint puntosLicencia = 8;\n    \n    event nuevoCliente(\n        string idLicencia, \n        uint antiguedadLicencia,\n        uint record\n    );  \n    event CostoSeguro(\n        uint idCoche, \n        uint TotalCost\n    );    \n    string public tipoSeguroXDefecto = \"0A\";\n    string public idCocheXDefecto = \"0A\";\n    address admin;    \n    uint256 public PrecioKmCiudad;\n    uint256 public PrecioKmCarretera;\n    uint256 public PrecioAparcado;\n\n    mapping(address => Seguro) public CostSeguro;\n    mapping(address => cliente) public clientes;\n    mapping(address => uint) public ownerCuentaLeasing;\n    mapping(uint => uint) public aseguradoraPrecioAparcado;\n    mapping(uint => uint) public aseguradoraPrecioCarretera;\n    mapping(uint => uint) public aseguradoraPrecioCiudad;\n    mapping(uint => address) public adminAseguradora;\n    mapping(address => uint) public IdEmpresa;\n    mapping(address => user) public users;\n\n   struct user {\n        string IdUser;\n        string Password;\n        uint TypeUser;\n        uint256 timestamp;\n    }\n   \n\n    struct cliente {\n        string nombre;\n        uint edad;\n        string idLicencia;\n        uint AntiguedadLicencia;\n        bool Seguro;\n        string idCoche; \n        bool credito;\n        uint recordCliente;\n        bool leasing;\n    }\n    struct Seguro {\n        uint CostoTotal;\n        uint KmCiudad;\n        uint KmCarretera;\n        uint TiempoAparcado;\n    }\n    //** @title detener el contrato. */\n    function DetenerContratoToken() public onlyOwner returns (bool) {\n        Activo = true;\n        /** @dev Modificar el valor de la variable true desactivando el Smart contract.*/\n    }\n    //** @title Activar el contrato. */\n    function ActivarContratoToken() public onlyOwner returns (bool) {\n        Activo = false;\n        /** @dev Modificar el valor de la vriable true activando el Smart contract.*/\n    }\n\n    //** @title Crear Ahorrador. */\n    function crearCliente(string nombre, uint edad, string idLicencia, uint antiguedadLicencia) public {\n        /** @param nombre nombre del usuario.\n            @param idUsuario identifiacin del usuario.\n            @param fecha fecha en la que se realiza el alta del usuario.\n        */\n        /** @dev verifica que el Smartcontract este activo\n        verifica que la address no haya creado un usuario ya en la DAAP y finalmente verifica que no se hayan asignado ya todos los \n        periodos de retiro de Tokens*/\n\n       uint record;\n       require(Activo == false);\n       //require((ownerCuentaLeasing[msg.sender]) == 0);\n        if (antiguedadLicencia <= 3){\n            record = SafeMath.div(puntosLicencia, 8);\n        }else if (antiguedadLicencia >= 6 && antiguedadLicencia >= 9){\n            record = SafeMath.div(puntosLicencia, 12);\n        }else if (antiguedadLicencia >= 9 && antiguedadLicencia <= 12){\n            record = SafeMath.div(puntosLicencia, 14);\n        }else if (antiguedadLicencia > 15){\n            record = SafeMath.div(puntosLicencia, 15);\n        }\n       /** @dev cuando se registra el sexto usuario, se inicializan las fechas para el contrato y para los usuarios, de acuerdo\n       a la fecha de registro de ltimo usuario*/             \n        /** @dev se da de alta los valores del usuario que se ha registrado para cada uno de lo campos del strcut en el mapping Ahorrado\n        Se suma el 1 a los contadores mes y ownerCuenta Ahorro, mesCount y mes*/\n        clientes[msg.sender] = cliente(nombre, edad, idLicencia, antiguedadLicencia, false, idCocheXDefecto, false, record,false);\n        ownerCuentaLeasing[msg.sender] ++;\n        /**@return emite el evento con los datos de mes, nombre y fecha de comienzoAhorro.*/\n        emit nuevoCliente(idLicencia, antiguedadLicencia, record);        \n    }\n\n    function actualizarPrecioAparcado(uint precioAparcado) public {\n        /*uint idEmpresa;\n        idEmpresa = IdEmpresa[msg.sender];\n        require(adminAseguradora[idEmpresa] == msg.sender);\n        aseguradoraPrecioAparcado[idEmpresa] = precioAparcado;*/\n        aseguradoraPrecioAparcado[0] = precioAparcado;\n    }\n    function actualizarPrecioCarretera(uint precioCarretera) public {\n        /*uint idEmpresa;\n        idEmpresa = IdEmpresa[msg.sender];\n        require(adminAseguradora[idEmpresa] == msg.sender);\n        aseguradoraPrecioCarretera[idEmpresa] = precioCarretera;*/\n        aseguradoraPrecioCarretera[0] = precioCarretera;\n    }\n    function actualizarPrecioCiudad(uint precioCiudad) public {\n        /*uint idEmpresa;\n        idEmpresa = IdEmpresa[msg.sender];\n        require(adminAseguradora[idEmpresa] == msg.sender);\n        aseguradoraPrecioCiudad[idEmpresa] = precioCiudad;*/\n        aseguradoraPrecioCiudad[0] = precioCiudad;\n    }\n\n//para probar si funciona la funcin de calculo del seguro\n    uint _tiempoAparcado = 10;\n    uint _KmCiudad = 100 ;\n    uint _KmCarretera = 50; \n \n\n//** @title Constructor. */\n    \n//** @title Compra de tokens. */\n    function costoSeguro() public {\n          /**@param _numeroTokens cantidad a comprar.\n \n      /** @dev verificar que el precio a pagar sea el precio estblecido\n      verifica que el contrato cuente con los tokens solicitados para comprar\n      verifica que se haya realizado la transaccin satisfactoriamente desde el contrato Token.sol.\n      Actualiza el valor de los tokens vendidos\n      */ \n        uint CostoMovCiudad;\n        uint CostoMovCarretera;\n        uint CostoMovimiento;\n        uint CostoAparcado;\n        uint CMovRecord;\n        uint CostoTotal;\n        uint edad;\n\n        edad = clientes[msg.sender].edad;\n        CostoAparcado = SafeMath.mul(_tiempoAparcado, aseguradoraPrecioAparcado[0]);\n        CostoMovCiudad = SafeMath.mul(_KmCiudad, aseguradoraPrecioCiudad[0]);\n        CostoMovCarretera = SafeMath.mul(_KmCarretera, aseguradoraPrecioCarretera[0]);\n        CostoMovimiento = SafeMath.add(CostoMovCiudad, (SafeMath.add(CostoAparcado, CostoMovCarretera)));\n        CMovRecord = SafeMath.mul((CostoMovimiento),(SafeMath.div(1, clientes[msg.sender].recordCliente)));\n        CostoTotal = SafeMath.mul(CMovRecord, SafeMath.div(65,edad));\n        CostSeguro[msg.sender] = Seguro(CostoTotal, _KmCiudad, _KmCarretera, _tiempoAparcado);\n        emit CostoSeguro(edad, CostoTotal);\n    }\n\n    function CheckAdmin() public onlyOwner returns (bool)\n    {   \n    \n        IsAdmin = true; \n        return (IsAdmin);\n        //returns true if it is the owner of the contract\n\n    }\n\n    function fetchUser() public view returns (string, string)\n\n    {\n\n        return (users[msg.sender].IdUser,users[msg.sender].Password);\n    }\n    \n    function RegistraTime() public returns (bool)\n\n    {\n        users[msg.sender].timestamp=now;\n        return (true);\n    }\n\n\n}",
  "sourcePath": "/home/pedro/TFM/TFM-Leasing/Proyecto/contracts/Cliente.sol",
  "compiler": {
    "name": "solc",
    "version": "0.4.24+commit.e67f0147.Emscripten.clang"
  },
  "schemaVersion": "3.0.0",
  "updatedAt": "2019-03-10T11:15:28.600Z",
  "devdoc": {
    "methods": {}
  },
  "userdoc": {
    "methods": {}
  }
}