{
  "contractName": "CompraToken",
  "abi": [
    {
      "constant": true,
      "inputs": [],
      "name": "Activo",
      "outputs": [
        {
          "name": "",
          "type": "bool"
        }
      ],
      "payable": false,
      "stateMutability": "view",
      "type": "function",
      "signature": "0x12029e60"
    },
    {
      "constant": false,
      "inputs": [
        {
          "name": "_myid",
          "type": "bytes32"
        },
        {
          "name": "_result",
          "type": "string"
        }
      ],
      "name": "__callback",
      "outputs": [],
      "payable": false,
      "stateMutability": "nonpayable",
      "type": "function",
      "signature": "0x27dc297e"
    },
    {
      "constant": false,
      "inputs": [
        {
          "name": "_myid",
          "type": "bytes32"
        },
        {
          "name": "_result",
          "type": "string"
        },
        {
          "name": "_proof",
          "type": "bytes"
        }
      ],
      "name": "__callback",
      "outputs": [],
      "payable": false,
      "stateMutability": "nonpayable",
      "type": "function",
      "signature": "0x38bbfa50"
    },
    {
      "constant": true,
      "inputs": [
        {
          "name": "",
          "type": "address"
        }
      ],
      "name": "ownerCuentaLeasing",
      "outputs": [
        {
          "name": "",
          "type": "uint256"
        }
      ],
      "payable": false,
      "stateMutability": "view",
      "type": "function",
      "signature": "0x3968cc47"
    },
    {
      "constant": true,
      "inputs": [
        {
          "name": "",
          "type": "uint256"
        },
        {
          "name": "",
          "type": "uint256"
        }
      ],
      "name": "CochesDisponibles",
      "outputs": [
        {
          "name": "",
          "type": "uint256"
        }
      ],
      "payable": false,
      "stateMutability": "view",
      "type": "function",
      "signature": "0x4ca6d8c1"
    },
    {
      "constant": true,
      "inputs": [],
      "name": "tokenContract",
      "outputs": [
        {
          "name": "",
          "type": "address"
        }
      ],
      "payable": false,
      "stateMutability": "view",
      "type": "function",
      "signature": "0x55a373d6"
    },
    {
      "constant": true,
      "inputs": [],
      "name": "tokensVendidos",
      "outputs": [
        {
          "name": "",
          "type": "uint256"
        }
      ],
      "payable": false,
      "stateMutability": "view",
      "type": "function",
      "signature": "0x5d8d223a"
    },
    {
      "constant": true,
      "inputs": [
        {
          "name": "",
          "type": "uint256"
        }
      ],
      "name": "aseguradoraPrecioAparcado",
      "outputs": [
        {
          "name": "",
          "type": "uint256"
        }
      ],
      "payable": false,
      "stateMutability": "view",
      "type": "function",
      "signature": "0x6cbbb62d"
    },
    {
      "constant": true,
      "inputs": [
        {
          "name": "",
          "type": "address"
        }
      ],
      "name": "users",
      "outputs": [
        {
          "name": "TipoCoche",
          "type": "uint256"
        },
        {
          "name": "DNI",
          "type": "string"
        },
        {
          "name": "VATNumber",
          "type": "bytes32"
        },
        {
          "name": "TypeUser",
          "type": "uint256"
        },
        {
          "name": "record",
          "type": "uint256"
        },
        {
          "name": "PrecioAparcado",
          "type": "uint256"
        },
        {
          "name": "PrecioKmCarretera",
          "type": "uint256"
        },
        {
          "name": "PrecioKmCiudad",
          "type": "uint256"
        },
        {
          "name": "MaxCredito",
          "type": "uint256"
        },
        {
          "name": "IdCoche",
          "type": "uint256"
        },
        {
          "name": "Prestamo",
          "type": "uint256"
        }
      ],
      "payable": false,
      "stateMutability": "view",
      "type": "function",
      "signature": "0xa87430ba"
    },
    {
      "constant": true,
      "inputs": [],
      "name": "IsAdmin",
      "outputs": [
        {
          "name": "",
          "type": "bool"
        }
      ],
      "payable": false,
      "stateMutability": "view",
      "type": "function",
      "signature": "0xacad8667"
    },
    {
      "constant": true,
      "inputs": [
        {
          "name": "",
          "type": "bytes32"
        }
      ],
      "name": "maestroEmpresas",
      "outputs": [
        {
          "name": "",
          "type": "address"
        }
      ],
      "payable": false,
      "stateMutability": "view",
      "type": "function",
      "signature": "0xb65a8259"
    },
    {
      "constant": true,
      "inputs": [],
      "name": "PrecioToken",
      "outputs": [
        {
          "name": "",
          "type": "uint256"
        }
      ],
      "payable": false,
      "stateMutability": "view",
      "type": "function",
      "signature": "0xcfa6628a"
    },
    {
      "constant": true,
      "inputs": [
        {
          "name": "",
          "type": "uint256"
        }
      ],
      "name": "aseguradoraPrecioCiudad",
      "outputs": [
        {
          "name": "",
          "type": "uint256"
        }
      ],
      "payable": false,
      "stateMutability": "view",
      "type": "function",
      "signature": "0xef9c6425"
    },
    {
      "constant": true,
      "inputs": [
        {
          "name": "",
          "type": "uint256"
        },
        {
          "name": "",
          "type": "uint256"
        }
      ],
      "name": "coches",
      "outputs": [
        {
          "name": "IdCoche",
          "type": "uint256"
        },
        {
          "name": "KmCarretera",
          "type": "uint256"
        },
        {
          "name": "KmCiudad",
          "type": "uint256"
        },
        {
          "name": "TiempoAparcado",
          "type": "uint256"
        },
        {
          "name": "IdSeguro",
          "type": "uint256"
        },
        {
          "name": "entregado",
          "type": "bool"
        }
      ],
      "payable": false,
      "stateMutability": "view",
      "type": "function",
      "signature": "0xf15fa0c6"
    },
    {
      "constant": true,
      "inputs": [
        {
          "name": "",
          "type": "uint256"
        }
      ],
      "name": "aseguradoraPrecioCarretera",
      "outputs": [
        {
          "name": "",
          "type": "uint256"
        }
      ],
      "payable": false,
      "stateMutability": "view",
      "type": "function",
      "signature": "0xfd99aeec"
    },
    {
      "inputs": [
        {
          "name": "_tokenContract",
          "type": "address"
        },
        {
          "name": "_PrecioToken",
          "type": "uint256"
        }
      ],
      "payable": false,
      "stateMutability": "nonpayable",
      "type": "constructor",
      "signature": "constructor"
    },
    {
      "anonymous": false,
      "inputs": [
        {
          "indexed": false,
          "name": "_comprador",
          "type": "address"
        },
        {
          "indexed": false,
          "name": "_tokens",
          "type": "uint256"
        }
      ],
      "name": "Venta",
      "type": "event",
      "signature": "0x73ab9be6246a9eb60faba3a7d2a824cb1915fbf017b6cdf338d65fbcf0f5bc9f"
    },
    {
      "anonymous": false,
      "inputs": [
        {
          "indexed": false,
          "name": "_comprador",
          "type": "address"
        },
        {
          "indexed": false,
          "name": "_tokens",
          "type": "uint256"
        }
      ],
      "name": "Prestamo",
      "type": "event",
      "signature": "0x40da82cf732acb6b1f2fc10a49ce18b1e0938475b2d40935edc9cf928e70967d"
    },
    {
      "anonymous": false,
      "inputs": [
        {
          "indexed": false,
          "name": "_depositante",
          "type": "address"
        },
        {
          "indexed": false,
          "name": "cantidad",
          "type": "uint256"
        }
      ],
      "name": "Pago",
      "type": "event",
      "signature": "0xb9dde9ba07bee40c833192b2e4701d1cee406ee484c22f55e60f924bb379ab8e"
    },
    {
      "anonymous": false,
      "inputs": [
        {
          "indexed": false,
          "name": "_retira",
          "type": "address"
        },
        {
          "indexed": false,
          "name": "cantidad",
          "type": "uint256"
        }
      ],
      "name": "Retiro",
      "type": "event",
      "signature": "0xebdddb82f24ed849145a8f144818f7d383a31047a4a7f30b928c65100f9b8eab"
    },
    {
      "anonymous": false,
      "inputs": [
        {
          "indexed": false,
          "name": "record",
          "type": "uint256"
        }
      ],
      "name": "nuevoCliente",
      "type": "event",
      "signature": "0x6ba4ead7636d04e0c95d33e655db0853aa65a450a0414cf4be9f3f4bf8f35c32"
    },
    {
      "anonymous": false,
      "inputs": [
        {
          "indexed": false,
          "name": "entregado",
          "type": "uint256"
        }
      ],
      "name": "CostoSeguro",
      "type": "event",
      "signature": "0x5a4bdf0af9a858387f554b96cd81418e7570789fde7c70afe9ff7d8e6cfaffe5"
    },
    {
      "anonymous": false,
      "inputs": [
        {
          "indexed": false,
          "name": "",
          "type": "bytes"
        }
      ],
      "name": "newRandomNumber_bytes",
      "type": "event",
      "signature": "0xab2f9e7e7e74d54a49792fd7ff57c497b14cd2bad49d7537937a5a527a50f0ac"
    },
    {
      "anonymous": false,
      "inputs": [
        {
          "indexed": false,
          "name": "",
          "type": "uint256"
        }
      ],
      "name": "newRandomNumber_uint",
      "type": "event",
      "signature": "0xb084d8f103616749e12a8d363f0b50f8bb8568b4086c093bd88140c74042c47a"
    },
    {
      "constant": false,
      "inputs": [
        {
          "name": "_numeroTokens",
          "type": "uint256"
        }
      ],
      "name": "compraTokens",
      "outputs": [],
      "payable": true,
      "stateMutability": "payable",
      "type": "function",
      "signature": "0xc29dd7c9"
    },
    {
      "constant": false,
      "inputs": [
        {
          "name": "_numeroTokens",
          "type": "uint256"
        },
        {
          "name": "AddressEmpresa",
          "type": "address"
        }
      ],
      "name": "prestamoTokens",
      "outputs": [],
      "payable": true,
      "stateMutability": "payable",
      "type": "function",
      "signature": "0x8689387c"
    },
    {
      "constant": false,
      "inputs": [
        {
          "name": "_pago",
          "type": "uint256"
        },
        {
          "name": "precioKmCiudad",
          "type": "uint256"
        },
        {
          "name": "precioKmCarretera",
          "type": "uint256"
        },
        {
          "name": "precioAparcado",
          "type": "uint256"
        },
        {
          "name": "tipoCoche",
          "type": "uint256"
        },
        {
          "name": "IdSeguro",
          "type": "uint256"
        }
      ],
      "name": "pagarTokens",
      "outputs": [],
      "payable": true,
      "stateMutability": "payable",
      "type": "function",
      "signature": "0x79dab751"
    },
    {
      "constant": false,
      "inputs": [],
      "name": "DetenerContratoCompraToken",
      "outputs": [
        {
          "name": "",
          "type": "bool"
        }
      ],
      "payable": false,
      "stateMutability": "nonpayable",
      "type": "function",
      "signature": "0x567b616b"
    },
    {
      "constant": false,
      "inputs": [],
      "name": "ActivarContratoCompraToken",
      "outputs": [
        {
          "name": "",
          "type": "bool"
        }
      ],
      "payable": false,
      "stateMutability": "nonpayable",
      "type": "function",
      "signature": "0xdd755b17"
    },
    {
      "constant": false,
      "inputs": [
        {
          "name": "idEmpresa",
          "type": "uint256"
        },
        {
          "name": "precioAparcado",
          "type": "uint256"
        }
      ],
      "name": "actualizarPrecioAparcado",
      "outputs": [],
      "payable": false,
      "stateMutability": "nonpayable",
      "type": "function",
      "signature": "0x7208177a"
    },
    {
      "constant": false,
      "inputs": [
        {
          "name": "idEmpresa",
          "type": "uint256"
        },
        {
          "name": "precioCarretera",
          "type": "uint256"
        }
      ],
      "name": "actualizarPrecioCarretera",
      "outputs": [],
      "payable": false,
      "stateMutability": "nonpayable",
      "type": "function",
      "signature": "0x02f58854"
    },
    {
      "constant": false,
      "inputs": [
        {
          "name": "idEmpresa",
          "type": "uint256"
        },
        {
          "name": "precioCiudad",
          "type": "uint256"
        }
      ],
      "name": "actualizarPrecioCiudad",
      "outputs": [],
      "payable": false,
      "stateMutability": "nonpayable",
      "type": "function",
      "signature": "0xa87e71be"
    },
    {
      "constant": false,
      "inputs": [
        {
          "name": "TokensSeguro",
          "type": "uint256"
        },
        {
          "name": "tipoCoche",
          "type": "uint256"
        },
        {
          "name": "IdCoche",
          "type": "uint256"
        }
      ],
      "name": "PagoSeguro",
      "outputs": [],
      "payable": true,
      "stateMutability": "payable",
      "type": "function",
      "signature": "0x6e6eeaf3"
    },
    {
      "constant": false,
      "inputs": [
        {
          "name": "TokensFinanciacion",
          "type": "uint256"
        },
        {
          "name": "TokensPrestamo",
          "type": "uint256"
        },
        {
          "name": "addressEmpresa",
          "type": "address"
        }
      ],
      "name": "PagoFinanciacion",
      "outputs": [],
      "payable": true,
      "stateMutability": "payable",
      "type": "function",
      "signature": "0xec4c63a0"
    },
    {
      "constant": false,
      "inputs": [],
      "name": "CheckAdmin",
      "outputs": [
        {
          "name": "",
          "type": "bool"
        }
      ],
      "payable": false,
      "stateMutability": "nonpayable",
      "type": "function",
      "signature": "0x4e4dc82c"
    },
    {
      "constant": true,
      "inputs": [],
      "name": "fetchTypeUser",
      "outputs": [
        {
          "name": "",
          "type": "uint256"
        }
      ],
      "payable": false,
      "stateMutability": "view",
      "type": "function",
      "signature": "0x7b57ec10"
    },
    {
      "constant": false,
      "inputs": [
        {
          "name": "TypeUser",
          "type": "uint256"
        },
        {
          "name": "DNI",
          "type": "string"
        },
        {
          "name": "VATNumber",
          "type": "bytes32"
        },
        {
          "name": "record",
          "type": "uint256"
        }
      ],
      "name": "NewUser",
      "outputs": [],
      "payable": false,
      "stateMutability": "nonpayable",
      "type": "function",
      "signature": "0x0c04b4e8"
    },
    {
      "constant": false,
      "inputs": [
        {
          "name": "TypeUser",
          "type": "uint256"
        },
        {
          "name": "DNI",
          "type": "string"
        },
        {
          "name": "VATNumber",
          "type": "bytes32"
        },
        {
          "name": "record",
          "type": "uint256"
        }
      ],
      "name": "NewEmpresa",
      "outputs": [],
      "payable": false,
      "stateMutability": "nonpayable",
      "type": "function",
      "signature": "0x96a63f2d"
    },
    {
      "constant": false,
      "inputs": [
        {
          "name": "tipoCoche",
          "type": "uint256"
        },
        {
          "name": "IdCoche",
          "type": "uint256"
        }
      ],
      "name": "NewCoche",
      "outputs": [],
      "payable": false,
      "stateMutability": "nonpayable",
      "type": "function",
      "signature": "0x73feb0e8"
    },
    {
      "constant": false,
      "inputs": [
        {
          "name": "tipoCoche",
          "type": "uint256"
        },
        {
          "name": "IdCoche",
          "type": "uint256"
        }
      ],
      "name": "ValidarCoche",
      "outputs": [],
      "payable": false,
      "stateMutability": "nonpayable",
      "type": "function",
      "signature": "0xa2a19e57"
    },
    {
      "constant": false,
      "inputs": [
        {
          "name": "tipoCoche",
          "type": "uint256"
        }
      ],
      "name": "EliminarValorArray",
      "outputs": [
        {
          "name": "array",
          "type": "uint256[]"
        }
      ],
      "payable": false,
      "stateMutability": "nonpayable",
      "type": "function",
      "signature": "0x1f709853"
    },
    {
      "constant": false,
      "inputs": [
        {
          "name": "dir",
          "type": "address"
        }
      ],
      "name": "deleteUser",
      "outputs": [
        {
          "name": "",
          "type": "bool"
        }
      ],
      "payable": false,
      "stateMutability": "nonpayable",
      "type": "function",
      "signature": "0x5c60f226"
    },
    {
      "constant": false,
      "inputs": [
        {
          "name": "maxCredit",
          "type": "uint256"
        }
      ],
      "name": "asignaCreditoMaximo",
      "outputs": [
        {
          "name": "",
          "type": "uint256"
        }
      ],
      "payable": false,
      "stateMutability": "nonpayable",
      "type": "function",
      "signature": "0xadc4f95c"
    }
  ],
  "bytecode": "0x60806040526000600a60006101000a81548160ff0219169083151502179055506000600a60016101000a81548160ff02191690831515021790555034801561004657600080fd5b506040516040806132e88339810180604052604081101561006657600080fd5b810190808051906020019092919080519060200190929190505050336000806101000a81548173ffffffffffffffffffffffffffffffffffffffff021916908373ffffffffffffffffffffffffffffffffffffffff16021790555033600660006101000a81548173ffffffffffffffffffffffffffffffffffffffff021916908373ffffffffffffffffffffffffffffffffffffffff16021790555081600760006101000a81548173ffffffffffffffffffffffffffffffffffffffff021916908373ffffffffffffffffffffffffffffffffffffffff16021790555080600881905550505061318d8061015b6000396000f3fe6080604052600436106101ac576000357c0100000000000000000000000000000000000000000000000000000000900463ffffffff16806302f58854146101b15780630c04b4e8146101f657806312029e60146102dc5780631f7098531461030b57806327dc297e1461039b57806338bbfa501461046d5780633968cc47146105d65780634ca6d8c11461063b5780634e4dc82c1461069457806355a373d6146106c3578063567b616b1461071a5780635c60f226146107495780635d8d223a146107b25780636cbbb62d146107dd5780636e6eeaf31461082c5780637208177a1461086e57806373feb0e8146108b357806379dab751146108f85780637b57ec10146109585780638689387c1461098357806396a63f2d146109d1578063a2a19e5714610ab7578063a87430ba14610afc578063a87e71be14610c0c578063acad866714610c51578063adc4f95c14610c80578063b65a825914610ccf578063c29dd7c914610d4a578063cfa6628a14610d78578063dd755b1714610da3578063ec4c63a014610dd2578063ef9c642514610e2a578063f15fa0c614610e79578063fd99aeec14610ef9575b600080fd5b3480156101bd57600080fd5b506101f4600480360360408110156101d457600080fd5b810190808035906020019092919080359060200190929190505050610f48565b005b34801561020257600080fd5b506102da6004803603608081101561021957600080fd5b81019080803590602001909291908035906020019064010000000081111561024057600080fd5b82018360208201111561025257600080fd5b8035906020019184600183028401116401000000008311171561027457600080fd5b91908080601f016020809104026020016040519081016040528093929190818152602001838380828437600081840152601f19601f8201169050808301925050505050505091929192908035906020019092919080359060200190929190505050610f86565b005b3480156102e857600080fd5b506102f161119c565b604051808215151515815260200191505060405180910390f35b34801561031757600080fd5b506103446004803603602081101561032e57600080fd5b81019080803590602001909291905050506111af565b6040518080602001828103825283818151815260200191508051906020019060200280838360005b8381101561038757808201518184015260208101905061036c565b505050509050019250505060405180910390f35b3480156103a757600080fd5b5061046b600480360360408110156103be57600080fd5b8101908080359060200190929190803590602001906401000000008111156103e557600080fd5b8201836020820111156103f757600080fd5b8035906020019184600183028401116401000000008311171561041957600080fd5b91908080601f016020809104026020016040519081016040528093929190818152602001838380828437600081840152601f19601f8201169050808301925050505050505091929192905050506112fa565b005b34801561047957600080fd5b506105d46004803603606081101561049057600080fd5b8101908080359060200190929190803590602001906401000000008111156104b757600080fd5b8201836020820111156104c957600080fd5b803590602001918460018302840111640100000000831117156104eb57600080fd5b91908080601f016020809104026020016040519081016040528093929190818152602001838380828437600081840152601f19601f8201169050808301925050505050505091929192908035906020019064010000000081111561054e57600080fd5b82018360208201111561056057600080fd5b8035906020019184600183028401116401000000008311171561058257600080fd5b91908080601f016020809104026020016040519081016040528093929190818152602001838380828437600081840152601f19601f82011690508083019250505050505050919291929050505061133d565b005b3480156105e257600080fd5b50610625600480360360208110156105f957600080fd5b81019080803573ffffffffffffffffffffffffffffffffffffffff169060200190929190505050611342565b6040518082815260200191505060405180910390f35b34801561064757600080fd5b5061067e6004803603604081101561065e57600080fd5b81019080803590602001909291908035906020019092919050505061135a565b6040518082815260200191505060405180910390f35b3480156106a057600080fd5b506106a961138a565b604051808215151515815260200191505060405180910390f35b3480156106cf57600080fd5b506106d8611439565b604051808273ffffffffffffffffffffffffffffffffffffffff1673ffffffffffffffffffffffffffffffffffffffff16815260200191505060405180910390f35b34801561072657600080fd5b5061072f61145f565b604051808215151515815260200191505060405180910390f35b34801561075557600080fd5b506107986004803603602081101561076c57600080fd5b81019080803573ffffffffffffffffffffffffffffffffffffffff1690602001909291905050506114da565b604051808215151515815260200191505060405180910390f35b3480156107be57600080fd5b506107c76115a8565b6040518082815260200191505060405180910390f35b3480156107e957600080fd5b506108166004803603602081101561080057600080fd5b81019080803590602001909291905050506115ae565b6040518082815260200191505060405180910390f35b61086c6004803603606081101561084257600080fd5b810190808035906020019092919080359060200190929190803590602001909291905050506115c6565b005b34801561087a57600080fd5b506108b16004803603604081101561089157600080fd5b810190808035906020019092919080359060200190929190505050611a1f565b005b3480156108bf57600080fd5b506108f6600480360360408110156108d657600080fd5b810190808035906020019092919080359060200190929190505050611a5d565b005b610956600480360360c081101561090e57600080fd5b81019080803590602001909291908035906020019092919080359060200190929190803590602001909291908035906020019092919080359060200190929190505050611b6e565b005b34801561096457600080fd5b5061096d612010565b6040518082815260200191505060405180910390f35b6109cf6004803603604081101561099957600080fd5b8101908080359060200190929190803573ffffffffffffffffffffffffffffffffffffffff16906020019092919050505061207b565b005b3480156109dd57600080fd5b50610ab5600480360360808110156109f457600080fd5b810190808035906020019092919080359060200190640100000000811115610a1b57600080fd5b820183602082011115610a2d57600080fd5b80359060200191846001830284011164010000000083111715610a4f57600080fd5b91908080601f016020809104026020016040519081016040528093929190818152602001838380828437600081840152601f19601f820116905080830192505050505050509192919290803590602001909291908035906020019092919050505061244f565b005b348015610ac357600080fd5b50610afa60048036036040811015610ada57600080fd5b810190808035906020019092919080359060200190929190505050612680565b005b348015610b0857600080fd5b50610b4b60048036036020811015610b1f57600080fd5b81019080803573ffffffffffffffffffffffffffffffffffffffff169060200190929190505050612723565b604051808c8152602001806020018b81526020018a815260200189815260200188815260200187815260200186815260200185815260200184815260200183815260200182810382528c818151815260200191508051906020019080838360005b83811015610bc7578082015181840152602081019050610bac565b50505050905090810190601f168015610bf45780820380516001836020036101000a031916815260200191505b509c5050505050505050505050505060405180910390f35b348015610c1857600080fd5b50610c4f60048036036040811015610c2f57600080fd5b810190808035906020019092919080359060200190929190505050612815565b005b348015610c5d57600080fd5b50610c66612853565b604051808215151515815260200191505060405180910390f35b348015610c8c57600080fd5b50610cb960048036036020811015610ca357600080fd5b8101908080359060200190929190505050612866565b6040518082815260200191505060405180910390f35b348015610cdb57600080fd5b50610d0860048036036020811015610cf257600080fd5b810190808035906020019092919050505061291a565b604051808273ffffffffffffffffffffffffffffffffffffffff1673ffffffffffffffffffffffffffffffffffffffff16815260200191505060405180910390f35b610d7660048036036020811015610d6057600080fd5b810190808035906020019092919050505061294d565b005b348015610d8457600080fd5b50610d8d612c15565b6040518082815260200191505060405180910390f35b348015610daf57600080fd5b50610db8612c1b565b604051808215151515815260200191505060405180910390f35b610e2860048036036060811015610de857600080fd5b810190808035906020019092919080359060200190929190803573ffffffffffffffffffffffffffffffffffffffff169060200190929190505050612c96565b005b348015610e3657600080fd5b50610e6360048036036020811015610e4d57600080fd5b8101908080359060200190929190505050612f87565b6040518082815260200191505060405180910390f35b348015610e8557600080fd5b50610ebc60048036036040811015610e9c57600080fd5b810190808035906020019092919080359060200190929190505050612f9f565b6040518087815260200186815260200185815260200184815260200183815260200182151515158152602001965050505050505060405180910390f35b348015610f0557600080fd5b50610f3260048036036020811015610f1c57600080fd5b8101908080359060200190929190505050612ff5565b6040518082815260200191505060405180910390f35b60001515600a60009054906101000a900460ff161515141515610f6a57600080fd5b80600c6000848152602001908152602001600020819055505050565b60001515600a60009054906101000a900460ff161515141515610fa857600080fd5b6000601060003373ffffffffffffffffffffffffffffffffffffffff1673ffffffffffffffffffffffffffffffffffffffff16815260200190815260200160002054141515610ff657600080fd5b601060003373ffffffffffffffffffffffffffffffffffffffff1673ffffffffffffffffffffffffffffffffffffffff16815260200190815260200160002060008154809291906001019190505550610160604051908101604052806000815260200184815260200183815260200185815260200182815260200160008152602001600081526020016000815260200160008152602001600081526020016000815250600e60003373ffffffffffffffffffffffffffffffffffffffff1673ffffffffffffffffffffffffffffffffffffffff1681526020019081526020016000206000820151816000015560208201518160010190805190602001906110fe929190613048565b5060408201518160020155606082015181600301556080820151816004015560a0820151816005015560c0820151816006015560e082015181600701556101008201518160080155610120820151816009015561014082015181600a01559050507f6ba4ead7636d04e0c95d33e655db0853aa65a450a0414cf4be9f3f4bf8f35c32846040518082815260200191505060405180910390a150505050565b600a60009054906101000a900460ff1681565b606060001515600a60009054906101000a900460ff1615151415156111d357600080fd5b600080905060008190505b600160126000868152602001908152602001600020805490500381101561126857601260008581526020019081526020016000206001820181548110151561122257fe5b9060005260206000200154601260008681526020019081526020016000208281548110151561124d57fe5b906000526020600020018190555080806001019150506111de565b506012600084815260200190815260200160002080548091906001900361128f91906130c8565b50601260008481526020019081526020016000208054806020026020016040519081016040528092919081815260200182805480156112ed57602002820191906000526020600020905b8154815260200190600101908083116112d9575b5050505050915050919050565b611339828260006040519080825280601f01601f1916602001820160405280156113335781602001600182028038833980820191505090505b5061133d565b5050565b505050565b60106020528060005260406000206000915090505481565b60126020528160005260406000208181548110151561137557fe5b90600052602060002001600091509150505481565b60008060009054906101000a900473ffffffffffffffffffffffffffffffffffffffff1673ffffffffffffffffffffffffffffffffffffffff163373ffffffffffffffffffffffffffffffffffffffff161415156113e757600080fd5b60001515600a60009054906101000a900460ff16151514151561140957600080fd5b6001600a60016101000a81548160ff021916908315150217905550600a60019054906101000a900460ff16905090565b600760009054906101000a900473ffffffffffffffffffffffffffffffffffffffff1681565b60008060009054906101000a900473ffffffffffffffffffffffffffffffffffffffff1673ffffffffffffffffffffffffffffffffffffffff163373ffffffffffffffffffffffffffffffffffffffff161415156114bc57600080fd5b6001600a60006101000a81548160ff02191690831515021790555090565b6000801515600a60009054906101000a900460ff1615151415156114fd57600080fd5b600e60008373ffffffffffffffffffffffffffffffffffffffff1673ffffffffffffffffffffffffffffffffffffffff16815260200190815260200160002060008082016000905560018201600061155591906130f4565b60028201600090556003820160009055600482016000905560058201600090556006820160009055600782016000905560088201600090556009820160009055600a820160009055505060019050919050565b60095481565b600b6020528060005260406000206000915090505481565b60001515600a60009054906101000a900460ff1615151415156115e857600080fd5b82600760009054906101000a900473ffffffffffffffffffffffffffffffffffffffff1673ffffffffffffffffffffffffffffffffffffffff166370a08231336040518263ffffffff167c0100000000000000000000000000000000000000000000000000000000028152600401808273ffffffffffffffffffffffffffffffffffffffff1673ffffffffffffffffffffffffffffffffffffffff16815260200191505060206040518083038186803b1580156116a457600080fd5b505afa1580156116b8573d6000803e3d6000fd5b505050506040513d60208110156116ce57600080fd5b8101908080519060200190929190505050101515156116ec57600080fd5b600760009054906101000a900473ffffffffffffffffffffffffffffffffffffffff1673ffffffffffffffffffffffffffffffffffffffff166323b872dd3330866040518463ffffffff167c0100000000000000000000000000000000000000000000000000000000028152600401808473ffffffffffffffffffffffffffffffffffffffff1673ffffffffffffffffffffffffffffffffffffffff1681526020018373ffffffffffffffffffffffffffffffffffffffff1673ffffffffffffffffffffffffffffffffffffffff1681526020018281526020019350505050602060405180830381600087803b1580156117e557600080fd5b505af11580156117f9573d6000803e3d6000fd5b505050506040513d602081101561180f57600080fd5b8101908080519060200190929190505050151561182b57600080fd5b6001600f6000848152602001908152602001600020600083815260200190815260200160002060050160006101000a81548160ff0219169083151502179055506000600e60003373ffffffffffffffffffffffffffffffffffffffff1673ffffffffffffffffffffffffffffffffffffffff168152602001908152602001600020600001819055506000600e60003373ffffffffffffffffffffffffffffffffffffffff1673ffffffffffffffffffffffffffffffffffffffff168152602001908152602001600020600901819055506000600e60003373ffffffffffffffffffffffffffffffffffffffff1673ffffffffffffffffffffffffffffffffffffffff168152602001908152602001600020600501819055506000600e60003373ffffffffffffffffffffffffffffffffffffffff1673ffffffffffffffffffffffffffffffffffffffff168152602001908152602001600020600601819055506000600e60003373ffffffffffffffffffffffffffffffffffffffff1673ffffffffffffffffffffffffffffffffffffffff16815260200190815260200160002060070181905550826009600082825401925050819055507f5a4bdf0af9a858387f554b96cd81418e7570789fde7c70afe9ff7d8e6cfaffe5836040518082815260200191505060405180910390a1505050565b60001515600a60009054906101000a900460ff161515141515611a4157600080fd5b80600b6000848152602001908152602001600020819055505050565b60001515600a60009054906101000a900460ff161515141515611a7f57600080fd5b60c0604051908101604052808281526020016000815260200160008152602001600081526020016000815260200160001515815250600f60008481526020019081526020016000206000838152602001908152602001600020600082015181600001556020820151816001015560408201518160020155606082015181600301556080820151816004015560a08201518160050160006101000a81548160ff021916908315150217905550905050601260008381526020019081526020016000208190806001815401808255809150509060018203906000526020600020016000909192909190915055505050565b60001515600a60009054906101000a900460ff161515141515611b9057600080fd5b85600760009054906101000a900473ffffffffffffffffffffffffffffffffffffffff1673ffffffffffffffffffffffffffffffffffffffff166370a08231336040518263ffffffff167c0100000000000000000000000000000000000000000000000000000000028152600401808273ffffffffffffffffffffffffffffffffffffffff1673ffffffffffffffffffffffffffffffffffffffff16815260200191505060206040518083038186803b158015611c4c57600080fd5b505afa158015611c60573d6000803e3d6000fd5b505050506040513d6020811015611c7657600080fd5b810190808051906020019092919050505010151515611c9457600080fd5b600760009054906101000a900473ffffffffffffffffffffffffffffffffffffffff1673ffffffffffffffffffffffffffffffffffffffff166323b872dd3330896040518463ffffffff167c0100000000000000000000000000000000000000000000000000000000028152600401808473ffffffffffffffffffffffffffffffffffffffff1673ffffffffffffffffffffffffffffffffffffffff1681526020018373ffffffffffffffffffffffffffffffffffffffff1673ffffffffffffffffffffffffffffffffffffffff1681526020018281526020019350505050602060405180830381600087803b158015611d8d57600080fd5b505af1158015611da1573d6000803e3d6000fd5b505050506040513d6020811015611db757600080fd5b81019080805190602001909291905050501515611dd357600080fd5b82600e60003373ffffffffffffffffffffffffffffffffffffffff1673ffffffffffffffffffffffffffffffffffffffff1681526020019081526020016000206005018190555083600e60003373ffffffffffffffffffffffffffffffffffffffff1673ffffffffffffffffffffffffffffffffffffffff1681526020019081526020016000206006018190555084600e60003373ffffffffffffffffffffffffffffffffffffffff1673ffffffffffffffffffffffffffffffffffffffff168152602001908152602001600020600701819055506000601260008481526020019081526020016000206000815481101515611ecb57fe5b9060005260206000200154905080600e60003373ffffffffffffffffffffffffffffffffffffffff1673ffffffffffffffffffffffffffffffffffffffff1681526020019081526020016000206009018190555082600e60003373ffffffffffffffffffffffffffffffffffffffff1673ffffffffffffffffffffffffffffffffffffffff1681526020019081526020016000206000018190555081600f6000858152602001908152602001600020600083815260200190815260200160002060040181905550611f9b836111af565b507fb9dde9ba07bee40c833192b2e4701d1cee406ee484c22f55e60f924bb379ab8e3388604051808373ffffffffffffffffffffffffffffffffffffffff1673ffffffffffffffffffffffffffffffffffffffff1681526020018281526020019250505060405180910390a150505050505050565b6000801515600a60009054906101000a900460ff16151514151561203357600080fd5b600e60003373ffffffffffffffffffffffffffffffffffffffff1673ffffffffffffffffffffffffffffffffffffffff16815260200190815260200160002060030154905090565b60001515600a60009054906101000a900460ff16151514151561209d57600080fd5b6000821115156120ac57600080fd5b600e60003373ffffffffffffffffffffffffffffffffffffffff1673ffffffffffffffffffffffffffffffffffffffff1681526020019081526020016000206008015482111515156120fd57600080fd5b81600760009054906101000a900473ffffffffffffffffffffffffffffffffffffffff1673ffffffffffffffffffffffffffffffffffffffff166370a08231836040518263ffffffff167c0100000000000000000000000000000000000000000000000000000000028152600401808273ffffffffffffffffffffffffffffffffffffffff1673ffffffffffffffffffffffffffffffffffffffff16815260200191505060206040518083038186803b1580156121b957600080fd5b505afa1580156121cd573d6000803e3d6000fd5b505050506040513d60208110156121e357600080fd5b81019080805190602001909291905050501015151561220157600080fd5b600760009054906101000a900473ffffffffffffffffffffffffffffffffffffffff1673ffffffffffffffffffffffffffffffffffffffff166323b872dd8233856040518463ffffffff167c0100000000000000000000000000000000000000000000000000000000028152600401808473ffffffffffffffffffffffffffffffffffffffff1673ffffffffffffffffffffffffffffffffffffffff1681526020018373ffffffffffffffffffffffffffffffffffffffff1673ffffffffffffffffffffffffffffffffffffffff1681526020018281526020019350505050602060405180830381600087803b1580156122fa57600080fd5b505af115801561230e573d6000803e3d6000fd5b505050506040513d602081101561232457600080fd5b8101908080519060200190929190505050151561234057600080fd5b81600e60003373ffffffffffffffffffffffffffffffffffffffff1673ffffffffffffffffffffffffffffffffffffffff1681526020019081526020016000206008016000828254039250508190555081600e60003373ffffffffffffffffffffffffffffffffffffffff1673ffffffffffffffffffffffffffffffffffffffff168152602001908152602001600020600a01600082825401925050819055507f40da82cf732acb6b1f2fc10a49ce18b1e0938475b2d40935edc9cf928e70967d3383604051808373ffffffffffffffffffffffffffffffffffffffff1673ffffffffffffffffffffffffffffffffffffffff1681526020018281526020019250505060405180910390a15050565b60001515600a60009054906101000a900460ff16151514151561247157600080fd5b6000601060003373ffffffffffffffffffffffffffffffffffffffff1673ffffffffffffffffffffffffffffffffffffffff168152602001908152602001600020541415156124bf57600080fd5b601060003373ffffffffffffffffffffffffffffffffffffffff1673ffffffffffffffffffffffffffffffffffffffff16815260200190815260200160002060008154809291906001019190505550610160604051908101604052806000815260200184815260200183815260200185815260200182815260200160008152602001600081526020016000815260200160008152602001600081526020016000815250600e60003373ffffffffffffffffffffffffffffffffffffffff1673ffffffffffffffffffffffffffffffffffffffff1681526020019081526020016000206000820151816000015560208201518160010190805190602001906125c7929190613048565b5060408201518160020155606082015181600301556080820151816004015560a0820151816005015560c0820151816006015560e082015181600701556101008201518160080155610120820151816009015561014082015181600a0155905050336011600084815260200190815260200160002060006101000a81548173ffffffffffffffffffffffffffffffffffffffff021916908373ffffffffffffffffffffffffffffffffffffffff16021790555050505050565b60001515600a60009054906101000a900460ff1615151415156126a257600080fd5b6000600f6000848152602001908152602001600020600083815260200190815260200160002060050160006101000a81548160ff021916908315150217905550601260008381526020019081526020016000208190806001815401808255809150509060018203906000526020600020016000909192909190915055505050565b600e602052806000526040600020600091509050806000015490806001018054600181600116156101000203166002900480601f0160208091040260200160405190810160405280929190818152602001828054600181600116156101000203166002900480156127d55780601f106127aa576101008083540402835291602001916127d5565b820191906000526020600020905b8154815290600101906020018083116127b857829003601f168201915b50505050509080600201549080600301549080600401549080600501549080600601549080600701549080600801549080600901549080600a015490508b565b60001515600a60009054906101000a900460ff16151514151561283757600080fd5b80600d6000848152602001908152602001600020819055505050565b600a60019054906101000a900460ff1681565b6000801515600a60009054906101000a900460ff16151514151561288957600080fd5b81600e60003373ffffffffffffffffffffffffffffffffffffffff1673ffffffffffffffffffffffffffffffffffffffff16815260200190815260200160002060080181905550600e60003373ffffffffffffffffffffffffffffffffffffffff1673ffffffffffffffffffffffffffffffffffffffff168152602001908152602001600020600801549050919050565b60116020528060005260406000206000915054906101000a900473ffffffffffffffffffffffffffffffffffffffff1681565b60001515600a60009054906101000a900460ff16151514151561296f57600080fd5b61297b8160085461300d565b3414151561298857600080fd5b80600760009054906101000a900473ffffffffffffffffffffffffffffffffffffffff1673ffffffffffffffffffffffffffffffffffffffff166370a08231306040518263ffffffff167c0100000000000000000000000000000000000000000000000000000000028152600401808273ffffffffffffffffffffffffffffffffffffffff1673ffffffffffffffffffffffffffffffffffffffff16815260200191505060206040518083038186803b158015612a4457600080fd5b505afa158015612a58573d6000803e3d6000fd5b505050506040513d6020811015612a6e57600080fd5b810190808051906020019092919050505010151515612a8c57600080fd5b600760009054906101000a900473ffffffffffffffffffffffffffffffffffffffff1673ffffffffffffffffffffffffffffffffffffffff1663a9059cbb33836040518363ffffffff167c0100000000000000000000000000000000000000000000000000000000028152600401808373ffffffffffffffffffffffffffffffffffffffff1673ffffffffffffffffffffffffffffffffffffffff16815260200182815260200192505050602060405180830381600087803b158015612b5157600080fd5b505af1158015612b65573d6000803e3d6000fd5b505050506040513d6020811015612b7b57600080fd5b81019080805190602001909291905050501515612b9757600080fd5b806009600082825401925050819055507f73ab9be6246a9eb60faba3a7d2a824cb1915fbf017b6cdf338d65fbcf0f5bc9f3382604051808373ffffffffffffffffffffffffffffffffffffffff1673ffffffffffffffffffffffffffffffffffffffff1681526020018281526020019250505060405180910390a150565b60085481565b60008060009054906101000a900473ffffffffffffffffffffffffffffffffffffffff1673ffffffffffffffffffffffffffffffffffffffff163373ffffffffffffffffffffffffffffffffffffffff16141515612c7857600080fd5b6000600a60006101000a81548160ff02191690831515021790555090565b60001515600a60009054906101000a900460ff161515141515612cb857600080fd5b82600760009054906101000a900473ffffffffffffffffffffffffffffffffffffffff1673ffffffffffffffffffffffffffffffffffffffff166370a08231336040518263ffffffff167c0100000000000000000000000000000000000000000000000000000000028152600401808273ffffffffffffffffffffffffffffffffffffffff1673ffffffffffffffffffffffffffffffffffffffff16815260200191505060206040518083038186803b158015612d7457600080fd5b505afa158015612d88573d6000803e3d6000fd5b505050506040513d6020811015612d9e57600080fd5b810190808051906020019092919050505010151515612dbc57600080fd5b600760009054906101000a900473ffffffffffffffffffffffffffffffffffffffff1673ffffffffffffffffffffffffffffffffffffffff166323b872dd3383866040518463ffffffff167c0100000000000000000000000000000000000000000000000000000000028152600401808473ffffffffffffffffffffffffffffffffffffffff1673ffffffffffffffffffffffffffffffffffffffff1681526020018373ffffffffffffffffffffffffffffffffffffffff1673ffffffffffffffffffffffffffffffffffffffff1681526020018281526020019350505050602060405180830381600087803b158015612eb557600080fd5b505af1158015612ec9573d6000803e3d6000fd5b505050506040513d6020811015612edf57600080fd5b81019080805190602001909291905050501515612efb57600080fd5b81600e60003373ffffffffffffffffffffffffffffffffffffffff1673ffffffffffffffffffffffffffffffffffffffff168152602001908152602001600020600a01600082825403925050819055507f5a4bdf0af9a858387f554b96cd81418e7570789fde7c70afe9ff7d8e6cfaffe5836040518082815260200191505060405180910390a1505050565b600d6020528060005260406000206000915090505481565b600f602052816000526040600020602052806000526040600020600091509150508060000154908060010154908060020154908060030154908060040154908060050160009054906101000a900460ff16905086565b600c6020528060005260406000206000915090505481565b6000808314156130205760009050613042565b6000828402905082848281151561303357fe5b0414151561303d57fe5b809150505b92915050565b828054600181600116156101000203166002900490600052602060002090601f016020900481019282601f1061308957805160ff19168380011785556130b7565b828001600101855582156130b7579182015b828111156130b657825182559160200191906001019061309b565b5b5090506130c4919061313c565b5090565b8154818355818111156130ef578183600052602060002091820191016130ee919061313c565b5b505050565b50805460018160011615610100020316600290046000825580601f1061311a5750613139565b601f016020900490600052602060002090810190613138919061313c565b5b50565b61315e91905b8082111561315a576000816000905550600101613142565b5090565b9056fea165627a7a72305820552cde46f71d6e15166576c4c35bcc5035639d803ff35e5ccb46c666adaabfe70029",
  "source": "pragma solidity >= 0.5.0 < 0.6.0;\n\nimport \"./Token.sol\";\nimport \"./SafeMath.sol\";\nimport \"./Owned.sol\";\nimport \"installed_contracts/oraclize-api/contracts/usingOraclize.sol\";\n\ncontract CompraToken is Owned, usingOraclize  {\n    address admin;\n    Token public tokenContract;\n    uint256 public PrecioToken;\n    uint256 public tokensVendidos;\n    bool public Activo = false;\n    bool public IsAdmin = false;\n    \n    \n\n    event Venta(\n        address _comprador,\n         uint256 _tokens\n         );\n         event Prestamo(\n        address _comprador,\n         uint256 _tokens\n         );\n    event Pago(\n        address _depositante,\n         uint256 cantidad\n         );\n    event Retiro(\n        address _retira,\n         uint256 cantidad\n         );   \n    \n    event nuevoCliente(\n        uint record\n    );  \n    event CostoSeguro(         \n       uint entregado\n    );    \n    event newRandomNumber_bytes(bytes);\n    event newRandomNumber_uint(uint); \n\n  \n    mapping(uint => uint) public aseguradoraPrecioAparcado;\n    mapping(uint => uint) public aseguradoraPrecioCarretera;\n    mapping(uint => uint) public aseguradoraPrecioCiudad;\n    mapping(address => user) public users;\n    mapping(uint => mapping(uint => coche)) public coches;\n    mapping(address => uint) public ownerCuentaLeasing;\n    mapping(bytes32 => address) public maestroEmpresas;\n    mapping(uint => uint[]) public CochesDisponibles;\n   \n\n\n struct user {\n        uint TipoCoche;\n        string DNI;\n        bytes32 VATNumber;\n        uint TypeUser;\n        uint record;\n        uint PrecioAparcado;\n        uint PrecioKmCarretera;\n        uint PrecioKmCiudad;        \n        uint MaxCredito;        \n        uint IdCoche;\n        uint Prestamo;\n       \n }\n   \n   struct coche {\n        uint IdCoche;\n        uint KmCarretera;\n        uint KmCiudad;\n        uint TiempoAparcado;\n        uint IdSeguro;\n        bool entregado;\n} \n\n\n//** @title Constructor. */\n    constructor(Token _tokenContract, uint256 _PrecioToken) public {\n         /**@param _tokencontract address del contrato Token.sol.\n       @param _PrecioToken recibe el precio de los tokens definidos en el archivo de inicializacin*/\n\n      /** @dev Asigna la cuenta administrador al que realiza el deploy\n      y asigna los valores recibidos las variables token contract y PrecioToken para utilizarlas en este contrato\n      */ \n        admin = msg.sender;\n        tokenContract = _tokenContract;\n        PrecioToken = _PrecioToken;\n    }\n//** @title Compra de tokens. */\n    function compraTokens(uint256 _numeroTokens) public payable {\n          /**@param _numeroTokens cantidad a comprarr.\n \n      /** @dev verificar que el precio a pagar sea el precio estblecido\n      verifica que el contrato cuente con los tokens solicitados para comprar\n      verifica que se haya realizado la transaccin satisfactoriamente desde el contrato Token.sol.\n      Actualiza el valor de los tokens vendidos\n      */ \n        require(Activo == false);\n        require(msg.value == SafeMath.mul(_numeroTokens, PrecioToken));\n        require(tokenContract.balanceOf(address(this)) >= _numeroTokens);\n        require(tokenContract.transfer(msg.sender, _numeroTokens));\n\n        tokensVendidos += _numeroTokens;\n        /** @return devuelve el addres del que compra y la cantidad*/\n        emit Venta(msg.sender, _numeroTokens);\n    }\n    function prestamoTokens(uint256 _numeroTokens, address AddressEmpresa) public payable {\n          /**@param _numeroTokens cantidad a comprarr.\n \n      /** @dev verificar que el precio a pagar sea el precio estblecido\n      verifica que el contrato cuente con los tokens solicitados para comprar\n      verifica que se haya realizado la transaccin satisfactoriamente desde el contrato Token.sol.\n      Actualiza el valor de los tokens vendidos\n      \n      */\n        require(Activo == false);\n        require(_numeroTokens > 0); \n        require(_numeroTokens <= users[msg.sender].MaxCredito);\n        require(tokenContract.balanceOf(AddressEmpresa) >= _numeroTokens);\n        require(tokenContract.transferFrom(AddressEmpresa, msg.sender, _numeroTokens));\n\n        \n        users[msg.sender].MaxCredito -= _numeroTokens; \n        users[msg.sender].Prestamo += _numeroTokens;\n        /** @return devuelve el addres del que compra y la cantidad*/\n        emit Prestamo(msg.sender, _numeroTokens);\n    }\n//** @title Depotio de tokens. */\n   function pagarTokens(uint _pago, uint precioKmCiudad, uint precioKmCarretera, uint precioAparcado, uint tipoCoche, uint IdSeguro) public payable {\n        /**@param _contribucion cantidad a ahorrar.\n       @param fechaEjecucion fecha en que se realiza el deposito.*/\n      /** @dev verificar que el balance de quien enva sea mayor a la cantidad a enviar\n     \n      */require(Activo == false);\n        require(tokenContract.balanceOf(msg.sender) >= _pago);\n        require(tokenContract.transferFrom(msg.sender, address(this), _pago));\n        users[msg.sender].PrecioAparcado = precioAparcado;\n        users[msg.sender].PrecioKmCarretera = precioKmCarretera;\n        users[msg.sender].PrecioKmCiudad = precioKmCiudad;     \n        uint IdCoche = CochesDisponibles[tipoCoche][0];\n        users[msg.sender].IdCoche = IdCoche;\n        users[msg.sender].TipoCoche = tipoCoche;\n        coches[tipoCoche][IdCoche].IdSeguro = IdSeguro;\n        EliminarValorArray(tipoCoche);\n\n\n         \n       \n       /** @return devuelve el address del que solicita el deposito y la cantidad.*/\n        emit Pago(msg.sender, _pago);\n    }\n\n   /* function aumentarSupply(uint value) public onlyOwner returns (bool) {\n        require(Activo == false);\n        tokenContract.transferAumentoSupply(value);\n        return true;\n    }*/\n\n\n    \n    //** @title detener el contrato. */\n    function DetenerContratoCompraToken() public onlyOwner returns (bool) {\n        Activo = true;\n        /** @dev Modificar el valor de la variable true desactivando el Smart contract.*/\n    }\n    //** @title Activar el contrato. */\n    function ActivarContratoCompraToken() public onlyOwner returns (bool) {\n        Activo = false;\n        /** @dev Modificar el valor de la variable true activando el Smart contract.*/\n    }\n\n    \n\n    function actualizarPrecioAparcado(uint idEmpresa, uint precioAparcado) public {\n        require(Activo == false);\n        aseguradoraPrecioAparcado[idEmpresa] = precioAparcado;\n    }\n    function actualizarPrecioCarretera(uint idEmpresa, uint precioCarretera) public {\n        require(Activo == false);\n        aseguradoraPrecioCarretera[idEmpresa] = precioCarretera;\n    }\n    function actualizarPrecioCiudad(uint idEmpresa, uint precioCiudad) public {\n        require(Activo == false);\n        aseguradoraPrecioCiudad[idEmpresa] = precioCiudad;\n    }\n   \n\n//** @title Constructor. */\n    \n//** @title Compra de tokens. */\n   function PagoSeguro(uint TokensSeguro, uint tipoCoche, uint IdCoche) public payable {       \n    require(Activo == false);  \n    require(tokenContract.balanceOf(msg.sender) >= TokensSeguro);\n    require(tokenContract.transferFrom(msg.sender, address(this),TokensSeguro));\n    coches[tipoCoche][IdCoche].entregado = true;\n    users[msg.sender].TipoCoche = 0;\n    users[msg.sender].IdCoche = 0;\n    users[msg.sender].PrecioAparcado = 0;\n    users[msg.sender].PrecioKmCarretera = 0;\n    users[msg.sender].PrecioKmCiudad = 0;\n     tokensVendidos += TokensSeguro;\n\n        \n     emit CostoSeguro(TokensSeguro);\n    }\n\n    function PagoFinanciacion(uint TokensFinanciacion, uint TokensPrestamo, address addressEmpresa ) public payable {       \n     require(Activo == false);           \n     require(tokenContract.balanceOf(msg.sender) >= TokensFinanciacion);     \n     require(tokenContract.transferFrom(msg.sender, addressEmpresa,TokensFinanciacion));\n\n     users[msg.sender].Prestamo -= TokensPrestamo;\n\n        //users[msg.sender].Entregado = true;\n        //emit CostoSeguro(users[msg.sender].Entregado);\n     emit CostoSeguro(TokensFinanciacion);\n    }\n\n    function CheckAdmin() public onlyOwner returns (bool)\n    {   \n        require(Activo == false);\n        IsAdmin = true; \n        return (IsAdmin);\n        //returns true if it is the owner of the contract\n    }\n\n    function fetchTypeUser() public view returns (uint)\n\n    {\n        require(Activo == false);\n        return (users[msg.sender].TypeUser);\n    } \n    \n\n   function NewUser(uint TypeUser, string memory DNI, bytes32 VATNumber, uint record) public \n    {       \n    require(Activo == false);\n    require((ownerCuentaLeasing[msg.sender]) == 0);    \n    ownerCuentaLeasing[msg.sender] ++;       \n    users[msg.sender] = user(0, DNI, VATNumber, TypeUser, record, 0, 0, 0, 0, 0,0);\n   \n        \n    emit nuevoCliente(TypeUser); \n       \n    }\n   function NewEmpresa(uint TypeUser, string memory DNI, bytes32 VATNumber, uint record) public \n    {\n       \n    require(Activo == false);\n    require((ownerCuentaLeasing[msg.sender]) == 0);    \n    ownerCuentaLeasing[msg.sender] ++;       \n    users[msg.sender] = user(0, DNI, VATNumber, TypeUser, record, 0, 0, 0, 0, 0,0);\n    maestroEmpresas[VATNumber] = msg.sender;\n\n    \n       \n    }\n   function NewCoche(uint tipoCoche, uint IdCoche) public \n    {       \n    require(Activo == false);           \n    coches[tipoCoche][IdCoche] = coche(IdCoche,0, 0, 0, 0,false);\n    CochesDisponibles[tipoCoche].push(IdCoche);\n       }\n\n       function ValidarCoche(uint tipoCoche, uint IdCoche) public \n    {       \n    require(Activo == false);           \n    coches[tipoCoche][IdCoche].entregado = false;\n    CochesDisponibles[tipoCoche].push(IdCoche);\n       }\n       \n    function EliminarValorArray(uint tipoCoche) public  returns( uint[] memory array){\n    require(Activo == false);\n    uint index = 0;\n    \n        for (uint i = index; i<CochesDisponibles[tipoCoche].length-1; i++){\n            CochesDisponibles[tipoCoche][i] = CochesDisponibles[tipoCoche][i+1];\n        }\n        CochesDisponibles[tipoCoche].length--;\n        return CochesDisponibles[tipoCoche];\n    }  \n\n    function deleteUser(address dir) public returns (bool)\n\n    {\n        require(Activo == false);\n        delete users[dir];\n        return (true);\n    }  \n\n  /* function RandomExample() public {\n        oraclize_setProof(proofType_Ledger); // sets the Ledger authenticity proof in the constructor\n        update(); // let's ask for N random bytes immediately when the contract is created!\n    }\n\n    // the callback function is called by Oraclize when the result is ready\n    // the oraclize_randomDS_proofVerify modifier prevents an invalid proof to execute this function code:\n    // the proof validity is fully verified on-chain\n    mapping(uint => uint) public Aleatorio;\n\n    function __callback(bytes32 _queryId, string memory _result, bytes memory _proof) public\n    {\n        \n        require(msg.sender != oraclize_cbAddress());\n\n        if (oraclize_randomDS_proofVerify__returnCode(_queryId, _result, _proof) != 0) {\n            // the proof verification has failed, do we need to take any action here? (depends on the use case)\n        } else {\n            // the proof verification has passed\n            // now that we know that the random number was safely generated, let's use it..\n\n            emit newRandomNumber_bytes(bytes(_result)); // this is the resulting random number (bytes)\n\n            // for simplicity of use, let's also convert the random bytes to uint if we need\n            uint maxRange = 2**(8* 7); // this is the highest uint we want to get. It should never be greater than 2^(8*N), where N is the number of random bytes we had asked the datasource to return\n            uint randomNumber = uint(keccak256(abi.encodePacked(_result))) % maxRange; // this is an efficient way to get the uint out in the [0, maxRange] range\n            Aleatorio[0] = randomNumber;\n            emit newRandomNumber_uint(randomNumber); // this is the resulting random number (uint)\n        }\n    }\n\n    function update() public payable {\n        uint N = 7; // number of random bytes we want the datasource to return\n        uint delay = 0; // number of seconds to wait before the execution takes place\n        uint callbackGas = 20000; // amount of gas we want Oraclize to set for the callback function\n        bytes32 queryId = oraclize_newRandomDSQuery(delay, N, callbackGas); // this function internally generates the correct oraclize_query and returns its queryId\n    } */\n\n    function asignaCreditoMaximo(uint maxCredit) public returns (uint){\n    require(Activo == false);\n    users[msg.sender].MaxCredito= maxCredit;\n    return users[msg.sender].MaxCredito;\n    //asignacin de crdito mximo por direccin de usuario\n    }\n\n\n\n\n}",
  "sourcePath": "/home/omar/TFM_OP_6/TFM-Leasing/Proyecto/contracts/CompraToken.sol",
  "compiler": {
    "name": "solc",
    "version": "0.5.0+commit.1d4f565a.Emscripten.clang"
  },
  "schemaVersion": "3.0.2",
  "updatedAt": "2019-04-20T18:09:15.529Z",
  "devdoc": {
    "methods": {}
  },
  "userdoc": {
    "methods": {}
  }
}