{
  "contractName": "CompraToken",
  "abi": [
    {
      "constant": true,
      "inputs": [],
      "name": "Activo",
      "outputs": [
        {
          "name": "",
          "type": "bool"
        }
      ],
      "payable": false,
      "stateMutability": "view",
      "type": "function",
      "signature": "0x12029e60"
    },
    {
      "constant": false,
      "inputs": [
        {
          "name": "_myid",
          "type": "bytes32"
        },
        {
          "name": "_result",
          "type": "string"
        }
      ],
      "name": "__callback",
      "outputs": [],
      "payable": false,
      "stateMutability": "nonpayable",
      "type": "function",
      "signature": "0x27dc297e"
    },
    {
      "constant": false,
      "inputs": [
        {
          "name": "_myid",
          "type": "bytes32"
        },
        {
          "name": "_result",
          "type": "string"
        },
        {
          "name": "_proof",
          "type": "bytes"
        }
      ],
      "name": "__callback",
      "outputs": [],
      "payable": false,
      "stateMutability": "nonpayable",
      "type": "function",
      "signature": "0x38bbfa50"
    },
    {
      "constant": true,
      "inputs": [
        {
          "name": "",
          "type": "address"
        }
      ],
      "name": "ownerCuentaLeasing",
      "outputs": [
        {
          "name": "",
          "type": "uint256"
        }
      ],
      "payable": false,
      "stateMutability": "view",
      "type": "function",
      "signature": "0x3968cc47"
    },
    {
      "constant": true,
      "inputs": [
        {
          "name": "",
          "type": "uint256"
        },
        {
          "name": "",
          "type": "uint256"
        }
      ],
      "name": "CochesDisponibles",
      "outputs": [
        {
          "name": "",
          "type": "uint256"
        }
      ],
      "payable": false,
      "stateMutability": "view",
      "type": "function",
      "signature": "0x4ca6d8c1"
    },
    {
      "constant": true,
      "inputs": [],
      "name": "tokenContract",
      "outputs": [
        {
          "name": "",
          "type": "address"
        }
      ],
      "payable": false,
      "stateMutability": "view",
      "type": "function",
      "signature": "0x55a373d6"
    },
    {
      "constant": true,
      "inputs": [
        {
          "name": "",
          "type": "address"
        }
      ],
      "name": "CostSeguro",
      "outputs": [
        {
          "name": "",
          "type": "uint256"
        }
      ],
      "payable": false,
      "stateMutability": "view",
      "type": "function",
      "signature": "0x5977a96a"
    },
    {
      "constant": true,
      "inputs": [],
      "name": "tokensVendidos",
      "outputs": [
        {
          "name": "",
          "type": "uint256"
        }
      ],
      "payable": false,
      "stateMutability": "view",
      "type": "function",
      "signature": "0x5d8d223a"
    },
    {
      "constant": true,
      "inputs": [
        {
          "name": "",
          "type": "uint256"
        }
      ],
      "name": "aseguradoraPrecioAparcado",
      "outputs": [
        {
          "name": "",
          "type": "uint256"
        }
      ],
      "payable": false,
      "stateMutability": "view",
      "type": "function",
      "signature": "0x6cbbb62d"
    },
    {
      "constant": true,
      "inputs": [
        {
          "name": "",
          "type": "address"
        }
      ],
      "name": "users",
      "outputs": [
        {
          "name": "IdUser",
          "type": "string"
        },
        {
          "name": "DNI",
          "type": "string"
        },
        {
          "name": "VATNumber",
          "type": "bytes32"
        },
        {
          "name": "TypeUser",
          "type": "uint256"
        },
        {
          "name": "record",
          "type": "uint256"
        },
        {
          "name": "PrecioAparcado",
          "type": "uint256"
        },
        {
          "name": "PrecioKmCarretera",
          "type": "uint256"
        },
        {
          "name": "PrecioKmCiudad",
          "type": "uint256"
        },
        {
          "name": "MaxCredito",
          "type": "uint256"
        },
        {
          "name": "IdCoche",
          "type": "uint256"
        },
        {
          "name": "Prestamo",
          "type": "uint256"
        }
      ],
      "payable": false,
      "stateMutability": "view",
      "type": "function",
      "signature": "0xa87430ba"
    },
    {
      "constant": true,
      "inputs": [],
      "name": "IsAdmin",
      "outputs": [
        {
          "name": "",
          "type": "bool"
        }
      ],
      "payable": false,
      "stateMutability": "view",
      "type": "function",
      "signature": "0xacad8667"
    },
    {
      "constant": true,
      "inputs": [
        {
          "name": "",
          "type": "bytes32"
        }
      ],
      "name": "maestroEmpresas",
      "outputs": [
        {
          "name": "",
          "type": "address"
        }
      ],
      "payable": false,
      "stateMutability": "view",
      "type": "function",
      "signature": "0xb65a8259"
    },
    {
      "constant": true,
      "inputs": [],
      "name": "PrecioToken",
      "outputs": [
        {
          "name": "",
          "type": "uint256"
        }
      ],
      "payable": false,
      "stateMutability": "view",
      "type": "function",
      "signature": "0xcfa6628a"
    },
    {
      "constant": true,
      "inputs": [
        {
          "name": "",
          "type": "uint256"
        }
      ],
      "name": "aseguradoraPrecioCiudad",
      "outputs": [
        {
          "name": "",
          "type": "uint256"
        }
      ],
      "payable": false,
      "stateMutability": "view",
      "type": "function",
      "signature": "0xef9c6425"
    },
    {
      "constant": true,
      "inputs": [
        {
          "name": "",
          "type": "uint256"
        },
        {
          "name": "",
          "type": "uint256"
        }
      ],
      "name": "coches",
      "outputs": [
        {
          "name": "IdCoche",
          "type": "uint256"
        },
        {
          "name": "KmCarretera",
          "type": "uint256"
        },
        {
          "name": "KmCiudad",
          "type": "uint256"
        },
        {
          "name": "TiempoAparcado",
          "type": "uint256"
        },
        {
          "name": "Estado",
          "type": "uint256"
        },
        {
          "name": "IdSeguro",
          "type": "uint256"
        }
      ],
      "payable": false,
      "stateMutability": "view",
      "type": "function",
      "signature": "0xf15fa0c6"
    },
    {
      "constant": true,
      "inputs": [
        {
          "name": "",
          "type": "uint256"
        }
      ],
      "name": "aseguradoraPrecioCarretera",
      "outputs": [
        {
          "name": "",
          "type": "uint256"
        }
      ],
      "payable": false,
      "stateMutability": "view",
      "type": "function",
      "signature": "0xfd99aeec"
    },
    {
      "inputs": [
        {
          "name": "_tokenContract",
          "type": "address"
        },
        {
          "name": "_PrecioToken",
          "type": "uint256"
        }
      ],
      "payable": false,
      "stateMutability": "nonpayable",
      "type": "constructor",
      "signature": "constructor"
    },
    {
      "anonymous": false,
      "inputs": [
        {
          "indexed": false,
          "name": "_comprador",
          "type": "address"
        },
        {
          "indexed": false,
          "name": "_tokens",
          "type": "uint256"
        }
      ],
      "name": "Venta",
      "type": "event",
      "signature": "0x73ab9be6246a9eb60faba3a7d2a824cb1915fbf017b6cdf338d65fbcf0f5bc9f"
    },
    {
      "anonymous": false,
      "inputs": [
        {
          "indexed": false,
          "name": "_comprador",
          "type": "address"
        },
        {
          "indexed": false,
          "name": "_tokens",
          "type": "uint256"
        }
      ],
      "name": "Prestamo",
      "type": "event",
      "signature": "0x40da82cf732acb6b1f2fc10a49ce18b1e0938475b2d40935edc9cf928e70967d"
    },
    {
      "anonymous": false,
      "inputs": [
        {
          "indexed": false,
          "name": "_depositante",
          "type": "address"
        },
        {
          "indexed": false,
          "name": "cantidad",
          "type": "uint256"
        }
      ],
      "name": "Pago",
      "type": "event",
      "signature": "0xb9dde9ba07bee40c833192b2e4701d1cee406ee484c22f55e60f924bb379ab8e"
    },
    {
      "anonymous": false,
      "inputs": [
        {
          "indexed": false,
          "name": "_retira",
          "type": "address"
        },
        {
          "indexed": false,
          "name": "cantidad",
          "type": "uint256"
        }
      ],
      "name": "Retiro",
      "type": "event",
      "signature": "0xebdddb82f24ed849145a8f144818f7d383a31047a4a7f30b928c65100f9b8eab"
    },
    {
      "anonymous": false,
      "inputs": [
        {
          "indexed": false,
          "name": "record",
          "type": "uint256"
        }
      ],
      "name": "nuevoCliente",
      "type": "event",
      "signature": "0x6ba4ead7636d04e0c95d33e655db0853aa65a450a0414cf4be9f3f4bf8f35c32"
    },
    {
      "anonymous": false,
      "inputs": [
        {
          "indexed": false,
          "name": "entregado",
          "type": "uint256"
        }
      ],
      "name": "CostoSeguro",
      "type": "event",
      "signature": "0x5a4bdf0af9a858387f554b96cd81418e7570789fde7c70afe9ff7d8e6cfaffe5"
    },
    {
      "anonymous": false,
      "inputs": [
        {
          "indexed": false,
          "name": "",
          "type": "bytes"
        }
      ],
      "name": "newRandomNumber_bytes",
      "type": "event",
      "signature": "0xab2f9e7e7e74d54a49792fd7ff57c497b14cd2bad49d7537937a5a527a50f0ac"
    },
    {
      "anonymous": false,
      "inputs": [
        {
          "indexed": false,
          "name": "",
          "type": "uint256"
        }
      ],
      "name": "newRandomNumber_uint",
      "type": "event",
      "signature": "0xb084d8f103616749e12a8d363f0b50f8bb8568b4086c093bd88140c74042c47a"
    },
    {
      "constant": false,
      "inputs": [
        {
          "name": "_numeroTokens",
          "type": "uint256"
        }
      ],
      "name": "compraTokens",
      "outputs": [],
      "payable": true,
      "stateMutability": "payable",
      "type": "function",
      "signature": "0xc29dd7c9"
    },
    {
      "constant": false,
      "inputs": [
        {
          "name": "_numeroTokens",
          "type": "uint256"
        }
      ],
      "name": "prestamoTokens",
      "outputs": [],
      "payable": true,
      "stateMutability": "payable",
      "type": "function",
      "signature": "0xb4e89990"
    },
    {
      "constant": false,
      "inputs": [
        {
          "name": "_pago",
          "type": "uint256"
        },
        {
          "name": "precioKmCiudad",
          "type": "uint256"
        },
        {
          "name": "precioKmCarretera",
          "type": "uint256"
        },
        {
          "name": "precioAparcado",
          "type": "uint256"
        }
      ],
      "name": "pagarTokens",
      "outputs": [],
      "payable": true,
      "stateMutability": "payable",
      "type": "function",
      "signature": "0x959a23fe"
    },
    {
      "constant": false,
      "inputs": [
        {
          "name": "value",
          "type": "uint256"
        }
      ],
      "name": "aumentarSupply",
      "outputs": [
        {
          "name": "",
          "type": "bool"
        }
      ],
      "payable": false,
      "stateMutability": "nonpayable",
      "type": "function",
      "signature": "0x5877cbe5"
    },
    {
      "constant": false,
      "inputs": [],
      "name": "DetenerContratoCompraToken",
      "outputs": [
        {
          "name": "",
          "type": "bool"
        }
      ],
      "payable": false,
      "stateMutability": "nonpayable",
      "type": "function",
      "signature": "0x567b616b"
    },
    {
      "constant": false,
      "inputs": [],
      "name": "ActivarContratoCompraToken",
      "outputs": [
        {
          "name": "",
          "type": "bool"
        }
      ],
      "payable": false,
      "stateMutability": "nonpayable",
      "type": "function",
      "signature": "0xdd755b17"
    },
    {
      "constant": false,
      "inputs": [
        {
          "name": "idEmpresa",
          "type": "uint256"
        },
        {
          "name": "precioAparcado",
          "type": "uint256"
        }
      ],
      "name": "actualizarPrecioAparcado",
      "outputs": [],
      "payable": false,
      "stateMutability": "nonpayable",
      "type": "function",
      "signature": "0x7208177a"
    },
    {
      "constant": false,
      "inputs": [
        {
          "name": "idEmpresa",
          "type": "uint256"
        },
        {
          "name": "precioCarretera",
          "type": "uint256"
        }
      ],
      "name": "actualizarPrecioCarretera",
      "outputs": [],
      "payable": false,
      "stateMutability": "nonpayable",
      "type": "function",
      "signature": "0x02f58854"
    },
    {
      "constant": false,
      "inputs": [
        {
          "name": "idEmpresa",
          "type": "uint256"
        },
        {
          "name": "precioCiudad",
          "type": "uint256"
        }
      ],
      "name": "actualizarPrecioCiudad",
      "outputs": [],
      "payable": false,
      "stateMutability": "nonpayable",
      "type": "function",
      "signature": "0xa87e71be"
    },
    {
      "constant": false,
      "inputs": [
        {
          "name": "TokensSeguro",
          "type": "uint256"
        }
      ],
      "name": "PagoSeguro",
      "outputs": [],
      "payable": true,
      "stateMutability": "payable",
      "type": "function",
      "signature": "0x99ac726e"
    },
    {
      "constant": false,
      "inputs": [
        {
          "name": "TokensFinanciacion",
          "type": "uint256"
        },
        {
          "name": "TokensPrestamo",
          "type": "uint256"
        }
      ],
      "name": "PagoFinanciacion",
      "outputs": [],
      "payable": true,
      "stateMutability": "payable",
      "type": "function",
      "signature": "0x2368966c"
    },
    {
      "constant": false,
      "inputs": [],
      "name": "CheckAdmin",
      "outputs": [
        {
          "name": "",
          "type": "bool"
        }
      ],
      "payable": false,
      "stateMutability": "nonpayable",
      "type": "function",
      "signature": "0x4e4dc82c"
    },
    {
      "constant": true,
      "inputs": [],
      "name": "fetchTypeUser",
      "outputs": [
        {
          "name": "",
          "type": "uint256"
        }
      ],
      "payable": false,
      "stateMutability": "view",
      "type": "function",
      "signature": "0x7b57ec10"
    },
    {
      "constant": true,
      "inputs": [],
      "name": "fetchUser",
      "outputs": [
        {
          "name": "",
          "type": "string"
        }
      ],
      "payable": false,
      "stateMutability": "view",
      "type": "function",
      "signature": "0x8337d90f"
    },
    {
      "constant": false,
      "inputs": [
        {
          "name": "IdUsuario",
          "type": "string"
        },
        {
          "name": "TypeUser",
          "type": "uint256"
        },
        {
          "name": "DNI",
          "type": "string"
        },
        {
          "name": "VATNumber",
          "type": "bytes32"
        },
        {
          "name": "record",
          "type": "uint256"
        }
      ],
      "name": "NewUser",
      "outputs": [],
      "payable": false,
      "stateMutability": "nonpayable",
      "type": "function",
      "signature": "0x426ad5d6"
    },
    {
      "constant": false,
      "inputs": [
        {
          "name": "IdUsuario",
          "type": "string"
        },
        {
          "name": "TypeUser",
          "type": "uint256"
        },
        {
          "name": "DNI",
          "type": "string"
        },
        {
          "name": "VATNumber",
          "type": "bytes32"
        },
        {
          "name": "record",
          "type": "uint256"
        }
      ],
      "name": "NewEmpresa",
      "outputs": [],
      "payable": false,
      "stateMutability": "nonpayable",
      "type": "function",
      "signature": "0x948bcf65"
    },
    {
      "constant": false,
      "inputs": [
        {
          "name": "tipoCoche",
          "type": "uint256"
        },
        {
          "name": "IdCoche",
          "type": "uint256"
        }
      ],
      "name": "NewCoche",
      "outputs": [],
      "payable": false,
      "stateMutability": "nonpayable",
      "type": "function",
      "signature": "0x73feb0e8"
    },
    {
      "constant": true,
      "inputs": [
        {
          "name": "tipoCoche",
          "type": "uint256"
        }
      ],
      "name": "consultaArray",
      "outputs": [
        {
          "name": "count",
          "type": "uint256"
        }
      ],
      "payable": false,
      "stateMutability": "view",
      "type": "function",
      "signature": "0xf48c0224"
    },
    {
      "constant": true,
      "inputs": [
        {
          "name": "tipoCoche",
          "type": "uint256"
        },
        {
          "name": "posicion",
          "type": "uint256"
        }
      ],
      "name": "consultaArrayDatos",
      "outputs": [
        {
          "name": "valor",
          "type": "uint256"
        }
      ],
      "payable": false,
      "stateMutability": "view",
      "type": "function",
      "signature": "0x680aff39"
    },
    {
      "constant": false,
      "inputs": [
        {
          "name": "dir",
          "type": "address"
        }
      ],
      "name": "deleteUser",
      "outputs": [
        {
          "name": "",
          "type": "bool"
        }
      ],
      "payable": false,
      "stateMutability": "nonpayable",
      "type": "function",
      "signature": "0x5c60f226"
    },
    {
      "constant": false,
      "inputs": [
        {
          "name": "maxCredit",
          "type": "uint256"
        }
      ],
      "name": "asignaCreditoMaximo",
      "outputs": [
        {
          "name": "",
          "type": "uint256"
        }
      ],
      "payable": false,
      "stateMutability": "nonpayable",
      "type": "function",
      "signature": "0xadc4f95c"
    }
  ],
  "bytecode": "0x60806040526000600a60006101000a81548160ff0219169083151502179055506000600a60016101000a81548160ff02191690831515021790555034801561004657600080fd5b506040516040806133e18339810180604052604081101561006657600080fd5b810190808051906020019092919080519060200190929190505050336000806101000a81548173ffffffffffffffffffffffffffffffffffffffff021916908373ffffffffffffffffffffffffffffffffffffffff16021790555033600660006101000a81548173ffffffffffffffffffffffffffffffffffffffff021916908373ffffffffffffffffffffffffffffffffffffffff16021790555081600760006101000a81548173ffffffffffffffffffffffffffffffffffffffff021916908373ffffffffffffffffffffffffffffffffffffffff1602179055508060088190555050506132868061015b6000396000f3fe6080604052600436106101cd576000357c0100000000000000000000000000000000000000000000000000000000900463ffffffff16806302f58854146101d257806312029e60146102175780632368966c1461024657806327dc297e1461027e57806338bbfa50146103505780633968cc47146104b9578063426ad5d61461051e5780634ca6d8c11461069b5780634e4dc82c146106f457806355a373d614610723578063567b616b1461077a5780635877cbe5146107a95780635977a96a146107fc5780635c60f226146108615780635d8d223a146108ca578063680aff39146108f55780636cbbb62d1461094e5780637208177a1461099d57806373feb0e8146109e25780637b57ec1014610a275780638337d90f14610a52578063948bcf6514610ae2578063959a23fe14610c5f57806399ac726e14610cab578063a87430ba14610cd9578063a87e71be14610e4e578063acad866714610e93578063adc4f95c14610ec2578063b4e8999014610f11578063b65a825914610f3f578063c29dd7c914610fba578063cfa6628a14610fe8578063dd755b1714611013578063ef9c642514611042578063f15fa0c614611091578063f48c02241461110d578063fd99aeec1461115c575b600080fd5b3480156101de57600080fd5b50610215600480360360408110156101f557600080fd5b8101908080359060200190929190803590602001909291905050506111ab565b005b34801561022357600080fd5b5061022c6111e9565b604051808215151515815260200191505060405180910390f35b61027c6004803603604081101561025c57600080fd5b8101908080359060200190929190803590602001909291905050506111fc565b005b34801561028a57600080fd5b5061034e600480360360408110156102a157600080fd5b8101908080359060200190929190803590602001906401000000008111156102c857600080fd5b8201836020820111156102da57600080fd5b803590602001918460018302840111640100000000831117156102fc57600080fd5b91908080601f016020809104026020016040519081016040528093929190818152602001838380828437600081840152601f19601f8201169050808301925050505050505091929192905050506114fc565b005b34801561035c57600080fd5b506104b76004803603606081101561037357600080fd5b81019080803590602001909291908035906020019064010000000081111561039a57600080fd5b8201836020820111156103ac57600080fd5b803590602001918460018302840111640100000000831117156103ce57600080fd5b91908080601f016020809104026020016040519081016040528093929190818152602001838380828437600081840152601f19601f8201169050808301925050505050505091929192908035906020019064010000000081111561043157600080fd5b82018360208201111561044357600080fd5b8035906020019184600183028401116401000000008311171561046557600080fd5b91908080601f016020809104026020016040519081016040528093929190818152602001838380828437600081840152601f19601f82011690508083019250505050505050919291929050505061153f565b005b3480156104c557600080fd5b50610508600480360360208110156104dc57600080fd5b81019080803573ffffffffffffffffffffffffffffffffffffffff169060200190929190505050611544565b6040518082815260200191505060405180910390f35b34801561052a57600080fd5b50610699600480360360a081101561054157600080fd5b810190808035906020019064010000000081111561055e57600080fd5b82018360208201111561057057600080fd5b8035906020019184600183028401116401000000008311171561059257600080fd5b91908080601f016020809104026020016040519081016040528093929190818152602001838380828437600081840152601f19601f82011690508083019250505050505050919291929080359060200190929190803590602001906401000000008111156105ff57600080fd5b82018360208201111561061157600080fd5b8035906020019184600183028401116401000000008311171561063357600080fd5b91908080601f016020809104026020016040519081016040528093929190818152602001838380828437600081840152601f19601f820116905080830192505050505050509192919290803590602001909291908035906020019092919050505061155c565b005b3480156106a757600080fd5b506106de600480360360408110156106be57600080fd5b810190808035906020019092919080359060200190929190505050611785565b6040518082815260200191505060405180910390f35b34801561070057600080fd5b506107096117b5565b604051808215151515815260200191505060405180910390f35b34801561072f57600080fd5b50610738611864565b604051808273ffffffffffffffffffffffffffffffffffffffff1673ffffffffffffffffffffffffffffffffffffffff16815260200191505060405180910390f35b34801561078657600080fd5b5061078f61188a565b604051808215151515815260200191505060405180910390f35b3480156107b557600080fd5b506107e2600480360360208110156107cc57600080fd5b8101908080359060200190929190505050611905565b604051808215151515815260200191505060405180910390f35b34801561080857600080fd5b5061084b6004803603602081101561081f57600080fd5b81019080803573ffffffffffffffffffffffffffffffffffffffff169060200190929190505050611a5a565b6040518082815260200191505060405180910390f35b34801561086d57600080fd5b506108b06004803603602081101561088457600080fd5b81019080803573ffffffffffffffffffffffffffffffffffffffff169060200190929190505050611a72565b604051808215151515815260200191505060405180910390f35b3480156108d657600080fd5b506108df611b48565b6040518082815260200191505060405180910390f35b34801561090157600080fd5b506109386004803603604081101561091857600080fd5b810190808035906020019092919080359060200190929190505050611b4e565b6040518082815260200191505060405180910390f35b34801561095a57600080fd5b506109876004803603602081101561097157600080fd5b8101908080359060200190929190505050611b83565b6040518082815260200191505060405180910390f35b3480156109a957600080fd5b506109e0600480360360408110156109c057600080fd5b810190808035906020019092919080359060200190929190505050611b9b565b005b3480156109ee57600080fd5b50610a2560048036036040811015610a0557600080fd5b810190808035906020019092919080359060200190929190505050611bd9565b005b348015610a3357600080fd5b50610a3c611cd2565b6040518082815260200191505060405180910390f35b348015610a5e57600080fd5b50610a67611d3d565b6040518080602001828103825283818151815260200191508051906020019080838360005b83811015610aa7578082015181840152602081019050610a8c565b50505050905090810190601f168015610ad45780820380516001836020036101000a031916815260200191505b509250505060405180910390f35b348015610aee57600080fd5b50610c5d600480360360a0811015610b0557600080fd5b8101908080359060200190640100000000811115610b2257600080fd5b820183602082011115610b3457600080fd5b80359060200191846001830284011164010000000083111715610b5657600080fd5b91908080601f016020809104026020016040519081016040528093929190818152602001838380828437600081840152601f19601f8201169050808301925050505050505091929192908035906020019092919080359060200190640100000000811115610bc357600080fd5b820183602082011115610bd557600080fd5b80359060200191846001830284011164010000000083111715610bf757600080fd5b91908080601f016020809104026020016040519081016040528093929190818152602001838380828437600081840152601f19601f8201169050808301925050505050505091929192908035906020019092919080359060200190929190505050611e41565b005b610ca960048036036080811015610c7557600080fd5b8101908080359060200190929190803590602001909291908035906020019092919080359060200190929190505050612085565b005b610cd760048036036020811015610cc157600080fd5b8101908080359060200190929190505050612430565b005b348015610ce557600080fd5b50610d2860048036036020811015610cfc57600080fd5b81019080803573ffffffffffffffffffffffffffffffffffffffff1690602001909291905050506126df565b6040518080602001806020018c81526020018b81526020018a815260200189815260200188815260200187815260200186815260200185815260200184815260200183810383528e818151815260200191508051906020019080838360005b83811015610da2578082015181840152602081019050610d87565b50505050905090810190601f168015610dcf5780820380516001836020036101000a031916815260200191505b5083810382528d818151815260200191508051906020019080838360005b83811015610e08578082015181840152602081019050610ded565b50505050905090810190601f168015610e355780820380516001836020036101000a031916815260200191505b509d505050505050505050505050505060405180910390f35b348015610e5a57600080fd5b50610e9160048036036040811015610e7157600080fd5b810190808035906020019092919080359060200190929190505050612869565b005b348015610e9f57600080fd5b50610ea86128a7565b604051808215151515815260200191505060405180910390f35b348015610ece57600080fd5b50610efb60048036036020811015610ee557600080fd5b81019080803590602001909291905050506128ba565b6040518082815260200191505060405180910390f35b610f3d60048036036020811015610f2757600080fd5b810190808035906020019092919050505061296e565b005b348015610f4b57600080fd5b50610f7860048036036020811015610f6257600080fd5b8101908080359060200190929190505050612d1d565b604051808273ffffffffffffffffffffffffffffffffffffffff1673ffffffffffffffffffffffffffffffffffffffff16815260200191505060405180910390f35b610fe660048036036020811015610fd057600080fd5b8101908080359060200190929190505050612d50565b005b348015610ff457600080fd5b50610ffd613018565b6040518082815260200191505060405180910390f35b34801561101f57600080fd5b5061102861301e565b604051808215151515815260200191505060405180910390f35b34801561104e57600080fd5b5061107b6004803603602081101561106557600080fd5b8101908080359060200190929190505050613099565b6040518082815260200191505060405180910390f35b34801561109d57600080fd5b506110d4600480360360408110156110b457600080fd5b8101908080359060200190929190803590602001909291905050506130b1565b60405180878152602001868152602001858152602001848152602001838152602001828152602001965050505050505060405180910390f35b34801561111957600080fd5b506111466004803603602081101561113057600080fd5b81019080803590602001909291905050506130fa565b6040518082815260200191505060405180910390f35b34801561116857600080fd5b506111956004803603602081101561117f57600080fd5b810190808035906020019092919050505061311a565b6040518082815260200191505060405180910390f35b60001515600a60009054906101000a900460ff1615151415156111cd57600080fd5b80600d6000848152602001908152602001600020819055505050565b600a60009054906101000a900460ff1681565b60001515600a60009054906101000a900460ff16151514151561121e57600080fd5b81600760009054906101000a900473ffffffffffffffffffffffffffffffffffffffff1673ffffffffffffffffffffffffffffffffffffffff166370a08231336040518263ffffffff167c0100000000000000000000000000000000000000000000000000000000028152600401808273ffffffffffffffffffffffffffffffffffffffff1673ffffffffffffffffffffffffffffffffffffffff16815260200191505060206040518083038186803b1580156112da57600080fd5b505afa1580156112ee573d6000803e3d6000fd5b505050506040513d602081101561130457600080fd5b81019080805190602001909291905050501015151561132257600080fd5b600760009054906101000a900473ffffffffffffffffffffffffffffffffffffffff1673ffffffffffffffffffffffffffffffffffffffff166323b872dd3330856040518463ffffffff167c0100000000000000000000000000000000000000000000000000000000028152600401808473ffffffffffffffffffffffffffffffffffffffff1673ffffffffffffffffffffffffffffffffffffffff1681526020018373ffffffffffffffffffffffffffffffffffffffff1673ffffffffffffffffffffffffffffffffffffffff1681526020018281526020019350505050602060405180830381600087803b15801561141b57600080fd5b505af115801561142f573d6000803e3d6000fd5b505050506040513d602081101561144557600080fd5b8101908080519060200190929190505050151561146157600080fd5b8160096000828254019250508190555080600f60003373ffffffffffffffffffffffffffffffffffffffff1673ffffffffffffffffffffffffffffffffffffffff168152602001908152602001600020600a01600082825403925050819055507f5a4bdf0af9a858387f554b96cd81418e7570789fde7c70afe9ff7d8e6cfaffe5826040518082815260200191505060405180910390a15050565b61153b828260006040519080825280601f01601f1916602001820160405280156115355781602001600182028038833980820191505090505b5061153f565b5050565b505050565b60116020528060005260406000206000915090505481565b60001515600a60009054906101000a900460ff16151514151561157e57600080fd5b6000601160003373ffffffffffffffffffffffffffffffffffffffff1673ffffffffffffffffffffffffffffffffffffffff168152602001908152602001600020541415156115cc57600080fd5b601160003373ffffffffffffffffffffffffffffffffffffffff1673ffffffffffffffffffffffffffffffffffffffff168152602001908152602001600020600081548092919060010191905055506101606040519081016040528086815260200184815260200183815260200185815260200182815260200160008152602001600081526020016000815260200160008152602001600081526020016000815250600f60003373ffffffffffffffffffffffffffffffffffffffff1673ffffffffffffffffffffffffffffffffffffffff16815260200190815260200160002060008201518160000190805190602001906116c992919061316d565b5060208201518160010190805190602001906116e692919061316d565b5060408201518160020155606082015181600301556080820151816004015560a0820151816005015560c0820151816006015560e082015181600701556101008201518160080155610120820151816009015561014082015181600a01559050507f6ba4ead7636d04e0c95d33e655db0853aa65a450a0414cf4be9f3f4bf8f35c32846040518082815260200191505060405180910390a15050505050565b6013602052816000526040600020818154811015156117a057fe5b90600052602060002001600091509150505481565b60008060009054906101000a900473ffffffffffffffffffffffffffffffffffffffff1673ffffffffffffffffffffffffffffffffffffffff163373ffffffffffffffffffffffffffffffffffffffff1614151561181257600080fd5b60001515600a60009054906101000a900460ff16151514151561183457600080fd5b6001600a60016101000a81548160ff021916908315150217905550600a60019054906101000a900460ff16905090565b600760009054906101000a900473ffffffffffffffffffffffffffffffffffffffff1681565b60008060009054906101000a900473ffffffffffffffffffffffffffffffffffffffff1673ffffffffffffffffffffffffffffffffffffffff163373ffffffffffffffffffffffffffffffffffffffff161415156118e757600080fd5b6001600a60006101000a81548160ff02191690831515021790555090565b60008060009054906101000a900473ffffffffffffffffffffffffffffffffffffffff1673ffffffffffffffffffffffffffffffffffffffff163373ffffffffffffffffffffffffffffffffffffffff1614151561196257600080fd5b60001515600a60009054906101000a900460ff16151514151561198457600080fd5b600760009054906101000a900473ffffffffffffffffffffffffffffffffffffffff1673ffffffffffffffffffffffffffffffffffffffff1663468d2649836040518263ffffffff167c010000000000000000000000000000000000000000000000000000000002815260040180828152602001915050602060405180830381600087803b158015611a1557600080fd5b505af1158015611a29573d6000803e3d6000fd5b505050506040513d6020811015611a3f57600080fd5b81019080805190602001909291905050505060019050919050565b600b6020528060005260406000206000915090505481565b6000801515600a60009054906101000a900460ff161515141515611a9557600080fd5b600f60008373ffffffffffffffffffffffffffffffffffffffff1673ffffffffffffffffffffffffffffffffffffffff16815260200190815260200160002060008082016000611ae591906131ed565b600182016000611af591906131ed565b60028201600090556003820160009055600482016000905560058201600090556006820160009055600782016000905560088201600090556009820160009055600a820160009055505060019050919050565b60095481565b60006013600084815260200190815260200160002082815481101515611b7057fe5b9060005260206000200154905092915050565b600c6020528060005260406000206000915090505481565b60001515600a60009054906101000a900460ff161515141515611bbd57600080fd5b80600c6000848152602001908152602001600020819055505050565b60001515600a60009054906101000a900460ff161515141515611bfb57600080fd5b60c060405190810160405280828152602001600081526020016000815260200160008152602001600081526020016000815250601060008481526020019081526020016000206000838152602001908152602001600020600082015181600001556020820151816001015560408201518160020155606082015181600301556080820151816004015560a08201518160050155905050601360008381526020019081526020016000208190806001815401808255809150509060018203906000526020600020016000909192909190915055505050565b6000801515600a60009054906101000a900460ff161515141515611cf557600080fd5b600f60003373ffffffffffffffffffffffffffffffffffffffff1673ffffffffffffffffffffffffffffffffffffffff16815260200190815260200160002060030154905090565b606060001515600a60009054906101000a900460ff161515141515611d6157600080fd5b600f60003373ffffffffffffffffffffffffffffffffffffffff1673ffffffffffffffffffffffffffffffffffffffff1681526020019081526020016000206000018054600181600116156101000203166002900480601f016020809104026020016040519081016040528092919081815260200182805460018160011615610100020316600290048015611e375780601f10611e0c57610100808354040283529160200191611e37565b820191906000526020600020905b815481529060010190602001808311611e1a57829003601f168201915b5050505050905090565b60001515600a60009054906101000a900460ff161515141515611e6357600080fd5b6000601160003373ffffffffffffffffffffffffffffffffffffffff1673ffffffffffffffffffffffffffffffffffffffff16815260200190815260200160002054141515611eb157600080fd5b601160003373ffffffffffffffffffffffffffffffffffffffff1673ffffffffffffffffffffffffffffffffffffffff168152602001908152602001600020600081548092919060010191905055506101606040519081016040528086815260200184815260200183815260200185815260200182815260200160008152602001600081526020016000815260200160008152602001600081526020016000815250600f60003373ffffffffffffffffffffffffffffffffffffffff1673ffffffffffffffffffffffffffffffffffffffff1681526020019081526020016000206000820151816000019080519060200190611fae92919061316d565b506020820151816001019080519060200190611fcb92919061316d565b5060408201518160020155606082015181600301556080820151816004015560a0820151816005015560c0820151816006015560e082015181600701556101008201518160080155610120820151816009015561014082015181600a0155905050336012600084815260200190815260200160002060006101000a81548173ffffffffffffffffffffffffffffffffffffffff021916908373ffffffffffffffffffffffffffffffffffffffff1602179055505050505050565b60001515600a60009054906101000a900460ff1615151415156120a757600080fd5b83600760009054906101000a900473ffffffffffffffffffffffffffffffffffffffff1673ffffffffffffffffffffffffffffffffffffffff166370a08231336040518263ffffffff167c0100000000000000000000000000000000000000000000000000000000028152600401808273ffffffffffffffffffffffffffffffffffffffff1673ffffffffffffffffffffffffffffffffffffffff16815260200191505060206040518083038186803b15801561216357600080fd5b505afa158015612177573d6000803e3d6000fd5b505050506040513d602081101561218d57600080fd5b8101908080519060200190929190505050101515156121ab57600080fd5b600760009054906101000a900473ffffffffffffffffffffffffffffffffffffffff1673ffffffffffffffffffffffffffffffffffffffff166323b872dd3330876040518463ffffffff167c0100000000000000000000000000000000000000000000000000000000028152600401808473ffffffffffffffffffffffffffffffffffffffff1673ffffffffffffffffffffffffffffffffffffffff1681526020018373ffffffffffffffffffffffffffffffffffffffff1673ffffffffffffffffffffffffffffffffffffffff1681526020018281526020019350505050602060405180830381600087803b1580156122a457600080fd5b505af11580156122b8573d6000803e3d6000fd5b505050506040513d60208110156122ce57600080fd5b810190808051906020019092919050505015156122ea57600080fd5b80600f60003373ffffffffffffffffffffffffffffffffffffffff1673ffffffffffffffffffffffffffffffffffffffff1681526020019081526020016000206005018190555081600f60003373ffffffffffffffffffffffffffffffffffffffff1673ffffffffffffffffffffffffffffffffffffffff1681526020019081526020016000206006018190555082600f60003373ffffffffffffffffffffffffffffffffffffffff1673ffffffffffffffffffffffffffffffffffffffff168152602001908152602001600020600701819055507fb9dde9ba07bee40c833192b2e4701d1cee406ee484c22f55e60f924bb379ab8e3385604051808373ffffffffffffffffffffffffffffffffffffffff1673ffffffffffffffffffffffffffffffffffffffff1681526020018281526020019250505060405180910390a150505050565b60001515600a60009054906101000a900460ff16151514151561245257600080fd5b80600760009054906101000a900473ffffffffffffffffffffffffffffffffffffffff1673ffffffffffffffffffffffffffffffffffffffff166370a08231336040518263ffffffff167c0100000000000000000000000000000000000000000000000000000000028152600401808273ffffffffffffffffffffffffffffffffffffffff1673ffffffffffffffffffffffffffffffffffffffff16815260200191505060206040518083038186803b15801561250e57600080fd5b505afa158015612522573d6000803e3d6000fd5b505050506040513d602081101561253857600080fd5b81019080805190602001909291905050501015151561255657600080fd5b600760009054906101000a900473ffffffffffffffffffffffffffffffffffffffff1673ffffffffffffffffffffffffffffffffffffffff166323b872dd3330846040518463ffffffff167c0100000000000000000000000000000000000000000000000000000000028152600401808473ffffffffffffffffffffffffffffffffffffffff1673ffffffffffffffffffffffffffffffffffffffff1681526020018373ffffffffffffffffffffffffffffffffffffffff1673ffffffffffffffffffffffffffffffffffffffff1681526020018281526020019350505050602060405180830381600087803b15801561264f57600080fd5b505af1158015612663573d6000803e3d6000fd5b505050506040513d602081101561267957600080fd5b8101908080519060200190929190505050151561269557600080fd5b806009600082825401925050819055507f5a4bdf0af9a858387f554b96cd81418e7570789fde7c70afe9ff7d8e6cfaffe5816040518082815260200191505060405180910390a150565b600f602052806000526040600020600091509050806000018054600181600116156101000203166002900480601f01602080910402602001604051908101604052809291908181526020018280546001816001161561010002031660029004801561278b5780601f106127605761010080835404028352916020019161278b565b820191906000526020600020905b81548152906001019060200180831161276e57829003601f168201915b505050505090806001018054600181600116156101000203166002900480601f0160208091040260200160405190810160405280929190818152602001828054600181600116156101000203166002900480156128295780601f106127fe57610100808354040283529160200191612829565b820191906000526020600020905b81548152906001019060200180831161280c57829003601f168201915b50505050509080600201549080600301549080600401549080600501549080600601549080600701549080600801549080600901549080600a015490508b565b60001515600a60009054906101000a900460ff16151514151561288b57600080fd5b80600e6000848152602001908152602001600020819055505050565b600a60019054906101000a900460ff1681565b6000801515600a60009054906101000a900460ff1615151415156128dd57600080fd5b81600f60003373ffffffffffffffffffffffffffffffffffffffff1673ffffffffffffffffffffffffffffffffffffffff16815260200190815260200160002060080181905550600f60003373ffffffffffffffffffffffffffffffffffffffff1673ffffffffffffffffffffffffffffffffffffffff168152602001908152602001600020600801549050919050565b60001515600a60009054906101000a900460ff16151514151561299057600080fd5b60008111151561299f57600080fd5b600f60003373ffffffffffffffffffffffffffffffffffffffff1673ffffffffffffffffffffffffffffffffffffffff1681526020019081526020016000206008015481111515156129f057600080fd5b80600760009054906101000a900473ffffffffffffffffffffffffffffffffffffffff1673ffffffffffffffffffffffffffffffffffffffff166370a08231306040518263ffffffff167c0100000000000000000000000000000000000000000000000000000000028152600401808273ffffffffffffffffffffffffffffffffffffffff1673ffffffffffffffffffffffffffffffffffffffff16815260200191505060206040518083038186803b158015612aac57600080fd5b505afa158015612ac0573d6000803e3d6000fd5b505050506040513d6020811015612ad657600080fd5b810190808051906020019092919050505010151515612af457600080fd5b600760009054906101000a900473ffffffffffffffffffffffffffffffffffffffff1673ffffffffffffffffffffffffffffffffffffffff1663a9059cbb33836040518363ffffffff167c0100000000000000000000000000000000000000000000000000000000028152600401808373ffffffffffffffffffffffffffffffffffffffff1673ffffffffffffffffffffffffffffffffffffffff16815260200182815260200192505050602060405180830381600087803b158015612bb957600080fd5b505af1158015612bcd573d6000803e3d6000fd5b505050506040513d6020811015612be357600080fd5b81019080805190602001909291905050501515612bff57600080fd5b8060096000828254019250508190555080600f60003373ffffffffffffffffffffffffffffffffffffffff1673ffffffffffffffffffffffffffffffffffffffff1681526020019081526020016000206008016000828254039250508190555080600f60003373ffffffffffffffffffffffffffffffffffffffff1673ffffffffffffffffffffffffffffffffffffffff168152602001908152602001600020600a01600082825401925050819055507f40da82cf732acb6b1f2fc10a49ce18b1e0938475b2d40935edc9cf928e70967d3382604051808373ffffffffffffffffffffffffffffffffffffffff1673ffffffffffffffffffffffffffffffffffffffff1681526020018281526020019250505060405180910390a150565b60126020528060005260406000206000915054906101000a900473ffffffffffffffffffffffffffffffffffffffff1681565b60001515600a60009054906101000a900460ff161515141515612d7257600080fd5b612d7e81600854613132565b34141515612d8b57600080fd5b80600760009054906101000a900473ffffffffffffffffffffffffffffffffffffffff1673ffffffffffffffffffffffffffffffffffffffff166370a08231306040518263ffffffff167c0100000000000000000000000000000000000000000000000000000000028152600401808273ffffffffffffffffffffffffffffffffffffffff1673ffffffffffffffffffffffffffffffffffffffff16815260200191505060206040518083038186803b158015612e4757600080fd5b505afa158015612e5b573d6000803e3d6000fd5b505050506040513d6020811015612e7157600080fd5b810190808051906020019092919050505010151515612e8f57600080fd5b600760009054906101000a900473ffffffffffffffffffffffffffffffffffffffff1673ffffffffffffffffffffffffffffffffffffffff1663a9059cbb33836040518363ffffffff167c0100000000000000000000000000000000000000000000000000000000028152600401808373ffffffffffffffffffffffffffffffffffffffff1673ffffffffffffffffffffffffffffffffffffffff16815260200182815260200192505050602060405180830381600087803b158015612f5457600080fd5b505af1158015612f68573d6000803e3d6000fd5b505050506040513d6020811015612f7e57600080fd5b81019080805190602001909291905050501515612f9a57600080fd5b806009600082825401925050819055507f73ab9be6246a9eb60faba3a7d2a824cb1915fbf017b6cdf338d65fbcf0f5bc9f3382604051808373ffffffffffffffffffffffffffffffffffffffff1673ffffffffffffffffffffffffffffffffffffffff1681526020018281526020019250505060405180910390a150565b60085481565b60008060009054906101000a900473ffffffffffffffffffffffffffffffffffffffff1673ffffffffffffffffffffffffffffffffffffffff163373ffffffffffffffffffffffffffffffffffffffff1614151561307b57600080fd5b6000600a60006101000a81548160ff02191690831515021790555090565b600e6020528060005260406000206000915090505481565b6010602052816000526040600020602052806000526040600020600091509150508060000154908060010154908060020154908060030154908060040154908060050154905086565b600060136000838152602001908152602001600020805490509050919050565b600d6020528060005260406000206000915090505481565b6000808314156131455760009050613167565b6000828402905082848281151561315857fe5b0414151561316257fe5b809150505b92915050565b828054600181600116156101000203166002900490600052602060002090601f016020900481019282601f106131ae57805160ff19168380011785556131dc565b828001600101855582156131dc579182015b828111156131db5782518255916020019190600101906131c0565b5b5090506131e99190613235565b5090565b50805460018160011615610100020316600290046000825580601f106132135750613232565b601f0160209004906000526020600020908101906132319190613235565b5b50565b61325791905b8082111561325357600081600090555060010161323b565b5090565b9056fea165627a7a7230582021f9c37a4eaab9ef82f30d500fbc8bfa9a911cef473911d63d1bb4d16d99ecd30029",
  "source": "pragma solidity >= 0.5.0 < 0.6.0;\n\nimport \"./Token.sol\";\nimport \"./SafeMath.sol\";\nimport \"./Owned.sol\";\nimport \"installed_contracts/oraclize-api/contracts/usingOraclize.sol\";\n\ncontract CompraToken is Owned, usingOraclize  {\n    address admin;\n    Token public tokenContract;\n    uint256 public PrecioToken;\n    uint256 public tokensVendidos;\n    bool public Activo = false;\n    bool public IsAdmin = false;\n    \n    \n\n    event Venta(\n        address _comprador,\n         uint256 _tokens\n         );\n         event Prestamo(\n        address _comprador,\n         uint256 _tokens\n         );\n    event Pago(\n        address _depositante,\n         uint256 cantidad\n         );\n    event Retiro(\n        address _retira,\n         uint256 cantidad\n         );   \n    \n    event nuevoCliente(\n        uint record\n    );  \n    event CostoSeguro(         \n       uint entregado\n    );    \n    event newRandomNumber_bytes(bytes);\n    event newRandomNumber_uint(uint);   \n\n    mapping(address => uint) public CostSeguro;\n    mapping(uint => uint) public aseguradoraPrecioAparcado;\n    mapping(uint => uint) public aseguradoraPrecioCarretera;\n    mapping(uint => uint) public aseguradoraPrecioCiudad;\n    mapping(address => user) public users;\n    mapping(uint => mapping(uint => coche)) public coches;\n    mapping(address => uint) public ownerCuentaLeasing;\n    mapping(bytes32 => address) public maestroEmpresas;\n    mapping(uint => uint[]) public CochesDisponibles;\n\n struct user {\n        string IdUser;\n        string DNI;\n        bytes32 VATNumber;\n        uint TypeUser;\n        uint record;\n        uint PrecioAparcado;\n        uint PrecioKmCarretera;\n        uint PrecioKmCiudad;        \n        uint MaxCredito;        \n        uint IdCoche;\n        uint Prestamo;\n       \n }\n \n   \n   struct coche {\nuint IdCoche;\nuint KmCarretera;\nuint KmCiudad;\nuint TiempoAparcado;\nuint Estado;\nuint IdSeguro;\n} \n\n\n//** @title Constructor. */\n    constructor(Token _tokenContract, uint256 _PrecioToken) public {\n         /**@param _tokencontract address del contrato Token.sol.\n       @param _PrecioToken recibe el precio de los tokens definidos en el archivo de inicializacin*/\n\n      /** @dev Asigna la cuenta administrador al que realiza el deploy\n      y asigna los valores recibidos las variables token contract y PrecioToken para utilizarlas en este contrato\n      */ \n        admin = msg.sender;\n        tokenContract = _tokenContract;\n        PrecioToken = _PrecioToken;\n    }\n//** @title Compra de tokens. */\n    function compraTokens(uint256 _numeroTokens) public payable {\n          /**@param _numeroTokens cantidad a comprarr.\n \n      /** @dev verificar que el precio a pagar sea el precio estblecido\n      verifica que el contrato cuente con los tokens solicitados para comprar\n      verifica que se haya realizado la transaccin satisfactoriamente desde el contrato Token.sol.\n      Actualiza el valor de los tokens vendidos\n      */ \n        require(Activo == false);\n        require(msg.value == SafeMath.mul(_numeroTokens, PrecioToken));\n        require(tokenContract.balanceOf(address(this)) >= _numeroTokens);\n        require(tokenContract.transfer(msg.sender, _numeroTokens));\n\n        tokensVendidos += _numeroTokens;\n        /** @return devuelve el addres del que compra y la cantidad*/\n        emit Venta(msg.sender, _numeroTokens);\n    }\n    function prestamoTokens(uint256 _numeroTokens) public payable {\n          /**@param _numeroTokens cantidad a comprarr.\n \n      /** @dev verificar que el precio a pagar sea el precio estblecido\n      verifica que el contrato cuente con los tokens solicitados para comprar\n      verifica que se haya realizado la transaccin satisfactoriamente desde el contrato Token.sol.\n      Actualiza el valor de los tokens vendidos\n      \n      */\n        require(Activo == false);\n        require(_numeroTokens > 0); \n        require(_numeroTokens <= users[msg.sender].MaxCredito);\n        require(tokenContract.balanceOf(address(this)) >= _numeroTokens);\n        require(tokenContract.transfer(msg.sender, _numeroTokens));\n\n        tokensVendidos += _numeroTokens;\n        users[msg.sender].MaxCredito -= _numeroTokens; \n        users[msg.sender].Prestamo += _numeroTokens;\n        /** @return devuelve el addres del que compra y la cantidad*/\n        emit Prestamo(msg.sender, _numeroTokens);\n    }\n//** @title Depotio de tokens. */\n    function pagarTokens(uint _pago, uint precioKmCiudad, uint precioKmCarretera, uint precioAparcado) public payable {\n        /**@param _contribucion cantidad a ahorrar.\n       @param fechaEjecucion fecha en que se realiza el deposito.*/\n      /** @dev verificar que el balance de quien enva sea mayor a la cantidad a enviar\n     \n      */require(Activo == false);\n        require(tokenContract.balanceOf(msg.sender) >= _pago);\n        require(tokenContract.transferFrom(msg.sender, address(this), _pago));\n        users[msg.sender].PrecioAparcado = precioAparcado;\n        users[msg.sender].PrecioKmCarretera = precioKmCarretera;\n        users[msg.sender].PrecioKmCiudad = precioKmCiudad;     \n         \n       \n       /** @return devuelve el address del que solicita el deposito y la cantidad.*/\n        emit Pago(msg.sender, _pago);\n    }\n\n    function aumentarSupply(uint value) public onlyOwner returns (bool) {\n        require(Activo == false);\n        tokenContract.transferAumentoSupply(value);\n        return true;\n    }\n\n\n    \n    //** @title detener el contrato. */\n    function DetenerContratoCompraToken() public onlyOwner returns (bool) {\n        Activo = true;\n        /** @dev Modificar el valor de la variable true desactivando el Smart contract.*/\n    }\n    //** @title Activar el contrato. */\n    function ActivarContratoCompraToken() public onlyOwner returns (bool) {\n        Activo = false;\n        /** @dev Modificar el valor de la variable true activando el Smart contract.*/\n    }\n\n    \n\n    function actualizarPrecioAparcado(uint idEmpresa, uint precioAparcado) public {\n        require(Activo == false);\n        aseguradoraPrecioAparcado[idEmpresa] = precioAparcado;\n    }\n    function actualizarPrecioCarretera(uint idEmpresa, uint precioCarretera) public {\n        require(Activo == false);\n        aseguradoraPrecioCarretera[idEmpresa] = precioCarretera;\n    }\n    function actualizarPrecioCiudad(uint idEmpresa, uint precioCiudad) public {\n        require(Activo == false);\n        aseguradoraPrecioCiudad[idEmpresa] = precioCiudad;\n    }\n   \n\n//** @title Constructor. */\n    \n//** @title Compra de tokens. */\n    function PagoSeguro(uint TokensSeguro) public payable {       \n     require(Activo == false);  \n     require(tokenContract.balanceOf(msg.sender) >= TokensSeguro);\n     require(tokenContract.transferFrom(msg.sender, address(this),TokensSeguro));\n\n     tokensVendidos += TokensSeguro;\n\n        \n     emit CostoSeguro(TokensSeguro);\n    }\n    function PagoFinanciacion(uint TokensFinanciacion, uint TokensPrestamo) public payable {       \n     require(Activo == false);        \n     require(tokenContract.balanceOf(msg.sender) >= TokensFinanciacion);\n     require(tokenContract.transferFrom(msg.sender, address(this),TokensFinanciacion));\n\n     tokensVendidos += TokensFinanciacion;\n     users[msg.sender].Prestamo -= TokensPrestamo;\n\n        //users[msg.sender].Entregado = true;\n        //emit CostoSeguro(users[msg.sender].Entregado);\n     emit CostoSeguro(TokensFinanciacion);\n    }\n\n\n\n\n\n    function CheckAdmin() public onlyOwner returns (bool)\n    {   \n        require(Activo == false);\n        IsAdmin = true; \n        return (IsAdmin);\n        //returns true if it is the owner of the contract\n    }\n\n    function fetchTypeUser() public view returns (uint)\n\n    {\n        require(Activo == false);\n        return (users[msg.sender].TypeUser);\n    }\n    \n    function fetchUser() public view returns (string memory)\n\n    {\n        require(Activo == false);\n        return (users[msg.sender].IdUser);\n    }\n\n    /*function RegistraTime() public returns (bool)\n\n    {\n        users[msg.sender].timestamp=now;\n        return (true);\n    }*/\n\n   function NewUser(string memory IdUsuario, uint TypeUser, string memory DNI, bytes32 VATNumber, uint record) public \n    {\n//solo deberia poder darese de alta una vez el usuario\n       \n    require(Activo == false);\n    require((ownerCuentaLeasing[msg.sender]) == 0);    \n    ownerCuentaLeasing[msg.sender] ++;       \n    users[msg.sender] = user(IdUsuario, DNI, VATNumber, TypeUser, record, 0, 0, 0, 0, 0,0);\n   \n        \n    emit nuevoCliente(TypeUser); \n       \n    }\n    function NewEmpresa(string memory IdUsuario, uint TypeUser, string memory DNI, bytes32 VATNumber, uint record) public \n    {\n       \n    require(Activo == false);\n    require((ownerCuentaLeasing[msg.sender]) == 0);    \n    ownerCuentaLeasing[msg.sender] ++;       \n    users[msg.sender] = user(IdUsuario, DNI, VATNumber, TypeUser, record, 0, 0, 0, 0, 0,0);\n    maestroEmpresas[VATNumber] = msg.sender;\n\n    \n       \n    }\n    function NewCoche(uint tipoCoche, uint IdCoche) public \n    {       \n    require(Activo == false);           \n    coches[tipoCoche][IdCoche] = coche(IdCoche,0, 0, 0, 0,0);\n    CochesDisponibles[tipoCoche].push(IdCoche);\n       }\n\n\nfunction consultaArray(uint tipoCoche) public view returns(uint count) {\n    return CochesDisponibles[tipoCoche].length;\n}\nfunction consultaArrayDatos(uint tipoCoche, uint posicion) public view returns(uint valor) {\n    return CochesDisponibles[tipoCoche][posicion];\n}\n\n\n\n    /*function getUser(address dir) public view returns (string memory ,uint ,uint)\n\n    {\n\n        return (users[dir].IdUser,users[dir].TypeUser,users[dir].timestamp);\n    }*/\n\n\n\nfunction deleteUser(address dir) public returns (bool)\n\n    {\n        require(Activo == false);\n        delete users[dir];\n        return (true);\n    }  \n\n  /* function RandomExample() public {\n        oraclize_setProof(proofType_Ledger); // sets the Ledger authenticity proof in the constructor\n        update(); // let's ask for N random bytes immediately when the contract is created!\n    }\n\n    // the callback function is called by Oraclize when the result is ready\n    // the oraclize_randomDS_proofVerify modifier prevents an invalid proof to execute this function code:\n    // the proof validity is fully verified on-chain\n    mapping(uint => uint) public Aleatorio;\n\n    function __callback(bytes32 _queryId, string memory _result, bytes memory _proof) public\n    {\n        \n        require(msg.sender != oraclize_cbAddress());\n\n        if (oraclize_randomDS_proofVerify__returnCode(_queryId, _result, _proof) != 0) {\n            // the proof verification has failed, do we need to take any action here? (depends on the use case)\n        } else {\n            // the proof verification has passed\n            // now that we know that the random number was safely generated, let's use it..\n\n            emit newRandomNumber_bytes(bytes(_result)); // this is the resulting random number (bytes)\n\n            // for simplicity of use, let's also convert the random bytes to uint if we need\n            uint maxRange = 2**(8* 7); // this is the highest uint we want to get. It should never be greater than 2^(8*N), where N is the number of random bytes we had asked the datasource to return\n            uint randomNumber = uint(keccak256(abi.encodePacked(_result))) % maxRange; // this is an efficient way to get the uint out in the [0, maxRange] range\n            Aleatorio[0] = randomNumber;\n            emit newRandomNumber_uint(randomNumber); // this is the resulting random number (uint)\n        }\n    }\n\n    function update() public payable {\n        uint N = 7; // number of random bytes we want the datasource to return\n        uint delay = 0; // number of seconds to wait before the execution takes place\n        uint callbackGas = 20000; // amount of gas we want Oraclize to set for the callback function\n        bytes32 queryId = oraclize_newRandomDSQuery(delay, N, callbackGas); // this function internally generates the correct oraclize_query and returns its queryId\n    } */\n\n    function asignaCreditoMaximo(uint maxCredit) public returns (uint){\n    require(Activo == false);\n    users[msg.sender].MaxCredito= maxCredit;\n    return users[msg.sender].MaxCredito;\n    //asignacin de crdito mximo por direccin de usuario\n    }\n\n\n\n\n}",
  "sourcePath": "/home/pedro/TFM/TFM-Leasing/Proyecto/contracts/CompraToken.sol",
  "compiler": {
    "name": "solc",
    "version": "0.5.0+commit.1d4f565a.Emscripten.clang"
  },
  "schemaVersion": "3.0.0",
  "updatedAt": "2019-04-19T16:23:42.890Z",
  "devdoc": {
    "methods": {}
  },
  "userdoc": {
    "methods": {}
  }
}