{
  "contractName": "CompraToken",
  "abi": [
    {
      "constant": true,
      "inputs": [],
      "name": "Activo",
      "outputs": [
        {
          "name": "",
          "type": "bool"
        }
      ],
      "payable": false,
      "stateMutability": "view",
      "type": "function",
      "signature": "0x12029e60"
    },
    {
      "constant": false,
      "inputs": [
        {
          "name": "_myid",
          "type": "bytes32"
        },
        {
          "name": "_result",
          "type": "string"
        }
      ],
      "name": "__callback",
      "outputs": [],
      "payable": false,
      "stateMutability": "nonpayable",
      "type": "function",
      "signature": "0x27dc297e"
    },
    {
      "constant": false,
      "inputs": [
        {
          "name": "_myid",
          "type": "bytes32"
        },
        {
          "name": "_result",
          "type": "string"
        },
        {
          "name": "_proof",
          "type": "bytes"
        }
      ],
      "name": "__callback",
      "outputs": [],
      "payable": false,
      "stateMutability": "nonpayable",
      "type": "function",
      "signature": "0x38bbfa50"
    },
    {
      "constant": true,
      "inputs": [
        {
          "name": "",
          "type": "address"
        }
      ],
      "name": "ownerCuentaLeasing",
      "outputs": [
        {
          "name": "",
          "type": "uint256"
        }
      ],
      "payable": false,
      "stateMutability": "view",
      "type": "function",
      "signature": "0x3968cc47"
    },
    {
      "constant": true,
      "inputs": [
        {
          "name": "",
          "type": "uint256"
        },
        {
          "name": "",
          "type": "uint256"
        }
      ],
      "name": "CochesDisponibles",
      "outputs": [
        {
          "name": "",
          "type": "uint256"
        }
      ],
      "payable": false,
      "stateMutability": "view",
      "type": "function",
      "signature": "0x4ca6d8c1"
    },
    {
      "constant": true,
      "inputs": [],
      "name": "tokenContract",
      "outputs": [
        {
          "name": "",
          "type": "address"
        }
      ],
      "payable": false,
      "stateMutability": "view",
      "type": "function",
      "signature": "0x55a373d6"
    },
    {
      "constant": true,
      "inputs": [
        {
          "name": "",
          "type": "address"
        }
      ],
      "name": "CostSeguro",
      "outputs": [
        {
          "name": "",
          "type": "uint256"
        }
      ],
      "payable": false,
      "stateMutability": "view",
      "type": "function",
      "signature": "0x5977a96a"
    },
    {
      "constant": true,
      "inputs": [],
      "name": "tokensVendidos",
      "outputs": [
        {
          "name": "",
          "type": "uint256"
        }
      ],
      "payable": false,
      "stateMutability": "view",
      "type": "function",
      "signature": "0x5d8d223a"
    },
    {
      "constant": true,
      "inputs": [
        {
          "name": "",
          "type": "uint256"
        }
      ],
      "name": "aseguradoraPrecioAparcado",
      "outputs": [
        {
          "name": "",
          "type": "uint256"
        }
      ],
      "payable": false,
      "stateMutability": "view",
      "type": "function",
      "signature": "0x6cbbb62d"
    },
    {
      "constant": true,
      "inputs": [
        {
          "name": "",
          "type": "address"
        }
      ],
      "name": "users",
      "outputs": [
        {
          "name": "TipoCoche",
          "type": "uint256"
        },
        {
          "name": "DNI",
          "type": "string"
        },
        {
          "name": "VATNumber",
          "type": "bytes32"
        },
        {
          "name": "TypeUser",
          "type": "uint256"
        },
        {
          "name": "record",
          "type": "uint256"
        },
        {
          "name": "PrecioAparcado",
          "type": "uint256"
        },
        {
          "name": "PrecioKmCarretera",
          "type": "uint256"
        },
        {
          "name": "PrecioKmCiudad",
          "type": "uint256"
        },
        {
          "name": "MaxCredito",
          "type": "uint256"
        },
        {
          "name": "IdCoche",
          "type": "uint256"
        },
        {
          "name": "Prestamo",
          "type": "uint256"
        }
      ],
      "payable": false,
      "stateMutability": "view",
      "type": "function",
      "signature": "0xa87430ba"
    },
    {
      "constant": true,
      "inputs": [],
      "name": "IsAdmin",
      "outputs": [
        {
          "name": "",
          "type": "bool"
        }
      ],
      "payable": false,
      "stateMutability": "view",
      "type": "function",
      "signature": "0xacad8667"
    },
    {
      "constant": true,
      "inputs": [
        {
          "name": "",
          "type": "bytes32"
        }
      ],
      "name": "maestroEmpresas",
      "outputs": [
        {
          "name": "",
          "type": "address"
        }
      ],
      "payable": false,
      "stateMutability": "view",
      "type": "function",
      "signature": "0xb65a8259"
    },
    {
      "constant": true,
      "inputs": [],
      "name": "PrecioToken",
      "outputs": [
        {
          "name": "",
          "type": "uint256"
        }
      ],
      "payable": false,
      "stateMutability": "view",
      "type": "function",
      "signature": "0xcfa6628a"
    },
    {
      "constant": true,
      "inputs": [
        {
          "name": "",
          "type": "uint256"
        }
      ],
      "name": "mappingSeguros",
      "outputs": [
        {
          "name": "",
          "type": "address"
        }
      ],
      "payable": false,
      "stateMutability": "view",
      "type": "function",
      "signature": "0xe7ee48ef"
    },
    {
      "constant": true,
      "inputs": [
        {
          "name": "",
          "type": "uint256"
        }
      ],
      "name": "aseguradoraPrecioCiudad",
      "outputs": [
        {
          "name": "",
          "type": "uint256"
        }
      ],
      "payable": false,
      "stateMutability": "view",
      "type": "function",
      "signature": "0xef9c6425"
    },
    {
      "constant": true,
      "inputs": [
        {
          "name": "",
          "type": "uint256"
        },
        {
          "name": "",
          "type": "uint256"
        }
      ],
      "name": "coches",
      "outputs": [
        {
          "name": "IdCoche",
          "type": "uint256"
        },
        {
          "name": "KmCarretera",
          "type": "uint256"
        },
        {
          "name": "KmCiudad",
          "type": "uint256"
        },
        {
          "name": "TiempoAparcado",
          "type": "uint256"
        },
        {
          "name": "IdSeguro",
          "type": "uint256"
        },
        {
          "name": "entregado",
          "type": "bool"
        }
      ],
      "payable": false,
      "stateMutability": "view",
      "type": "function",
      "signature": "0xf15fa0c6"
    },
    {
      "constant": true,
      "inputs": [
        {
          "name": "",
          "type": "uint256"
        }
      ],
      "name": "aseguradoraPrecioCarretera",
      "outputs": [
        {
          "name": "",
          "type": "uint256"
        }
      ],
      "payable": false,
      "stateMutability": "view",
      "type": "function",
      "signature": "0xfd99aeec"
    },
    {
      "inputs": [
        {
          "name": "_tokenContract",
          "type": "address"
        },
        {
          "name": "_PrecioToken",
          "type": "uint256"
        }
      ],
      "payable": false,
      "stateMutability": "nonpayable",
      "type": "constructor",
      "signature": "constructor"
    },
    {
      "anonymous": false,
      "inputs": [
        {
          "indexed": false,
          "name": "_comprador",
          "type": "address"
        },
        {
          "indexed": false,
          "name": "_tokens",
          "type": "uint256"
        }
      ],
      "name": "Venta",
      "type": "event",
      "signature": "0x73ab9be6246a9eb60faba3a7d2a824cb1915fbf017b6cdf338d65fbcf0f5bc9f"
    },
    {
      "anonymous": false,
      "inputs": [
        {
          "indexed": false,
          "name": "_comprador",
          "type": "address"
        },
        {
          "indexed": false,
          "name": "_tokens",
          "type": "uint256"
        }
      ],
      "name": "Prestamo",
      "type": "event",
      "signature": "0x40da82cf732acb6b1f2fc10a49ce18b1e0938475b2d40935edc9cf928e70967d"
    },
    {
      "anonymous": false,
      "inputs": [
        {
          "indexed": false,
          "name": "_depositante",
          "type": "address"
        },
        {
          "indexed": false,
          "name": "cantidad",
          "type": "uint256"
        }
      ],
      "name": "Pago",
      "type": "event",
      "signature": "0xb9dde9ba07bee40c833192b2e4701d1cee406ee484c22f55e60f924bb379ab8e"
    },
    {
      "anonymous": false,
      "inputs": [
        {
          "indexed": false,
          "name": "_retira",
          "type": "address"
        },
        {
          "indexed": false,
          "name": "cantidad",
          "type": "uint256"
        }
      ],
      "name": "Retiro",
      "type": "event",
      "signature": "0xebdddb82f24ed849145a8f144818f7d383a31047a4a7f30b928c65100f9b8eab"
    },
    {
      "anonymous": false,
      "inputs": [
        {
          "indexed": false,
          "name": "record",
          "type": "uint256"
        }
      ],
      "name": "nuevoCliente",
      "type": "event",
      "signature": "0x6ba4ead7636d04e0c95d33e655db0853aa65a450a0414cf4be9f3f4bf8f35c32"
    },
    {
      "anonymous": false,
      "inputs": [
        {
          "indexed": false,
          "name": "entregado",
          "type": "uint256"
        }
      ],
      "name": "CostoSeguro",
      "type": "event",
      "signature": "0x5a4bdf0af9a858387f554b96cd81418e7570789fde7c70afe9ff7d8e6cfaffe5"
    },
    {
      "anonymous": false,
      "inputs": [
        {
          "indexed": false,
          "name": "",
          "type": "bytes"
        }
      ],
      "name": "newRandomNumber_bytes",
      "type": "event",
      "signature": "0xab2f9e7e7e74d54a49792fd7ff57c497b14cd2bad49d7537937a5a527a50f0ac"
    },
    {
      "anonymous": false,
      "inputs": [
        {
          "indexed": false,
          "name": "",
          "type": "uint256"
        }
      ],
      "name": "newRandomNumber_uint",
      "type": "event",
      "signature": "0xb084d8f103616749e12a8d363f0b50f8bb8568b4086c093bd88140c74042c47a"
    },
    {
      "constant": false,
      "inputs": [
        {
          "name": "_numeroTokens",
          "type": "uint256"
        }
      ],
      "name": "compraTokens",
      "outputs": [],
      "payable": true,
      "stateMutability": "payable",
      "type": "function",
      "signature": "0xc29dd7c9"
    },
    {
      "constant": false,
      "inputs": [
        {
          "name": "_numeroTokens",
          "type": "uint256"
        }
      ],
      "name": "prestamoTokens",
      "outputs": [],
      "payable": true,
      "stateMutability": "payable",
      "type": "function",
      "signature": "0xb4e89990"
    },
    {
      "constant": false,
      "inputs": [
        {
          "name": "_pago",
          "type": "uint256"
        },
        {
          "name": "precioKmCiudad",
          "type": "uint256"
        },
        {
          "name": "precioKmCarretera",
          "type": "uint256"
        },
        {
          "name": "precioAparcado",
          "type": "uint256"
        },
        {
          "name": "tipoCoche",
          "type": "uint256"
        },
        {
          "name": "IdSeguro",
          "type": "uint256"
        }
      ],
      "name": "pagarTokens",
      "outputs": [],
      "payable": true,
      "stateMutability": "payable",
      "type": "function",
      "signature": "0x79dab751"
    },
    {
      "constant": false,
      "inputs": [
        {
          "name": "value",
          "type": "uint256"
        }
      ],
      "name": "aumentarSupply",
      "outputs": [
        {
          "name": "",
          "type": "bool"
        }
      ],
      "payable": false,
      "stateMutability": "nonpayable",
      "type": "function",
      "signature": "0x5877cbe5"
    },
    {
      "constant": false,
      "inputs": [],
      "name": "DetenerContratoCompraToken",
      "outputs": [
        {
          "name": "",
          "type": "bool"
        }
      ],
      "payable": false,
      "stateMutability": "nonpayable",
      "type": "function",
      "signature": "0x567b616b"
    },
    {
      "constant": false,
      "inputs": [],
      "name": "ActivarContratoCompraToken",
      "outputs": [
        {
          "name": "",
          "type": "bool"
        }
      ],
      "payable": false,
      "stateMutability": "nonpayable",
      "type": "function",
      "signature": "0xdd755b17"
    },
    {
      "constant": false,
      "inputs": [
        {
          "name": "idEmpresa",
          "type": "uint256"
        },
        {
          "name": "precioAparcado",
          "type": "uint256"
        }
      ],
      "name": "actualizarPrecioAparcado",
      "outputs": [],
      "payable": false,
      "stateMutability": "nonpayable",
      "type": "function",
      "signature": "0x7208177a"
    },
    {
      "constant": false,
      "inputs": [
        {
          "name": "idEmpresa",
          "type": "uint256"
        },
        {
          "name": "precioCarretera",
          "type": "uint256"
        }
      ],
      "name": "actualizarPrecioCarretera",
      "outputs": [],
      "payable": false,
      "stateMutability": "nonpayable",
      "type": "function",
      "signature": "0x02f58854"
    },
    {
      "constant": false,
      "inputs": [
        {
          "name": "idEmpresa",
          "type": "uint256"
        },
        {
          "name": "precioCiudad",
          "type": "uint256"
        }
      ],
      "name": "actualizarPrecioCiudad",
      "outputs": [],
      "payable": false,
      "stateMutability": "nonpayable",
      "type": "function",
      "signature": "0xa87e71be"
    },
    {
      "constant": false,
      "inputs": [
        {
          "name": "TokensSeguro",
          "type": "uint256"
        },
        {
          "name": "tipoCoche",
          "type": "uint256"
        },
        {
          "name": "IdCoche",
          "type": "uint256"
        }
      ],
      "name": "PagoSeguro",
      "outputs": [],
      "payable": true,
      "stateMutability": "payable",
      "type": "function",
      "signature": "0x6e6eeaf3"
    },
    {
      "constant": false,
      "inputs": [
        {
          "name": "TokensFinanciacion",
          "type": "uint256"
        },
        {
          "name": "TokensPrestamo",
          "type": "uint256"
        }
      ],
      "name": "PagoFinanciacion",
      "outputs": [],
      "payable": true,
      "stateMutability": "payable",
      "type": "function",
      "signature": "0x2368966c"
    },
    {
      "constant": false,
      "inputs": [],
      "name": "CheckAdmin",
      "outputs": [
        {
          "name": "",
          "type": "bool"
        }
      ],
      "payable": false,
      "stateMutability": "nonpayable",
      "type": "function",
      "signature": "0x4e4dc82c"
    },
    {
      "constant": true,
      "inputs": [],
      "name": "fetchTypeUser",
      "outputs": [
        {
          "name": "",
          "type": "uint256"
        }
      ],
      "payable": false,
      "stateMutability": "view",
      "type": "function",
      "signature": "0x7b57ec10"
    },
    {
      "constant": false,
      "inputs": [
        {
          "name": "TypeUser",
          "type": "uint256"
        },
        {
          "name": "DNI",
          "type": "string"
        },
        {
          "name": "VATNumber",
          "type": "bytes32"
        },
        {
          "name": "record",
          "type": "uint256"
        }
      ],
      "name": "NewUser",
      "outputs": [],
      "payable": false,
      "stateMutability": "nonpayable",
      "type": "function",
      "signature": "0x0c04b4e8"
    },
    {
      "constant": false,
      "inputs": [
        {
          "name": "TypeUser",
          "type": "uint256"
        },
        {
          "name": "DNI",
          "type": "string"
        },
        {
          "name": "VATNumber",
          "type": "bytes32"
        },
        {
          "name": "record",
          "type": "uint256"
        }
      ],
      "name": "NewEmpresa",
      "outputs": [],
      "payable": false,
      "stateMutability": "nonpayable",
      "type": "function",
      "signature": "0x96a63f2d"
    },
    {
      "constant": false,
      "inputs": [
        {
          "name": "tipoCoche",
          "type": "uint256"
        },
        {
          "name": "IdCoche",
          "type": "uint256"
        }
      ],
      "name": "NewCoche",
      "outputs": [],
      "payable": false,
      "stateMutability": "nonpayable",
      "type": "function",
      "signature": "0x73feb0e8"
    },
    {
      "constant": false,
      "inputs": [
        {
          "name": "tipoCoche",
          "type": "uint256"
        },
        {
          "name": "IdCoche",
          "type": "uint256"
        }
      ],
      "name": "ValidarCoche",
      "outputs": [],
      "payable": false,
      "stateMutability": "nonpayable",
      "type": "function",
      "signature": "0xa2a19e57"
    },
    {
      "constant": true,
      "inputs": [
        {
          "name": "tipoCoche",
          "type": "uint256"
        }
      ],
      "name": "consultaArray",
      "outputs": [
        {
          "name": "count",
          "type": "uint256"
        }
      ],
      "payable": false,
      "stateMutability": "view",
      "type": "function",
      "signature": "0xf48c0224"
    },
    {
      "constant": true,
      "inputs": [
        {
          "name": "tipoCoche",
          "type": "uint256"
        },
        {
          "name": "posicion",
          "type": "uint256"
        }
      ],
      "name": "consultaArrayDatos",
      "outputs": [
        {
          "name": "valor",
          "type": "uint256"
        }
      ],
      "payable": false,
      "stateMutability": "view",
      "type": "function",
      "signature": "0x680aff39"
    },
    {
      "constant": false,
      "inputs": [
        {
          "name": "tipoCoche",
          "type": "uint256"
        }
      ],
      "name": "EliminarValorArray",
      "outputs": [
        {
          "name": "array",
          "type": "uint256[]"
        }
      ],
      "payable": false,
      "stateMutability": "nonpayable",
      "type": "function",
      "signature": "0x1f709853"
    },
    {
      "constant": false,
      "inputs": [
        {
          "name": "dir",
          "type": "address"
        }
      ],
      "name": "deleteUser",
      "outputs": [
        {
          "name": "",
          "type": "bool"
        }
      ],
      "payable": false,
      "stateMutability": "nonpayable",
      "type": "function",
      "signature": "0x5c60f226"
    },
    {
      "constant": false,
      "inputs": [
        {
          "name": "maxCredit",
          "type": "uint256"
        }
      ],
      "name": "asignaCreditoMaximo",
      "outputs": [
        {
          "name": "",
          "type": "uint256"
        }
      ],
      "payable": false,
      "stateMutability": "nonpayable",
      "type": "function",
      "signature": "0xadc4f95c"
    }
  ],
  "bytecode": "0x60806040526000600a60006101000a81548160ff0219169083151502179055506000600a60016101000a81548160ff02191690831515021790555034801561004657600080fd5b5060405160408061362f8339810180604052604081101561006657600080fd5b810190808051906020019092919080519060200190929190505050336000806101000a81548173ffffffffffffffffffffffffffffffffffffffff021916908373ffffffffffffffffffffffffffffffffffffffff16021790555033600660006101000a81548173ffffffffffffffffffffffffffffffffffffffff021916908373ffffffffffffffffffffffffffffffffffffffff16021790555081600760006101000a81548173ffffffffffffffffffffffffffffffffffffffff021916908373ffffffffffffffffffffffffffffffffffffffff1602179055508060088190555050506134d48061015b6000396000f3fe6080604052600436106101e3576000357c0100000000000000000000000000000000000000000000000000000000900463ffffffff16806302f58854146101e85780630c04b4e81461022d57806312029e60146103135780631f709853146103425780632368966c146103d257806327dc297e1461040a57806338bbfa50146104dc5780633968cc47146106455780634ca6d8c1146106aa5780634e4dc82c1461070357806355a373d614610732578063567b616b146107895780635877cbe5146107b85780635977a96a1461080b5780635c60f226146108705780635d8d223a146108d9578063680aff39146109045780636cbbb62d1461095d5780636e6eeaf3146109ac5780637208177a146109ee57806373feb0e814610a3357806379dab75114610a785780637b57ec1014610ad857806396a63f2d14610b03578063a2a19e5714610be9578063a87430ba14610c2e578063a87e71be14610d3e578063acad866714610d83578063adc4f95c14610db2578063b4e8999014610e01578063b65a825914610e2f578063c29dd7c914610eaa578063cfa6628a14610ed8578063dd755b1714610f03578063e7ee48ef14610f32578063ef9c642514610fad578063f15fa0c614610ffc578063f48c02241461107c578063fd99aeec146110cb575b600080fd5b3480156101f457600080fd5b5061022b6004803603604081101561020b57600080fd5b81019080803590602001909291908035906020019092919050505061111a565b005b34801561023957600080fd5b506103116004803603608081101561025057600080fd5b81019080803590602001909291908035906020019064010000000081111561027757600080fd5b82018360208201111561028957600080fd5b803590602001918460018302840111640100000000831117156102ab57600080fd5b91908080601f016020809104026020016040519081016040528093929190818152602001838380828437600081840152601f19601f8201169050808301925050505050505091929192908035906020019092919080359060200190929190505050611158565b005b34801561031f57600080fd5b5061032861136e565b604051808215151515815260200191505060405180910390f35b34801561034e57600080fd5b5061037b6004803603602081101561036557600080fd5b8101908080359060200190929190505050611381565b6040518080602001828103825283818151815260200191508051906020019060200280838360005b838110156103be5780820151818401526020810190506103a3565b505050509050019250505060405180910390f35b610408600480360360408110156103e857600080fd5b8101908080359060200190929190803590602001909291905050506114aa565b005b34801561041657600080fd5b506104da6004803603604081101561042d57600080fd5b81019080803590602001909291908035906020019064010000000081111561045457600080fd5b82018360208201111561046657600080fd5b8035906020019184600183028401116401000000008311171561048857600080fd5b91908080601f016020809104026020016040519081016040528093929190818152602001838380828437600081840152601f19601f8201169050808301925050505050505091929192905050506117aa565b005b3480156104e857600080fd5b50610643600480360360608110156104ff57600080fd5b81019080803590602001909291908035906020019064010000000081111561052657600080fd5b82018360208201111561053857600080fd5b8035906020019184600183028401116401000000008311171561055a57600080fd5b91908080601f016020809104026020016040519081016040528093929190818152602001838380828437600081840152601f19601f820116905080830192505050505050509192919290803590602001906401000000008111156105bd57600080fd5b8201836020820111156105cf57600080fd5b803590602001918460018302840111640100000000831117156105f157600080fd5b91908080601f016020809104026020016040519081016040528093929190818152602001838380828437600081840152601f19601f8201169050808301925050505050505091929192905050506117ed565b005b34801561065157600080fd5b506106946004803603602081101561066857600080fd5b81019080803573ffffffffffffffffffffffffffffffffffffffff1690602001909291905050506117f2565b6040518082815260200191505060405180910390f35b3480156106b657600080fd5b506106ed600480360360408110156106cd57600080fd5b81019080803590602001909291908035906020019092919050505061180a565b6040518082815260200191505060405180910390f35b34801561070f57600080fd5b5061071861183a565b604051808215151515815260200191505060405180910390f35b34801561073e57600080fd5b506107476118e9565b604051808273ffffffffffffffffffffffffffffffffffffffff1673ffffffffffffffffffffffffffffffffffffffff16815260200191505060405180910390f35b34801561079557600080fd5b5061079e61190f565b604051808215151515815260200191505060405180910390f35b3480156107c457600080fd5b506107f1600480360360208110156107db57600080fd5b810190808035906020019092919050505061198a565b604051808215151515815260200191505060405180910390f35b34801561081757600080fd5b5061085a6004803603602081101561082e57600080fd5b81019080803573ffffffffffffffffffffffffffffffffffffffff169060200190929190505050611adf565b6040518082815260200191505060405180910390f35b34801561087c57600080fd5b506108bf6004803603602081101561089357600080fd5b81019080803573ffffffffffffffffffffffffffffffffffffffff169060200190929190505050611af7565b604051808215151515815260200191505060405180910390f35b3480156108e557600080fd5b506108ee611bc5565b6040518082815260200191505060405180910390f35b34801561091057600080fd5b506109476004803603604081101561092757600080fd5b810190808035906020019092919080359060200190929190505050611bcb565b6040518082815260200191505060405180910390f35b34801561096957600080fd5b506109966004803603602081101561098057600080fd5b8101908080359060200190929190505050611c00565b6040518082815260200191505060405180910390f35b6109ec600480360360608110156109c257600080fd5b81019080803590602001909291908035906020019092919080359060200190929190505050611c18565b005b3480156109fa57600080fd5b50610a3160048036036040811015610a1157600080fd5b810190808035906020019092919080359060200190929190505050612029565b005b348015610a3f57600080fd5b50610a7660048036036040811015610a5657600080fd5b810190808035906020019092919080359060200190929190505050612067565b005b610ad6600480360360c0811015610a8e57600080fd5b81019080803590602001909291908035906020019092919080359060200190929190803590602001909291908035906020019092919080359060200190929190505050612178565b005b348015610ae457600080fd5b50610aed61261a565b6040518082815260200191505060405180910390f35b348015610b0f57600080fd5b50610be760048036036080811015610b2657600080fd5b810190808035906020019092919080359060200190640100000000811115610b4d57600080fd5b820183602082011115610b5f57600080fd5b80359060200191846001830284011164010000000083111715610b8157600080fd5b91908080601f016020809104026020016040519081016040528093929190818152602001838380828437600081840152601f19601f8201169050808301925050505050505091929192908035906020019092919080359060200190929190505050612685565b005b348015610bf557600080fd5b50610c2c60048036036040811015610c0c57600080fd5b8101908080359060200190929190803590602001909291905050506128b6565b005b348015610c3a57600080fd5b50610c7d60048036036020811015610c5157600080fd5b81019080803573ffffffffffffffffffffffffffffffffffffffff169060200190929190505050612959565b604051808c8152602001806020018b81526020018a815260200189815260200188815260200187815260200186815260200185815260200184815260200183815260200182810382528c818151815260200191508051906020019080838360005b83811015610cf9578082015181840152602081019050610cde565b50505050905090810190601f168015610d265780820380516001836020036101000a031916815260200191505b509c5050505050505050505050505060405180910390f35b348015610d4a57600080fd5b50610d8160048036036040811015610d6157600080fd5b810190808035906020019092919080359060200190929190505050612a4b565b005b348015610d8f57600080fd5b50610d98612a89565b604051808215151515815260200191505060405180910390f35b348015610dbe57600080fd5b50610deb60048036036020811015610dd557600080fd5b8101908080359060200190929190505050612a9c565b6040518082815260200191505060405180910390f35b610e2d60048036036020811015610e1757600080fd5b8101908080359060200190929190505050612b50565b005b348015610e3b57600080fd5b50610e6860048036036020811015610e5257600080fd5b8101908080359060200190929190505050612eff565b604051808273ffffffffffffffffffffffffffffffffffffffff1673ffffffffffffffffffffffffffffffffffffffff16815260200191505060405180910390f35b610ed660048036036020811015610ec057600080fd5b8101908080359060200190929190505050612f32565b005b348015610ee457600080fd5b50610eed6131fa565b6040518082815260200191505060405180910390f35b348015610f0f57600080fd5b50610f18613200565b604051808215151515815260200191505060405180910390f35b348015610f3e57600080fd5b50610f6b60048036036020811015610f5557600080fd5b810190808035906020019092919050505061327b565b604051808273ffffffffffffffffffffffffffffffffffffffff1673ffffffffffffffffffffffffffffffffffffffff16815260200191505060405180910390f35b348015610fb957600080fd5b50610fe660048036036020811015610fd057600080fd5b81019080803590602001909291905050506132ae565b6040518082815260200191505060405180910390f35b34801561100857600080fd5b5061103f6004803603604081101561101f57600080fd5b8101908080359060200190929190803590602001909291905050506132c6565b6040518087815260200186815260200185815260200184815260200183815260200182151515158152602001965050505050505060405180910390f35b34801561108857600080fd5b506110b56004803603602081101561109f57600080fd5b810190808035906020019092919050505061331c565b6040518082815260200191505060405180910390f35b3480156110d757600080fd5b50611104600480360360208110156110ee57600080fd5b810190808035906020019092919050505061333c565b6040518082815260200191505060405180910390f35b60001515600a60009054906101000a900460ff16151514151561113c57600080fd5b80600d6000848152602001908152602001600020819055505050565b60001515600a60009054906101000a900460ff16151514151561117a57600080fd5b6000601160003373ffffffffffffffffffffffffffffffffffffffff1673ffffffffffffffffffffffffffffffffffffffff168152602001908152602001600020541415156111c857600080fd5b601160003373ffffffffffffffffffffffffffffffffffffffff1673ffffffffffffffffffffffffffffffffffffffff16815260200190815260200160002060008154809291906001019190505550610160604051908101604052806000815260200184815260200183815260200185815260200182815260200160008152602001600081526020016000815260200160008152602001600081526020016000815250600f60003373ffffffffffffffffffffffffffffffffffffffff1673ffffffffffffffffffffffffffffffffffffffff1681526020019081526020016000206000820151816000015560208201518160010190805190602001906112d092919061338f565b5060408201518160020155606082015181600301556080820151816004015560a0820151816005015560c0820151816006015560e082015181600701556101008201518160080155610120820151816009015561014082015181600a01559050507f6ba4ead7636d04e0c95d33e655db0853aa65a450a0414cf4be9f3f4bf8f35c32846040518082815260200191505060405180910390a150505050565b600a60009054906101000a900460ff1681565b6060600080905060008190505b60016013600086815260200190815260200160002080549050038110156114185760136000858152602001908152602001600020600182018154811015156113d257fe5b906000526020600020015460136000868152602001908152602001600020828154811015156113fd57fe5b9060005260206000200181905550808060010191505061138e565b506013600084815260200190815260200160002080548091906001900361143f919061340f565b506013600084815260200190815260200160002080548060200260200160405190810160405280929190818152602001828054801561149d57602002820191906000526020600020905b815481526020019060010190808311611489575b5050505050915050919050565b60001515600a60009054906101000a900460ff1615151415156114cc57600080fd5b81600760009054906101000a900473ffffffffffffffffffffffffffffffffffffffff1673ffffffffffffffffffffffffffffffffffffffff166370a08231336040518263ffffffff167c0100000000000000000000000000000000000000000000000000000000028152600401808273ffffffffffffffffffffffffffffffffffffffff1673ffffffffffffffffffffffffffffffffffffffff16815260200191505060206040518083038186803b15801561158857600080fd5b505afa15801561159c573d6000803e3d6000fd5b505050506040513d60208110156115b257600080fd5b8101908080519060200190929190505050101515156115d057600080fd5b600760009054906101000a900473ffffffffffffffffffffffffffffffffffffffff1673ffffffffffffffffffffffffffffffffffffffff166323b872dd3330856040518463ffffffff167c0100000000000000000000000000000000000000000000000000000000028152600401808473ffffffffffffffffffffffffffffffffffffffff1673ffffffffffffffffffffffffffffffffffffffff1681526020018373ffffffffffffffffffffffffffffffffffffffff1673ffffffffffffffffffffffffffffffffffffffff1681526020018281526020019350505050602060405180830381600087803b1580156116c957600080fd5b505af11580156116dd573d6000803e3d6000fd5b505050506040513d60208110156116f357600080fd5b8101908080519060200190929190505050151561170f57600080fd5b8160096000828254019250508190555080600f60003373ffffffffffffffffffffffffffffffffffffffff1673ffffffffffffffffffffffffffffffffffffffff168152602001908152602001600020600a01600082825403925050819055507f5a4bdf0af9a858387f554b96cd81418e7570789fde7c70afe9ff7d8e6cfaffe5826040518082815260200191505060405180910390a15050565b6117e9828260006040519080825280601f01601f1916602001820160405280156117e35781602001600182028038833980820191505090505b506117ed565b5050565b505050565b60116020528060005260406000206000915090505481565b60136020528160005260406000208181548110151561182557fe5b90600052602060002001600091509150505481565b60008060009054906101000a900473ffffffffffffffffffffffffffffffffffffffff1673ffffffffffffffffffffffffffffffffffffffff163373ffffffffffffffffffffffffffffffffffffffff1614151561189757600080fd5b60001515600a60009054906101000a900460ff1615151415156118b957600080fd5b6001600a60016101000a81548160ff021916908315150217905550600a60019054906101000a900460ff16905090565b600760009054906101000a900473ffffffffffffffffffffffffffffffffffffffff1681565b60008060009054906101000a900473ffffffffffffffffffffffffffffffffffffffff1673ffffffffffffffffffffffffffffffffffffffff163373ffffffffffffffffffffffffffffffffffffffff1614151561196c57600080fd5b6001600a60006101000a81548160ff02191690831515021790555090565b60008060009054906101000a900473ffffffffffffffffffffffffffffffffffffffff1673ffffffffffffffffffffffffffffffffffffffff163373ffffffffffffffffffffffffffffffffffffffff161415156119e757600080fd5b60001515600a60009054906101000a900460ff161515141515611a0957600080fd5b600760009054906101000a900473ffffffffffffffffffffffffffffffffffffffff1673ffffffffffffffffffffffffffffffffffffffff1663468d2649836040518263ffffffff167c010000000000000000000000000000000000000000000000000000000002815260040180828152602001915050602060405180830381600087803b158015611a9a57600080fd5b505af1158015611aae573d6000803e3d6000fd5b505050506040513d6020811015611ac457600080fd5b81019080805190602001909291905050505060019050919050565b600b6020528060005260406000206000915090505481565b6000801515600a60009054906101000a900460ff161515141515611b1a57600080fd5b600f60008373ffffffffffffffffffffffffffffffffffffffff1673ffffffffffffffffffffffffffffffffffffffff168152602001908152602001600020600080820160009055600182016000611b72919061343b565b60028201600090556003820160009055600482016000905560058201600090556006820160009055600782016000905560088201600090556009820160009055600a820160009055505060019050919050565b60095481565b60006013600084815260200190815260200160002082815481101515611bed57fe5b9060005260206000200154905092915050565b600c6020528060005260406000206000915090505481565b60001515600a60009054906101000a900460ff161515141515611c3a57600080fd5b82600760009054906101000a900473ffffffffffffffffffffffffffffffffffffffff1673ffffffffffffffffffffffffffffffffffffffff166370a08231336040518263ffffffff167c0100000000000000000000000000000000000000000000000000000000028152600401808273ffffffffffffffffffffffffffffffffffffffff1673ffffffffffffffffffffffffffffffffffffffff16815260200191505060206040518083038186803b158015611cf657600080fd5b505afa158015611d0a573d6000803e3d6000fd5b505050506040513d6020811015611d2057600080fd5b810190808051906020019092919050505010151515611d3e57600080fd5b600760009054906101000a900473ffffffffffffffffffffffffffffffffffffffff1673ffffffffffffffffffffffffffffffffffffffff166323b872dd3330866040518463ffffffff167c0100000000000000000000000000000000000000000000000000000000028152600401808473ffffffffffffffffffffffffffffffffffffffff1673ffffffffffffffffffffffffffffffffffffffff1681526020018373ffffffffffffffffffffffffffffffffffffffff1673ffffffffffffffffffffffffffffffffffffffff1681526020018281526020019350505050602060405180830381600087803b158015611e3757600080fd5b505af1158015611e4b573d6000803e3d6000fd5b505050506040513d6020811015611e6157600080fd5b81019080805190602001909291905050501515611e7d57600080fd5b600160106000848152602001908152602001600020600083815260200190815260200160002060050160006101000a81548160ff0219169083151502179055506000600f60003373ffffffffffffffffffffffffffffffffffffffff1673ffffffffffffffffffffffffffffffffffffffff168152602001908152602001600020600001819055506000600f60003373ffffffffffffffffffffffffffffffffffffffff1673ffffffffffffffffffffffffffffffffffffffff168152602001908152602001600020600901819055506000600f60003373ffffffffffffffffffffffffffffffffffffffff1673ffffffffffffffffffffffffffffffffffffffff168152602001908152602001600020600901819055506000600f60003373ffffffffffffffffffffffffffffffffffffffff1673ffffffffffffffffffffffffffffffffffffffff16815260200190815260200160002060090181905550826009600082825401925050819055507f5a4bdf0af9a858387f554b96cd81418e7570789fde7c70afe9ff7d8e6cfaffe5836040518082815260200191505060405180910390a1505050565b60001515600a60009054906101000a900460ff16151514151561204b57600080fd5b80600c6000848152602001908152602001600020819055505050565b60001515600a60009054906101000a900460ff16151514151561208957600080fd5b60c0604051908101604052808281526020016000815260200160008152602001600081526020016000815260200160001515815250601060008481526020019081526020016000206000838152602001908152602001600020600082015181600001556020820151816001015560408201518160020155606082015181600301556080820151816004015560a08201518160050160006101000a81548160ff021916908315150217905550905050601360008381526020019081526020016000208190806001815401808255809150509060018203906000526020600020016000909192909190915055505050565b60001515600a60009054906101000a900460ff16151514151561219a57600080fd5b85600760009054906101000a900473ffffffffffffffffffffffffffffffffffffffff1673ffffffffffffffffffffffffffffffffffffffff166370a08231336040518263ffffffff167c0100000000000000000000000000000000000000000000000000000000028152600401808273ffffffffffffffffffffffffffffffffffffffff1673ffffffffffffffffffffffffffffffffffffffff16815260200191505060206040518083038186803b15801561225657600080fd5b505afa15801561226a573d6000803e3d6000fd5b505050506040513d602081101561228057600080fd5b81019080805190602001909291905050501015151561229e57600080fd5b600760009054906101000a900473ffffffffffffffffffffffffffffffffffffffff1673ffffffffffffffffffffffffffffffffffffffff166323b872dd3330896040518463ffffffff167c0100000000000000000000000000000000000000000000000000000000028152600401808473ffffffffffffffffffffffffffffffffffffffff1673ffffffffffffffffffffffffffffffffffffffff1681526020018373ffffffffffffffffffffffffffffffffffffffff1673ffffffffffffffffffffffffffffffffffffffff1681526020018281526020019350505050602060405180830381600087803b15801561239757600080fd5b505af11580156123ab573d6000803e3d6000fd5b505050506040513d60208110156123c157600080fd5b810190808051906020019092919050505015156123dd57600080fd5b82600f60003373ffffffffffffffffffffffffffffffffffffffff1673ffffffffffffffffffffffffffffffffffffffff1681526020019081526020016000206005018190555083600f60003373ffffffffffffffffffffffffffffffffffffffff1673ffffffffffffffffffffffffffffffffffffffff1681526020019081526020016000206006018190555084600f60003373ffffffffffffffffffffffffffffffffffffffff1673ffffffffffffffffffffffffffffffffffffffff1681526020019081526020016000206007018190555060006013600084815260200190815260200160002060008154811015156124d557fe5b9060005260206000200154905080600f60003373ffffffffffffffffffffffffffffffffffffffff1673ffffffffffffffffffffffffffffffffffffffff1681526020019081526020016000206009018190555082600f60003373ffffffffffffffffffffffffffffffffffffffff1673ffffffffffffffffffffffffffffffffffffffff1681526020019081526020016000206000018190555081601060008581526020019081526020016000206000838152602001908152602001600020600401819055506125a583611381565b507fb9dde9ba07bee40c833192b2e4701d1cee406ee484c22f55e60f924bb379ab8e3388604051808373ffffffffffffffffffffffffffffffffffffffff1673ffffffffffffffffffffffffffffffffffffffff1681526020018281526020019250505060405180910390a150505050505050565b6000801515600a60009054906101000a900460ff16151514151561263d57600080fd5b600f60003373ffffffffffffffffffffffffffffffffffffffff1673ffffffffffffffffffffffffffffffffffffffff16815260200190815260200160002060030154905090565b60001515600a60009054906101000a900460ff1615151415156126a757600080fd5b6000601160003373ffffffffffffffffffffffffffffffffffffffff1673ffffffffffffffffffffffffffffffffffffffff168152602001908152602001600020541415156126f557600080fd5b601160003373ffffffffffffffffffffffffffffffffffffffff1673ffffffffffffffffffffffffffffffffffffffff16815260200190815260200160002060008154809291906001019190505550610160604051908101604052806000815260200184815260200183815260200185815260200182815260200160008152602001600081526020016000815260200160008152602001600081526020016000815250600f60003373ffffffffffffffffffffffffffffffffffffffff1673ffffffffffffffffffffffffffffffffffffffff1681526020019081526020016000206000820151816000015560208201518160010190805190602001906127fd92919061338f565b5060408201518160020155606082015181600301556080820151816004015560a0820151816005015560c0820151816006015560e082015181600701556101008201518160080155610120820151816009015561014082015181600a0155905050336012600084815260200190815260200160002060006101000a81548173ffffffffffffffffffffffffffffffffffffffff021916908373ffffffffffffffffffffffffffffffffffffffff16021790555050505050565b60001515600a60009054906101000a900460ff1615151415156128d857600080fd5b600060106000848152602001908152602001600020600083815260200190815260200160002060050160006101000a81548160ff021916908315150217905550601360008381526020019081526020016000208190806001815401808255809150509060018203906000526020600020016000909192909190915055505050565b600f602052806000526040600020600091509050806000015490806001018054600181600116156101000203166002900480601f016020809104026020016040519081016040528092919081815260200182805460018160011615610100020316600290048015612a0b5780601f106129e057610100808354040283529160200191612a0b565b820191906000526020600020905b8154815290600101906020018083116129ee57829003601f168201915b50505050509080600201549080600301549080600401549080600501549080600601549080600701549080600801549080600901549080600a015490508b565b60001515600a60009054906101000a900460ff161515141515612a6d57600080fd5b80600e6000848152602001908152602001600020819055505050565b600a60019054906101000a900460ff1681565b6000801515600a60009054906101000a900460ff161515141515612abf57600080fd5b81600f60003373ffffffffffffffffffffffffffffffffffffffff1673ffffffffffffffffffffffffffffffffffffffff16815260200190815260200160002060080181905550600f60003373ffffffffffffffffffffffffffffffffffffffff1673ffffffffffffffffffffffffffffffffffffffff168152602001908152602001600020600801549050919050565b60001515600a60009054906101000a900460ff161515141515612b7257600080fd5b600081111515612b8157600080fd5b600f60003373ffffffffffffffffffffffffffffffffffffffff1673ffffffffffffffffffffffffffffffffffffffff168152602001908152602001600020600801548111151515612bd257600080fd5b80600760009054906101000a900473ffffffffffffffffffffffffffffffffffffffff1673ffffffffffffffffffffffffffffffffffffffff166370a08231306040518263ffffffff167c0100000000000000000000000000000000000000000000000000000000028152600401808273ffffffffffffffffffffffffffffffffffffffff1673ffffffffffffffffffffffffffffffffffffffff16815260200191505060206040518083038186803b158015612c8e57600080fd5b505afa158015612ca2573d6000803e3d6000fd5b505050506040513d6020811015612cb857600080fd5b810190808051906020019092919050505010151515612cd657600080fd5b600760009054906101000a900473ffffffffffffffffffffffffffffffffffffffff1673ffffffffffffffffffffffffffffffffffffffff1663a9059cbb33836040518363ffffffff167c0100000000000000000000000000000000000000000000000000000000028152600401808373ffffffffffffffffffffffffffffffffffffffff1673ffffffffffffffffffffffffffffffffffffffff16815260200182815260200192505050602060405180830381600087803b158015612d9b57600080fd5b505af1158015612daf573d6000803e3d6000fd5b505050506040513d6020811015612dc557600080fd5b81019080805190602001909291905050501515612de157600080fd5b8060096000828254019250508190555080600f60003373ffffffffffffffffffffffffffffffffffffffff1673ffffffffffffffffffffffffffffffffffffffff1681526020019081526020016000206008016000828254039250508190555080600f60003373ffffffffffffffffffffffffffffffffffffffff1673ffffffffffffffffffffffffffffffffffffffff168152602001908152602001600020600a01600082825401925050819055507f40da82cf732acb6b1f2fc10a49ce18b1e0938475b2d40935edc9cf928e70967d3382604051808373ffffffffffffffffffffffffffffffffffffffff1673ffffffffffffffffffffffffffffffffffffffff1681526020018281526020019250505060405180910390a150565b60126020528060005260406000206000915054906101000a900473ffffffffffffffffffffffffffffffffffffffff1681565b60001515600a60009054906101000a900460ff161515141515612f5457600080fd5b612f6081600854613354565b34141515612f6d57600080fd5b80600760009054906101000a900473ffffffffffffffffffffffffffffffffffffffff1673ffffffffffffffffffffffffffffffffffffffff166370a08231306040518263ffffffff167c0100000000000000000000000000000000000000000000000000000000028152600401808273ffffffffffffffffffffffffffffffffffffffff1673ffffffffffffffffffffffffffffffffffffffff16815260200191505060206040518083038186803b15801561302957600080fd5b505afa15801561303d573d6000803e3d6000fd5b505050506040513d602081101561305357600080fd5b81019080805190602001909291905050501015151561307157600080fd5b600760009054906101000a900473ffffffffffffffffffffffffffffffffffffffff1673ffffffffffffffffffffffffffffffffffffffff1663a9059cbb33836040518363ffffffff167c0100000000000000000000000000000000000000000000000000000000028152600401808373ffffffffffffffffffffffffffffffffffffffff1673ffffffffffffffffffffffffffffffffffffffff16815260200182815260200192505050602060405180830381600087803b15801561313657600080fd5b505af115801561314a573d6000803e3d6000fd5b505050506040513d602081101561316057600080fd5b8101908080519060200190929190505050151561317c57600080fd5b806009600082825401925050819055507f73ab9be6246a9eb60faba3a7d2a824cb1915fbf017b6cdf338d65fbcf0f5bc9f3382604051808373ffffffffffffffffffffffffffffffffffffffff1673ffffffffffffffffffffffffffffffffffffffff1681526020018281526020019250505060405180910390a150565b60085481565b60008060009054906101000a900473ffffffffffffffffffffffffffffffffffffffff1673ffffffffffffffffffffffffffffffffffffffff163373ffffffffffffffffffffffffffffffffffffffff1614151561325d57600080fd5b6000600a60006101000a81548160ff02191690831515021790555090565b60146020528060005260406000206000915054906101000a900473ffffffffffffffffffffffffffffffffffffffff1681565b600e6020528060005260406000206000915090505481565b6010602052816000526040600020602052806000526040600020600091509150508060000154908060010154908060020154908060030154908060040154908060050160009054906101000a900460ff16905086565b600060136000838152602001908152602001600020805490509050919050565b600d6020528060005260406000206000915090505481565b6000808314156133675760009050613389565b6000828402905082848281151561337a57fe5b0414151561338457fe5b809150505b92915050565b828054600181600116156101000203166002900490600052602060002090601f016020900481019282601f106133d057805160ff19168380011785556133fe565b828001600101855582156133fe579182015b828111156133fd5782518255916020019190600101906133e2565b5b50905061340b9190613483565b5090565b815481835581811115613436578183600052602060002091820191016134359190613483565b5b505050565b50805460018160011615610100020316600290046000825580601f106134615750613480565b601f01602090049060005260206000209081019061347f9190613483565b5b50565b6134a591905b808211156134a1576000816000905550600101613489565b5090565b9056fea165627a7a72305820b03634118cf4096a2b744b9fef4c28a7c75ee67244bcaeaac512d90eeea11e540029",
  "source": "pragma solidity >= 0.5.0 < 0.6.0;\n\nimport \"./Token.sol\";\nimport \"./SafeMath.sol\";\nimport \"./Owned.sol\";\nimport \"installed_contracts/oraclize-api/contracts/usingOraclize.sol\";\n\ncontract CompraToken is Owned, usingOraclize  {\n    address admin;\n    Token public tokenContract;\n    uint256 public PrecioToken;\n    uint256 public tokensVendidos;\n    bool public Activo = false;\n    bool public IsAdmin = false;\n    \n    \n\n    event Venta(\n        address _comprador,\n         uint256 _tokens\n         );\n         event Prestamo(\n        address _comprador,\n         uint256 _tokens\n         );\n    event Pago(\n        address _depositante,\n         uint256 cantidad\n         );\n    event Retiro(\n        address _retira,\n         uint256 cantidad\n         );   \n    \n    event nuevoCliente(\n        uint record\n    );  \n    event CostoSeguro(         \n       uint entregado\n    );    \n    event newRandomNumber_bytes(bytes);\n    event newRandomNumber_uint(uint); \n\n    mapping(address => uint) public CostSeguro;\n    mapping(uint => uint) public aseguradoraPrecioAparcado;\n    mapping(uint => uint) public aseguradoraPrecioCarretera;\n    mapping(uint => uint) public aseguradoraPrecioCiudad;\n    mapping(address => user) public users;\n    mapping(uint => mapping(uint => coche)) public coches;\n    mapping(address => uint) public ownerCuentaLeasing;\n    mapping(bytes32 => address) public maestroEmpresas;\n    mapping(uint => uint[]) public CochesDisponibles;\n    mapping(uint => address) public mappingSeguros;\n\n\n struct user {\n        uint TipoCoche;\n        string DNI;\n        bytes32 VATNumber;\n        uint TypeUser;\n        uint record;\n        uint PrecioAparcado;\n        uint PrecioKmCarretera;\n        uint PrecioKmCiudad;        \n        uint MaxCredito;        \n        uint IdCoche;\n        uint Prestamo;\n       \n }\n \n   \n   struct coche {\nuint IdCoche;\nuint KmCarretera;\nuint KmCiudad;\nuint TiempoAparcado;\nuint IdSeguro;\nbool entregado;\n} \n\n\n//** @title Constructor. */\n    constructor(Token _tokenContract, uint256 _PrecioToken) public {\n         /**@param _tokencontract address del contrato Token.sol.\n       @param _PrecioToken recibe el precio de los tokens definidos en el archivo de inicializacin*/\n\n      /** @dev Asigna la cuenta administrador al que realiza el deploy\n      y asigna los valores recibidos las variables token contract y PrecioToken para utilizarlas en este contrato\n      */ \n        admin = msg.sender;\n        tokenContract = _tokenContract;\n        PrecioToken = _PrecioToken;\n    }\n//** @title Compra de tokens. */\n    function compraTokens(uint256 _numeroTokens) public payable {\n          /**@param _numeroTokens cantidad a comprarr.\n \n      /** @dev verificar que el precio a pagar sea el precio estblecido\n      verifica que el contrato cuente con los tokens solicitados para comprar\n      verifica que se haya realizado la transaccin satisfactoriamente desde el contrato Token.sol.\n      Actualiza el valor de los tokens vendidos\n      */ \n        require(Activo == false);\n        require(msg.value == SafeMath.mul(_numeroTokens, PrecioToken));\n        require(tokenContract.balanceOf(address(this)) >= _numeroTokens);\n        require(tokenContract.transfer(msg.sender, _numeroTokens));\n\n        tokensVendidos += _numeroTokens;\n        /** @return devuelve el addres del que compra y la cantidad*/\n        emit Venta(msg.sender, _numeroTokens);\n    }\n    function prestamoTokens(uint256 _numeroTokens) public payable {\n          /**@param _numeroTokens cantidad a comprarr.\n \n      /** @dev verificar que el precio a pagar sea el precio estblecido\n      verifica que el contrato cuente con los tokens solicitados para comprar\n      verifica que se haya realizado la transaccin satisfactoriamente desde el contrato Token.sol.\n      Actualiza el valor de los tokens vendidos\n      \n      */\n        require(Activo == false);\n        require(_numeroTokens > 0); \n        require(_numeroTokens <= users[msg.sender].MaxCredito);\n        require(tokenContract.balanceOf(address(this)) >= _numeroTokens);\n        require(tokenContract.transfer(msg.sender, _numeroTokens));\n\n        tokensVendidos += _numeroTokens;\n        users[msg.sender].MaxCredito -= _numeroTokens; \n        users[msg.sender].Prestamo += _numeroTokens;\n        /** @return devuelve el addres del que compra y la cantidad*/\n        emit Prestamo(msg.sender, _numeroTokens);\n    }\n//** @title Depotio de tokens. */\n   function pagarTokens(uint _pago, uint precioKmCiudad, uint precioKmCarretera, uint precioAparcado, uint tipoCoche, uint IdSeguro) public payable {\n        /**@param _contribucion cantidad a ahorrar.\n       @param fechaEjecucion fecha en que se realiza el deposito.*/\n      /** @dev verificar que el balance de quien enva sea mayor a la cantidad a enviar\n     \n      */require(Activo == false);\n        require(tokenContract.balanceOf(msg.sender) >= _pago);\n        require(tokenContract.transferFrom(msg.sender, address(this), _pago));\n        users[msg.sender].PrecioAparcado = precioAparcado;\n        users[msg.sender].PrecioKmCarretera = precioKmCarretera;\n        users[msg.sender].PrecioKmCiudad = precioKmCiudad;     \n        uint IdCoche = CochesDisponibles[tipoCoche][0];\n        users[msg.sender].IdCoche = IdCoche;\n        users[msg.sender].TipoCoche = tipoCoche;\n        coches[tipoCoche][IdCoche].IdSeguro = IdSeguro;\n        EliminarValorArray(tipoCoche);\n\n\n         \n       \n       /** @return devuelve el address del que solicita el deposito y la cantidad.*/\n        emit Pago(msg.sender, _pago);\n    }\n\n    function aumentarSupply(uint value) public onlyOwner returns (bool) {\n        require(Activo == false);\n        tokenContract.transferAumentoSupply(value);\n        return true;\n    }\n\n\n    \n    //** @title detener el contrato. */\n    function DetenerContratoCompraToken() public onlyOwner returns (bool) {\n        Activo = true;\n        /** @dev Modificar el valor de la variable true desactivando el Smart contract.*/\n    }\n    //** @title Activar el contrato. */\n    function ActivarContratoCompraToken() public onlyOwner returns (bool) {\n        Activo = false;\n        /** @dev Modificar el valor de la variable true activando el Smart contract.*/\n    }\n\n    \n\n    function actualizarPrecioAparcado(uint idEmpresa, uint precioAparcado) public {\n        require(Activo == false);\n        aseguradoraPrecioAparcado[idEmpresa] = precioAparcado;\n    }\n    function actualizarPrecioCarretera(uint idEmpresa, uint precioCarretera) public {\n        require(Activo == false);\n        aseguradoraPrecioCarretera[idEmpresa] = precioCarretera;\n    }\n    function actualizarPrecioCiudad(uint idEmpresa, uint precioCiudad) public {\n        require(Activo == false);\n        aseguradoraPrecioCiudad[idEmpresa] = precioCiudad;\n    }\n   \n\n//** @title Constructor. */\n    \n//** @title Compra de tokens. */\n   function PagoSeguro(uint TokensSeguro, uint tipoCoche, uint IdCoche) public payable {       \n     require(Activo == false);  \n     require(tokenContract.balanceOf(msg.sender) >= TokensSeguro);\n     require(tokenContract.transferFrom(msg.sender, address(this),TokensSeguro));\n    coches[tipoCoche][IdCoche].entregado = true;\n    users[msg.sender].TipoCoche = 0;\n    users[msg.sender].IdCoche = 0;\n    users[msg.sender].IdCoche = 0;\n    users[msg.sender].IdCoche = 0;\n     tokensVendidos += TokensSeguro;\n\n        \n     emit CostoSeguro(TokensSeguro);\n    }\n    function PagoFinanciacion(uint TokensFinanciacion, uint TokensPrestamo) public payable {       \n     require(Activo == false);        \n     require(tokenContract.balanceOf(msg.sender) >= TokensFinanciacion);\n     require(tokenContract.transferFrom(msg.sender, address(this),TokensFinanciacion));\n\n     tokensVendidos += TokensFinanciacion;\n     users[msg.sender].Prestamo -= TokensPrestamo;\n\n        //users[msg.sender].Entregado = true;\n        //emit CostoSeguro(users[msg.sender].Entregado);\n     emit CostoSeguro(TokensFinanciacion);\n    }\n\n\n\n\n\n    function CheckAdmin() public onlyOwner returns (bool)\n    {   \n        require(Activo == false);\n        IsAdmin = true; \n        return (IsAdmin);\n        //returns true if it is the owner of the contract\n    }\n\n    function fetchTypeUser() public view returns (uint)\n\n    {\n        require(Activo == false);\n        return (users[msg.sender].TypeUser);\n    }\n    \n    \n\n    /*function RegistraTime() public returns (bool)\n\n    {\n        users[msg.sender].timestamp=now;\n        return (true);\n    }*/\n\n \n   function NewUser(uint TypeUser, string memory DNI, bytes32 VATNumber, uint record) public \n    {\n//solo deberia poder darese de alta una vez el usuario\n       \n    require(Activo == false);\n    require((ownerCuentaLeasing[msg.sender]) == 0);    \n    ownerCuentaLeasing[msg.sender] ++;       \n    users[msg.sender] = user(0, DNI, VATNumber, TypeUser, record, 0, 0, 0, 0, 0,0);\n   \n        \n    emit nuevoCliente(TypeUser); \n       \n    }\n   function NewEmpresa(uint TypeUser, string memory DNI, bytes32 VATNumber, uint record) public \n    {\n       \n    require(Activo == false);\n    require((ownerCuentaLeasing[msg.sender]) == 0);    \n    ownerCuentaLeasing[msg.sender] ++;       \n    users[msg.sender] = user(0, DNI, VATNumber, TypeUser, record, 0, 0, 0, 0, 0,0);\n    maestroEmpresas[VATNumber] = msg.sender;\n\n    \n       \n    }\n   function NewCoche(uint tipoCoche, uint IdCoche) public \n    {       \n    require(Activo == false);           \n    coches[tipoCoche][IdCoche] = coche(IdCoche,0, 0, 0, 0,false);\n    CochesDisponibles[tipoCoche].push(IdCoche);\n       }\n\n       function ValidarCoche(uint tipoCoche, uint IdCoche) public \n    {       \n    require(Activo == false);           \n    coches[tipoCoche][IdCoche].entregado = false;\n    CochesDisponibles[tipoCoche].push(IdCoche);\n       }\n\n\n\nfunction consultaArray(uint tipoCoche) public view returns(uint count) {\n    return CochesDisponibles[tipoCoche].length;\n}\nfunction consultaArrayDatos(uint tipoCoche, uint posicion) public view returns(uint valor) {\n    return CochesDisponibles[tipoCoche][posicion];\n}\n\nfunction EliminarValorArray(uint tipoCoche) public  returns( uint[] memory array){\n            \nuint index = 0;\n        for (uint i = index; i<CochesDisponibles[tipoCoche].length-1; i++){\n            CochesDisponibles[tipoCoche][i] = CochesDisponibles[tipoCoche][i+1];\n        }\n        CochesDisponibles[tipoCoche].length--;\n        return CochesDisponibles[tipoCoche];\n    }\n\n\n\n    /*function getUser(address dir) public view returns (string memory ,uint ,uint)\n\n    {\n\n        return (users[dir].IdUser,users[dir].TypeUser,users[dir].timestamp);\n    }*/\n\n\n\nfunction deleteUser(address dir) public returns (bool)\n\n    {\n        require(Activo == false);\n        delete users[dir];\n        return (true);\n    }  \n\n  /* function RandomExample() public {\n        oraclize_setProof(proofType_Ledger); // sets the Ledger authenticity proof in the constructor\n        update(); // let's ask for N random bytes immediately when the contract is created!\n    }\n\n    // the callback function is called by Oraclize when the result is ready\n    // the oraclize_randomDS_proofVerify modifier prevents an invalid proof to execute this function code:\n    // the proof validity is fully verified on-chain\n    mapping(uint => uint) public Aleatorio;\n\n    function __callback(bytes32 _queryId, string memory _result, bytes memory _proof) public\n    {\n        \n        require(msg.sender != oraclize_cbAddress());\n\n        if (oraclize_randomDS_proofVerify__returnCode(_queryId, _result, _proof) != 0) {\n            // the proof verification has failed, do we need to take any action here? (depends on the use case)\n        } else {\n            // the proof verification has passed\n            // now that we know that the random number was safely generated, let's use it..\n\n            emit newRandomNumber_bytes(bytes(_result)); // this is the resulting random number (bytes)\n\n            // for simplicity of use, let's also convert the random bytes to uint if we need\n            uint maxRange = 2**(8* 7); // this is the highest uint we want to get. It should never be greater than 2^(8*N), where N is the number of random bytes we had asked the datasource to return\n            uint randomNumber = uint(keccak256(abi.encodePacked(_result))) % maxRange; // this is an efficient way to get the uint out in the [0, maxRange] range\n            Aleatorio[0] = randomNumber;\n            emit newRandomNumber_uint(randomNumber); // this is the resulting random number (uint)\n        }\n    }\n\n    function update() public payable {\n        uint N = 7; // number of random bytes we want the datasource to return\n        uint delay = 0; // number of seconds to wait before the execution takes place\n        uint callbackGas = 20000; // amount of gas we want Oraclize to set for the callback function\n        bytes32 queryId = oraclize_newRandomDSQuery(delay, N, callbackGas); // this function internally generates the correct oraclize_query and returns its queryId\n    } */\n\n    function asignaCreditoMaximo(uint maxCredit) public returns (uint){\n    require(Activo == false);\n    users[msg.sender].MaxCredito= maxCredit;\n    return users[msg.sender].MaxCredito;\n    //asignacin de crdito mximo por direccin de usuario\n    }\n\n\n\n\n}",
  "sourcePath": "/home/omar/TFM_OP_4/TFM-Leasing/Proyecto/contracts/CompraToken.sol",
  "compiler": {
    "name": "solc",
    "version": "0.5.0+commit.1d4f565a.Emscripten.clang"
  },
  "schemaVersion": "3.0.2",
  "updatedAt": "2019-04-20T00:00:55.251Z",
  "devdoc": {
    "methods": {}
  },
  "userdoc": {
    "methods": {}
  }
}