{
  "contractName": "CompraToken",
  "abi": [
    {
      "constant": true,
      "inputs": [],
      "name": "Activo",
      "outputs": [
        {
          "name": "",
          "type": "bool"
        }
      ],
      "payable": false,
      "stateMutability": "view",
      "type": "function",
      "signature": "0x12029e60"
    },
    {
      "constant": true,
      "inputs": [
        {
          "name": "",
          "type": "uint256"
        }
      ],
      "name": "Aleatorio",
      "outputs": [
        {
          "name": "",
          "type": "uint256"
        }
      ],
      "payable": false,
      "stateMutability": "view",
      "type": "function",
      "signature": "0x2c353ea9"
    },
    {
      "constant": true,
      "inputs": [],
      "name": "tokenContract",
      "outputs": [
        {
          "name": "",
          "type": "address"
        }
      ],
      "payable": false,
      "stateMutability": "view",
      "type": "function",
      "signature": "0x55a373d6"
    },
    {
      "constant": true,
      "inputs": [
        {
          "name": "",
          "type": "address"
        }
      ],
      "name": "CostSeguro",
      "outputs": [
        {
          "name": "",
          "type": "uint256"
        }
      ],
      "payable": false,
      "stateMutability": "view",
      "type": "function",
      "signature": "0x5977a96a"
    },
    {
      "constant": true,
      "inputs": [],
      "name": "tokensVendidos",
      "outputs": [
        {
          "name": "",
          "type": "uint256"
        }
      ],
      "payable": false,
      "stateMutability": "view",
      "type": "function",
      "signature": "0x5d8d223a"
    },
    {
      "constant": true,
      "inputs": [
        {
          "name": "",
          "type": "address"
        }
      ],
      "name": "coches",
      "outputs": [
        {
          "name": "IdCoche",
          "type": "uint256"
        },
        {
          "name": "KmCarretera",
          "type": "uint256"
        },
        {
          "name": "KmCiudad",
          "type": "uint256"
        },
        {
          "name": "TiempoAparcado",
          "type": "uint256"
        },
        {
          "name": "Estado",
          "type": "uint256"
        }
      ],
      "payable": false,
      "stateMutability": "view",
      "type": "function",
      "signature": "0x6af4a780"
    },
    {
      "constant": true,
      "inputs": [
        {
          "name": "",
          "type": "uint256"
        }
      ],
      "name": "aseguradoraPrecioAparcado",
      "outputs": [
        {
          "name": "",
          "type": "uint256"
        }
      ],
      "payable": false,
      "stateMutability": "view",
      "type": "function",
      "signature": "0x6cbbb62d"
    },
    {
      "constant": true,
      "inputs": [
        {
          "name": "",
          "type": "address"
        }
      ],
      "name": "users",
      "outputs": [
        {
          "name": "IdUser",
          "type": "string"
        },
        {
          "name": "DNI",
          "type": "string"
        },
        {
          "name": "VATNumber",
          "type": "string"
        },
        {
          "name": "TypeUser",
          "type": "uint256"
        },
        {
          "name": "record",
          "type": "uint256"
        },
        {
          "name": "PrecioAparcado",
          "type": "uint256"
        },
        {
          "name": "PrecioKmCarretera",
          "type": "uint256"
        },
        {
          "name": "PrecioKmCiudad",
          "type": "uint256"
        },
        {
          "name": "MaxCredito",
          "type": "uint256"
        },
        {
          "name": "IdCoche",
          "type": "uint256"
        }
      ],
      "payable": false,
      "stateMutability": "view",
      "type": "function",
      "signature": "0xa87430ba"
    },
    {
      "constant": true,
      "inputs": [],
      "name": "IsAdmin",
      "outputs": [
        {
          "name": "",
          "type": "bool"
        }
      ],
      "payable": false,
      "stateMutability": "view",
      "type": "function",
      "signature": "0xacad8667"
    },
    {
      "constant": true,
      "inputs": [],
      "name": "PrecioToken",
      "outputs": [
        {
          "name": "",
          "type": "uint256"
        }
      ],
      "payable": false,
      "stateMutability": "view",
      "type": "function",
      "signature": "0xcfa6628a"
    },
    {
      "constant": true,
      "inputs": [
        {
          "name": "",
          "type": "uint256"
        }
      ],
      "name": "aseguradoraPrecioCiudad",
      "outputs": [
        {
          "name": "",
          "type": "uint256"
        }
      ],
      "payable": false,
      "stateMutability": "view",
      "type": "function",
      "signature": "0xef9c6425"
    },
    {
      "constant": true,
      "inputs": [
        {
          "name": "",
          "type": "uint256"
        }
      ],
      "name": "aseguradoraPrecioCarretera",
      "outputs": [
        {
          "name": "",
          "type": "uint256"
        }
      ],
      "payable": false,
      "stateMutability": "view",
      "type": "function",
      "signature": "0xfd99aeec"
    },
    {
      "inputs": [
        {
          "name": "_tokenContract",
          "type": "address"
        },
        {
          "name": "_PrecioToken",
          "type": "uint256"
        }
      ],
      "payable": false,
      "stateMutability": "nonpayable",
      "type": "constructor",
      "signature": "constructor"
    },
    {
      "anonymous": false,
      "inputs": [
        {
          "indexed": false,
          "name": "_comprador",
          "type": "address"
        },
        {
          "indexed": false,
          "name": "_tokens",
          "type": "uint256"
        }
      ],
      "name": "Venta",
      "type": "event",
      "signature": "0x73ab9be6246a9eb60faba3a7d2a824cb1915fbf017b6cdf338d65fbcf0f5bc9f"
    },
    {
      "anonymous": false,
      "inputs": [
        {
          "indexed": false,
          "name": "_comprador",
          "type": "address"
        },
        {
          "indexed": false,
          "name": "_tokens",
          "type": "uint256"
        }
      ],
      "name": "Prestamo",
      "type": "event",
      "signature": "0x40da82cf732acb6b1f2fc10a49ce18b1e0938475b2d40935edc9cf928e70967d"
    },
    {
      "anonymous": false,
      "inputs": [
        {
          "indexed": false,
          "name": "_depositante",
          "type": "address"
        },
        {
          "indexed": false,
          "name": "cantidad",
          "type": "uint256"
        }
      ],
      "name": "Pago",
      "type": "event",
      "signature": "0xb9dde9ba07bee40c833192b2e4701d1cee406ee484c22f55e60f924bb379ab8e"
    },
    {
      "anonymous": false,
      "inputs": [
        {
          "indexed": false,
          "name": "_retira",
          "type": "address"
        },
        {
          "indexed": false,
          "name": "cantidad",
          "type": "uint256"
        }
      ],
      "name": "Retiro",
      "type": "event",
      "signature": "0xebdddb82f24ed849145a8f144818f7d383a31047a4a7f30b928c65100f9b8eab"
    },
    {
      "anonymous": false,
      "inputs": [
        {
          "indexed": false,
          "name": "record",
          "type": "uint256"
        }
      ],
      "name": "nuevoCliente",
      "type": "event",
      "signature": "0x6ba4ead7636d04e0c95d33e655db0853aa65a450a0414cf4be9f3f4bf8f35c32"
    },
    {
      "anonymous": false,
      "inputs": [
        {
          "indexed": false,
          "name": "CostoSeguro",
          "type": "uint256"
        }
      ],
      "name": "CostoSeguro",
      "type": "event",
      "signature": "0x5a4bdf0af9a858387f554b96cd81418e7570789fde7c70afe9ff7d8e6cfaffe5"
    },
    {
      "anonymous": false,
      "inputs": [
        {
          "indexed": false,
          "name": "",
          "type": "bytes"
        }
      ],
      "name": "newRandomNumber_bytes",
      "type": "event",
      "signature": "0xab2f9e7e7e74d54a49792fd7ff57c497b14cd2bad49d7537937a5a527a50f0ac"
    },
    {
      "anonymous": false,
      "inputs": [
        {
          "indexed": false,
          "name": "",
          "type": "uint256"
        }
      ],
      "name": "newRandomNumber_uint",
      "type": "event",
      "signature": "0xb084d8f103616749e12a8d363f0b50f8bb8568b4086c093bd88140c74042c47a"
    },
    {
      "constant": false,
      "inputs": [
        {
          "name": "_numeroTokens",
          "type": "uint256"
        }
      ],
      "name": "compraTokens",
      "outputs": [],
      "payable": true,
      "stateMutability": "payable",
      "type": "function",
      "signature": "0xc29dd7c9"
    },
    {
      "constant": false,
      "inputs": [
        {
          "name": "_numeroTokens",
          "type": "uint256"
        }
      ],
      "name": "prestamoTokens",
      "outputs": [],
      "payable": true,
      "stateMutability": "payable",
      "type": "function",
      "signature": "0xb4e89990"
    },
    {
      "constant": false,
      "inputs": [
        {
          "name": "_pago",
          "type": "uint256"
        }
      ],
      "name": "pagarTokens",
      "outputs": [],
      "payable": true,
      "stateMutability": "payable",
      "type": "function",
      "signature": "0x5ffd1b0b"
    },
    {
      "constant": false,
      "inputs": [
        {
          "name": "value",
          "type": "uint256"
        }
      ],
      "name": "aumentarSupply",
      "outputs": [
        {
          "name": "",
          "type": "bool"
        }
      ],
      "payable": false,
      "stateMutability": "nonpayable",
      "type": "function",
      "signature": "0x5877cbe5"
    },
    {
      "constant": false,
      "inputs": [],
      "name": "DetenerContratoToken",
      "outputs": [
        {
          "name": "",
          "type": "bool"
        }
      ],
      "payable": false,
      "stateMutability": "nonpayable",
      "type": "function",
      "signature": "0xb5555627"
    },
    {
      "constant": false,
      "inputs": [],
      "name": "ActivarContratoToken",
      "outputs": [
        {
          "name": "",
          "type": "bool"
        }
      ],
      "payable": false,
      "stateMutability": "nonpayable",
      "type": "function",
      "signature": "0x8dae461d"
    },
    {
      "constant": false,
      "inputs": [
        {
          "name": "idEmpresa",
          "type": "uint256"
        },
        {
          "name": "precioAparcado",
          "type": "uint256"
        }
      ],
      "name": "actualizarPrecioAparcado",
      "outputs": [],
      "payable": false,
      "stateMutability": "nonpayable",
      "type": "function",
      "signature": "0x7208177a"
    },
    {
      "constant": false,
      "inputs": [
        {
          "name": "idEmpresa",
          "type": "uint256"
        },
        {
          "name": "precioCarretera",
          "type": "uint256"
        }
      ],
      "name": "actualizarPrecioCarretera",
      "outputs": [],
      "payable": false,
      "stateMutability": "nonpayable",
      "type": "function",
      "signature": "0x02f58854"
    },
    {
      "constant": false,
      "inputs": [
        {
          "name": "idEmpresa",
          "type": "uint256"
        },
        {
          "name": "precioCiudad",
          "type": "uint256"
        }
      ],
      "name": "actualizarPrecioCiudad",
      "outputs": [],
      "payable": false,
      "stateMutability": "nonpayable",
      "type": "function",
      "signature": "0xa87e71be"
    },
    {
      "constant": false,
      "inputs": [
        {
          "name": "CostoTotal",
          "type": "uint256"
        }
      ],
      "name": "costoSeguro",
      "outputs": [],
      "payable": false,
      "stateMutability": "nonpayable",
      "type": "function",
      "signature": "0xb6a843b4"
    },
    {
      "constant": false,
      "inputs": [],
      "name": "CheckAdmin",
      "outputs": [
        {
          "name": "",
          "type": "bool"
        }
      ],
      "payable": false,
      "stateMutability": "nonpayable",
      "type": "function",
      "signature": "0x4e4dc82c"
    },
    {
      "constant": true,
      "inputs": [],
      "name": "fetchUser",
      "outputs": [
        {
          "name": "",
          "type": "string"
        }
      ],
      "payable": false,
      "stateMutability": "view",
      "type": "function",
      "signature": "0x8337d90f"
    },
    {
      "constant": false,
      "inputs": [
        {
          "name": "IdUsuario",
          "type": "string"
        },
        {
          "name": "TypeUser",
          "type": "uint256"
        },
        {
          "name": "DNI",
          "type": "string"
        },
        {
          "name": "VATNumber",
          "type": "string"
        },
        {
          "name": "record",
          "type": "uint256"
        }
      ],
      "name": "NewUser",
      "outputs": [],
      "payable": false,
      "stateMutability": "nonpayable",
      "type": "function",
      "signature": "0x67ff5c23"
    },
    {
      "constant": false,
      "inputs": [
        {
          "name": "dir",
          "type": "address"
        }
      ],
      "name": "deleteUser",
      "outputs": [
        {
          "name": "",
          "type": "bool"
        }
      ],
      "payable": false,
      "stateMutability": "nonpayable",
      "type": "function",
      "signature": "0x5c60f226"
    },
    {
      "constant": false,
      "inputs": [
        {
          "name": "precioKmCiudad",
          "type": "uint256"
        },
        {
          "name": "precioKmCarretera",
          "type": "uint256"
        },
        {
          "name": "precioAparcado",
          "type": "uint256"
        }
      ],
      "name": "actualizarSeguro",
      "outputs": [
        {
          "name": "",
          "type": "bool"
        }
      ],
      "payable": false,
      "stateMutability": "nonpayable",
      "type": "function",
      "signature": "0xe737f07e"
    },
    {
      "constant": false,
      "inputs": [],
      "name": "RandomExample",
      "outputs": [],
      "payable": false,
      "stateMutability": "nonpayable",
      "type": "function",
      "signature": "0x949f80b0"
    },
    {
      "constant": false,
      "inputs": [
        {
          "name": "_myid",
          "type": "bytes32"
        },
        {
          "name": "_result",
          "type": "string"
        }
      ],
      "name": "__callback",
      "outputs": [],
      "payable": false,
      "stateMutability": "nonpayable",
      "type": "function",
      "signature": "0x27dc297e"
    },
    {
      "constant": false,
      "inputs": [
        {
          "name": "_queryId",
          "type": "bytes32"
        },
        {
          "name": "_result",
          "type": "string"
        },
        {
          "name": "_proof",
          "type": "bytes"
        }
      ],
      "name": "__callback",
      "outputs": [],
      "payable": false,
      "stateMutability": "nonpayable",
      "type": "function",
      "signature": "0x38bbfa50"
    },
    {
      "constant": false,
      "inputs": [],
      "name": "update",
      "outputs": [],
      "payable": true,
      "stateMutability": "payable",
      "type": "function",
      "signature": "0xa2e62045"
    },
    {
      "constant": false,
      "inputs": [
        {
          "name": "maxCredit",
          "type": "uint256"
        }
      ],
      "name": "asignaCreditoMaximo",
      "outputs": [
        {
          "name": "",
          "type": "uint256"
        }
      ],
      "payable": false,
      "stateMutability": "nonpayable",
      "type": "function",
      "signature": "0xadc4f95c"
    }
  ],
  "bytecode": "0x60806040526000600a60006101000a81548160ff0219169083151502179055506000600a60016101000a81548160ff0219169083151502179055503480156200004757600080fd5b506040516040806200603c833981018060405260408110156200006957600080fd5b810190808051906020019092919080519060200190929190505050336000806101000a81548173ffffffffffffffffffffffffffffffffffffffff021916908373ffffffffffffffffffffffffffffffffffffffff16021790555033600660006101000a81548173ffffffffffffffffffffffffffffffffffffffff021916908373ffffffffffffffffffffffffffffffffffffffff16021790555081600760006101000a81548173ffffffffffffffffffffffffffffffffffffffff021916908373ffffffffffffffffffffffffffffffffffffffff160217905550806008819055505050615edd806200015f6000396000f3fe608060405260043610610196576000357c0100000000000000000000000000000000000000000000000000000000900463ffffffff16806302f588541461019b57806312029e60146101e057806327dc297e1461020f5780632c353ea9146102e157806338bbfa50146103305780634e4dc82c1461049957806355a373d6146104c85780635877cbe51461051f5780635977a96a146105725780635c60f226146105d75780635d8d223a146106405780635ffd1b0b1461066b57806367ff5c23146106995780636af4a780146108a35780636cbbb62d146109245780637208177a146109735780638337d90f146109b85780638dae461d14610a48578063949f80b014610a77578063a2e6204514610a8e578063a87430ba14610a98578063a87e71be14610c6b578063acad866714610cb0578063adc4f95c14610cdf578063b4e8999014610d2e578063b555562714610d5c578063b6a843b414610d8b578063c29dd7c914610dc6578063cfa6628a14610df4578063e737f07e14610e1f578063ef9c642514610e86578063fd99aeec14610ed5575b600080fd5b3480156101a757600080fd5b506101de600480360360408110156101be57600080fd5b810190808035906020019092919080359060200190929190505050610f24565b005b3480156101ec57600080fd5b506101f5610f40565b604051808215151515815260200191505060405180910390f35b34801561021b57600080fd5b506102df6004803603604081101561023257600080fd5b81019080803590602001909291908035906020019064010000000081111561025957600080fd5b82018360208201111561026b57600080fd5b8035906020019184600183028401116401000000008311171561028d57600080fd5b91908080601f016020809104026020016040519081016040528093929190818152602001838380828437600081840152601f19601f820116905080830192505050505050509192919290505050610f53565b005b3480156102ed57600080fd5b5061031a6004803603602081101561030457600080fd5b8101908080359060200190929190505050610f96565b6040518082815260200191505060405180910390f35b34801561033c57600080fd5b506104976004803603606081101561035357600080fd5b81019080803590602001909291908035906020019064010000000081111561037a57600080fd5b82018360208201111561038c57600080fd5b803590602001918460018302840111640100000000831117156103ae57600080fd5b91908080601f016020809104026020016040519081016040528093929190818152602001838380828437600081840152601f19601f8201169050808301925050505050505091929192908035906020019064010000000081111561041157600080fd5b82018360208201111561042357600080fd5b8035906020019184600183028401116401000000008311171561044557600080fd5b91908080601f016020809104026020016040519081016040528093929190818152602001838380828437600081840152601f19601f820116905080830192505050505050509192919290505050610fae565b005b3480156104a557600080fd5b506104ae611193565b604051808215151515815260200191505060405180910390f35b3480156104d457600080fd5b506104dd611220565b604051808273ffffffffffffffffffffffffffffffffffffffff1673ffffffffffffffffffffffffffffffffffffffff16815260200191505060405180910390f35b34801561052b57600080fd5b506105586004803603602081101561054257600080fd5b8101908080359060200190929190505050611246565b604051808215151515815260200191505060405180910390f35b34801561057e57600080fd5b506105c16004803603602081101561059557600080fd5b81019080803573ffffffffffffffffffffffffffffffffffffffff169060200190929190505050611379565b6040518082815260200191505060405180910390f35b3480156105e357600080fd5b50610626600480360360208110156105fa57600080fd5b81019080803573ffffffffffffffffffffffffffffffffffffffff169060200190929190505050611391565b604051808215151515815260200191505060405180910390f35b34801561064c57600080fd5b50610655611446565b6040518082815260200191505060405180910390f35b6106976004803603602081101561068157600080fd5b810190808035906020019092919050505061144c565b005b3480156106a557600080fd5b506108a1600480360360a08110156106bc57600080fd5b81019080803590602001906401000000008111156106d957600080fd5b8201836020820111156106eb57600080fd5b8035906020019184600183028401116401000000008311171561070d57600080fd5b91908080601f016020809104026020016040519081016040528093929190818152602001838380828437600081840152601f19601f820116905080830192505050505050509192919290803590602001909291908035906020019064010000000081111561077a57600080fd5b82018360208201111561078c57600080fd5b803590602001918460018302840111640100000000831117156107ae57600080fd5b91908080601f016020809104026020016040519081016040528093929190818152602001838380828437600081840152601f19601f8201169050808301925050505050505091929192908035906020019064010000000081111561081157600080fd5b82018360208201111561082357600080fd5b8035906020019184600183028401116401000000008311171561084557600080fd5b91908080601f016020809104026020016040519081016040528093929190818152602001838380828437600081840152601f19601f820116905080830192505050505050509192919290803590602001909291905050506116fd565b005b3480156108af57600080fd5b506108f2600480360360208110156108c657600080fd5b81019080803573ffffffffffffffffffffffffffffffffffffffff16906020019092919050505061188a565b604051808681526020018581526020018481526020018381526020018281526020019550505050505060405180910390f35b34801561093057600080fd5b5061095d6004803603602081101561094757600080fd5b81019080803590602001909291905050506118c0565b6040518082815260200191505060405180910390f35b34801561097f57600080fd5b506109b66004803603604081101561099657600080fd5b8101908080359060200190929190803590602001909291905050506118d8565b005b3480156109c457600080fd5b506109cd6118f4565b6040518080602001828103825283818151815260200191508051906020019080838360005b83811015610a0d5780820151818401526020810190506109f2565b50505050905090810190601f168015610a3a5780820380516001836020036101000a031916815260200191505b509250505060405180910390f35b348015610a5457600080fd5b50610a5d6119d6565b604051808215151515815260200191505060405180910390f35b348015610a8357600080fd5b50610a8c611a51565b005b610a96611a87565b005b348015610aa457600080fd5b50610ae760048036036020811015610abb57600080fd5b81019080803573ffffffffffffffffffffffffffffffffffffffff169060200190929190505050611aae565b604051808060200180602001806020018b81526020018a815260200189815260200188815260200187815260200186815260200185815260200184810384528e818151815260200191508051906020019080838360005b83811015610b59578082015181840152602081019050610b3e565b50505050905090810190601f168015610b865780820380516001836020036101000a031916815260200191505b5084810383528d818151815260200191508051906020019080838360005b83811015610bbf578082015181840152602081019050610ba4565b50505050905090810190601f168015610bec5780820380516001836020036101000a031916815260200191505b5084810382528c818151815260200191508051906020019080838360005b83811015610c25578082015181840152602081019050610c0a565b50505050905090810190601f168015610c525780820380516001836020036101000a031916815260200191505b509d505050505050505050505050505060405180910390f35b348015610c7757600080fd5b50610cae60048036036040811015610c8e57600080fd5b810190808035906020019092919080359060200190929190505050611cca565b005b348015610cbc57600080fd5b50610cc5611ce6565b604051808215151515815260200191505060405180910390f35b348015610ceb57600080fd5b50610d1860048036036020811015610d0257600080fd5b8101908080359060200190929190505050611cf9565b6040518082815260200191505060405180910390f35b610d5a60048036036020811015610d4457600080fd5b8101908080359060200190929190505050611d8c565b005b348015610d6857600080fd5b50610d716120ba565b604051808215151515815260200191505060405180910390f35b348015610d9757600080fd5b50610dc460048036036020811015610dae57600080fd5b8101908080359060200190929190505050612135565b005b610df260048036036020811015610ddc57600080fd5b81019080803590602001909291905050506121b3565b005b348015610e0057600080fd5b50610e09612459565b6040518082815260200191505060405180910390f35b348015610e2b57600080fd5b50610e6c60048036036060811015610e4257600080fd5b8101908080359060200190929190803590602001909291908035906020019092919050505061245f565b604051808215151515815260200191505060405180910390f35b348015610e9257600080fd5b50610ebf60048036036020811015610ea957600080fd5b8101908080359060200190929190505050612541565b6040518082815260200191505060405180910390f35b348015610ee157600080fd5b50610f0e60048036036020811015610ef857600080fd5b8101908080359060200190929190505050612559565b6040518082815260200191505060405180910390f35b80600d6000848152602001908152602001600020819055505050565b600a60009054906101000a900460ff1681565b610f92828260006040519080825280601f01601f191660200182016040528015610f8c5781602001600182028038833980820191505090505b50610fae565b5050565b60116020528060005260406000206000915090505481565b610fb6612571565b73ffffffffffffffffffffffffffffffffffffffff163373ffffffffffffffffffffffffffffffffffffffff1614151515610ff057600080fd5b6000610ffd8484846128e7565b60ff1614151561100c5761118e565b7fab2f9e7e7e74d54a49792fd7ff57c497b14cd2bad49d7537937a5a527a50f0ac826040518080602001828103825283818151815260200191508051906020019080838360005b8381101561106e578082015181840152602081019050611053565b50505050905090810190601f16801561109b5780820380516001836020036101000a031916815260200191505b509250505060405180910390a160006701000000000000009050600081846040516020018082805190602001908083835b6020831015156110f157805182526020820191506020810190506020830392506110cc565b6001836020036101000a038019825116818451168082178552505050505050905001915050604051602081830303815290604052805190602001206001900481151561113957fe5b0690508060116000808152602001908152602001600020819055507fb084d8f103616749e12a8d363f0b50f8bb8568b4086c093bd88140c74042c47a816040518082815260200191505060405180910390a150505b505050565b60008060009054906101000a900473ffffffffffffffffffffffffffffffffffffffff1673ffffffffffffffffffffffffffffffffffffffff163373ffffffffffffffffffffffffffffffffffffffff161415156111f057600080fd5b6001600a60016101000a81548160ff021916908315150217905550600a60019054906101000a900460ff16905090565b600760009054906101000a900473ffffffffffffffffffffffffffffffffffffffff1681565b60008060009054906101000a900473ffffffffffffffffffffffffffffffffffffffff1673ffffffffffffffffffffffffffffffffffffffff163373ffffffffffffffffffffffffffffffffffffffff161415156112a357600080fd5b600760009054906101000a900473ffffffffffffffffffffffffffffffffffffffff1673ffffffffffffffffffffffffffffffffffffffff1663468d2649836040518263ffffffff167c010000000000000000000000000000000000000000000000000000000002815260040180828152602001915050602060405180830381600087803b15801561133457600080fd5b505af1158015611348573d6000803e3d6000fd5b505050506040513d602081101561135e57600080fd5b81019080805190602001909291905050505060019050919050565b600b6020528060005260406000206000915090505481565b6000600f60008373ffffffffffffffffffffffffffffffffffffffff1673ffffffffffffffffffffffffffffffffffffffff168152602001908152602001600020600080820160006113e39190615d02565b6001820160006113f39190615d02565b6002820160006114039190615d02565b6003820160009055600482016000905560058201600090556006820160009055600782016000905560088201600090556009820160009055505060019050919050565b60095481565b80600760009054906101000a900473ffffffffffffffffffffffffffffffffffffffff1673ffffffffffffffffffffffffffffffffffffffff166370a08231336040518263ffffffff167c0100000000000000000000000000000000000000000000000000000000028152600401808273ffffffffffffffffffffffffffffffffffffffff1673ffffffffffffffffffffffffffffffffffffffff16815260200191505060206040518083038186803b15801561150857600080fd5b505afa15801561151c573d6000803e3d6000fd5b505050506040513d602081101561153257600080fd5b81019080805190602001909291905050501015151561155057600080fd5b600760009054906101000a900473ffffffffffffffffffffffffffffffffffffffff1673ffffffffffffffffffffffffffffffffffffffff166323b872dd3330846040518463ffffffff167c0100000000000000000000000000000000000000000000000000000000028152600401808473ffffffffffffffffffffffffffffffffffffffff1673ffffffffffffffffffffffffffffffffffffffff1681526020018373ffffffffffffffffffffffffffffffffffffffff1673ffffffffffffffffffffffffffffffffffffffff1681526020018281526020019350505050602060405180830381600087803b15801561164957600080fd5b505af115801561165d573d6000803e3d6000fd5b505050506040513d602081101561167357600080fd5b8101908080519060200190929190505050151561168f57600080fd5b7fb9dde9ba07bee40c833192b2e4701d1cee406ee484c22f55e60f924bb379ab8e3382604051808373ffffffffffffffffffffffffffffffffffffffff1673ffffffffffffffffffffffffffffffffffffffff1681526020018281526020019250505060405180910390a150565b60001515600a60009054906101000a900460ff16151514151561171f57600080fd5b61014060405190810160405280868152602001848152602001838152602001858152602001828152602001600081526020016000815260200160008152602001600081526020016000815250600f60003373ffffffffffffffffffffffffffffffffffffffff1673ffffffffffffffffffffffffffffffffffffffff16815260200190815260200160002060008201518160000190805190602001906117c6929190615d4a565b5060208201518160010190805190602001906117e3929190615d4a565b506040820151816002019080519060200190611800929190615d4a565b50606082015181600301556080820151816004015560a0820151816005015560c0820151816006015560e08201518160070155610100820151816008015561012082015181600901559050507f6ba4ead7636d04e0c95d33e655db0853aa65a450a0414cf4be9f3f4bf8f35c32846040518082815260200191505060405180910390a15050505050565b60106020528060005260406000206000915090508060000154908060010154908060020154908060030154908060040154905085565b600c6020528060005260406000206000915090505481565b80600c6000848152602001908152602001600020819055505050565b6060600f60003373ffffffffffffffffffffffffffffffffffffffff1673ffffffffffffffffffffffffffffffffffffffff1681526020019081526020016000206000018054600181600116156101000203166002900480601f0160208091040260200160405190810160405280929190818152602001828054600181600116156101000203166002900480156119cc5780601f106119a1576101008083540402835291602001916119cc565b820191906000526020600020905b8154815290600101906020018083116119af57829003601f168201915b5050505050905090565b60008060009054906101000a900473ffffffffffffffffffffffffffffffffffffffff1673ffffffffffffffffffffffffffffffffffffffff163373ffffffffffffffffffffffffffffffffffffffff16141515611a3357600080fd5b6000600a60006101000a81548160ff02191690831515021790555090565b611a7d60307f010000000000000000000000000000000000000000000000000000000000000002612aff565b611a85611a87565b565b60006007905060008090506000614e2090506000611aa6838584612ea0565b905050505050565b600f602052806000526040600020600091509050806000018054600181600116156101000203166002900480601f016020809104026020016040519081016040528092919081815260200182805460018160011615610100020316600290048015611b5a5780601f10611b2f57610100808354040283529160200191611b5a565b820191906000526020600020905b815481529060010190602001808311611b3d57829003601f168201915b505050505090806001018054600181600116156101000203166002900480601f016020809104026020016040519081016040528092919081815260200182805460018160011615610100020316600290048015611bf85780601f10611bcd57610100808354040283529160200191611bf8565b820191906000526020600020905b815481529060010190602001808311611bdb57829003601f168201915b505050505090806002018054600181600116156101000203166002900480601f016020809104026020016040519081016040528092919081815260200182805460018160011615610100020316600290048015611c965780601f10611c6b57610100808354040283529160200191611c96565b820191906000526020600020905b815481529060010190602001808311611c7957829003601f168201915b505050505090806003015490806004015490806005015490806006015490806007015490806008015490806009015490508a565b80600e6000848152602001908152602001600020819055505050565b600a60019054906101000a900460ff1681565b600081600f60003373ffffffffffffffffffffffffffffffffffffffff1673ffffffffffffffffffffffffffffffffffffffff16815260200190815260200160002060080181905550600f60003373ffffffffffffffffffffffffffffffffffffffff1673ffffffffffffffffffffffffffffffffffffffff168152602001908152602001600020600801549050919050565b600f60003373ffffffffffffffffffffffffffffffffffffffff1673ffffffffffffffffffffffffffffffffffffffff168152602001908152602001600020600801548111151515611ddd57600080fd5b80600760009054906101000a900473ffffffffffffffffffffffffffffffffffffffff1673ffffffffffffffffffffffffffffffffffffffff166370a08231306040518263ffffffff167c0100000000000000000000000000000000000000000000000000000000028152600401808273ffffffffffffffffffffffffffffffffffffffff1673ffffffffffffffffffffffffffffffffffffffff16815260200191505060206040518083038186803b158015611e9957600080fd5b505afa158015611ead573d6000803e3d6000fd5b505050506040513d6020811015611ec357600080fd5b810190808051906020019092919050505010151515611ee157600080fd5b600760009054906101000a900473ffffffffffffffffffffffffffffffffffffffff1673ffffffffffffffffffffffffffffffffffffffff1663a9059cbb33836040518363ffffffff167c0100000000000000000000000000000000000000000000000000000000028152600401808373ffffffffffffffffffffffffffffffffffffffff1673ffffffffffffffffffffffffffffffffffffffff16815260200182815260200192505050602060405180830381600087803b158015611fa657600080fd5b505af1158015611fba573d6000803e3d6000fd5b505050506040513d6020811015611fd057600080fd5b81019080805190602001909291905050501515611fec57600080fd5b8060096000828254019250508190555080600f60003373ffffffffffffffffffffffffffffffffffffffff1673ffffffffffffffffffffffffffffffffffffffff168152602001908152602001600020600801600082825403925050819055507f40da82cf732acb6b1f2fc10a49ce18b1e0938475b2d40935edc9cf928e70967d3382604051808373ffffffffffffffffffffffffffffffffffffffff1673ffffffffffffffffffffffffffffffffffffffff1681526020018281526020019250505060405180910390a150565b60008060009054906101000a900473ffffffffffffffffffffffffffffffffffffffff1673ffffffffffffffffffffffffffffffffffffffff163373ffffffffffffffffffffffffffffffffffffffff1614151561211757600080fd5b6001600a60006101000a81548160ff02191690831515021790555090565b80600b60003373ffffffffffffffffffffffffffffffffffffffff1673ffffffffffffffffffffffffffffffffffffffff168152602001908152602001600020819055507f5a4bdf0af9a858387f554b96cd81418e7570789fde7c70afe9ff7d8e6cfaffe5816040518082815260200191505060405180910390a150565b6121bf8160085461346e565b341415156121cc57600080fd5b80600760009054906101000a900473ffffffffffffffffffffffffffffffffffffffff1673ffffffffffffffffffffffffffffffffffffffff166370a08231306040518263ffffffff167c0100000000000000000000000000000000000000000000000000000000028152600401808273ffffffffffffffffffffffffffffffffffffffff1673ffffffffffffffffffffffffffffffffffffffff16815260200191505060206040518083038186803b15801561228857600080fd5b505afa15801561229c573d6000803e3d6000fd5b505050506040513d60208110156122b257600080fd5b8101908080519060200190929190505050101515156122d057600080fd5b600760009054906101000a900473ffffffffffffffffffffffffffffffffffffffff1673ffffffffffffffffffffffffffffffffffffffff1663a9059cbb33836040518363ffffffff167c0100000000000000000000000000000000000000000000000000000000028152600401808373ffffffffffffffffffffffffffffffffffffffff1673ffffffffffffffffffffffffffffffffffffffff16815260200182815260200192505050602060405180830381600087803b15801561239557600080fd5b505af11580156123a9573d6000803e3d6000fd5b505050506040513d60208110156123bf57600080fd5b810190808051906020019092919050505015156123db57600080fd5b806009600082825401925050819055507f73ab9be6246a9eb60faba3a7d2a824cb1915fbf017b6cdf338d65fbcf0f5bc9f3382604051808373ffffffffffffffffffffffffffffffffffffffff1673ffffffffffffffffffffffffffffffffffffffff1681526020018281526020019250505060405180910390a150565b60085481565b600081600f60003373ffffffffffffffffffffffffffffffffffffffff1673ffffffffffffffffffffffffffffffffffffffff1681526020019081526020016000206005018190555082600f60003373ffffffffffffffffffffffffffffffffffffffff1673ffffffffffffffffffffffffffffffffffffffff1681526020019081526020016000206006018190555083600f60003373ffffffffffffffffffffffffffffffffffffffff1673ffffffffffffffffffffffffffffffffffffffff16815260200190815260200160002060070181905550600190509392505050565b600e6020528060005260406000206000915090505481565b600d6020528060005260406000206000915090505481565b60008073ffffffffffffffffffffffffffffffffffffffff16600260009054906101000a900473ffffffffffffffffffffffffffffffffffffffff1673ffffffffffffffffffffffffffffffffffffffff1614806125f9575060006125f7600260009054906101000a900473ffffffffffffffffffffffffffffffffffffffff166134a9565b145b1561260a5761260860006134b4565b505b600260009054906101000a900473ffffffffffffffffffffffffffffffffffffffff1673ffffffffffffffffffffffffffffffffffffffff166338cc48316040518163ffffffff167c0100000000000000000000000000000000000000000000000000000000028152600401602060405180830381600087803b15801561269057600080fd5b505af11580156126a4573d6000803e3d6000fd5b505050506040513d60208110156126ba57600080fd5b810190808051906020019092919050505073ffffffffffffffffffffffffffffffffffffffff16600160009054906101000a900473ffffffffffffffffffffffffffffffffffffffff1673ffffffffffffffffffffffffffffffffffffffff1614151561282357600260009054906101000a900473ffffffffffffffffffffffffffffffffffffffff1673ffffffffffffffffffffffffffffffffffffffff166338cc48316040518163ffffffff167c0100000000000000000000000000000000000000000000000000000000028152600401602060405180830381600087803b1580156127a757600080fd5b505af11580156127bb573d6000803e3d6000fd5b505050506040513d60208110156127d157600080fd5b8101908080519060200190929190505050600160006101000a81548173ffffffffffffffffffffffffffffffffffffffff021916908373ffffffffffffffffffffffffffffffffffffffff1602179055505b600160009054906101000a900473ffffffffffffffffffffffffffffffffffffffff1673ffffffffffffffffffffffffffffffffffffffff1663c281d19e6040518163ffffffff167c010000000000000000000000000000000000000000000000000000000002815260040160206040518083038186803b1580156128a757600080fd5b505afa1580156128bb573d6000803e3d6000fd5b505050506040513d60208110156128d157600080fd5b8101908080519060200190929190505050905090565b60007f4c0000000000000000000000000000000000000000000000000000000000000082600081518110151561291957fe5b9060200101517f010000000000000000000000000000000000000000000000000000000000000090047f0100000000000000000000000000000000000000000000000000000000000000027effffffffffffffffffffffffffffffffffffffffffffffffffffffffffffff1916141580612a2e57507f50000000000000000000000000000000000000000000000000000000000000008260018151811015156129be57fe5b9060200101517f010000000000000000000000000000000000000000000000000000000000000090047f0100000000000000000000000000000000000000000000000000000000000000027effffffffffffffffffffffffffffffffffffffffffffffffffffffffffffff191614155b80612abc5750600160ff16826002815181101515612a4857fe5b9060200101517f010000000000000000000000000000000000000000000000000000000000000090047f0100000000000000000000000000000000000000000000000000000000000000027f0100000000000000000000000000000000000000000000000000000000000000900460ff1614155b15612aca5760019050612af8565b6000612adf838686612ada6134c5565b613567565b9050801515612af2576002915050612af8565b60009150505b9392505050565b600073ffffffffffffffffffffffffffffffffffffffff16600260009054906101000a900473ffffffffffffffffffffffffffffffffffffffff1673ffffffffffffffffffffffffffffffffffffffff161480612b8657506000612b84600260009054906101000a900473ffffffffffffffffffffffffffffffffffffffff166134a9565b145b15612b9757612b9560006134b4565b505b600260009054906101000a900473ffffffffffffffffffffffffffffffffffffffff1673ffffffffffffffffffffffffffffffffffffffff166338cc48316040518163ffffffff167c0100000000000000000000000000000000000000000000000000000000028152600401602060405180830381600087803b158015612c1d57600080fd5b505af1158015612c31573d6000803e3d6000fd5b505050506040513d6020811015612c4757600080fd5b810190808051906020019092919050505073ffffffffffffffffffffffffffffffffffffffff16600160009054906101000a900473ffffffffffffffffffffffffffffffffffffffff1673ffffffffffffffffffffffffffffffffffffffff16141515612db057600260009054906101000a900473ffffffffffffffffffffffffffffffffffffffff1673ffffffffffffffffffffffffffffffffffffffff166338cc48316040518163ffffffff167c0100000000000000000000000000000000000000000000000000000000028152600401602060405180830381600087803b158015612d3457600080fd5b505af1158015612d48573d6000803e3d6000fd5b505050506040513d6020811015612d5e57600080fd5b8101908080519060200190929190505050600160006101000a81548173ffffffffffffffffffffffffffffffffffffffff021916908373ffffffffffffffffffffffffffffffffffffffff1602179055505b600160009054906101000a900473ffffffffffffffffffffffffffffffffffffffff1673ffffffffffffffffffffffffffffffffffffffff1663688dcfd7826040518263ffffffff167c010000000000000000000000000000000000000000000000000000000002815260040180827effffffffffffffffffffffffffffffffffffffffffffffffffffffffffffff19167effffffffffffffffffffffffffffffffffffffffffffffffffffffffffffff19168152602001915050600060405180830381600087803b158015612e8557600080fd5b505af1158015612e99573d6000803e3d6000fd5b5050505050565b60008083118015612eb2575060208311155b1515612ebd57600080fd5b600a84029350606060016040519080825280601f01601f191660200182016040528015612ef95781602001600182028038833980820191505090505b509050837f010000000000000000000000000000000000000000000000000000000000000002816000815181101515612f2e57fe5b9060200101907effffffffffffffffffffffffffffffffffffffffffffffffffffffffffffff1916908160001a905350606060206040519080825280601f01601f191660200182016040528015612f945781602001600182028038833980820191505090505b509050606060206040519080825280601f01601f191660200182016040528015612fcd5781602001600182028038833980820191505090505b5090506000612fda613d4c565b905060208352424118600143034018602084015260208252806020830152606060206040519080825280601f01601f19166020018201604052801561302e5781602001600182028038833980820191505090505b509050886020820152606060086040519080825280601f01601f19166020018201604052801561306d5781602001600182028038833980820191505090505b50905061308082601860088460006140c2565b50613089615dca565b60806040519081016040528087815260200188815260200186815260200184815250905060006130ef6040805190810160405280600681526020017f72616e646f6d0000000000000000000000000000000000000000000000000000815250838c614123565b9050606060086040519080825280601f01601f1916602001820160405280156131275781602001600182028038833980820191505090505b50905060208401517f0100000000000000000000000000000000000000000000000000000000000000810460278301537e01000000000000000000000000000000000000000000000000000000000000810460268301537d010000000000000000000000000000000000000000000000000000000000810460258301537c0100000000000000000000000000000000000000000000000000000000810460248301537b01000000000000000000000000000000000000000000000000000000810460238301537a01000000000000000000000000000000000000000000000000000081046022830153790100000000000000000000000000000000000000000000000000810460218301537801000000000000000000000000000000000000000000000000810460208301535061345b828285600160048110151561326857fe5b6020020151600287600060048110151561327e57fe5b60200201516040518082805190602001908083835b6020831015156132b85780518252602082019150602081019050602083039250613293565b6001836020036101000a038019825116818451168082178552505050505050905001915050602060405180830381855afa1580156132fa573d6000803e3d6000fd5b5050506040513d602081101561330f57600080fd5b810190808051906020019092919050505087600260048110151561332f57fe5b60200201516040516020018085805190602001908083835b60208310151561336c5780518252602082019150602081019050602083039250613347565b6001836020036101000a03801982511681845116808217855250505050505090500184805190602001908083835b6020831015156133bf578051825260208201915060208101905060208303925061339a565b6001836020036101000a03801982511681845116808217855250505050505090500183815260200182805190602001908083835b60208310151561341857805182526020820191506020810190506020830392506133f3565b6001836020036101000a038019825116818451168082178552505050505050905001945050505050604051602081830303815290604052805190602001206144e4565b8199505050505050505050509392505050565b60008083141561348157600090506134a3565b6000828402905082848281151561349457fe5b0414151561349e57fe5b809150505b92915050565b6000813b9050919050565b60006134be614500565b9050919050565b606060038054600181600116156101000203166002900480601f01602080910402602001604051908101604052809291908181526020018280546001816001161561010002031660029004801561355d5780601f106135325761010080835404028352916020019161355d565b820191906000526020600020905b81548152906001019060200180831161354057829003601f168201915b5050505050905090565b6000806020600287604581518110151561357d57fe5b9060200101517f010000000000000000000000000000000000000000000000000000000000000090047f0100000000000000000000000000000000000000000000000000000000000000027f0100000000000000000000000000000000000000000000000000000000000000900460ff1601604401019050606060206040519080825280601f01601f19166020018201604052801561362b5781602001600182028038833980820191505090505b50905061363d878360208460006140c2565b50600284876040516020018083805190602001908083835b60208310151561367a5780518252602082019150602081019050602083039250613655565b6001836020036101000a038019825116818451168082178552505050505050905001828152602001925050506040516020818303038152906040526040518082805190602001908083835b6020831015156136ea57805182526020820191506020810190506020830392506136c5565b6001836020036101000a038019825116818451168082178552505050505050905001915050602060405180830381855afa15801561372c573d6000803e3d6000fd5b5050506040513d602081101561374157600080fd5b81019080805190602001909291905050506040516020018082815260200191505060405160208183030381529060405280519060200120818051906020012014151561379257600092505050613d44565b6060600288600160498601018151811015156137aa57fe5b9060200101517f010000000000000000000000000000000000000000000000000000000000000090047f0100000000000000000000000000000000000000000000000000000000000000027f0100000000000000000000000000000000000000000000000000000000000000900460ff16016040519080825280601f01601f19166020018201604052801561384e5781602001600182028038833980820191505090505b509050613863886049850183518460006140c2565b506139926002826040518082805190602001908083835b60208310151561389f578051825260208201915060208101905060208303925061387a565b6001836020036101000a038019825116818451168082178552505050505050905001915050602060405180830381855afa1580156138e1573d6000803e3d6000fd5b5050506040513d60208110156138f657600080fd5b8101908080519060200190929190505050878a6008602088010181518110151561391c57fe5b9060200101517f010000000000000000000000000000000000000000000000000000000000000090047f0100000000000000000000000000000000000000000000000000000000000000027f0100000000000000000000000000000000000000000000000000000000000000900460ff16614996565b15156139a45760009350505050613d44565b606060296040519080825280601f01601f1916602001820160405280156139da5781602001600182028038833980820191505090505b5090506139ef896020860160298460006140c2565b506060604080519080825280601f01601f191660200182016040528015613a255781602001600182028038833980820191505090505b5090506000604184516029602089010101019050613a4b8b6040830360408560006140c2565b5060006002836040518082805190602001908083835b602083101515613a865780518252602082019150602081019050602083039250613a61565b6001836020036101000a038019825116818451168082178552505050505050905001915050602060405180830381855afa158015613ac8573d6000803e3d6000fd5b5050506040513d6020811015613add57600080fd5b8101908080519060200190929190505050905083816040516020018083805190602001908083835b602083101515613b2a5780518252602082019150602081019050602083039250613b05565b6001836020036101000a0380198251168184511680821785525050505050509050018281526020019250505060405160208183030381529060405280519060200120600460008d8152602001908152602001600020541415613ba257600460008c815260200190815260200160002060009055613bb2565b6000975050505050505050613d44565b606060496040519080825280601f01601f191660200182016040528015613be85781602001600182028038833980820191505090505b509050613bfa8d8960498460006140c2565b50613ca56002826040518082805190602001908083835b602083101515613c365780518252602082019150602081019050602083039250613c11565b6001836020036101000a038019825116818451168082178552505050505050905001915050602060405180830381855afa158015613c78573d6000803e3d6000fd5b5050506040513d6020811015613c8d57600080fd5b81019080805190602001909291905050508786614aad565b1515613cbc57600098505050505050505050613d44565b6005600083815260200190815260200160002060009054906101000a900460ff161515613d1857613ced8d84614d31565b6005600084815260200190815260200160002060006101000a81548160ff0219169083151502179055505b6005600083815260200190815260200160002060009054906101000a900460ff16985050505050505050505b949350505050565b60008073ffffffffffffffffffffffffffffffffffffffff16600260009054906101000a900473ffffffffffffffffffffffffffffffffffffffff1673ffffffffffffffffffffffffffffffffffffffff161480613dd457506000613dd2600260009054906101000a900473ffffffffffffffffffffffffffffffffffffffff166134a9565b145b15613de557613de360006134b4565b505b600260009054906101000a900473ffffffffffffffffffffffffffffffffffffffff1673ffffffffffffffffffffffffffffffffffffffff166338cc48316040518163ffffffff167c0100000000000000000000000000000000000000000000000000000000028152600401602060405180830381600087803b158015613e6b57600080fd5b505af1158015613e7f573d6000803e3d6000fd5b505050506040513d6020811015613e9557600080fd5b810190808051906020019092919050505073ffffffffffffffffffffffffffffffffffffffff16600160009054906101000a900473ffffffffffffffffffffffffffffffffffffffff1673ffffffffffffffffffffffffffffffffffffffff16141515613ffe57600260009054906101000a900473ffffffffffffffffffffffffffffffffffffffff1673ffffffffffffffffffffffffffffffffffffffff166338cc48316040518163ffffffff167c0100000000000000000000000000000000000000000000000000000000028152600401602060405180830381600087803b158015613f8257600080fd5b505af1158015613f96573d6000803e3d6000fd5b505050506040513d6020811015613fac57600080fd5b8101908080519060200190929190505050600160006101000a81548173ffffffffffffffffffffffffffffffffffffffff021916908373ffffffffffffffffffffffffffffffffffffffff1602179055505b600160009054906101000a900473ffffffffffffffffffffffffffffffffffffffff1673ffffffffffffffffffffffffffffffffffffffff1663abaa5f3e6040518163ffffffff167c010000000000000000000000000000000000000000000000000000000002815260040160206040518083038186803b15801561408257600080fd5b505afa158015614096573d6000803e3d6000fd5b505050506040513d60208110156140ac57600080fd5b8101908080519060200190929190505050905090565b606060008285019050808451101515156140db57600080fd5b600086602001905060008460200190505b86886020010182101561411457818901518082880152506020820191506020810190506140ec565b85935050505095945050505050565b60008073ffffffffffffffffffffffffffffffffffffffff16600260009054906101000a900473ffffffffffffffffffffffffffffffffffffffff1673ffffffffffffffffffffffffffffffffffffffff1614806141ab575060006141a9600260009054906101000a900473ffffffffffffffffffffffffffffffffffffffff166134a9565b145b156141bc576141ba60006134b4565b505b600260009054906101000a900473ffffffffffffffffffffffffffffffffffffffff1673ffffffffffffffffffffffffffffffffffffffff166338cc48316040518163ffffffff167c0100000000000000000000000000000000000000000000000000000000028152600401602060405180830381600087803b15801561424257600080fd5b505af1158015614256573d6000803e3d6000fd5b505050506040513d602081101561426c57600080fd5b810190808051906020019092919050505073ffffffffffffffffffffffffffffffffffffffff16600160009054906101000a900473ffffffffffffffffffffffffffffffffffffffff1673ffffffffffffffffffffffffffffffffffffffff161415156143d557600260009054906101000a900473ffffffffffffffffffffffffffffffffffffffff1673ffffffffffffffffffffffffffffffffffffffff166338cc48316040518163ffffffff167c0100000000000000000000000000000000000000000000000000000000028152600401602060405180830381600087803b15801561435957600080fd5b505af115801561436d573d6000803e3d6000fd5b505050506040513d602081101561438357600080fd5b8101908080519060200190929190505050600160006101000a81548173ffffffffffffffffffffffffffffffffffffffff021916908373ffffffffffffffffffffffffffffffffffffffff1602179055505b6060600460405190808252806020026020018201604052801561440c57816020015b60608152602001906001900390816143f75790505b50905083600060048110151561441e57fe5b602002015181600081518110151561443257fe5b9060200190602002018190525083600160048110151561444e57fe5b602002015181600181518110151561446257fe5b9060200190602002018190525083600260048110151561447e57fe5b602002015181600281518110151561449257fe5b906020019060200201819052508360036004811015156144ae57fe5b60200201518160038151811015156144c257fe5b906020019060200201819052506144da85828561529a565b9150509392505050565b8060046000848152602001908152602001600020819055505050565b600080614520731d3b2638a7cc9f2cb3d298a3da7a90b67e5506ed6134a9565b11156145c257731d3b2638a7cc9f2cb3d298a3da7a90b67e5506ed600260006101000a81548173ffffffffffffffffffffffffffffffffffffffff021916908373ffffffffffffffffffffffffffffffffffffffff1602179055506145b96040805190810160405280600b81526020017f6574685f6d61696e6e6574000000000000000000000000000000000000000000815250615873565b60019050614993565b60006145e173c03a2615d5efaf5f49f60b7bb6583eaec212fdf16134a9565b11156146835773c03a2615d5efaf5f49f60b7bb6583eaec212fdf1600260006101000a81548173ffffffffffffffffffffffffffffffffffffffff021916908373ffffffffffffffffffffffffffffffffffffffff16021790555061467a6040805190810160405280600c81526020017f6574685f726f707374656e330000000000000000000000000000000000000000815250615873565b60019050614993565b60006146a273b7a07bcf2ba2f2703b24c0691b5278999c59ac7e6134a9565b11156147445773b7a07bcf2ba2f2703b24c0691b5278999c59ac7e600260006101000a81548173ffffffffffffffffffffffffffffffffffffffff021916908373ffffffffffffffffffffffffffffffffffffffff16021790555061473b6040805190810160405280600981526020017f6574685f6b6f76616e0000000000000000000000000000000000000000000000815250615873565b60019050614993565b600061476373146500cfd35b22e4a392fe0adc06de1a1368ed486134a9565b11156148055773146500cfd35b22e4a392fe0adc06de1a1368ed48600260006101000a81548173ffffffffffffffffffffffffffffffffffffffff021916908373ffffffffffffffffffffffffffffffffffffffff1602179055506147fc6040805190810160405280600b81526020017f6574685f72696e6b656279000000000000000000000000000000000000000000815250615873565b60019050614993565b6000614824736f485c8bf6fc43ea212e93bbf8ce046c7f1cb4756134a9565b111561488857736f485c8bf6fc43ea212e93bbf8ce046c7f1cb475600260006101000a81548173ffffffffffffffffffffffffffffffffffffffff021916908373ffffffffffffffffffffffffffffffffffffffff16021790555060019050614993565b60006148a77320e12a1f859b3feae5fb2a0a32c18f5a65555bbf6134a9565b111561490b577320e12a1f859b3feae5fb2a0a32c18f5a65555bbf600260006101000a81548173ffffffffffffffffffffffffffffffffffffffff021916908373ffffffffffffffffffffffffffffffffffffffff16021790555060019050614993565b600061492a7351efaf4c8b3c9afbd5ab9f4bbc82784ab6ef8faa6134a9565b111561498e577351efaf4c8b3c9afbd5ab9f4bbc82784ab6ef8faa600260006101000a81548173ffffffffffffffffffffffffffffffffffffffff021916908373ffffffffffffffffffffffffffffffffffffffff16021790555060019050614993565b600090505b90565b600080600190508284511415156149ac57600080fd5b60008090505b83811015614aa15784818151811015156149c857fe5b9060200101517f010000000000000000000000000000000000000000000000000000000000000090047f0100000000000000000000000000000000000000000000000000000000000000027effffffffffffffffffffffffffffffffffffffffffffffffffffffffffffff19168682602081101515614a4357fe5b1a7f0100000000000000000000000000000000000000000000000000000000000000027effffffffffffffffffffffffffffffffffffffffffffffffffffffffffffff1916141515614a9457600091505b80806001019150506149b2565b50809150509392505050565b6000806000806000606060206040519080825280601f01601f191660200182016040528015614aeb5781602001600182028038833980820191505090505b50905060006020896003815181101515614b0157fe5b9060200101517f010000000000000000000000000000000000000000000000000000000000000090047f0100000000000000000000000000000000000000000000000000000000000000027f0100000000000000000000000000000000000000000000000000000000000000900460ff16036004019050614b87898260208560006140c2565b9150606060206040519080825280601f01601f191660200182016040528015614bbf5781602001600182028038833980820191505090505b509050602282019150614c5d8a60208c60018603815181101515614bdf57fe5b9060200101517f010000000000000000000000000000000000000000000000000000000000000090047f0100000000000000000000000000000000000000000000000000000000000000027f0100000000000000000000000000000000000000000000000000000000000000900460ff1603840160208460006140c2565b90506020830151945060208101519350614c7a8b601b878761588d565b80975081985050508573ffffffffffffffffffffffffffffffffffffffff1689805190602001206001900473ffffffffffffffffffffffffffffffffffffffff161415614cd1576001975050505050505050614d2a565b614cde8b601c878761588d565b80975081985050508573ffffffffffffffffffffffffffffffffffffffff1689805190602001206001900473ffffffffffffffffffffffffffffffffffffffff16149750505050505050505b9392505050565b600080606060028560018601815181101515614d4957fe5b9060200101517f010000000000000000000000000000000000000000000000000000000000000090047f0100000000000000000000000000000000000000000000000000000000000000027f0100000000000000000000000000000000000000000000000000000000000000900460ff16016040519080825280601f01601f191660200182016040528015614ded5781602001600182028038833980820191505090505b509050614dff858583518460006140c2565b506060604080519080825280601f01601f191660200182016040528015614e355781602001600182028038833980820191505090505b509050614e4886600460408460006140c2565b50606060626040519080825280601f01601f191660200182016040528015614e7f5781602001600182028038833980820191505090505b50905060017f010000000000000000000000000000000000000000000000000000000000000002816000815181101515614eb557fe5b9060200101907effffffffffffffffffffffffffffffffffffffffffffffffffffffffffffff1916908160001a905350614ef7876041880360418460016140c2565b5060606040805190810160405280602081526020017ffd94fa71bc0ba10d39d464d0d8f465efeef0a2764e3887fcc9df41ded20f505c8152509050614f4281600060208560426140c2565b50614fed6002836040518082805190602001908083835b602083101515614f7e5780518252602082019150602081019050602083039250614f59565b6001836020036101000a038019825116818451168082178552505050505050905001915050602060405180830381855afa158015614fc0573d6000803e3d6000fd5b5050506040513d6020811015614fd557600080fd5b81019080805190602001909291905050508585614aad565b945084151561500457600095505050505050615294565b60608060405190810160405280604081526020017f7fb956469c5c9b89840d55b43537e66a98dd4811ea0a27224272c2e5622911e881526020017f537a2f8e86a46baec82864e98dd01e9ccc2f8bc5dfc9cbe5a91a290498dd96e48152509050606060426040519080825280601f01601f19166020018201604052801561509a5781602001600182028038833980820191505090505b50905060fe7f0100000000000000000000000000000000000000000000000000000000000000028160008151811015156150d057fe5b9060200101907effffffffffffffffffffffffffffffffffffffffffffffffffffffffffffff1916908160001a9053506151108a600360418460016140c2565b50606060028b604581518110151561512457fe5b9060200101517f010000000000000000000000000000000000000000000000000000000000000090047f0100000000000000000000000000000000000000000000000000000000000000027f0100000000000000000000000000000000000000000000000000000000000000900460ff16016040519080825280601f01601f1916602001820160405280156151c85781602001600182028038833980820191505090505b5090506151db8b604483518460006140c2565b506152866002836040518082805190602001908083835b60208310151561521757805182526020820191506020810190506020830392506151f2565b6001836020036101000a038019825116818451168082178552505050505050905001915050602060405180830381855afa158015615259573d6000803e3d6000fd5b5050506040513d602081101561526e57600080fd5b81019080805190602001909291905050508285614aad565b975087985050505050505050505b92915050565b60008073ffffffffffffffffffffffffffffffffffffffff16600260009054906101000a900473ffffffffffffffffffffffffffffffffffffffff1673ffffffffffffffffffffffffffffffffffffffff16148061532257506000615320600260009054906101000a900473ffffffffffffffffffffffffffffffffffffffff166134a9565b145b156153335761533160006134b4565b505b600260009054906101000a900473ffffffffffffffffffffffffffffffffffffffff1673ffffffffffffffffffffffffffffffffffffffff166338cc48316040518163ffffffff167c0100000000000000000000000000000000000000000000000000000000028152600401602060405180830381600087803b1580156153b957600080fd5b505af11580156153cd573d6000803e3d6000fd5b505050506040513d60208110156153e357600080fd5b810190808051906020019092919050505073ffffffffffffffffffffffffffffffffffffffff16600160009054906101000a900473ffffffffffffffffffffffffffffffffffffffff1673ffffffffffffffffffffffffffffffffffffffff1614151561554c57600260009054906101000a900473ffffffffffffffffffffffffffffffffffffffff1673ffffffffffffffffffffffffffffffffffffffff166338cc48316040518163ffffffff167c0100000000000000000000000000000000000000000000000000000000028152600401602060405180830381600087803b1580156154d057600080fd5b505af11580156154e4573d6000803e3d6000fd5b505050506040513d60208110156154fa57600080fd5b8101908080519060200190929190505050600160006101000a81548173ffffffffffffffffffffffffffffffffffffffff021916908373ffffffffffffffffffffffffffffffffffffffff1602179055505b6000600160009054906101000a900473ffffffffffffffffffffffffffffffffffffffff1673ffffffffffffffffffffffffffffffffffffffff16632ef3accc86856040518363ffffffff167c01000000000000000000000000000000000000000000000000000000000281526004018080602001838152602001828103825284818151815260200191508051906020019080838360005b838110156155ff5780820151818401526020810190506155e4565b50505050905090810190601f16801561562c5780820380516001836020036101000a031916815260200191505b509350505050602060405180830381600087803b15801561564c57600080fd5b505af1158015615660573d6000803e3d6000fd5b505050506040513d602081101561567657600080fd5b81019080805190602001909291905050509050823a02670de0b6b3a7640000018111156156aa57600060010291505061586c565b60606156b5856158d1565b9050600160009054906101000a900473ffffffffffffffffffffffffffffffffffffffff1673ffffffffffffffffffffffffffffffffffffffff1663c55c1cb68360008985896040518663ffffffff167c0100000000000000000000000000000000000000000000000000000000028152600401808581526020018060200180602001848152602001838103835286818151815260200191508051906020019080838360005b8381101561577657808201518184015260208101905061575b565b50505050905090810190601f1680156157a35780820380516001836020036101000a031916815260200191505b50838103825285818151815260200191508051906020019080838360005b838110156157dc5780820151818401526020810190506157c1565b50505050905090810190601f1680156158095780820380516001836020036101000a031916815260200191505b5096505050505050506020604051808303818588803b15801561582b57600080fd5b505af115801561583f573d6000803e3d6000fd5b50505050506040513d602081101561585657600080fd5b8101908080519060200190929190505050925050505b9392505050565b8060039080519060200190615889929190615df2565b5050565b60008060008060405188815287602082015286604082015285606082015260208160808360006001610bb8f192508051915050818193509350505094509492505050565b60606158db615955565b6158e3615e72565b6158ef81610400615961565b6158f8816159b1565b60008090505b835181101561593e57615931848281518110151561591857fe5b90602001906020020151836159bf90919063ffffffff16565b80806001019150506158fe565b50615948816159e4565b8060000151915050919050565b60405180590338823950565b6000819050600060208281151561597457fe5b061415156159915760208181151561598857fe5b06602003810190505b808360200181815250506040518084526000815281810160405250505050565b6159bc8160046159f2565b50565b6159cc8260028351615a16565b6159df8183615b6f90919063ffffffff16565b505050565b6159ef8160076159f2565b50565b615a12601f60058360ff169060020a021783615c1c90919063ffffffff16565b5050565b601781111515615a4757615a428160058460ff169060020a0260ff161784615c1c90919063ffffffff16565b615b6a565b60ff81111515615a8d57615a71601860058460ff169060020a021784615c1c90919063ffffffff16565b615a8781600185615c5c9092919063ffffffff16565b50615b69565b61ffff81111515615ad457615ab8601960058460ff169060020a021784615c1c90919063ffffffff16565b615ace81600285615c5c9092919063ffffffff16565b50615b68565b63ffffffff81111515615b1d57615b01601a60058460ff169060020a021784615c1c90919063ffffffff16565b615b1781600485615c5c9092919063ffffffff16565b50615b67565b67ffffffffffffffff81111515615b6657615b4e601b60058460ff169060020a021784615c1c90919063ffffffff16565b615b6481600885615c5c9092919063ffffffff16565b505b5b5b5b5b505050565b615b77615e72565b82602001518360000151518351011115615ba757615ba6836002615ba086602001518651615cc3565b02615cdf565b5b60008060008451905085518051602081830101945086518101825260208701935050505b602081101515615bf05781518352602083019250602082019150602081039050615bcb565b60006001826020036101000a039050801983511681855116818117865250508694505050505092915050565b81602001516001836000015151011115615c4257615c41826002846020015102615cdf565b5b815180516020818301018381536001820183525050505050565b615c64615e72565b836020015184600001515183011115615c9257615c91846002615c8b876020015186615cc3565b02615cdf565b5b60006001836101000a0390508451805184818301018684198251161781528582018352505050849150509392505050565b600081831115615cd557829050615cd9565b8190505b92915050565b606082600001519050615cf28383615961565b615cfc8382615b6f565b50505050565b50805460018160011615610100020316600290046000825580601f10615d285750615d47565b601f016020900490600052602060002090810190615d469190615e8c565b5b50565b828054600181600116156101000203166002900490600052602060002090601f016020900481019282601f10615d8b57805160ff1916838001178555615db9565b82800160010185558215615db9579182015b82811115615db8578251825591602001919060010190615d9d565b5b509050615dc69190615e8c565b5090565b6080604051908101604052806004905b6060815260200190600190039081615dda5790505090565b828054600181600116156101000203166002900490600052602060002090601f016020900481019282601f10615e3357805160ff1916838001178555615e61565b82800160010185558215615e61579182015b82811115615e60578251825591602001919060010190615e45565b5b509050615e6e9190615e8c565b5090565b604080519081016040528060608152602001600081525090565b615eae91905b80821115615eaa576000816000905550600101615e92565b5090565b9056fea165627a7a72305820f55f6cb9093bb62c351f37aac885e2687be8c98291faf7cab002c145d7be709d0029",
  "source": "pragma solidity >= 0.5.0 < 0.6.0;\n\nimport \"./Token.sol\";\nimport \"./SafeMath.sol\";\nimport \"./Owned.sol\";\nimport \"installed_contracts/oraclize-api/contracts/usingOraclize.sol\";\n\ncontract CompraToken is Owned, usingOraclize  {\n    address admin;\n    Token public tokenContract;\n    uint256 public PrecioToken;\n    uint256 public tokensVendidos;\n    bool public Activo = false;\n    bool public IsAdmin = false;\n    \n    \n\n    event Venta(\n        address _comprador,\n         uint256 _tokens\n         );\n         event Prestamo(\n        address _comprador,\n         uint256 _tokens\n         );\n    event Pago(\n        address _depositante,\n         uint256 cantidad\n         );\n    event Retiro(\n        address _retira,\n         uint256 cantidad\n         );   \n    \n    event nuevoCliente(\n        uint record\n    );  \n    event CostoSeguro(         \n       uint CostoSeguro\n    );    \n    event newRandomNumber_bytes(bytes);\n    event newRandomNumber_uint(uint);   \n\n    mapping(address => uint) public CostSeguro;\n    mapping(uint => uint) public aseguradoraPrecioAparcado;\n    mapping(uint => uint) public aseguradoraPrecioCarretera;\n    mapping(uint => uint) public aseguradoraPrecioCiudad;\n    mapping(address => user) public users;\n    mapping(address => coche) public coches;\n    \n struct user {\n        string IdUser;\n        string DNI;\n        string VATNumber;\n        uint TypeUser;\n        uint record;\n        uint PrecioAparcado;\n        uint PrecioKmCarretera;\n        uint PrecioKmCiudad;        \n        uint MaxCredito;\n        uint IdCoche;\n }\n   \n   struct coche {\nuint IdCoche;\nuint KmCarretera;\nuint KmCiudad;\nuint TiempoAparcado;\nuint Estado;\n} \n\n\n//** @title Constructor. */\n    constructor(Token _tokenContract, uint256 _PrecioToken) public {\n         /**@param _tokencontract address del contrato Token.sol.\n       @param _PrecioToken recibe el precio de los tokens definidos en el archivo de inicializacin*/\n\n      /** @dev Asigna la cuenta administrador al que realiza el deploy\n      y asigna los valores recibidos las variables token contract y PrecioToken para utilizarlas en este contrato\n      */ \n        admin = msg.sender;\n        tokenContract = _tokenContract;\n        PrecioToken = _PrecioToken;\n    }\n//** @title Compra de tokens. */\n    function compraTokens(uint256 _numeroTokens) public payable {\n          /**@param _numeroTokens cantidad a comprarr.\n \n      /** @dev verificar que el precio a pagar sea el precio estblecido\n      verifica que el contrato cuente con los tokens solicitados para comprar\n      verifica que se haya realizado la transaccin satisfactoriamente desde el contrato Token.sol.\n      Actualiza el valor de los tokens vendidos\n      */ \n        require(msg.value == SafeMath.mul(_numeroTokens, PrecioToken));\n        require(tokenContract.balanceOf(address(this)) >= _numeroTokens);\n        require(tokenContract.transfer(msg.sender, _numeroTokens));\n\n        tokensVendidos += _numeroTokens;\n        /** @return devuelve el addres del que compra y la cantidad*/\n        emit Venta(msg.sender, _numeroTokens);\n    }\n    function prestamoTokens(uint256 _numeroTokens) public payable {\n          /**@param _numeroTokens cantidad a comprarr.\n \n      /** @dev verificar que el precio a pagar sea el precio estblecido\n      verifica que el contrato cuente con los tokens solicitados para comprar\n      verifica que se haya realizado la transaccin satisfactoriamente desde el contrato Token.sol.\n      Actualiza el valor de los tokens vendidos\n      */ \n        require(_numeroTokens <= users[msg.sender].MaxCredito);\n        require(tokenContract.balanceOf(address(this)) >= _numeroTokens);\n        require(tokenContract.transfer(msg.sender, _numeroTokens));\n\n        tokensVendidos += _numeroTokens;\n        users[msg.sender].MaxCredito -= _numeroTokens; \n        /** @return devuelve el addres del que compra y la cantidad*/\n        emit Prestamo(msg.sender, _numeroTokens);\n    }\n//** @title Depotio de tokens. */\n    function pagarTokens(uint _pago) public payable {\n        /**@param _contribucion cantidad a ahorrar.\n       @param fechaEjecucion fecha en que se realiza el deposito.*/\n      /** @dev verificar que el balance de quien enva sea mayor a la cantidad a enviar\n      verifica que se haya realizado la transaccin satisfactoriamente desde el contrato Token.sol.\n      */ \n        require(tokenContract.balanceOf(msg.sender) >= _pago);\n        require(tokenContract.transferFrom(msg.sender, address(this), _pago));\n       /** @return devuelve el address del que solicita el deposito y la cantidad.*/\n        emit Pago(msg.sender, _pago);\n    }\n\n    function aumentarSupply(uint value) public onlyOwner returns (bool) {\n        tokenContract.transferAumentoSupply(value);\n        return true;\n    }\n\n\n    \n    //** @title detener el contrato. */\n    function DetenerContratoToken() public onlyOwner returns (bool) {\n        Activo = true;\n        /** @dev Modificar el valor de la variable true desactivando el Smart contract.*/\n    }\n    //** @title Activar el contrato. */\n    function ActivarContratoToken() public onlyOwner returns (bool) {\n        Activo = false;\n        /** @dev Modificar el valor de la vriable true activando el Smart contract.*/\n    }\n    //** @title Crear Ahorrador. */\n    \n\n    function actualizarPrecioAparcado(uint idEmpresa, uint precioAparcado) public {\n        aseguradoraPrecioAparcado[idEmpresa] = precioAparcado;\n    }\n    function actualizarPrecioCarretera(uint idEmpresa, uint precioCarretera) public {\n        aseguradoraPrecioCarretera[idEmpresa] = precioCarretera;\n    }\n    function actualizarPrecioCiudad(uint idEmpresa, uint precioCiudad) public {\n        aseguradoraPrecioCiudad[idEmpresa] = precioCiudad;\n    }\n   \n\n//** @title Constructor. */\n    \n//** @title Compra de tokens. */\n    function costoSeguro(uint CostoTotal) public {\n          /**@param _numeroTokens cantidad a comprar.\n \n      /** @dev verificar que el precio a pagar sea el precio establecido\n      verifica que el contrato cuente con los tokens solicitados para comprar\n      verifica que se haya realizado la transaccin satisfactoriamente desde el contrato Token.sol.\n      Actualiza el valor de los tokens vendidos\n      */ \n        \n        CostSeguro[msg.sender] = CostoTotal;\n        emit CostoSeguro(CostoTotal);\n    }\n\n    function CheckAdmin() public onlyOwner returns (bool)\n    {   \n        IsAdmin = true; \n        return (IsAdmin);\n        //returns true if it is the owner of the contract\n    }\n\n    function fetchUser() public view returns (string memory)\n\n    {\n\n        return (users[msg.sender].IdUser);\n    }\n    \n    /*function RegistraTime() public returns (bool)\n\n    {\n        users[msg.sender].timestamp=now;\n        return (true);\n    }*/\n\n   function NewUser(string memory IdUsuario, uint TypeUser, string memory DNI, string memory VATNumber, uint record) public \n    {\n//solo deberia poder darese de alta una vez el usuario\n       \n        require(Activo == false);\n       //require((ownerCuentaLeasing[msg.sender]) == 0);      \n       \n        users[msg.sender] = user(IdUsuario, DNI, VATNumber, TypeUser, record, 0, 0, 0, 0, 0);\n        \n        \n        emit nuevoCliente(TypeUser); \n       \n    }\n\n\n    /*function getUser(address dir) public view returns (string memory ,uint ,uint)\n\n    {\n\n        return (users[dir].IdUser,users[dir].TypeUser,users[dir].timestamp);\n    }*/\n\n\n\nfunction deleteUser(address dir) public returns (bool)\n\n    {\n        delete users[dir];\n        return (true);\n    }\n\n    \n\n    function actualizarSeguro(uint precioKmCiudad, uint precioKmCarretera, uint precioAparcado) public returns (bool)\n\n    {\n        //Solo debera poder contratar un leasing el cliente\n        \n        users[msg.sender].PrecioAparcado = precioAparcado;\n        users[msg.sender].PrecioKmCarretera = precioKmCarretera;\n        users[msg.sender].PrecioKmCiudad = precioKmCiudad;\n\n      \n        return (true);\n    }\n\n\n   function RandomExample() public {\n        oraclize_setProof(proofType_Ledger); // sets the Ledger authenticity proof in the constructor\n        update(); // let's ask for N random bytes immediately when the contract is created!\n    }\n\n    // the callback function is called by Oraclize when the result is ready\n    // the oraclize_randomDS_proofVerify modifier prevents an invalid proof to execute this function code:\n    // the proof validity is fully verified on-chain\n    mapping(uint => uint) public Aleatorio;\n\n    function __callback(bytes32 _queryId, string memory _result, bytes memory _proof) public\n    {\n        \n        require(msg.sender != oraclize_cbAddress());\n\n        if (oraclize_randomDS_proofVerify__returnCode(_queryId, _result, _proof) != 0) {\n            // the proof verification has failed, do we need to take any action here? (depends on the use case)\n        } else {\n            // the proof verification has passed\n            // now that we know that the random number was safely generated, let's use it..\n\n            emit newRandomNumber_bytes(bytes(_result)); // this is the resulting random number (bytes)\n\n            // for simplicity of use, let's also convert the random bytes to uint if we need\n            uint maxRange = 2**(8* 7); // this is the highest uint we want to get. It should never be greater than 2^(8*N), where N is the number of random bytes we had asked the datasource to return\n            uint randomNumber = uint(keccak256(abi.encodePacked(_result))) % maxRange; // this is an efficient way to get the uint out in the [0, maxRange] range\n            Aleatorio[0] = randomNumber;\n            emit newRandomNumber_uint(randomNumber); // this is the resulting random number (uint)\n        }\n    }\n\n    function update() public payable {\n        uint N = 7; // number of random bytes we want the datasource to return\n        uint delay = 0; // number of seconds to wait before the execution takes place\n        uint callbackGas = 20000; // amount of gas we want Oraclize to set for the callback function\n        bytes32 queryId = oraclize_newRandomDSQuery(delay, N, callbackGas); // this function internally generates the correct oraclize_query and returns its queryId\n    } \n\n    function asignaCreditoMaximo(uint maxCredit) public returns (uint){\n    users[msg.sender].MaxCredito= maxCredit;\n    return users[msg.sender].MaxCredito;\n    //asignacin de crdito mximo por direccin de usuario\n    }\n\n\n\n\n}",
  "sourcePath": "/home/omar/TFM_OP_1/TFM-Leasing/Proyecto/contracts/CompraToken.sol",
  "compiler": {
    "name": "solc",
    "version": "0.5.0+commit.1d4f565a.Emscripten.clang"
  },
  "schemaVersion": "3.0.2",
  "updatedAt": "2019-03-31T16:50:16.762Z",
  "devdoc": {
    "methods": {}
  },
  "userdoc": {
    "methods": {}
  }
}