{
  "contractName": "CompraToken",
  "abi": [
    {
      "constant": true,
      "inputs": [],
      "name": "Activo",
      "outputs": [
        {
          "name": "",
          "type": "bool"
        }
      ],
      "payable": false,
      "stateMutability": "view",
      "type": "function",
      "signature": "0x12029e60"
    },
    {
      "constant": true,
      "inputs": [
        {
          "name": "",
          "type": "uint256"
        }
      ],
      "name": "Aleatorio",
      "outputs": [
        {
          "name": "",
          "type": "uint256"
        }
      ],
      "payable": false,
      "stateMutability": "view",
      "type": "function",
      "signature": "0x2c353ea9"
    },
    {
      "constant": true,
      "inputs": [],
      "name": "tokenContract",
      "outputs": [
        {
          "name": "",
          "type": "address"
        }
      ],
      "payable": false,
      "stateMutability": "view",
      "type": "function",
      "signature": "0x55a373d6"
    },
    {
      "constant": true,
      "inputs": [
        {
          "name": "",
          "type": "address"
        }
      ],
      "name": "CostSeguro",
      "outputs": [
        {
          "name": "",
          "type": "uint256"
        }
      ],
      "payable": false,
      "stateMutability": "view",
      "type": "function",
      "signature": "0x5977a96a"
    },
    {
      "constant": true,
      "inputs": [],
      "name": "tokensVendidos",
      "outputs": [
        {
          "name": "",
          "type": "uint256"
        }
      ],
      "payable": false,
      "stateMutability": "view",
      "type": "function",
      "signature": "0x5d8d223a"
    },
    {
      "constant": true,
      "inputs": [
        {
          "name": "",
          "type": "uint256"
        }
      ],
      "name": "aseguradoraPrecioAparcado",
      "outputs": [
        {
          "name": "",
          "type": "uint256"
        }
      ],
      "payable": false,
      "stateMutability": "view",
      "type": "function",
      "signature": "0x6cbbb62d"
    },
    {
      "constant": true,
      "inputs": [],
      "name": "PrecioAparcado",
      "outputs": [
        {
          "name": "",
          "type": "uint256"
        }
      ],
      "payable": false,
      "stateMutability": "view",
      "type": "function",
      "signature": "0x870b26d4"
    },
    {
      "constant": true,
      "inputs": [],
      "name": "PrecioKmCarretera",
      "outputs": [
        {
          "name": "",
          "type": "uint256"
        }
      ],
      "payable": false,
      "stateMutability": "view",
      "type": "function",
      "signature": "0xa7cf6dc9"
    },
    {
      "constant": true,
      "inputs": [
        {
          "name": "",
          "type": "address"
        }
      ],
      "name": "users",
      "outputs": [
        {
          "name": "IdUser",
          "type": "string"
        },
        {
          "name": "DNI",
          "type": "string"
        },
        {
          "name": "VATNumber",
          "type": "string"
        },
        {
          "name": "TypeUser",
          "type": "uint256"
        },
        {
          "name": "record",
          "type": "uint256"
        },
        {
          "name": "PrecioAparcado",
          "type": "uint256"
        },
        {
          "name": "PrecioKmCarretera",
          "type": "uint256"
        },
        {
          "name": "PrecioKmCiudad",
          "type": "uint256"
        },
        {
          "name": "MaxCredito",
          "type": "uint256"
        },
        {
          "name": "IdCoche",
          "type": "uint256"
        }
      ],
      "payable": false,
      "stateMutability": "view",
      "type": "function",
      "signature": "0xa87430ba"
    },
    {
      "constant": true,
      "inputs": [],
      "name": "IsAdmin",
      "outputs": [
        {
          "name": "",
          "type": "bool"
        }
      ],
      "payable": false,
      "stateMutability": "view",
      "type": "function",
      "signature": "0xacad8667"
    },
    {
      "constant": true,
      "inputs": [],
      "name": "PrecioToken",
      "outputs": [
        {
          "name": "",
          "type": "uint256"
        }
      ],
      "payable": false,
      "stateMutability": "view",
      "type": "function",
      "signature": "0xcfa6628a"
    },
    {
      "constant": true,
      "inputs": [
        {
          "name": "",
          "type": "uint256"
        }
      ],
      "name": "aseguradoraPrecioCiudad",
      "outputs": [
        {
          "name": "",
          "type": "uint256"
        }
      ],
      "payable": false,
      "stateMutability": "view",
      "type": "function",
      "signature": "0xef9c6425"
    },
    {
      "constant": true,
      "inputs": [],
      "name": "PrecioKmCiudad",
      "outputs": [
        {
          "name": "",
          "type": "uint256"
        }
      ],
      "payable": false,
      "stateMutability": "view",
      "type": "function",
      "signature": "0xf329b3df"
    },
    {
      "constant": true,
      "inputs": [
        {
          "name": "",
          "type": "uint256"
        }
      ],
      "name": "aseguradoraPrecioCarretera",
      "outputs": [
        {
          "name": "",
          "type": "uint256"
        }
      ],
      "payable": false,
      "stateMutability": "view",
      "type": "function",
      "signature": "0xfd99aeec"
    },
    {
      "inputs": [
        {
          "name": "_tokenContract",
          "type": "address"
        },
        {
          "name": "_PrecioToken",
          "type": "uint256"
        }
      ],
      "payable": false,
      "stateMutability": "nonpayable",
      "type": "constructor",
      "signature": "constructor"
    },
    {
      "anonymous": false,
      "inputs": [
        {
          "indexed": false,
          "name": "_comprador",
          "type": "address"
        },
        {
          "indexed": false,
          "name": "_tokens",
          "type": "uint256"
        }
      ],
      "name": "Venta",
      "type": "event",
      "signature": "0x73ab9be6246a9eb60faba3a7d2a824cb1915fbf017b6cdf338d65fbcf0f5bc9f"
    },
    {
      "anonymous": false,
      "inputs": [
        {
          "indexed": false,
          "name": "_depositante",
          "type": "address"
        },
        {
          "indexed": false,
          "name": "cantidad",
          "type": "uint256"
        }
      ],
      "name": "Pago",
      "type": "event",
      "signature": "0xb9dde9ba07bee40c833192b2e4701d1cee406ee484c22f55e60f924bb379ab8e"
    },
    {
      "anonymous": false,
      "inputs": [
        {
          "indexed": false,
          "name": "_retira",
          "type": "address"
        },
        {
          "indexed": false,
          "name": "cantidad",
          "type": "uint256"
        }
      ],
      "name": "Retiro",
      "type": "event",
      "signature": "0xebdddb82f24ed849145a8f144818f7d383a31047a4a7f30b928c65100f9b8eab"
    },
    {
      "anonymous": false,
      "inputs": [
        {
          "indexed": false,
          "name": "record",
          "type": "uint256"
        }
      ],
      "name": "nuevoCliente",
      "type": "event",
      "signature": "0x6ba4ead7636d04e0c95d33e655db0853aa65a450a0414cf4be9f3f4bf8f35c32"
    },
    {
      "anonymous": false,
      "inputs": [
        {
          "indexed": false,
          "name": "CostoSeguro",
          "type": "uint256"
        }
      ],
      "name": "CostoSeguro",
      "type": "event",
      "signature": "0x5a4bdf0af9a858387f554b96cd81418e7570789fde7c70afe9ff7d8e6cfaffe5"
    },
    {
      "anonymous": false,
      "inputs": [
        {
          "indexed": false,
          "name": "",
          "type": "bytes"
        }
      ],
      "name": "newRandomNumber_bytes",
      "type": "event",
      "signature": "0xab2f9e7e7e74d54a49792fd7ff57c497b14cd2bad49d7537937a5a527a50f0ac"
    },
    {
      "anonymous": false,
      "inputs": [
        {
          "indexed": false,
          "name": "",
          "type": "uint256"
        }
      ],
      "name": "newRandomNumber_uint",
      "type": "event",
      "signature": "0xb084d8f103616749e12a8d363f0b50f8bb8568b4086c093bd88140c74042c47a"
    },
    {
      "constant": false,
      "inputs": [
        {
          "name": "_numeroTokens",
          "type": "uint256"
        }
      ],
      "name": "compraTokens",
      "outputs": [],
      "payable": true,
      "stateMutability": "payable",
      "type": "function",
      "signature": "0xc29dd7c9"
    },
    {
      "constant": false,
      "inputs": [
        {
          "name": "_pago",
          "type": "uint256"
        }
      ],
      "name": "pagarTokens",
      "outputs": [],
      "payable": true,
      "stateMutability": "payable",
      "type": "function",
      "signature": "0x5ffd1b0b"
    },
    {
      "constant": false,
      "inputs": [
        {
          "name": "value",
          "type": "uint256"
        }
      ],
      "name": "aumentarSupply",
      "outputs": [
        {
          "name": "",
          "type": "bool"
        }
      ],
      "payable": false,
      "stateMutability": "nonpayable",
      "type": "function",
      "signature": "0x5877cbe5"
    },
    {
      "constant": false,
      "inputs": [],
      "name": "DetenerContratoToken",
      "outputs": [
        {
          "name": "",
          "type": "bool"
        }
      ],
      "payable": false,
      "stateMutability": "nonpayable",
      "type": "function",
      "signature": "0xb5555627"
    },
    {
      "constant": false,
      "inputs": [],
      "name": "ActivarContratoToken",
      "outputs": [
        {
          "name": "",
          "type": "bool"
        }
      ],
      "payable": false,
      "stateMutability": "nonpayable",
      "type": "function",
      "signature": "0x8dae461d"
    },
    {
      "constant": false,
      "inputs": [
        {
          "name": "idEmpresa",
          "type": "uint256"
        },
        {
          "name": "precioAparcado",
          "type": "uint256"
        }
      ],
      "name": "actualizarPrecioAparcado",
      "outputs": [],
      "payable": false,
      "stateMutability": "nonpayable",
      "type": "function",
      "signature": "0x7208177a"
    },
    {
      "constant": false,
      "inputs": [
        {
          "name": "idEmpresa",
          "type": "uint256"
        },
        {
          "name": "precioCarretera",
          "type": "uint256"
        }
      ],
      "name": "actualizarPrecioCarretera",
      "outputs": [],
      "payable": false,
      "stateMutability": "nonpayable",
      "type": "function",
      "signature": "0x02f58854"
    },
    {
      "constant": false,
      "inputs": [
        {
          "name": "idEmpresa",
          "type": "uint256"
        },
        {
          "name": "precioCiudad",
          "type": "uint256"
        }
      ],
      "name": "actualizarPrecioCiudad",
      "outputs": [],
      "payable": false,
      "stateMutability": "nonpayable",
      "type": "function",
      "signature": "0xa87e71be"
    },
    {
      "constant": false,
      "inputs": [
        {
          "name": "CostoTotal",
          "type": "uint256"
        }
      ],
      "name": "costoSeguro",
      "outputs": [],
      "payable": false,
      "stateMutability": "nonpayable",
      "type": "function",
      "signature": "0xb6a843b4"
    },
    {
      "constant": false,
      "inputs": [],
      "name": "CheckAdmin",
      "outputs": [
        {
          "name": "",
          "type": "bool"
        }
      ],
      "payable": false,
      "stateMutability": "nonpayable",
      "type": "function",
      "signature": "0x4e4dc82c"
    },
    {
      "constant": true,
      "inputs": [],
      "name": "fetchUser",
      "outputs": [
        {
          "name": "",
          "type": "string"
        }
      ],
      "payable": false,
      "stateMutability": "view",
      "type": "function",
      "signature": "0x8337d90f"
    },
    {
      "constant": false,
      "inputs": [
        {
          "name": "IdUsuario",
          "type": "string"
        },
        {
          "name": "TypeUser",
          "type": "uint256"
        },
        {
          "name": "DNI",
          "type": "string"
        },
        {
          "name": "VATNumber",
          "type": "string"
        },
        {
          "name": "record",
          "type": "uint256"
        }
      ],
      "name": "NewUser",
      "outputs": [],
      "payable": false,
      "stateMutability": "nonpayable",
      "type": "function",
      "signature": "0x67ff5c23"
    },
    {
      "constant": false,
      "inputs": [
        {
          "name": "dir",
          "type": "address"
        }
      ],
      "name": "deleteUser",
      "outputs": [
        {
          "name": "",
          "type": "bool"
        }
      ],
      "payable": false,
      "stateMutability": "nonpayable",
      "type": "function",
      "signature": "0x5c60f226"
    },
    {
      "constant": false,
      "inputs": [
        {
          "name": "precioKmCiudad",
          "type": "uint256"
        },
        {
          "name": "precioKmCarretera",
          "type": "uint256"
        },
        {
          "name": "precioAparcado",
          "type": "uint256"
        }
      ],
      "name": "actualizarSeguro",
      "outputs": [
        {
          "name": "",
          "type": "bool"
        }
      ],
      "payable": false,
      "stateMutability": "nonpayable",
      "type": "function",
      "signature": "0xe737f07e"
    },
    {
      "constant": false,
      "inputs": [],
      "name": "RandomExample",
      "outputs": [],
      "payable": false,
      "stateMutability": "nonpayable",
      "type": "function",
      "signature": "0x949f80b0"
    },
    {
      "constant": false,
      "inputs": [
        {
          "name": "_myid",
          "type": "bytes32"
        },
        {
          "name": "_result",
          "type": "string"
        }
      ],
      "name": "__callback",
      "outputs": [],
      "payable": false,
      "stateMutability": "nonpayable",
      "type": "function",
      "signature": "0x27dc297e"
    },
    {
      "constant": false,
      "inputs": [
        {
          "name": "_queryId",
          "type": "bytes32"
        },
        {
          "name": "_result",
          "type": "string"
        },
        {
          "name": "_proof",
          "type": "bytes"
        }
      ],
      "name": "__callback",
      "outputs": [],
      "payable": false,
      "stateMutability": "nonpayable",
      "type": "function",
      "signature": "0x38bbfa50"
    },
    {
      "constant": false,
      "inputs": [],
      "name": "update",
      "outputs": [],
      "payable": true,
      "stateMutability": "payable",
      "type": "function",
      "signature": "0xa2e62045"
    },
    {
      "constant": false,
      "inputs": [
        {
          "name": "maxCredit",
          "type": "uint256"
        }
      ],
      "name": "asignaCreditoMaximo",
      "outputs": [
        {
          "name": "",
          "type": "uint256"
        }
      ],
      "payable": false,
      "stateMutability": "nonpayable",
      "type": "function",
      "signature": "0xadc4f95c"
    }
  ],
  "bytecode": "0x60806040526000600a60006101000a81548160ff0219169083151502179055506000600a60016101000a81548160ff0219169083151502179055506050600b553480156200004c57600080fd5b5060405160408062005ccc833981018060405260408110156200006e57600080fd5b810190808051906020019092919080519060200190929190505050336000806101000a81548173ffffffffffffffffffffffffffffffffffffffff021916908373ffffffffffffffffffffffffffffffffffffffff16021790555033600660006101000a81548173ffffffffffffffffffffffffffffffffffffffff021916908373ffffffffffffffffffffffffffffffffffffffff16021790555081600760006101000a81548173ffffffffffffffffffffffffffffffffffffffff021916908373ffffffffffffffffffffffffffffffffffffffff160217905550806008819055505050615b6880620001646000396000f3fe6080604052600436106101a1576000357c0100000000000000000000000000000000000000000000000000000000900463ffffffff16806302f58854146101a657806312029e60146101eb57806327dc297e1461021a5780632c353ea9146102ec57806338bbfa501461033b5780634e4dc82c146104a457806355a373d6146104d35780635877cbe51461052a5780635977a96a1461057d5780635c60f226146105e25780635d8d223a1461064b5780635ffd1b0b1461067657806367ff5c23146106a45780636cbbb62d146108ae5780637208177a146108fd5780638337d90f14610942578063870b26d4146109d25780638dae461d146109fd578063949f80b014610a2c578063a2e6204514610a43578063a7cf6dc914610a4d578063a87430ba14610a78578063a87e71be14610c4b578063acad866714610c90578063adc4f95c14610cbf578063b555562714610d0e578063b6a843b414610d3d578063c29dd7c914610d78578063cfa6628a14610da6578063e737f07e14610dd1578063ef9c642514610e38578063f329b3df14610e87578063fd99aeec14610eb2575b600080fd5b3480156101b257600080fd5b506101e9600480360360408110156101c957600080fd5b810190808035906020019092919080359060200190929190505050610f01565b005b3480156101f757600080fd5b50610200610f1d565b604051808215151515815260200191505060405180910390f35b34801561022657600080fd5b506102ea6004803603604081101561023d57600080fd5b81019080803590602001909291908035906020019064010000000081111561026457600080fd5b82018360208201111561027657600080fd5b8035906020019184600183028401116401000000008311171561029857600080fd5b91908080601f016020809104026020016040519081016040528093929190818152602001838380828437600081840152601f19601f820116905080830192505050505050509192919290505050610f30565b005b3480156102f857600080fd5b506103256004803603602081101561030f57600080fd5b8101908080359060200190929190505050610f73565b6040518082815260200191505060405180910390f35b34801561034757600080fd5b506104a26004803603606081101561035e57600080fd5b81019080803590602001909291908035906020019064010000000081111561038557600080fd5b82018360208201111561039757600080fd5b803590602001918460018302840111640100000000831117156103b957600080fd5b91908080601f016020809104026020016040519081016040528093929190818152602001838380828437600081840152601f19601f8201169050808301925050505050505091929192908035906020019064010000000081111561041c57600080fd5b82018360208201111561042e57600080fd5b8035906020019184600183028401116401000000008311171561045057600080fd5b91908080601f016020809104026020016040519081016040528093929190818152602001838380828437600081840152601f19601f820116905080830192505050505050509192919290505050610f8b565b005b3480156104b057600080fd5b506104b9611170565b604051808215151515815260200191505060405180910390f35b3480156104df57600080fd5b506104e86111fd565b604051808273ffffffffffffffffffffffffffffffffffffffff1673ffffffffffffffffffffffffffffffffffffffff16815260200191505060405180910390f35b34801561053657600080fd5b506105636004803603602081101561054d57600080fd5b8101908080359060200190929190505050611223565b604051808215151515815260200191505060405180910390f35b34801561058957600080fd5b506105cc600480360360208110156105a057600080fd5b81019080803573ffffffffffffffffffffffffffffffffffffffff169060200190929190505050611356565b6040518082815260200191505060405180910390f35b3480156105ee57600080fd5b506106316004803603602081101561060557600080fd5b81019080803573ffffffffffffffffffffffffffffffffffffffff16906020019092919050505061136e565b604051808215151515815260200191505060405180910390f35b34801561065757600080fd5b50610660611423565b6040518082815260200191505060405180910390f35b6106a26004803603602081101561068c57600080fd5b8101908080359060200190929190505050611429565b005b3480156106b057600080fd5b506108ac600480360360a08110156106c757600080fd5b81019080803590602001906401000000008111156106e457600080fd5b8201836020820111156106f657600080fd5b8035906020019184600183028401116401000000008311171561071857600080fd5b91908080601f016020809104026020016040519081016040528093929190818152602001838380828437600081840152601f19601f820116905080830192505050505050509192919290803590602001909291908035906020019064010000000081111561078557600080fd5b82018360208201111561079757600080fd5b803590602001918460018302840111640100000000831117156107b957600080fd5b91908080601f016020809104026020016040519081016040528093929190818152602001838380828437600081840152601f19601f8201169050808301925050505050505091929192908035906020019064010000000081111561081c57600080fd5b82018360208201111561082e57600080fd5b8035906020019184600183028401116401000000008311171561085057600080fd5b91908080601f016020809104026020016040519081016040528093929190818152602001838380828437600081840152601f19601f820116905080830192505050505050509192919290803590602001909291905050506116da565b005b3480156108ba57600080fd5b506108e7600480360360208110156108d157600080fd5b8101908080359060200190929190505050611867565b6040518082815260200191505060405180910390f35b34801561090957600080fd5b506109406004803603604081101561092057600080fd5b81019080803590602001909291908035906020019092919050505061187f565b005b34801561094e57600080fd5b5061095761189b565b6040518080602001828103825283818151815260200191508051906020019080838360005b8381101561099757808201518184015260208101905061097c565b50505050905090810190601f1680156109c45780820380516001836020036101000a031916815260200191505b509250505060405180910390f35b3480156109de57600080fd5b506109e761197d565b6040518082815260200191505060405180910390f35b348015610a0957600080fd5b50610a12611983565b604051808215151515815260200191505060405180910390f35b348015610a3857600080fd5b50610a416119fe565b005b610a4b611a34565b005b348015610a5957600080fd5b50610a62611a5b565b6040518082815260200191505060405180910390f35b348015610a8457600080fd5b50610ac760048036036020811015610a9b57600080fd5b81019080803573ffffffffffffffffffffffffffffffffffffffff169060200190929190505050611a61565b604051808060200180602001806020018b81526020018a815260200189815260200188815260200187815260200186815260200185815260200184810384528e818151815260200191508051906020019080838360005b83811015610b39578082015181840152602081019050610b1e565b50505050905090810190601f168015610b665780820380516001836020036101000a031916815260200191505b5084810383528d818151815260200191508051906020019080838360005b83811015610b9f578082015181840152602081019050610b84565b50505050905090810190601f168015610bcc5780820380516001836020036101000a031916815260200191505b5084810382528c818151815260200191508051906020019080838360005b83811015610c05578082015181840152602081019050610bea565b50505050905090810190601f168015610c325780820380516001836020036101000a031916815260200191505b509d505050505050505050505050505060405180910390f35b348015610c5757600080fd5b50610c8e60048036036040811015610c6e57600080fd5b810190808035906020019092919080359060200190929190505050611c7d565b005b348015610c9c57600080fd5b50610ca5611c99565b604051808215151515815260200191505060405180910390f35b348015610ccb57600080fd5b50610cf860048036036020811015610ce257600080fd5b8101908080359060200190929190505050611cac565b6040518082815260200191505060405180910390f35b348015610d1a57600080fd5b50610d23611d3f565b604051808215151515815260200191505060405180910390f35b348015610d4957600080fd5b50610d7660048036036020811015610d6057600080fd5b8101908080359060200190929190505050611dba565b005b610da460048036036020811015610d8e57600080fd5b8101908080359060200190929190505050611e38565b005b348015610db257600080fd5b50610dbb6120de565b6040518082815260200191505060405180910390f35b348015610ddd57600080fd5b50610e1e60048036036060811015610df457600080fd5b810190808035906020019092919080359060200190929190803590602001909291905050506120e4565b604051808215151515815260200191505060405180910390f35b348015610e4457600080fd5b50610e7160048036036020811015610e5b57600080fd5b81019080803590602001909291905050506121c6565b6040518082815260200191505060405180910390f35b348015610e9357600080fd5b50610e9c6121de565b6040518082815260200191505060405180910390f35b348015610ebe57600080fd5b50610eeb60048036036020811015610ed557600080fd5b81019080803590602001909291905050506121e4565b6040518082815260200191505060405180910390f35b8060116000848152602001908152602001600020819055505050565b600a60009054906101000a900460ff1681565b610f6f828260006040519080825280601f01601f191660200182016040528015610f695781602001600182028038833980820191505090505b50610f8b565b5050565b60146020528060005260406000206000915090505481565b610f936121fc565b73ffffffffffffffffffffffffffffffffffffffff163373ffffffffffffffffffffffffffffffffffffffff1614151515610fcd57600080fd5b6000610fda848484612572565b60ff16141515610fe95761116b565b7fab2f9e7e7e74d54a49792fd7ff57c497b14cd2bad49d7537937a5a527a50f0ac826040518080602001828103825283818151815260200191508051906020019080838360005b8381101561104b578082015181840152602081019050611030565b50505050905090810190601f1680156110785780820380516001836020036101000a031916815260200191505b509250505060405180910390a160006701000000000000009050600081846040516020018082805190602001908083835b6020831015156110ce57805182526020820191506020810190506020830392506110a9565b6001836020036101000a038019825116818451168082178552505050505050905001915050604051602081830303815290604052805190602001206001900481151561111657fe5b0690508060146000808152602001908152602001600020819055507fb084d8f103616749e12a8d363f0b50f8bb8568b4086c093bd88140c74042c47a816040518082815260200191505060405180910390a150505b505050565b60008060009054906101000a900473ffffffffffffffffffffffffffffffffffffffff1673ffffffffffffffffffffffffffffffffffffffff163373ffffffffffffffffffffffffffffffffffffffff161415156111cd57600080fd5b6001600a60016101000a81548160ff021916908315150217905550600a60019054906101000a900460ff16905090565b600760009054906101000a900473ffffffffffffffffffffffffffffffffffffffff1681565b60008060009054906101000a900473ffffffffffffffffffffffffffffffffffffffff1673ffffffffffffffffffffffffffffffffffffffff163373ffffffffffffffffffffffffffffffffffffffff1614151561128057600080fd5b600760009054906101000a900473ffffffffffffffffffffffffffffffffffffffff1673ffffffffffffffffffffffffffffffffffffffff1663468d2649836040518263ffffffff167c010000000000000000000000000000000000000000000000000000000002815260040180828152602001915050602060405180830381600087803b15801561131157600080fd5b505af1158015611325573d6000803e3d6000fd5b505050506040513d602081101561133b57600080fd5b81019080805190602001909291905050505060019050919050565b600f6020528060005260406000206000915090505481565b6000601360008373ffffffffffffffffffffffffffffffffffffffff1673ffffffffffffffffffffffffffffffffffffffff168152602001908152602001600020600080820160006113c0919061598d565b6001820160006113d0919061598d565b6002820160006113e0919061598d565b6003820160009055600482016000905560058201600090556006820160009055600782016000905560088201600090556009820160009055505060019050919050565b60095481565b80600760009054906101000a900473ffffffffffffffffffffffffffffffffffffffff1673ffffffffffffffffffffffffffffffffffffffff166370a08231336040518263ffffffff167c0100000000000000000000000000000000000000000000000000000000028152600401808273ffffffffffffffffffffffffffffffffffffffff1673ffffffffffffffffffffffffffffffffffffffff16815260200191505060206040518083038186803b1580156114e557600080fd5b505afa1580156114f9573d6000803e3d6000fd5b505050506040513d602081101561150f57600080fd5b81019080805190602001909291905050501015151561152d57600080fd5b600760009054906101000a900473ffffffffffffffffffffffffffffffffffffffff1673ffffffffffffffffffffffffffffffffffffffff166323b872dd3330846040518463ffffffff167c0100000000000000000000000000000000000000000000000000000000028152600401808473ffffffffffffffffffffffffffffffffffffffff1673ffffffffffffffffffffffffffffffffffffffff1681526020018373ffffffffffffffffffffffffffffffffffffffff1673ffffffffffffffffffffffffffffffffffffffff1681526020018281526020019350505050602060405180830381600087803b15801561162657600080fd5b505af115801561163a573d6000803e3d6000fd5b505050506040513d602081101561165057600080fd5b8101908080519060200190929190505050151561166c57600080fd5b7fb9dde9ba07bee40c833192b2e4701d1cee406ee484c22f55e60f924bb379ab8e3382604051808373ffffffffffffffffffffffffffffffffffffffff1673ffffffffffffffffffffffffffffffffffffffff1681526020018281526020019250505060405180910390a150565b60001515600a60009054906101000a900460ff1615151415156116fc57600080fd5b61014060405190810160405280868152602001848152602001838152602001858152602001828152602001600081526020016000815260200160008152602001600081526020016000815250601360003373ffffffffffffffffffffffffffffffffffffffff1673ffffffffffffffffffffffffffffffffffffffff16815260200190815260200160002060008201518160000190805190602001906117a39291906159d5565b5060208201518160010190805190602001906117c09291906159d5565b5060408201518160020190805190602001906117dd9291906159d5565b50606082015181600301556080820151816004015560a0820151816005015560c0820151816006015560e08201518160070155610100820151816008015561012082015181600901559050507f6ba4ead7636d04e0c95d33e655db0853aa65a450a0414cf4be9f3f4bf8f35c32846040518082815260200191505060405180910390a15050505050565b60106020528060005260406000206000915090505481565b8060106000848152602001908152602001600020819055505050565b6060601360003373ffffffffffffffffffffffffffffffffffffffff1673ffffffffffffffffffffffffffffffffffffffff1681526020019081526020016000206000018054600181600116156101000203166002900480601f0160208091040260200160405190810160405280929190818152602001828054600181600116156101000203166002900480156119735780601f1061194857610100808354040283529160200191611973565b820191906000526020600020905b81548152906001019060200180831161195657829003601f168201915b5050505050905090565b600e5481565b60008060009054906101000a900473ffffffffffffffffffffffffffffffffffffffff1673ffffffffffffffffffffffffffffffffffffffff163373ffffffffffffffffffffffffffffffffffffffff161415156119e057600080fd5b6000600a60006101000a81548160ff02191690831515021790555090565b611a2a60307f01000000000000000000000000000000000000000000000000000000000000000261278a565b611a32611a34565b565b60006007905060008090506000614e2090506000611a53838584612b2b565b905050505050565b600d5481565b6013602052806000526040600020600091509050806000018054600181600116156101000203166002900480601f016020809104026020016040519081016040528092919081815260200182805460018160011615610100020316600290048015611b0d5780601f10611ae257610100808354040283529160200191611b0d565b820191906000526020600020905b815481529060010190602001808311611af057829003601f168201915b505050505090806001018054600181600116156101000203166002900480601f016020809104026020016040519081016040528092919081815260200182805460018160011615610100020316600290048015611bab5780601f10611b8057610100808354040283529160200191611bab565b820191906000526020600020905b815481529060010190602001808311611b8e57829003601f168201915b505050505090806002018054600181600116156101000203166002900480601f016020809104026020016040519081016040528092919081815260200182805460018160011615610100020316600290048015611c495780601f10611c1e57610100808354040283529160200191611c49565b820191906000526020600020905b815481529060010190602001808311611c2c57829003601f168201915b505050505090806003015490806004015490806005015490806006015490806007015490806008015490806009015490508a565b8060126000848152602001908152602001600020819055505050565b600a60019054906101000a900460ff1681565b600081601360003373ffffffffffffffffffffffffffffffffffffffff1673ffffffffffffffffffffffffffffffffffffffff16815260200190815260200160002060080181905550601360003373ffffffffffffffffffffffffffffffffffffffff1673ffffffffffffffffffffffffffffffffffffffff168152602001908152602001600020600801549050919050565b60008060009054906101000a900473ffffffffffffffffffffffffffffffffffffffff1673ffffffffffffffffffffffffffffffffffffffff163373ffffffffffffffffffffffffffffffffffffffff16141515611d9c57600080fd5b6001600a60006101000a81548160ff02191690831515021790555090565b80600f60003373ffffffffffffffffffffffffffffffffffffffff1673ffffffffffffffffffffffffffffffffffffffff168152602001908152602001600020819055507f5a4bdf0af9a858387f554b96cd81418e7570789fde7c70afe9ff7d8e6cfaffe5816040518082815260200191505060405180910390a150565b611e44816008546130f9565b34141515611e5157600080fd5b80600760009054906101000a900473ffffffffffffffffffffffffffffffffffffffff1673ffffffffffffffffffffffffffffffffffffffff166370a08231306040518263ffffffff167c0100000000000000000000000000000000000000000000000000000000028152600401808273ffffffffffffffffffffffffffffffffffffffff1673ffffffffffffffffffffffffffffffffffffffff16815260200191505060206040518083038186803b158015611f0d57600080fd5b505afa158015611f21573d6000803e3d6000fd5b505050506040513d6020811015611f3757600080fd5b810190808051906020019092919050505010151515611f5557600080fd5b600760009054906101000a900473ffffffffffffffffffffffffffffffffffffffff1673ffffffffffffffffffffffffffffffffffffffff1663a9059cbb33836040518363ffffffff167c0100000000000000000000000000000000000000000000000000000000028152600401808373ffffffffffffffffffffffffffffffffffffffff1673ffffffffffffffffffffffffffffffffffffffff16815260200182815260200192505050602060405180830381600087803b15801561201a57600080fd5b505af115801561202e573d6000803e3d6000fd5b505050506040513d602081101561204457600080fd5b8101908080519060200190929190505050151561206057600080fd5b806009600082825401925050819055507f73ab9be6246a9eb60faba3a7d2a824cb1915fbf017b6cdf338d65fbcf0f5bc9f3382604051808373ffffffffffffffffffffffffffffffffffffffff1673ffffffffffffffffffffffffffffffffffffffff1681526020018281526020019250505060405180910390a150565b60085481565b600081601360003373ffffffffffffffffffffffffffffffffffffffff1673ffffffffffffffffffffffffffffffffffffffff1681526020019081526020016000206005018190555082601360003373ffffffffffffffffffffffffffffffffffffffff1673ffffffffffffffffffffffffffffffffffffffff1681526020019081526020016000206006018190555083601360003373ffffffffffffffffffffffffffffffffffffffff1673ffffffffffffffffffffffffffffffffffffffff16815260200190815260200160002060070181905550600190509392505050565b60126020528060005260406000206000915090505481565b600c5481565b60116020528060005260406000206000915090505481565b60008073ffffffffffffffffffffffffffffffffffffffff16600260009054906101000a900473ffffffffffffffffffffffffffffffffffffffff1673ffffffffffffffffffffffffffffffffffffffff16148061228457506000612282600260009054906101000a900473ffffffffffffffffffffffffffffffffffffffff16613134565b145b1561229557612293600061313f565b505b600260009054906101000a900473ffffffffffffffffffffffffffffffffffffffff1673ffffffffffffffffffffffffffffffffffffffff166338cc48316040518163ffffffff167c0100000000000000000000000000000000000000000000000000000000028152600401602060405180830381600087803b15801561231b57600080fd5b505af115801561232f573d6000803e3d6000fd5b505050506040513d602081101561234557600080fd5b810190808051906020019092919050505073ffffffffffffffffffffffffffffffffffffffff16600160009054906101000a900473ffffffffffffffffffffffffffffffffffffffff1673ffffffffffffffffffffffffffffffffffffffff161415156124ae57600260009054906101000a900473ffffffffffffffffffffffffffffffffffffffff1673ffffffffffffffffffffffffffffffffffffffff166338cc48316040518163ffffffff167c0100000000000000000000000000000000000000000000000000000000028152600401602060405180830381600087803b15801561243257600080fd5b505af1158015612446573d6000803e3d6000fd5b505050506040513d602081101561245c57600080fd5b8101908080519060200190929190505050600160006101000a81548173ffffffffffffffffffffffffffffffffffffffff021916908373ffffffffffffffffffffffffffffffffffffffff1602179055505b600160009054906101000a900473ffffffffffffffffffffffffffffffffffffffff1673ffffffffffffffffffffffffffffffffffffffff1663c281d19e6040518163ffffffff167c010000000000000000000000000000000000000000000000000000000002815260040160206040518083038186803b15801561253257600080fd5b505afa158015612546573d6000803e3d6000fd5b505050506040513d602081101561255c57600080fd5b8101908080519060200190929190505050905090565b60007f4c000000000000000000000000000000000000000000000000000000000000008260008151811015156125a457fe5b9060200101517f010000000000000000000000000000000000000000000000000000000000000090047f0100000000000000000000000000000000000000000000000000000000000000027effffffffffffffffffffffffffffffffffffffffffffffffffffffffffffff19161415806126b957507f500000000000000000000000000000000000000000000000000000000000000082600181518110151561264957fe5b9060200101517f010000000000000000000000000000000000000000000000000000000000000090047f0100000000000000000000000000000000000000000000000000000000000000027effffffffffffffffffffffffffffffffffffffffffffffffffffffffffffff191614155b806127475750600160ff168260028151811015156126d357fe5b9060200101517f010000000000000000000000000000000000000000000000000000000000000090047f0100000000000000000000000000000000000000000000000000000000000000027f0100000000000000000000000000000000000000000000000000000000000000900460ff1614155b156127555760019050612783565b600061276a838686612765613150565b6131f2565b905080151561277d576002915050612783565b60009150505b9392505050565b600073ffffffffffffffffffffffffffffffffffffffff16600260009054906101000a900473ffffffffffffffffffffffffffffffffffffffff1673ffffffffffffffffffffffffffffffffffffffff1614806128115750600061280f600260009054906101000a900473ffffffffffffffffffffffffffffffffffffffff16613134565b145b1561282257612820600061313f565b505b600260009054906101000a900473ffffffffffffffffffffffffffffffffffffffff1673ffffffffffffffffffffffffffffffffffffffff166338cc48316040518163ffffffff167c0100000000000000000000000000000000000000000000000000000000028152600401602060405180830381600087803b1580156128a857600080fd5b505af11580156128bc573d6000803e3d6000fd5b505050506040513d60208110156128d257600080fd5b810190808051906020019092919050505073ffffffffffffffffffffffffffffffffffffffff16600160009054906101000a900473ffffffffffffffffffffffffffffffffffffffff1673ffffffffffffffffffffffffffffffffffffffff16141515612a3b57600260009054906101000a900473ffffffffffffffffffffffffffffffffffffffff1673ffffffffffffffffffffffffffffffffffffffff166338cc48316040518163ffffffff167c0100000000000000000000000000000000000000000000000000000000028152600401602060405180830381600087803b1580156129bf57600080fd5b505af11580156129d3573d6000803e3d6000fd5b505050506040513d60208110156129e957600080fd5b8101908080519060200190929190505050600160006101000a81548173ffffffffffffffffffffffffffffffffffffffff021916908373ffffffffffffffffffffffffffffffffffffffff1602179055505b600160009054906101000a900473ffffffffffffffffffffffffffffffffffffffff1673ffffffffffffffffffffffffffffffffffffffff1663688dcfd7826040518263ffffffff167c010000000000000000000000000000000000000000000000000000000002815260040180827effffffffffffffffffffffffffffffffffffffffffffffffffffffffffffff19167effffffffffffffffffffffffffffffffffffffffffffffffffffffffffffff19168152602001915050600060405180830381600087803b158015612b1057600080fd5b505af1158015612b24573d6000803e3d6000fd5b5050505050565b60008083118015612b3d575060208311155b1515612b4857600080fd5b600a84029350606060016040519080825280601f01601f191660200182016040528015612b845781602001600182028038833980820191505090505b509050837f010000000000000000000000000000000000000000000000000000000000000002816000815181101515612bb957fe5b9060200101907effffffffffffffffffffffffffffffffffffffffffffffffffffffffffffff1916908160001a905350606060206040519080825280601f01601f191660200182016040528015612c1f5781602001600182028038833980820191505090505b509050606060206040519080825280601f01601f191660200182016040528015612c585781602001600182028038833980820191505090505b5090506000612c656139d7565b905060208352424118600143034018602084015260208252806020830152606060206040519080825280601f01601f191660200182016040528015612cb95781602001600182028038833980820191505090505b509050886020820152606060086040519080825280601f01601f191660200182016040528015612cf85781602001600182028038833980820191505090505b509050612d0b8260186008846000613d4d565b50612d14615a55565b6080604051908101604052808781526020018881526020018681526020018481525090506000612d7a6040805190810160405280600681526020017f72616e646f6d0000000000000000000000000000000000000000000000000000815250838c613dae565b9050606060086040519080825280601f01601f191660200182016040528015612db25781602001600182028038833980820191505090505b50905060208401517f0100000000000000000000000000000000000000000000000000000000000000810460278301537e01000000000000000000000000000000000000000000000000000000000000810460268301537d010000000000000000000000000000000000000000000000000000000000810460258301537c0100000000000000000000000000000000000000000000000000000000810460248301537b01000000000000000000000000000000000000000000000000000000810460238301537a0100000000000000000000000000000000000000000000000000008104602283015379010000000000000000000000000000000000000000000000000081046021830153780100000000000000000000000000000000000000000000000081046020830153506130e68282856001600481101515612ef357fe5b60200201516002876000600481101515612f0957fe5b60200201516040518082805190602001908083835b602083101515612f435780518252602082019150602081019050602083039250612f1e565b6001836020036101000a038019825116818451168082178552505050505050905001915050602060405180830381855afa158015612f85573d6000803e3d6000fd5b5050506040513d6020811015612f9a57600080fd5b8101908080519060200190929190505050876002600481101515612fba57fe5b60200201516040516020018085805190602001908083835b602083101515612ff75780518252602082019150602081019050602083039250612fd2565b6001836020036101000a03801982511681845116808217855250505050505090500184805190602001908083835b60208310151561304a5780518252602082019150602081019050602083039250613025565b6001836020036101000a03801982511681845116808217855250505050505090500183815260200182805190602001908083835b6020831015156130a3578051825260208201915060208101905060208303925061307e565b6001836020036101000a0380198251168184511680821785525050505050509050019450505050506040516020818303038152906040528051906020012061416f565b8199505050505050505050509392505050565b60008083141561310c576000905061312e565b6000828402905082848281151561311f57fe5b0414151561312957fe5b809150505b92915050565b6000813b9050919050565b600061314961418b565b9050919050565b606060038054600181600116156101000203166002900480601f0160208091040260200160405190810160405280929190818152602001828054600181600116156101000203166002900480156131e85780601f106131bd576101008083540402835291602001916131e8565b820191906000526020600020905b8154815290600101906020018083116131cb57829003601f168201915b5050505050905090565b6000806020600287604581518110151561320857fe5b9060200101517f010000000000000000000000000000000000000000000000000000000000000090047f0100000000000000000000000000000000000000000000000000000000000000027f0100000000000000000000000000000000000000000000000000000000000000900460ff1601604401019050606060206040519080825280601f01601f1916602001820160405280156132b65781602001600182028038833980820191505090505b5090506132c887836020846000613d4d565b50600284876040516020018083805190602001908083835b60208310151561330557805182526020820191506020810190506020830392506132e0565b6001836020036101000a038019825116818451168082178552505050505050905001828152602001925050506040516020818303038152906040526040518082805190602001908083835b6020831015156133755780518252602082019150602081019050602083039250613350565b6001836020036101000a038019825116818451168082178552505050505050905001915050602060405180830381855afa1580156133b7573d6000803e3d6000fd5b5050506040513d60208110156133cc57600080fd5b81019080805190602001909291905050506040516020018082815260200191505060405160208183030381529060405280519060200120818051906020012014151561341d576000925050506139cf565b60606002886001604986010181518110151561343557fe5b9060200101517f010000000000000000000000000000000000000000000000000000000000000090047f0100000000000000000000000000000000000000000000000000000000000000027f0100000000000000000000000000000000000000000000000000000000000000900460ff16016040519080825280601f01601f1916602001820160405280156134d95781602001600182028038833980820191505090505b5090506134ee88604985018351846000613d4d565b5061361d6002826040518082805190602001908083835b60208310151561352a5780518252602082019150602081019050602083039250613505565b6001836020036101000a038019825116818451168082178552505050505050905001915050602060405180830381855afa15801561356c573d6000803e3d6000fd5b5050506040513d602081101561358157600080fd5b8101908080519060200190929190505050878a600860208801018151811015156135a757fe5b9060200101517f010000000000000000000000000000000000000000000000000000000000000090047f0100000000000000000000000000000000000000000000000000000000000000027f0100000000000000000000000000000000000000000000000000000000000000900460ff16614621565b151561362f57600093505050506139cf565b606060296040519080825280601f01601f1916602001820160405280156136655781602001600182028038833980820191505090505b50905061367a89602086016029846000613d4d565b506060604080519080825280601f01601f1916602001820160405280156136b05781602001600182028038833980820191505090505b50905060006041845160296020890101010190506136d68b604083036040856000613d4d565b5060006002836040518082805190602001908083835b60208310151561371157805182526020820191506020810190506020830392506136ec565b6001836020036101000a038019825116818451168082178552505050505050905001915050602060405180830381855afa158015613753573d6000803e3d6000fd5b5050506040513d602081101561376857600080fd5b8101908080519060200190929190505050905083816040516020018083805190602001908083835b6020831015156137b55780518252602082019150602081019050602083039250613790565b6001836020036101000a0380198251168184511680821785525050505050509050018281526020019250505060405160208183030381529060405280519060200120600460008d815260200190815260200160002054141561382d57600460008c81526020019081526020016000206000905561383d565b60009750505050505050506139cf565b606060496040519080825280601f01601f1916602001820160405280156138735781602001600182028038833980820191505090505b5090506138858d896049846000613d4d565b506139306002826040518082805190602001908083835b6020831015156138c1578051825260208201915060208101905060208303925061389c565b6001836020036101000a038019825116818451168082178552505050505050905001915050602060405180830381855afa158015613903573d6000803e3d6000fd5b5050506040513d602081101561391857600080fd5b81019080805190602001909291905050508786614738565b1515613947576000985050505050505050506139cf565b6005600083815260200190815260200160002060009054906101000a900460ff1615156139a3576139788d846149bc565b6005600084815260200190815260200160002060006101000a81548160ff0219169083151502179055505b6005600083815260200190815260200160002060009054906101000a900460ff16985050505050505050505b949350505050565b60008073ffffffffffffffffffffffffffffffffffffffff16600260009054906101000a900473ffffffffffffffffffffffffffffffffffffffff1673ffffffffffffffffffffffffffffffffffffffff161480613a5f57506000613a5d600260009054906101000a900473ffffffffffffffffffffffffffffffffffffffff16613134565b145b15613a7057613a6e600061313f565b505b600260009054906101000a900473ffffffffffffffffffffffffffffffffffffffff1673ffffffffffffffffffffffffffffffffffffffff166338cc48316040518163ffffffff167c0100000000000000000000000000000000000000000000000000000000028152600401602060405180830381600087803b158015613af657600080fd5b505af1158015613b0a573d6000803e3d6000fd5b505050506040513d6020811015613b2057600080fd5b810190808051906020019092919050505073ffffffffffffffffffffffffffffffffffffffff16600160009054906101000a900473ffffffffffffffffffffffffffffffffffffffff1673ffffffffffffffffffffffffffffffffffffffff16141515613c8957600260009054906101000a900473ffffffffffffffffffffffffffffffffffffffff1673ffffffffffffffffffffffffffffffffffffffff166338cc48316040518163ffffffff167c0100000000000000000000000000000000000000000000000000000000028152600401602060405180830381600087803b158015613c0d57600080fd5b505af1158015613c21573d6000803e3d6000fd5b505050506040513d6020811015613c3757600080fd5b8101908080519060200190929190505050600160006101000a81548173ffffffffffffffffffffffffffffffffffffffff021916908373ffffffffffffffffffffffffffffffffffffffff1602179055505b600160009054906101000a900473ffffffffffffffffffffffffffffffffffffffff1673ffffffffffffffffffffffffffffffffffffffff1663abaa5f3e6040518163ffffffff167c010000000000000000000000000000000000000000000000000000000002815260040160206040518083038186803b158015613d0d57600080fd5b505afa158015613d21573d6000803e3d6000fd5b505050506040513d6020811015613d3757600080fd5b8101908080519060200190929190505050905090565b60606000828501905080845110151515613d6657600080fd5b600086602001905060008460200190505b868860200101821015613d9f5781890151808288015250602082019150602081019050613d77565b85935050505095945050505050565b60008073ffffffffffffffffffffffffffffffffffffffff16600260009054906101000a900473ffffffffffffffffffffffffffffffffffffffff1673ffffffffffffffffffffffffffffffffffffffff161480613e3657506000613e34600260009054906101000a900473ffffffffffffffffffffffffffffffffffffffff16613134565b145b15613e4757613e45600061313f565b505b600260009054906101000a900473ffffffffffffffffffffffffffffffffffffffff1673ffffffffffffffffffffffffffffffffffffffff166338cc48316040518163ffffffff167c0100000000000000000000000000000000000000000000000000000000028152600401602060405180830381600087803b158015613ecd57600080fd5b505af1158015613ee1573d6000803e3d6000fd5b505050506040513d6020811015613ef757600080fd5b810190808051906020019092919050505073ffffffffffffffffffffffffffffffffffffffff16600160009054906101000a900473ffffffffffffffffffffffffffffffffffffffff1673ffffffffffffffffffffffffffffffffffffffff1614151561406057600260009054906101000a900473ffffffffffffffffffffffffffffffffffffffff1673ffffffffffffffffffffffffffffffffffffffff166338cc48316040518163ffffffff167c0100000000000000000000000000000000000000000000000000000000028152600401602060405180830381600087803b158015613fe457600080fd5b505af1158015613ff8573d6000803e3d6000fd5b505050506040513d602081101561400e57600080fd5b8101908080519060200190929190505050600160006101000a81548173ffffffffffffffffffffffffffffffffffffffff021916908373ffffffffffffffffffffffffffffffffffffffff1602179055505b6060600460405190808252806020026020018201604052801561409757816020015b60608152602001906001900390816140825790505b5090508360006004811015156140a957fe5b60200201518160008151811015156140bd57fe5b906020019060200201819052508360016004811015156140d957fe5b60200201518160018151811015156140ed57fe5b9060200190602002018190525083600260048110151561410957fe5b602002015181600281518110151561411d57fe5b9060200190602002018190525083600360048110151561413957fe5b602002015181600381518110151561414d57fe5b90602001906020020181905250614165858285614f25565b9150509392505050565b8060046000848152602001908152602001600020819055505050565b6000806141ab731d3b2638a7cc9f2cb3d298a3da7a90b67e5506ed613134565b111561424d57731d3b2638a7cc9f2cb3d298a3da7a90b67e5506ed600260006101000a81548173ffffffffffffffffffffffffffffffffffffffff021916908373ffffffffffffffffffffffffffffffffffffffff1602179055506142446040805190810160405280600b81526020017f6574685f6d61696e6e65740000000000000000000000000000000000000000008152506154fe565b6001905061461e565b600061426c73c03a2615d5efaf5f49f60b7bb6583eaec212fdf1613134565b111561430e5773c03a2615d5efaf5f49f60b7bb6583eaec212fdf1600260006101000a81548173ffffffffffffffffffffffffffffffffffffffff021916908373ffffffffffffffffffffffffffffffffffffffff1602179055506143056040805190810160405280600c81526020017f6574685f726f707374656e3300000000000000000000000000000000000000008152506154fe565b6001905061461e565b600061432d73b7a07bcf2ba2f2703b24c0691b5278999c59ac7e613134565b11156143cf5773b7a07bcf2ba2f2703b24c0691b5278999c59ac7e600260006101000a81548173ffffffffffffffffffffffffffffffffffffffff021916908373ffffffffffffffffffffffffffffffffffffffff1602179055506143c66040805190810160405280600981526020017f6574685f6b6f76616e00000000000000000000000000000000000000000000008152506154fe565b6001905061461e565b60006143ee73146500cfd35b22e4a392fe0adc06de1a1368ed48613134565b11156144905773146500cfd35b22e4a392fe0adc06de1a1368ed48600260006101000a81548173ffffffffffffffffffffffffffffffffffffffff021916908373ffffffffffffffffffffffffffffffffffffffff1602179055506144876040805190810160405280600b81526020017f6574685f72696e6b6562790000000000000000000000000000000000000000008152506154fe565b6001905061461e565b60006144af736f485c8bf6fc43ea212e93bbf8ce046c7f1cb475613134565b111561451357736f485c8bf6fc43ea212e93bbf8ce046c7f1cb475600260006101000a81548173ffffffffffffffffffffffffffffffffffffffff021916908373ffffffffffffffffffffffffffffffffffffffff1602179055506001905061461e565b60006145327320e12a1f859b3feae5fb2a0a32c18f5a65555bbf613134565b1115614596577320e12a1f859b3feae5fb2a0a32c18f5a65555bbf600260006101000a81548173ffffffffffffffffffffffffffffffffffffffff021916908373ffffffffffffffffffffffffffffffffffffffff1602179055506001905061461e565b60006145b57351efaf4c8b3c9afbd5ab9f4bbc82784ab6ef8faa613134565b1115614619577351efaf4c8b3c9afbd5ab9f4bbc82784ab6ef8faa600260006101000a81548173ffffffffffffffffffffffffffffffffffffffff021916908373ffffffffffffffffffffffffffffffffffffffff1602179055506001905061461e565b600090505b90565b6000806001905082845114151561463757600080fd5b60008090505b8381101561472c57848181518110151561465357fe5b9060200101517f010000000000000000000000000000000000000000000000000000000000000090047f0100000000000000000000000000000000000000000000000000000000000000027effffffffffffffffffffffffffffffffffffffffffffffffffffffffffffff191686826020811015156146ce57fe5b1a7f0100000000000000000000000000000000000000000000000000000000000000027effffffffffffffffffffffffffffffffffffffffffffffffffffffffffffff191614151561471f57600091505b808060010191505061463d565b50809150509392505050565b6000806000806000606060206040519080825280601f01601f1916602001820160405280156147765781602001600182028038833980820191505090505b5090506000602089600381518110151561478c57fe5b9060200101517f010000000000000000000000000000000000000000000000000000000000000090047f0100000000000000000000000000000000000000000000000000000000000000027f0100000000000000000000000000000000000000000000000000000000000000900460ff1603600401905061481289826020856000613d4d565b9150606060206040519080825280601f01601f19166020018201604052801561484a5781602001600182028038833980820191505090505b5090506022820191506148e88a60208c6001860381518110151561486a57fe5b9060200101517f010000000000000000000000000000000000000000000000000000000000000090047f0100000000000000000000000000000000000000000000000000000000000000027f0100000000000000000000000000000000000000000000000000000000000000900460ff160384016020846000613d4d565b905060208301519450602081015193506149058b601b8787615518565b80975081985050508573ffffffffffffffffffffffffffffffffffffffff1689805190602001206001900473ffffffffffffffffffffffffffffffffffffffff16141561495c5760019750505050505050506149b5565b6149698b601c8787615518565b80975081985050508573ffffffffffffffffffffffffffffffffffffffff1689805190602001206001900473ffffffffffffffffffffffffffffffffffffffff16149750505050505050505b9392505050565b6000806060600285600186018151811015156149d457fe5b9060200101517f010000000000000000000000000000000000000000000000000000000000000090047f0100000000000000000000000000000000000000000000000000000000000000027f0100000000000000000000000000000000000000000000000000000000000000900460ff16016040519080825280601f01601f191660200182016040528015614a785781602001600182028038833980820191505090505b509050614a8a85858351846000613d4d565b506060604080519080825280601f01601f191660200182016040528015614ac05781602001600182028038833980820191505090505b509050614ad38660046040846000613d4d565b50606060626040519080825280601f01601f191660200182016040528015614b0a5781602001600182028038833980820191505090505b50905060017f010000000000000000000000000000000000000000000000000000000000000002816000815181101515614b4057fe5b9060200101907effffffffffffffffffffffffffffffffffffffffffffffffffffffffffffff1916908160001a905350614b8287604188036041846001613d4d565b5060606040805190810160405280602081526020017ffd94fa71bc0ba10d39d464d0d8f465efeef0a2764e3887fcc9df41ded20f505c8152509050614bcd8160006020856042613d4d565b50614c786002836040518082805190602001908083835b602083101515614c095780518252602082019150602081019050602083039250614be4565b6001836020036101000a038019825116818451168082178552505050505050905001915050602060405180830381855afa158015614c4b573d6000803e3d6000fd5b5050506040513d6020811015614c6057600080fd5b81019080805190602001909291905050508585614738565b9450841515614c8f57600095505050505050614f1f565b60608060405190810160405280604081526020017f7fb956469c5c9b89840d55b43537e66a98dd4811ea0a27224272c2e5622911e881526020017f537a2f8e86a46baec82864e98dd01e9ccc2f8bc5dfc9cbe5a91a290498dd96e48152509050606060426040519080825280601f01601f191660200182016040528015614d255781602001600182028038833980820191505090505b50905060fe7f010000000000000000000000000000000000000000000000000000000000000002816000815181101515614d5b57fe5b9060200101907effffffffffffffffffffffffffffffffffffffffffffffffffffffffffffff1916908160001a905350614d9b8a60036041846001613d4d565b50606060028b6045815181101515614daf57fe5b9060200101517f010000000000000000000000000000000000000000000000000000000000000090047f0100000000000000000000000000000000000000000000000000000000000000027f0100000000000000000000000000000000000000000000000000000000000000900460ff16016040519080825280601f01601f191660200182016040528015614e535781602001600182028038833980820191505090505b509050614e668b60448351846000613d4d565b50614f116002836040518082805190602001908083835b602083101515614ea25780518252602082019150602081019050602083039250614e7d565b6001836020036101000a038019825116818451168082178552505050505050905001915050602060405180830381855afa158015614ee4573d6000803e3d6000fd5b5050506040513d6020811015614ef957600080fd5b81019080805190602001909291905050508285614738565b975087985050505050505050505b92915050565b60008073ffffffffffffffffffffffffffffffffffffffff16600260009054906101000a900473ffffffffffffffffffffffffffffffffffffffff1673ffffffffffffffffffffffffffffffffffffffff161480614fad57506000614fab600260009054906101000a900473ffffffffffffffffffffffffffffffffffffffff16613134565b145b15614fbe57614fbc600061313f565b505b600260009054906101000a900473ffffffffffffffffffffffffffffffffffffffff1673ffffffffffffffffffffffffffffffffffffffff166338cc48316040518163ffffffff167c0100000000000000000000000000000000000000000000000000000000028152600401602060405180830381600087803b15801561504457600080fd5b505af1158015615058573d6000803e3d6000fd5b505050506040513d602081101561506e57600080fd5b810190808051906020019092919050505073ffffffffffffffffffffffffffffffffffffffff16600160009054906101000a900473ffffffffffffffffffffffffffffffffffffffff1673ffffffffffffffffffffffffffffffffffffffff161415156151d757600260009054906101000a900473ffffffffffffffffffffffffffffffffffffffff1673ffffffffffffffffffffffffffffffffffffffff166338cc48316040518163ffffffff167c0100000000000000000000000000000000000000000000000000000000028152600401602060405180830381600087803b15801561515b57600080fd5b505af115801561516f573d6000803e3d6000fd5b505050506040513d602081101561518557600080fd5b8101908080519060200190929190505050600160006101000a81548173ffffffffffffffffffffffffffffffffffffffff021916908373ffffffffffffffffffffffffffffffffffffffff1602179055505b6000600160009054906101000a900473ffffffffffffffffffffffffffffffffffffffff1673ffffffffffffffffffffffffffffffffffffffff16632ef3accc86856040518363ffffffff167c01000000000000000000000000000000000000000000000000000000000281526004018080602001838152602001828103825284818151815260200191508051906020019080838360005b8381101561528a57808201518184015260208101905061526f565b50505050905090810190601f1680156152b75780820380516001836020036101000a031916815260200191505b509350505050602060405180830381600087803b1580156152d757600080fd5b505af11580156152eb573d6000803e3d6000fd5b505050506040513d602081101561530157600080fd5b81019080805190602001909291905050509050823a02670de0b6b3a7640000018111156153355760006001029150506154f7565b60606153408561555c565b9050600160009054906101000a900473ffffffffffffffffffffffffffffffffffffffff1673ffffffffffffffffffffffffffffffffffffffff1663c55c1cb68360008985896040518663ffffffff167c0100000000000000000000000000000000000000000000000000000000028152600401808581526020018060200180602001848152602001838103835286818151815260200191508051906020019080838360005b838110156154015780820151818401526020810190506153e6565b50505050905090810190601f16801561542e5780820380516001836020036101000a031916815260200191505b50838103825285818151815260200191508051906020019080838360005b8381101561546757808201518184015260208101905061544c565b50505050905090810190601f1680156154945780820380516001836020036101000a031916815260200191505b5096505050505050506020604051808303818588803b1580156154b657600080fd5b505af11580156154ca573d6000803e3d6000fd5b50505050506040513d60208110156154e157600080fd5b8101908080519060200190929190505050925050505b9392505050565b8060039080519060200190615514929190615a7d565b5050565b60008060008060405188815287602082015286604082015285606082015260208160808360006001610bb8f192508051915050818193509350505094509492505050565b60606155666155e0565b61556e615afd565b61557a816104006155ec565b6155838161563c565b60008090505b83518110156155c9576155bc84828151811015156155a357fe5b906020019060200201518361564a90919063ffffffff16565b8080600101915050615589565b506155d38161566f565b8060000151915050919050565b60405180590338823950565b600081905060006020828115156155ff57fe5b0614151561561c5760208181151561561357fe5b06602003810190505b808360200181815250506040518084526000815281810160405250505050565b61564781600461567d565b50565b61565782600283516156a1565b61566a81836157fa90919063ffffffff16565b505050565b61567a81600761567d565b50565b61569d601f60058360ff169060020a0217836158a790919063ffffffff16565b5050565b6017811115156156d2576156cd8160058460ff169060020a0260ff1617846158a790919063ffffffff16565b6157f5565b60ff81111515615718576156fc601860058460ff169060020a0217846158a790919063ffffffff16565b615712816001856158e79092919063ffffffff16565b506157f4565b61ffff8111151561575f57615743601960058460ff169060020a0217846158a790919063ffffffff16565b615759816002856158e79092919063ffffffff16565b506157f3565b63ffffffff811115156157a85761578c601a60058460ff169060020a0217846158a790919063ffffffff16565b6157a2816004856158e79092919063ffffffff16565b506157f2565b67ffffffffffffffff811115156157f1576157d9601b60058460ff169060020a0217846158a790919063ffffffff16565b6157ef816008856158e79092919063ffffffff16565b505b5b5b5b5b505050565b615802615afd565b826020015183600001515183510111156158325761583183600261582b8660200151865161594e565b0261596a565b5b60008060008451905085518051602081830101945086518101825260208701935050505b60208110151561587b5781518352602083019250602082019150602081039050615856565b60006001826020036101000a039050801983511681855116818117865250508694505050505092915050565b816020015160018360000151510111156158cd576158cc82600284602001510261596a565b5b815180516020818301018381536001820183525050505050565b6158ef615afd565b83602001518460000151518301111561591d5761591c84600261591687602001518661594e565b0261596a565b5b60006001836101000a0390508451805184818301018684198251161781528582018352505050849150509392505050565b60008183111561596057829050615964565b8190505b92915050565b60608260000151905061597d83836155ec565b61598783826157fa565b50505050565b50805460018160011615610100020316600290046000825580601f106159b357506159d2565b601f0160209004906000526020600020908101906159d19190615b17565b5b50565b828054600181600116156101000203166002900490600052602060002090601f016020900481019282601f10615a1657805160ff1916838001178555615a44565b82800160010185558215615a44579182015b82811115615a43578251825591602001919060010190615a28565b5b509050615a519190615b17565b5090565b6080604051908101604052806004905b6060815260200190600190039081615a655790505090565b828054600181600116156101000203166002900490600052602060002090601f016020900481019282601f10615abe57805160ff1916838001178555615aec565b82800160010185558215615aec579182015b82811115615aeb578251825591602001919060010190615ad0565b5b509050615af99190615b17565b5090565b604080519081016040528060608152602001600081525090565b615b3991905b80821115615b35576000816000905550600101615b1d565b5090565b9056fea165627a7a72305820295cf41f981f3bce8c78389495499c9eb4fcde70c40284bb95c97039c8dcc2ce0029",
  "source": "pragma solidity >= 0.5.0 < 0.6.0;\n\nimport \"./Token.sol\";\nimport \"./SafeMath.sol\";\nimport \"./Owned.sol\";\nimport \"installed_contracts/oraclize-api/contracts/usingOraclize.sol\";\n\ncontract CompraToken is Owned, usingOraclize  {\n    address admin;\n    Token public tokenContract;\n    uint256 public PrecioToken;\n    uint256 public tokensVendidos;\n\n    \n    \n\n    event Venta(address _comprador, uint256 _tokens);\n    event Pago(address _depositante, uint256 cantidad);\n    event Retiro(address _retira, uint256 cantidad);\n\n\n\n\n\n//** @title Constructor. */\n    constructor(Token _tokenContract, uint256 _PrecioToken) public {\n         /**@param _tokencontract address del contrato Token.sol.\n       @param _PrecioToken recibe el precio de los tokens definidos en el archivo de inicializacin*/\n\n      /** @dev Asigna la cuenta administrador al que realiza el deploy\n      y asigna los valores recibidos las variables token contract y PrecioToken para utilizarlas en este contrato\n      */ \n        admin = msg.sender;\n        tokenContract = _tokenContract;\n        PrecioToken = _PrecioToken;\n    }\n//** @title Compra de tokens. */\n    function compraTokens(uint256 _numeroTokens) public payable {\n          /**@param _numeroTokens cantidad a comprarr.\n \n      /** @dev verificar que el precio a pagar sea el precio estblecido\n      verifica que el contrato cuente con los tokens solicitados para comprar\n      verifica que se haya realizado la transaccin satisfactoriamente desde el contrato Token.sol.\n      Actualiza el valor de los tokens vendidos\n      */ \n        require(msg.value == SafeMath.mul(_numeroTokens, PrecioToken));\n        require(tokenContract.balanceOf(address(this)) >= _numeroTokens);\n        require(tokenContract.transfer(msg.sender, _numeroTokens));\n\n        tokensVendidos += _numeroTokens;\n        /** @return devuelve el addres del que compra y la cantidad*/\n        emit Venta(msg.sender, _numeroTokens);\n    }\n//** @title Depotio de tokens. */\n    function pagarTokens(uint _pago) public payable {\n        /**@param _contribucion cantidad a ahorrar.\n       @param fechaEjecucion fecha en que se realiza el deposito.*/\n      /** @dev verificar que el balance de quien enva sea mayor a la cantidad a enviar\n      verifica que se haya realizado la transaccin satisfactoriamente desde el contrato Token.sol.\n      */ \n        require(tokenContract.balanceOf(msg.sender) >= _pago);\n        require(tokenContract.transferFrom(msg.sender, address(this), _pago));\n       /** @return devuelve el address del que solicita el deposito y la cantidad.*/\n        emit Pago(msg.sender, _pago);\n    }\n\n    function aumentarSupply(uint value) public onlyOwner returns (bool) {\n        tokenContract.transferAumentoSupply(value);\n        return true;\n    }\n\nbool public Activo = false;\n    bool public IsAdmin = false;\n    uint puntosLicencia = 80;//Este valor se debe obtener desde un Orculo\n    \n    event nuevoCliente(\n        uint record\n    );  \n    event CostoSeguro(         \n       uint CostoSeguro\n    );    \n    event newRandomNumber_bytes(bytes);\n    event newRandomNumber_uint(uint);\n\n    \n \n    uint256 public PrecioKmCiudad;\n    uint256 public PrecioKmCarretera;\n    uint256 public PrecioAparcado;\n\n    mapping(address => uint) public CostSeguro;\n    mapping(uint => uint) public aseguradoraPrecioAparcado;\n    mapping(uint => uint) public aseguradoraPrecioCarretera;\n    mapping(uint => uint) public aseguradoraPrecioCiudad;\n    mapping(address => user) public users;\n    \n struct user {\n        string IdUser;\n        string DNI;\n        string VATNumber;\n        uint TypeUser;\n        uint record;\n        uint PrecioAparcado;\n        uint PrecioKmCarretera;\n        uint PrecioKmCiudad;        \n        uint MaxCredito;\n        uint IdCoche;\n }\n   \n    \n    //** @title detener el contrato. */\n    function DetenerContratoToken() public onlyOwner returns (bool) {\n        Activo = true;\n        /** @dev Modificar el valor de la variable true desactivando el Smart contract.*/\n    }\n    //** @title Activar el contrato. */\n    function ActivarContratoToken() public onlyOwner returns (bool) {\n        Activo = false;\n        /** @dev Modificar el valor de la vriable true activando el Smart contract.*/\n    }\n    //** @title Crear Ahorrador. */\n    \n\n    function actualizarPrecioAparcado(uint idEmpresa, uint precioAparcado) public {\n        aseguradoraPrecioAparcado[idEmpresa] = precioAparcado;\n    }\n    function actualizarPrecioCarretera(uint idEmpresa, uint precioCarretera) public {\n        aseguradoraPrecioCarretera[idEmpresa] = precioCarretera;\n    }\n    function actualizarPrecioCiudad(uint idEmpresa, uint precioCiudad) public {\n        aseguradoraPrecioCiudad[idEmpresa] = precioCiudad;\n    }\n   \n\n//** @title Constructor. */\n    \n//** @title Compra de tokens. */\n    function costoSeguro(uint CostoTotal) public {\n          /**@param _numeroTokens cantidad a comprar.\n \n      /** @dev verificar que el precio a pagar sea el precio establecido\n      verifica que el contrato cuente con los tokens solicitados para comprar\n      verifica que se haya realizado la transaccin satisfactoriamente desde el contrato Token.sol.\n      Actualiza el valor de los tokens vendidos\n      */ \n        \n        CostSeguro[msg.sender] = CostoTotal;\n        emit CostoSeguro(CostoTotal);\n    }\n\n    function CheckAdmin() public onlyOwner returns (bool)\n    {   \n        IsAdmin = true; \n        return (IsAdmin);\n        //returns true if it is the owner of the contract\n    }\n\n    function fetchUser() public view returns (string memory)\n\n    {\n\n        return (users[msg.sender].IdUser);\n    }\n    \n    /*function RegistraTime() public returns (bool)\n\n    {\n        users[msg.sender].timestamp=now;\n        return (true);\n    }*/\n\n   function NewUser(string memory IdUsuario, uint TypeUser, string memory DNI, string memory VATNumber, uint record) public \n    {\n//solo deberia poder darese de alta una vez el usuario\n       \n        require(Activo == false);\n       //require((ownerCuentaLeasing[msg.sender]) == 0);      \n       \n        users[msg.sender] = user(IdUsuario, DNI, VATNumber, TypeUser, record, 0, 0, 0, 0, 0);\n        \n        \n        emit nuevoCliente(TypeUser); \n       \n    }\n\n\n    /*function getUser(address dir) public view returns (string memory ,uint ,uint)\n\n    {\n\n        return (users[dir].IdUser,users[dir].TypeUser,users[dir].timestamp);\n    }*/\n\n\n\nfunction deleteUser(address dir) public returns (bool)\n\n    {\n        delete users[dir];\n        return (true);\n    }\n\n    \n\n    function actualizarSeguro(uint precioKmCiudad, uint precioKmCarretera, uint precioAparcado) public returns (bool)\n\n    {\n        //Solo debera poder contratar un leasing el cliente\n        \n        users[msg.sender].PrecioAparcado = precioAparcado;\n        users[msg.sender].PrecioKmCarretera = precioKmCarretera;\n        users[msg.sender].PrecioKmCiudad = precioKmCiudad;\n\n      \n        return (true);\n    }\n\n\n   function RandomExample() public {\n        oraclize_setProof(proofType_Ledger); // sets the Ledger authenticity proof in the constructor\n        update(); // let's ask for N random bytes immediately when the contract is created!\n    }\n\n    // the callback function is called by Oraclize when the result is ready\n    // the oraclize_randomDS_proofVerify modifier prevents an invalid proof to execute this function code:\n    // the proof validity is fully verified on-chain\n    mapping(uint => uint) public Aleatorio;\n\n    function __callback(bytes32 _queryId, string memory _result, bytes memory _proof) public\n    {\n        \n        require(msg.sender != oraclize_cbAddress());\n\n        if (oraclize_randomDS_proofVerify__returnCode(_queryId, _result, _proof) != 0) {\n            // the proof verification has failed, do we need to take any action here? (depends on the use case)\n        } else {\n            // the proof verification has passed\n            // now that we know that the random number was safely generated, let's use it..\n\n            emit newRandomNumber_bytes(bytes(_result)); // this is the resulting random number (bytes)\n\n            // for simplicity of use, let's also convert the random bytes to uint if we need\n            uint maxRange = 2**(8* 7); // this is the highest uint we want to get. It should never be greater than 2^(8*N), where N is the number of random bytes we had asked the datasource to return\n            uint randomNumber = uint(keccak256(abi.encodePacked(_result))) % maxRange; // this is an efficient way to get the uint out in the [0, maxRange] range\n            Aleatorio[0] = randomNumber;\n            emit newRandomNumber_uint(randomNumber); // this is the resulting random number (uint)\n        }\n    }\n\n    function update() public payable {\n        uint N = 7; // number of random bytes we want the datasource to return\n        uint delay = 0; // number of seconds to wait before the execution takes place\n        uint callbackGas = 20000; // amount of gas we want Oraclize to set for the callback function\n        bytes32 queryId = oraclize_newRandomDSQuery(delay, N, callbackGas); // this function internally generates the correct oraclize_query and returns its queryId\n    } \n\n    function asignaCreditoMaximo(uint maxCredit) public returns (uint){\n    users[msg.sender].MaxCredito= maxCredit;\n    return users[msg.sender].MaxCredito;\n    //asignacin de crdito mximo por direccin de usuario\n    }\n\n\n\n\n}",
  "sourcePath": "/home/omar/TFM_OP_1/TFM-Leasing/Proyecto/contracts/CompraToken.sol",
  "compiler": {
    "name": "solc",
    "version": "0.5.0+commit.1d4f565a.Emscripten.clang"
  },
  "schemaVersion": "3.0.2",
  "updatedAt": "2019-03-31T15:46:43.326Z",
  "devdoc": {
    "methods": {}
  },
  "userdoc": {
    "methods": {}
  }
}