{
  "contractName": "Token",
  "abi": [
    {
      "constant": true,
      "inputs": [],
      "name": "Activo",
      "outputs": [
        {
          "name": "",
          "type": "bool"
        }
      ],
      "payable": false,
      "stateMutability": "view",
      "type": "function",
      "signature": "0x12029e60"
    },
    {
      "constant": true,
      "inputs": [],
      "name": "totalSupply",
      "outputs": [
        {
          "name": "",
          "type": "uint256"
        }
      ],
      "payable": false,
      "stateMutability": "view",
      "type": "function",
      "signature": "0x18160ddd"
    },
    {
      "constant": true,
      "inputs": [],
      "name": "mes",
      "outputs": [
        {
          "name": "",
          "type": "uint256"
        }
      ],
      "payable": false,
      "stateMutability": "view",
      "type": "function",
      "signature": "0x3f664062"
    },
    {
      "constant": true,
      "inputs": [
        {
          "name": "",
          "type": "address"
        }
      ],
      "name": "mesCount",
      "outputs": [
        {
          "name": "",
          "type": "uint256"
        }
      ],
      "payable": false,
      "stateMutability": "view",
      "type": "function",
      "signature": "0x5bdf7d70"
    },
    {
      "constant": true,
      "inputs": [
        {
          "name": "",
          "type": "address"
        }
      ],
      "name": "balanceOf",
      "outputs": [
        {
          "name": "",
          "type": "uint256"
        }
      ],
      "payable": false,
      "stateMutability": "view",
      "type": "function",
      "signature": "0x70a08231"
    },
    {
      "constant": true,
      "inputs": [
        {
          "name": "",
          "type": "address"
        }
      ],
      "name": "ownerCuentaAhorro",
      "outputs": [
        {
          "name": "",
          "type": "uint256"
        }
      ],
      "payable": false,
      "stateMutability": "view",
      "type": "function",
      "signature": "0x72a01681"
    },
    {
      "constant": true,
      "inputs": [
        {
          "name": "",
          "type": "address"
        }
      ],
      "name": "depositoOf",
      "outputs": [
        {
          "name": "",
          "type": "uint256"
        }
      ],
      "payable": false,
      "stateMutability": "view",
      "type": "function",
      "signature": "0x8a655e40"
    },
    {
      "constant": true,
      "inputs": [],
      "name": "tDosMinutos",
      "outputs": [
        {
          "name": "",
          "type": "uint256"
        }
      ],
      "payable": false,
      "stateMutability": "view",
      "type": "function",
      "signature": "0xa14333c6"
    },
    {
      "constant": true,
      "inputs": [],
      "name": "fechaComienzoAhorro",
      "outputs": [
        {
          "name": "",
          "type": "uint256"
        }
      ],
      "payable": false,
      "stateMutability": "view",
      "type": "function",
      "signature": "0xe2c6ebe0"
    },
    {
      "constant": true,
      "inputs": [
        {
          "name": "",
          "type": "address"
        }
      ],
      "name": "Ahorradores",
      "outputs": [
        {
          "name": "cuenta",
          "type": "address"
        },
        {
          "name": "id",
          "type": "uint256"
        },
        {
          "name": "name",
          "type": "string"
        },
        {
          "name": "prestamo",
          "type": "bool"
        },
        {
          "name": "ahorro",
          "type": "uint256"
        },
        {
          "name": "balance",
          "type": "uint256"
        },
        {
          "name": "mes",
          "type": "uint256"
        },
        {
          "name": "puntualidad",
          "type": "uint256"
        },
        {
          "name": "Alta",
          "type": "bool"
        }
      ],
      "payable": false,
      "stateMutability": "view",
      "type": "function",
      "signature": "0xfac571ff"
    },
    {
      "inputs": [
        {
          "name": "_initialSupply",
          "type": "uint256"
        }
      ],
      "payable": false,
      "stateMutability": "nonpayable",
      "type": "constructor",
      "signature": "constructor"
    },
    {
      "anonymous": false,
      "inputs": [
        {
          "indexed": true,
          "name": "_from",
          "type": "address"
        },
        {
          "indexed": true,
          "name": "_to",
          "type": "address"
        },
        {
          "indexed": false,
          "name": "_value",
          "type": "uint256"
        }
      ],
      "name": "Transfer",
      "type": "event",
      "signature": "0xddf252ad1be2c89b69c2b068fc378daa952ba7f163c4a11628f55a4df523b3ef"
    },
    {
      "anonymous": false,
      "inputs": [
        {
          "indexed": false,
          "name": "Owner",
          "type": "address"
        },
        {
          "indexed": false,
          "name": "_to",
          "type": "address"
        },
        {
          "indexed": false,
          "name": "_value",
          "type": "uint256"
        }
      ],
      "name": "TransferInicial",
      "type": "event",
      "signature": "0xe6417e21e4e3a7a32489104ba484261721bc1aec3763894ac25c70f67c108119"
    },
    {
      "anonymous": false,
      "inputs": [
        {
          "indexed": true,
          "name": "_from",
          "type": "address"
        },
        {
          "indexed": true,
          "name": "_to",
          "type": "address"
        },
        {
          "indexed": false,
          "name": "_value",
          "type": "uint256"
        }
      ],
      "name": "TransferRetiro",
      "type": "event",
      "signature": "0x3430e0472f57805e83261c76ce1f2d0d7e7bac0354da2dc654928c6d29cd3a6c"
    },
    {
      "anonymous": false,
      "inputs": [
        {
          "indexed": false,
          "name": "Id",
          "type": "uint256"
        },
        {
          "indexed": false,
          "name": "nombre",
          "type": "string"
        },
        {
          "indexed": false,
          "name": "fechaComienzoAhorro",
          "type": "uint256"
        }
      ],
      "name": "nuevoAhorrador",
      "type": "event",
      "signature": "0xf22b51bf76de7f480477d3eb5fb0a01c1c13a82e9d7a4988c285f28fbee1ea3b"
    },
    {
      "anonymous": false,
      "inputs": [
        {
          "indexed": false,
          "name": "idUsuario",
          "type": "uint256"
        },
        {
          "indexed": false,
          "name": "adUsuario",
          "type": "address"
        },
        {
          "indexed": false,
          "name": "valorNuevo",
          "type": "uint256"
        }
      ],
      "name": "modificar",
      "type": "event",
      "signature": "0xe1d94afef150335ab9e416d675c2c9f6aa1cbaf1b5d3da7ee21696e553be11b5"
    },
    {
      "constant": false,
      "inputs": [],
      "name": "DetenerContratoToken",
      "outputs": [
        {
          "name": "",
          "type": "bool"
        }
      ],
      "payable": false,
      "stateMutability": "nonpayable",
      "type": "function",
      "signature": "0xb5555627"
    },
    {
      "constant": false,
      "inputs": [],
      "name": "ActivarContratoToken",
      "outputs": [
        {
          "name": "",
          "type": "bool"
        }
      ],
      "payable": false,
      "stateMutability": "nonpayable",
      "type": "function",
      "signature": "0x8dae461d"
    },
    {
      "constant": false,
      "inputs": [
        {
          "name": "nombre",
          "type": "string"
        },
        {
          "name": "idUsuario",
          "type": "uint256"
        },
        {
          "name": "fecha",
          "type": "uint256"
        }
      ],
      "name": "_crearAhorrador",
      "outputs": [
        {
          "name": "",
          "type": "bool"
        }
      ],
      "payable": false,
      "stateMutability": "nonpayable",
      "type": "function",
      "signature": "0x93fe0e03"
    },
    {
      "constant": false,
      "inputs": [
        {
          "name": "_to",
          "type": "address"
        },
        {
          "name": "_value",
          "type": "uint256"
        }
      ],
      "name": "transferInicial",
      "outputs": [
        {
          "name": "success",
          "type": "bool"
        }
      ],
      "payable": false,
      "stateMutability": "nonpayable",
      "type": "function",
      "signature": "0x6fbaff3a"
    },
    {
      "constant": false,
      "inputs": [
        {
          "name": "_to",
          "type": "address"
        },
        {
          "name": "_value",
          "type": "uint256"
        }
      ],
      "name": "transfer",
      "outputs": [
        {
          "name": "success",
          "type": "bool"
        }
      ],
      "payable": false,
      "stateMutability": "nonpayable",
      "type": "function",
      "signature": "0xa9059cbb"
    },
    {
      "constant": false,
      "inputs": [
        {
          "name": "_to",
          "type": "address"
        },
        {
          "name": "_value",
          "type": "uint256"
        },
        {
          "name": "fechaRetiro",
          "type": "uint256"
        }
      ],
      "name": "transferRetiro",
      "outputs": [
        {
          "name": "success",
          "type": "bool"
        }
      ],
      "payable": false,
      "stateMutability": "nonpayable",
      "type": "function",
      "signature": "0xec19175d"
    },
    {
      "constant": false,
      "inputs": [
        {
          "name": "_from",
          "type": "address"
        },
        {
          "name": "_to",
          "type": "address"
        },
        {
          "name": "_value",
          "type": "uint256"
        },
        {
          "name": "fechaDeposito",
          "type": "uint256"
        }
      ],
      "name": "transferFrom",
      "outputs": [
        {
          "name": "success",
          "type": "bool"
        }
      ],
      "payable": false,
      "stateMutability": "nonpayable",
      "type": "function",
      "signature": "0xfe99049a"
    }
  ],
  "bytecode": "0x608060405260016002556381b02cff60035560786004556000600560006101000a81548160ff02191690831515021790555034801561003d57600080fd5b50604051602080611ebc8339810180604052602081101561005d57600080fd5b8101908080519060200190929190505050336000806101000a81548173ffffffffffffffffffffffffffffffffffffffff021916908373ffffffffffffffffffffffffffffffffffffffff16021790555080600660003373ffffffffffffffffffffffffffffffffffffffff1673ffffffffffffffffffffffffffffffffffffffff168152602001908152602001600020819055508060018190555050611db3806101096000396000f3fe6080604052600436106100f1576000357c0100000000000000000000000000000000000000000000000000000000900463ffffffff16806312029e60146100f657806318160ddd146101255780633f664062146101505780635bdf7d701461017b5780636fbaff3a146101e057806370a082311461025357806372a01681146102b85780638a655e401461031d5780638dae461d1461038257806393fe0e03146103b1578063a14333c6146104a5578063a9059cbb146104d0578063b555562714610543578063e2c6ebe014610572578063ec19175d1461059d578063fac571ff1461061a578063fe99049a14610750575b600080fd5b34801561010257600080fd5b5061010b6107ed565b604051808215151515815260200191505060405180910390f35b34801561013157600080fd5b5061013a610800565b6040518082815260200191505060405180910390f35b34801561015c57600080fd5b50610165610806565b6040518082815260200191505060405180910390f35b34801561018757600080fd5b506101ca6004803603602081101561019e57600080fd5b81019080803573ffffffffffffffffffffffffffffffffffffffff16906020019092919050505061080c565b6040518082815260200191505060405180910390f35b3480156101ec57600080fd5b506102396004803603604081101561020357600080fd5b81019080803573ffffffffffffffffffffffffffffffffffffffff16906020019092919080359060200190929190505050610824565b604051808215151515815260200191505060405180910390f35b34801561025f57600080fd5b506102a26004803603602081101561027657600080fd5b81019080803573ffffffffffffffffffffffffffffffffffffffff169060200190929190505050610aff565b6040518082815260200191505060405180910390f35b3480156102c457600080fd5b50610307600480360360208110156102db57600080fd5b81019080803573ffffffffffffffffffffffffffffffffffffffff169060200190929190505050610b17565b6040518082815260200191505060405180910390f35b34801561032957600080fd5b5061036c6004803603602081101561034057600080fd5b81019080803573ffffffffffffffffffffffffffffffffffffffff169060200190929190505050610b2f565b6040518082815260200191505060405180910390f35b34801561038e57600080fd5b50610397610b47565b604051808215151515815260200191505060405180910390f35b3480156103bd57600080fd5b5061048b600480360360608110156103d457600080fd5b81019080803590602001906401000000008111156103f157600080fd5b82018360208201111561040357600080fd5b8035906020019184600183028401116401000000008311171561042557600080fd5b91908080601f016020809104026020016040519081016040528093929190818152602001838380828437600081840152601f19601f8201169050808301925050505050505091929192908035906020019092919080359060200190929190505050610bc2565b604051808215151515815260200191505060405180910390f35b3480156104b157600080fd5b506104ba610f31565b6040518082815260200191505060405180910390f35b3480156104dc57600080fd5b50610529600480360360408110156104f357600080fd5b81019080803573ffffffffffffffffffffffffffffffffffffffff16906020019092919080359060200190929190505050610f37565b604051808215151515815260200191505060405180910390f35b34801561054f57600080fd5b5061055861117c565b604051808215151515815260200191505060405180910390f35b34801561057e57600080fd5b506105876111f7565b6040518082815260200191505060405180910390f35b3480156105a957600080fd5b50610600600480360360608110156105c057600080fd5b81019080803573ffffffffffffffffffffffffffffffffffffffff16906020019092919080359060200190929190803590602001909291905050506111fd565b604051808215151515815260200191505060405180910390f35b34801561062657600080fd5b506106696004803603602081101561063d57600080fd5b81019080803573ffffffffffffffffffffffffffffffffffffffff1690602001909291905050506115a6565b604051808a73ffffffffffffffffffffffffffffffffffffffff1673ffffffffffffffffffffffffffffffffffffffff168152602001898152602001806020018815151515815260200187815260200186815260200185815260200184815260200183151515158152602001828103825289818151815260200191508051906020019080838360005b8381101561070d5780820151818401526020810190506106f2565b50505050905090810190601f16801561073a5780820380516001836020036101000a031916815260200191505b509a505050505050505050505060405180910390f35b34801561075c57600080fd5b506107d36004803603608081101561077357600080fd5b81019080803573ffffffffffffffffffffffffffffffffffffffff169060200190929190803573ffffffffffffffffffffffffffffffffffffffff16906020019092919080359060200190929190803590602001909291905050506116c6565b604051808215151515815260200191505060405180910390f35b600560009054906101000a900460ff1681565b60015481565b60025481565b600a6020528060005260406000206000915090505481565b60008060009054906101000a900473ffffffffffffffffffffffffffffffffffffffff1673ffffffffffffffffffffffffffffffffffffffff163373ffffffffffffffffffffffffffffffffffffffff1614151561088157600080fd5b60001515600560009054906101000a900460ff1615151415156108a357600080fd5b81600660003373ffffffffffffffffffffffffffffffffffffffff1673ffffffffffffffffffffffffffffffffffffffff16815260200190815260200160002054101515156108f157600080fd5b61093a600660003373ffffffffffffffffffffffffffffffffffffffff1673ffffffffffffffffffffffffffffffffffffffff1681526020019081526020016000205483611c70565b600660003373ffffffffffffffffffffffffffffffffffffffff1673ffffffffffffffffffffffffffffffffffffffff1681526020019081526020016000208190555060006109c8600660008673ffffffffffffffffffffffffffffffffffffffff1673ffffffffffffffffffffffffffffffffffffffff1681526020019081526020016000205484611c89565b905080600660008673ffffffffffffffffffffffffffffffffffffffff1673ffffffffffffffffffffffffffffffffffffffff1681526020019081526020016000208190555080600860008673ffffffffffffffffffffffffffffffffffffffff1673ffffffffffffffffffffffffffffffffffffffff168152602001908152602001600020600501819055507fe6417e21e4e3a7a32489104ba484261721bc1aec3763894ac25c70f67c108119338585604051808473ffffffffffffffffffffffffffffffffffffffff1673ffffffffffffffffffffffffffffffffffffffff1681526020018373ffffffffffffffffffffffffffffffffffffffff1673ffffffffffffffffffffffffffffffffffffffff168152602001828152602001935050505060405180910390a1600191505092915050565b60066020528060005260406000206000915090505481565b60096020528060005260406000206000915090505481565b60076020528060005260406000206000915090505481565b60008060009054906101000a900473ffffffffffffffffffffffffffffffffffffffff1673ffffffffffffffffffffffffffffffffffffffff163373ffffffffffffffffffffffffffffffffffffffff16141515610ba457600080fd5b6000600560006101000a81548160ff02191690831515021790555090565b6000801515600560009054906101000a900460ff161515141515610be557600080fd5b6000600960003373ffffffffffffffffffffffffffffffffffffffff1673ffffffffffffffffffffffffffffffffffffffff16815260200190815260200160002054141515610c3357600080fd5b600660025411151515610c4557600080fd5b60066002541415610c5857816003819055505b610120604051908101604052803373ffffffffffffffffffffffffffffffffffffffff168152602001848152602001858152602001600015158152602001600081526020016000815260200160025481526020016064815260200160011515815250600860003373ffffffffffffffffffffffffffffffffffffffff1673ffffffffffffffffffffffffffffffffffffffff16815260200190815260200160002060008201518160000160006101000a81548173ffffffffffffffffffffffffffffffffffffffff021916908373ffffffffffffffffffffffffffffffffffffffff160217905550602082015181600101556040820151816002019080519060200190610d66929190611ce2565b5060608201518160030160006101000a81548160ff0219169083151502179055506080820151816004015560a0820151816005015560c0820151816006015560e082015181600701556101008201518160080160006101000a81548160ff021916908315150217905550905050600960003373ffffffffffffffffffffffffffffffffffffffff1673ffffffffffffffffffffffffffffffffffffffff16815260200190815260200160002060008154809291906001019190505550600254600a60003373ffffffffffffffffffffffffffffffffffffffff1673ffffffffffffffffffffffffffffffffffffffff168152602001908152602001600020819055506002600081548092919060010191905055507ff22b51bf76de7f480477d3eb5fb0a01c1c13a82e9d7a4988c285f28fbee1ea3b600254856003546040518084815260200180602001838152602001828103825284818151815260200191508051906020019080838360005b83811015610eee578082015181840152602081019050610ed3565b50505050905090810190601f168015610f1b5780820380516001836020036101000a031916815260200191505b5094505050505060405180910390a19392505050565b60045481565b6000801515600560009054906101000a900460ff161515141515610f5a57600080fd5b81600660003373ffffffffffffffffffffffffffffffffffffffff1673ffffffffffffffffffffffffffffffffffffffff1681526020019081526020016000205410151515610fa857600080fd5b610ff1600660003373ffffffffffffffffffffffffffffffffffffffff1673ffffffffffffffffffffffffffffffffffffffff1681526020019081526020016000205483611c70565b600660003373ffffffffffffffffffffffffffffffffffffffff1673ffffffffffffffffffffffffffffffffffffffff16815260200190815260200160002081905550600061107f600660008673ffffffffffffffffffffffffffffffffffffffff1673ffffffffffffffffffffffffffffffffffffffff1681526020019081526020016000205484611c89565b905080600660008673ffffffffffffffffffffffffffffffffffffffff1673ffffffffffffffffffffffffffffffffffffffff1681526020019081526020016000208190555080600860008673ffffffffffffffffffffffffffffffffffffffff1673ffffffffffffffffffffffffffffffffffffffff168152602001908152602001600020600501819055508373ffffffffffffffffffffffffffffffffffffffff163373ffffffffffffffffffffffffffffffffffffffff167fddf252ad1be2c89b69c2b068fc378daa952ba7f163c4a11628f55a4df523b3ef856040518082815260200191505060405180910390a3600191505092915050565b60008060009054906101000a900473ffffffffffffffffffffffffffffffffffffffff1673ffffffffffffffffffffffffffffffffffffffff163373ffffffffffffffffffffffffffffffffffffffff161415156111d957600080fd5b6001600560006101000a81548160ff02191690831515021790555090565b60035481565b6000801515600560009054906101000a900460ff16151514151561122057600080fd5b611279600354611274600860008873ffffffffffffffffffffffffffffffffffffffff1673ffffffffffffffffffffffffffffffffffffffff16815260200190815260200160002060060154600454611ca7565b611c89565b821015151561128757600080fd5b60001515600860008673ffffffffffffffffffffffffffffffffffffffff1673ffffffffffffffffffffffffffffffffffffffff16815260200190815260200160002060030160009054906101000a900460ff1615151415156112e957600080fd5b82600660003373ffffffffffffffffffffffffffffffffffffffff1673ffffffffffffffffffffffffffffffffffffffff168152602001908152602001600020541015151561133757600080fd5b611380600660003373ffffffffffffffffffffffffffffffffffffffff1673ffffffffffffffffffffffffffffffffffffffff1681526020019081526020016000205484611c70565b600660003373ffffffffffffffffffffffffffffffffffffffff1673ffffffffffffffffffffffffffffffffffffffff1681526020019081526020016000208190555061140c600660003373ffffffffffffffffffffffffffffffffffffffff1673ffffffffffffffffffffffffffffffffffffffff1681526020019081526020016000205484611c89565b600660008673ffffffffffffffffffffffffffffffffffffffff1673ffffffffffffffffffffffffffffffffffffffff168152602001908152602001600020819055506000600660008673ffffffffffffffffffffffffffffffffffffffff1673ffffffffffffffffffffffffffffffffffffffff16815260200190815260200160002054905080600860008773ffffffffffffffffffffffffffffffffffffffff1673ffffffffffffffffffffffffffffffffffffffff168152602001908152602001600020600501819055506001600860008773ffffffffffffffffffffffffffffffffffffffff1673ffffffffffffffffffffffffffffffffffffffff16815260200190815260200160002060030160006101000a81548160ff0219169083151502179055508473ffffffffffffffffffffffffffffffffffffffff163373ffffffffffffffffffffffffffffffffffffffff167f3430e0472f57805e83261c76ce1f2d0d7e7bac0354da2dc654928c6d29cd3a6c866040518082815260200191505060405180910390a360019150509392505050565b60086020528060005260406000206000915090508060000160009054906101000a900473ffffffffffffffffffffffffffffffffffffffff1690806001015490806002018054600181600116156101000203166002900480601f01602080910402602001604051908101604052809291908181526020018280546001816001161561010002031660029004801561167e5780601f106116535761010080835404028352916020019161167e565b820191906000526020600020905b81548152906001019060200180831161166157829003601f168201915b5050505050908060030160009054906101000a900460ff16908060040154908060050154908060060154908060070154908060080160009054906101000a900460ff16905089565b6000801515600560009054906101000a900460ff1615151415156116e957600080fd5b6006600a60008773ffffffffffffffffffffffffffffffffffffffff1673ffffffffffffffffffffffffffffffffffffffff168152602001908152602001600020541115151561173857600080fd5b61178e600354611789600a60008973ffffffffffffffffffffffffffffffffffffffff1673ffffffffffffffffffffffffffffffffffffffff16815260200190815260200160002054600454611ca7565b611c89565b821115611829576117e2600860008773ffffffffffffffffffffffffffffffffffffffff1673ffffffffffffffffffffffffffffffffffffffff168152602001908152602001600020600701546010611c70565b600860008773ffffffffffffffffffffffffffffffffffffffff1673ffffffffffffffffffffffffffffffffffffffff168152602001908152602001600020600701819055505b600660008673ffffffffffffffffffffffffffffffffffffffff1673ffffffffffffffffffffffffffffffffffffffff16815260200190815260200160002054831115151561187757600080fd5b6118c0600660008773ffffffffffffffffffffffffffffffffffffffff1673ffffffffffffffffffffffffffffffffffffffff1681526020019081526020016000205484611c70565b600660008773ffffffffffffffffffffffffffffffffffffffff1673ffffffffffffffffffffffffffffffffffffffff1681526020019081526020016000208190555061194c600660008673ffffffffffffffffffffffffffffffffffffffff1673ffffffffffffffffffffffffffffffffffffffff1681526020019081526020016000205484611c89565b600660008673ffffffffffffffffffffffffffffffffffffffff1673ffffffffffffffffffffffffffffffffffffffff168152602001908152602001600020819055506119d8600760008773ffffffffffffffffffffffffffffffffffffffff1673ffffffffffffffffffffffffffffffffffffffff1681526020019081526020016000205484611c89565b600760008773ffffffffffffffffffffffffffffffffffffffff1673ffffffffffffffffffffffffffffffffffffffff168152602001908152602001600020819055506000600760008773ffffffffffffffffffffffffffffffffffffffff1673ffffffffffffffffffffffffffffffffffffffff16815260200190815260200160002054905080600860008873ffffffffffffffffffffffffffffffffffffffff1673ffffffffffffffffffffffffffffffffffffffff168152602001908152602001600020600401819055506000600660008873ffffffffffffffffffffffffffffffffffffffff1673ffffffffffffffffffffffffffffffffffffffff16815260200190815260200160002054905080600860008973ffffffffffffffffffffffffffffffffffffffff1673ffffffffffffffffffffffffffffffffffffffff16815260200190815260200160002060050181905550611b7b600a60008973ffffffffffffffffffffffffffffffffffffffff1673ffffffffffffffffffffffffffffffffffffffff168152602001908152602001600020546001611c89565b600a60008973ffffffffffffffffffffffffffffffffffffffff1673ffffffffffffffffffffffffffffffffffffffff168152602001908152602001600020819055508573ffffffffffffffffffffffffffffffffffffffff168773ffffffffffffffffffffffffffffffffffffffff167fddf252ad1be2c89b69c2b068fc378daa952ba7f163c4a11628f55a4df523b3ef600a60008b73ffffffffffffffffffffffffffffffffffffffff1673ffffffffffffffffffffffffffffffffffffffff168152602001908152602001600020546040518082815260200191505060405180910390a3600192505050949350505050565b6000828211151515611c7e57fe5b818303905092915050565b6000808284019050838110151515611c9d57fe5b8091505092915050565b600080831415611cba5760009050611cdc565b60008284029050828482811515611ccd57fe5b04141515611cd757fe5b809150505b92915050565b828054600181600116156101000203166002900490600052602060002090601f016020900481019282601f10611d2357805160ff1916838001178555611d51565b82800160010185558215611d51579182015b82811115611d50578251825591602001919060010190611d35565b5b509050611d5e9190611d62565b5090565b611d8491905b80821115611d80576000816000905550600101611d68565b5090565b9056fea165627a7a72305820b976e48278bdc0d6c2beaf85cf699c7f58dcc3d9702eb1ecb5bb6acf823ae4080029",
  "source": "pragma solidity ^0.5.0;\nimport \"./SafeMath.sol\";\nimport \"./Owned.sol\";\n\n\ncontract Token is Owned {\n\n    uint256 public totalSupply;\n    uint public mes = 1;\n    uint public fechaComienzoAhorro = 2175806719; //fecha 12 de diciembre de 2038, para que nadie pueda generar una transaccin u operativa antes de que\n                                                 //se hallan registrado la totalidad de usuarios\n    uint public tDosMinutos = 120;\n    bool public Activo = false;\n\n\n    event Transfer(\n        address indexed _from,\n        address indexed _to,\n        uint256 _value\n    );\n    event TransferInicial(\n        address Owner,\n        address _to,\n        uint256 _value\n    );\n\n    event TransferRetiro(\n        address indexed _from,\n        address indexed _to,\n        uint256 _value\n    );\n    event nuevoAhorrador(\n        uint Id, \n        string nombre, \n        uint fechaComienzoAhorro\n    );\n    event modificar(\n        uint idUsuario,\n        address adUsuario, \n        uint valorNuevo\n    );\n    \n\n    \n    mapping(address => uint256) public balanceOf;\n    mapping(address => uint256) public depositoOf;\n    mapping(address => Ahorrador) public Ahorradores;\n    mapping(address => uint) public ownerCuentaAhorro;\n    mapping(address => uint) public mesCount;\n       \n    \n    constructor(uint256 _initialSupply) public {\n        balanceOf[msg.sender] = _initialSupply; //Al realizar el desplegue del contracto 2_deploy_contracts se indica el initial supply\n        totalSupply = _initialSupply;\n\n    }\n\n    struct Ahorrador {\n        address cuenta;\n        uint id;\n        string name;\n        bool prestamo;\n        uint ahorro; \n        uint balance;  \n        uint mes;\n        uint puntualidad;\n        bool Alta;\n    }\n\n\n\n\n\n    //** @title detener el contrato. */\n    function DetenerContratoToken() public onlyOwner returns (bool) {\n        Activo = true;\n        /** @dev Modificar el valor de la variable true desactivando el Smart contract.*/\n    }\n    //** @title Activar el contrato. */\n    function ActivarContratoToken() public onlyOwner returns (bool) {\n        Activo = false;\n        /** @dev Modificar el valor de la vriable true activando el Smart contract.*/\n    }\n\n    //** @title Crear Ahorrador. */\n    function _crearAhorrador(string memory nombre, uint idUsuario, uint fecha) public returns(bool) {\n        /** @param nombre nombre del usuario.\n            @param idUsuario identifiacin del usuario.\n            @param fecha fecha en la que se realiza el alta del usuario.\n        */\n        /** @dev verifica que el Smartcontract este activo\n        verifica que la address no haya creado un usuario ya en la DAAP y finalmente verifica que no se hayan asignado ya todos los \n        periodos de retiro de Tokens*/\n       require(Activo == false);\n       require((ownerCuentaAhorro[msg.sender]) == 0);\n       require( mes <= 6);\n       /** @dev cuando se registra el sexto usuario, se inicializan las fechas para el contrato y para los usuarios, de acuerdo\n       a la fecha de registro de ltimo usuario*/\n        if (mes == 6){\n        fechaComienzoAhorro = fecha;\n        }             \n        /** @dev se da de alta los valores del usuario que se ha registrado para cada uno de lo campos del strcut en el mapping Ahorrado\n        Se suma el 1 a los contadores mes y ownerCuenta Ahorro, mesCount y mes*/\n        Ahorradores[msg.sender] = Ahorrador(msg.sender, idUsuario, nombre, false, 0, 0, mes, 100 ,true);\n        ownerCuentaAhorro[msg.sender] ++;\n        mesCount[msg.sender] = mes;\n        mes ++;\n        /**@return emite el evento con los datos de mes, nombre y fecha de comienzoAhorro.*/\n        emit nuevoAhorrador(mes, nombre, fechaComienzoAhorro);\n        \n        \n    }\n    //** @title Realizar transferencia inicial, solo ejecutable por el Owner. */    \n    function transferInicial(address _to, uint256 _value) public onlyOwner returns (bool success) {\n       /**   @param _to address de la cuenta a al que se quiere realizar la transaccin.\n             @param _value cantidad de tokens que van a ser trasnferido.\n        */\n        \n        \n        /** @dev verifica que el Smartcontract este activo\n        Verifica que el balance de quien realiza la transferncia sean mayores o iguales a el valor que se desea enviar\n        Se actualizan los balances de las cuentas, a la que enva se le resta y a la otra se le suma, y se actualiza en el mapping ahorrador\n        y BalanceOF*/\n        require(Activo == false);\n        require(balanceOf[msg.sender] >= _value);\n        balanceOf[msg.sender] = SafeMath.sub(balanceOf[msg.sender],_value);\n        uint256  saldo = SafeMath.add(balanceOf[_to],_value);   \n        balanceOf[_to] = saldo;   \n        Ahorradores[_to].balance = saldo;\n        /**@return Se emite el evento con las datos de address del que enva, el que recibe y la cantidad*/\n        emit TransferInicial(msg.sender, _to, _value);\n        /**@return Si se ha realizado la transaccin devueleve al contrato CompraToken el valor true*/\n        return true;\n    }\n\n   //** @title Realizar transferencia a una cuenta. */ \n    function transfer(address _to, uint256 _value) public returns (bool success) {\n         /**   @param _to address de la cuenta a al que se quiere realizar la transaccin.\n             @param _value cantidad de tokens que van a ser trasnferido.\n        */\n\n        /** @dev verifica que el Smartcontract este activo\n        Verifica que el balance de quien realiza la transferncia sean mayores o iguales a el valor que se desea enviar\n        Se actualizan los balances de las cuentas, a la que enva se le resta y a la otra se le suma, y se actualiza en el mapping ahorrador\n        y BalanceOF*/\n        require(Activo == false);\n        require(balanceOf[msg.sender] >= _value);        \n        balanceOf[msg.sender] = SafeMath.sub(balanceOf[msg.sender],_value);\n        uint256  saldo = SafeMath.add(balanceOf[_to],_value);   \n        balanceOf[_to] = saldo;   \n        Ahorradores[_to].balance = saldo;\n        /**@return Se emite el evento con las datos de address del que enva, el que recibe y la cantidad*/\n        emit Transfer(msg.sender, _to, _value);\n        /**@return Si se ha realizado la transaccin devueleve al contrato CompraToken el valor true*/\n        return true;\n    }\n   //** @title Realizar transferencia a una cuenta, desde el contrato. */ \n    function transferRetiro(address _to, uint256 _value, uint fechaRetiro) public returns (bool success) {\n        /**   @param _to address de la cuenta a al que se quiere realizar la transaccin.\n             @param _value cantidad de tokens que van a ser trasnferido.\n             @param _fechaRetiro fecha en la que se realiza el retiro.\n\n        */\n        /** @dev verifica que el Smartcontract este activo\n        Verifica que la fecha en al que se solicita el retiro sea superior a la definida.\n        Verifica que el balance de quien realiza la transferncia sean mayores o iguales a el valor que se desea enviar.\n        Se actualizan los balances de las cuentas, a la que enva se le resta y a la otra se le suma, y se actualiza en el mapping ahorrador\n        y BalanceOF*/\n        require(Activo == false);\n        require(fechaRetiro >= SafeMath.add(fechaComienzoAhorro,SafeMath.mul(Ahorradores[_to].mes,tDosMinutos)));\n        require(Ahorradores[_to].prestamo == false);\n        require(balanceOf[msg.sender] >= _value);\n\n        balanceOf[msg.sender] = SafeMath.sub(balanceOf[msg.sender],_value);\n        balanceOf[_to] = SafeMath.add(balanceOf[msg.sender],_value);\n        uint256 saldo = balanceOf[_to];          \n        Ahorradores[_to].balance = saldo;\n        /** @dev Se actualiza en el mapping el estado del valor prestamo, indicando que usuario ya ha realizado el retiro*/        \n        Ahorradores[_to].prestamo = true;\n        /**@return Se emite el evento con las datos de address del que enva, el que recibe y la cantidad*/\n        emit TransferRetiro(msg.sender, _to, _value);\n        /**@return Si se ha realizado la transaccin devueleve al contrato CompraToken el valor true*/\n        return true;\n    }\n    //** @title Realizar transferencia a el contrato el usuario. */ \n    function transferFrom(address _from, address _to, uint256 _value, uint fechaDeposito) public returns (bool success) {\n       /**   @param _to address de la cuenta a al que se quiere realizar la transaccin.\n             @param _value cantidad de tokens que van a ser trasnferidos.\n             @param _fechaDeposito fecha en la que se realiza el deposito.\n\n        */       \n       /** @dev verifica que el Smartcontract este activo\n        Verifica que la fecha en al que se solicita el retiro sea superior a la definida.\n        Verifica que el mes del que realiza el depostivo se menor que 6\n        En caso de que la fecha en la que se realiza el deposito de mayor a la definida se le baja el valor puntualidad en el mapping Ahorrador.\n        Verifica que el balance de quien realiza la transferencia sean mayores o iguales a el valor que se desea enviar.\n        Se actualizan los balances de las cuentas, a la que enva se le resta y a la otra se le suma, y se actualiza en el mapping ahorrador\n        y BalanceOF*/\n        require(Activo == false);\n        require(mesCount[_from] <= 6);\n        if(fechaDeposito > SafeMath.add(fechaComienzoAhorro,SafeMath.mul(mesCount[_from],tDosMinutos))){\n            Ahorradores[_from].puntualidad = SafeMath.sub(Ahorradores[_from].puntualidad,16);\n        }\n\n        require(_value <= balanceOf[_from]);\n        \n        balanceOf[_from] = SafeMath.sub(balanceOf[_from],_value);\n        balanceOf[_to] = SafeMath.add(balanceOf[_to],_value);\n        depositoOf[_from] = SafeMath.add(depositoOf[_from],_value);\n        uint256 ahorro = depositoOf[_from];\n        Ahorradores[_from].ahorro = ahorro;\n        uint256 saldo = balanceOf[_from];\n        Ahorradores[_from].balance = saldo;\n        mesCount[_from] = SafeMath.add(mesCount[_from],1);\n        /**@return Se emite el evento con las datos de address del que enva, el que recibe y el mes del quin realiza el envo*/\n        emit Transfer(_from, _to, mesCount[_from]);\n        /**@return Si se ha realizado la transaccin devueleve al contrato CompraToken el valor true*/\n        return true;\n    }\n}",
  "sourcePath": "/home/pedro/TFM/TFM-Leasing/Proyecto/contracts/Token.sol",
  "compiler": {
    "name": "solc",
    "version": "0.5.0+commit.1d4f565a.Emscripten.clang"
  },
  "schemaVersion": "3.0.0",
  "updatedAt": "2019-02-24T18:08:37.617Z",
  "devdoc": {
    "methods": {}
  },
  "userdoc": {
    "methods": {}
  }
}