{
  "contractName": "Token",
  "abi": [
    {
      "constant": true,
      "inputs": [],
      "name": "Activo",
      "outputs": [
        {
          "name": "",
          "type": "bool"
        }
      ],
      "payable": false,
      "stateMutability": "view",
      "type": "function",
      "signature": "0x12029e60"
    },
    {
      "constant": true,
      "inputs": [],
      "name": "totalSupply",
      "outputs": [
        {
          "name": "",
          "type": "uint256"
        }
      ],
      "payable": false,
      "stateMutability": "view",
      "type": "function",
      "signature": "0x18160ddd"
    },
    {
      "constant": true,
      "inputs": [
        {
          "name": "",
          "type": "address"
        }
      ],
      "name": "mesCount",
      "outputs": [
        {
          "name": "",
          "type": "uint256"
        }
      ],
      "payable": false,
      "stateMutability": "view",
      "type": "function",
      "signature": "0x5bdf7d70"
    },
    {
      "constant": true,
      "inputs": [
        {
          "name": "",
          "type": "address"
        }
      ],
      "name": "balanceOf",
      "outputs": [
        {
          "name": "",
          "type": "uint256"
        }
      ],
      "payable": false,
      "stateMutability": "view",
      "type": "function",
      "signature": "0x70a08231"
    },
    {
      "constant": true,
      "inputs": [
        {
          "name": "",
          "type": "address"
        }
      ],
      "name": "ownerCuentaAhorro",
      "outputs": [
        {
          "name": "",
          "type": "uint256"
        }
      ],
      "payable": false,
      "stateMutability": "view",
      "type": "function",
      "signature": "0x72a01681"
    },
    {
      "constant": true,
      "inputs": [
        {
          "name": "",
          "type": "address"
        }
      ],
      "name": "depositoOf",
      "outputs": [
        {
          "name": "",
          "type": "uint256"
        }
      ],
      "payable": false,
      "stateMutability": "view",
      "type": "function",
      "signature": "0x8a655e40"
    },
    {
      "constant": true,
      "inputs": [],
      "name": "inicializacion",
      "outputs": [
        {
          "name": "",
          "type": "bool"
        }
      ],
      "payable": false,
      "stateMutability": "view",
      "type": "function",
      "signature": "0xa21325a6"
    },
    {
      "inputs": [
        {
          "name": "_initialSupply",
          "type": "uint256"
        }
      ],
      "payable": false,
      "stateMutability": "nonpayable",
      "type": "constructor",
      "signature": "constructor"
    },
    {
      "anonymous": false,
      "inputs": [
        {
          "indexed": true,
          "name": "_from",
          "type": "address"
        },
        {
          "indexed": true,
          "name": "_to",
          "type": "address"
        },
        {
          "indexed": false,
          "name": "_value",
          "type": "uint256"
        }
      ],
      "name": "Transfer",
      "type": "event",
      "signature": "0xddf252ad1be2c89b69c2b068fc378daa952ba7f163c4a11628f55a4df523b3ef"
    },
    {
      "anonymous": false,
      "inputs": [
        {
          "indexed": false,
          "name": "Owner",
          "type": "address"
        },
        {
          "indexed": false,
          "name": "_to",
          "type": "address"
        },
        {
          "indexed": false,
          "name": "_value",
          "type": "uint256"
        }
      ],
      "name": "TransferInicial",
      "type": "event",
      "signature": "0xe6417e21e4e3a7a32489104ba484261721bc1aec3763894ac25c70f67c108119"
    },
    {
      "anonymous": false,
      "inputs": [
        {
          "indexed": true,
          "name": "_from",
          "type": "address"
        },
        {
          "indexed": true,
          "name": "_to",
          "type": "address"
        },
        {
          "indexed": false,
          "name": "_value",
          "type": "uint256"
        }
      ],
      "name": "TransferRetiro",
      "type": "event",
      "signature": "0x3430e0472f57805e83261c76ce1f2d0d7e7bac0354da2dc654928c6d29cd3a6c"
    },
    {
      "anonymous": false,
      "inputs": [
        {
          "indexed": false,
          "name": "Id",
          "type": "uint256"
        },
        {
          "indexed": false,
          "name": "nombre",
          "type": "string"
        },
        {
          "indexed": false,
          "name": "fechaComienzoAhorro",
          "type": "uint256"
        }
      ],
      "name": "nuevoAhorrador",
      "type": "event",
      "signature": "0xf22b51bf76de7f480477d3eb5fb0a01c1c13a82e9d7a4988c285f28fbee1ea3b"
    },
    {
      "anonymous": false,
      "inputs": [
        {
          "indexed": false,
          "name": "idUsuario",
          "type": "uint256"
        },
        {
          "indexed": false,
          "name": "adUsuario",
          "type": "address"
        },
        {
          "indexed": false,
          "name": "valorNuevo",
          "type": "uint256"
        }
      ],
      "name": "modificar",
      "type": "event",
      "signature": "0xe1d94afef150335ab9e416d675c2c9f6aa1cbaf1b5d3da7ee21696e553be11b5"
    },
    {
      "anonymous": false,
      "inputs": [
        {
          "indexed": false,
          "name": "_value",
          "type": "uint256"
        }
      ],
      "name": "TransferAumentoSupply",
      "type": "event",
      "signature": "0x05f0ba1deb07f2c4b4471af40ed463c416db2fa06cc66d194fc67baac638bd29"
    },
    {
      "constant": false,
      "inputs": [],
      "name": "DetenerContratoToken",
      "outputs": [
        {
          "name": "",
          "type": "bool"
        }
      ],
      "payable": false,
      "stateMutability": "nonpayable",
      "type": "function",
      "signature": "0xb5555627"
    },
    {
      "constant": false,
      "inputs": [],
      "name": "ActivarContratoToken",
      "outputs": [
        {
          "name": "",
          "type": "bool"
        }
      ],
      "payable": false,
      "stateMutability": "nonpayable",
      "type": "function",
      "signature": "0x8dae461d"
    },
    {
      "constant": false,
      "inputs": [
        {
          "name": "_to",
          "type": "address"
        },
        {
          "name": "_value",
          "type": "uint256"
        }
      ],
      "name": "transferInicial",
      "outputs": [
        {
          "name": "success",
          "type": "bool"
        }
      ],
      "payable": false,
      "stateMutability": "nonpayable",
      "type": "function",
      "signature": "0x6fbaff3a"
    },
    {
      "constant": false,
      "inputs": [
        {
          "name": "_to",
          "type": "address"
        },
        {
          "name": "_value",
          "type": "uint256"
        }
      ],
      "name": "transfer",
      "outputs": [
        {
          "name": "success",
          "type": "bool"
        }
      ],
      "payable": false,
      "stateMutability": "nonpayable",
      "type": "function",
      "signature": "0xa9059cbb"
    },
    {
      "constant": false,
      "inputs": [
        {
          "name": "_from",
          "type": "address"
        },
        {
          "name": "_to",
          "type": "address"
        },
        {
          "name": "_value",
          "type": "uint256"
        }
      ],
      "name": "transferFrom",
      "outputs": [
        {
          "name": "success",
          "type": "bool"
        }
      ],
      "payable": false,
      "stateMutability": "nonpayable",
      "type": "function",
      "signature": "0x23b872dd"
    },
    {
      "constant": false,
      "inputs": [
        {
          "name": "_value",
          "type": "uint256"
        }
      ],
      "name": "transferAumentoSupply",
      "outputs": [
        {
          "name": "success",
          "type": "bool"
        }
      ],
      "payable": false,
      "stateMutability": "nonpayable",
      "type": "function",
      "signature": "0x468d2649"
    }
  ],
  "bytecode": "0x60806040526000600260006101000a81548160ff0219169083151502179055506000600260016101000a81548160ff02191690831515021790555034801561004657600080fd5b5060405160208061109c8339810180604052602081101561006657600080fd5b8101908080519060200190929190505050336000806101000a81548173ffffffffffffffffffffffffffffffffffffffff021916908373ffffffffffffffffffffffffffffffffffffffff16021790555080600360003373ffffffffffffffffffffffffffffffffffffffff1673ffffffffffffffffffffffffffffffffffffffff168152602001908152602001600020819055508060018190555050610f8a806101126000396000f3fe6080604052600436106100c5576000357c0100000000000000000000000000000000000000000000000000000000900463ffffffff16806312029e60146100ca57806318160ddd146100f957806323b872dd14610124578063468d2649146101b75780635bdf7d701461020a5780636fbaff3a1461026f57806370a08231146102e257806372a01681146103475780638a655e40146103ac5780638dae461d14610411578063a21325a614610440578063a9059cbb1461046f578063b5555627146104e2575b600080fd5b3480156100d657600080fd5b506100df610511565b604051808215151515815260200191505060405180910390f35b34801561010557600080fd5b5061010e610524565b6040518082815260200191505060405180910390f35b34801561013057600080fd5b5061019d6004803603606081101561014757600080fd5b81019080803573ffffffffffffffffffffffffffffffffffffffff169060200190929190803573ffffffffffffffffffffffffffffffffffffffff1690602001909291908035906020019092919050505061052a565b604051808215151515815260200191505060405180910390f35b3480156101c357600080fd5b506101f0600480360360208110156101da57600080fd5b81019080803590602001909291905050506107ee565b604051808215151515815260200191505060405180910390f35b34801561021657600080fd5b506102596004803603602081101561022d57600080fd5b81019080803573ffffffffffffffffffffffffffffffffffffffff169060200190929190505050610911565b6040518082815260200191505060405180910390f35b34801561027b57600080fd5b506102c86004803603604081101561029257600080fd5b81019080803573ffffffffffffffffffffffffffffffffffffffff16906020019092919080359060200190929190505050610929565b604051808215151515815260200191505060405180910390f35b3480156102ee57600080fd5b506103316004803603602081101561030557600080fd5b81019080803573ffffffffffffffffffffffffffffffffffffffff169060200190929190505050610bd8565b6040518082815260200191505060405180910390f35b34801561035357600080fd5b506103966004803603602081101561036a57600080fd5b81019080803573ffffffffffffffffffffffffffffffffffffffff169060200190929190505050610bf0565b6040518082815260200191505060405180910390f35b3480156103b857600080fd5b506103fb600480360360208110156103cf57600080fd5b81019080803573ffffffffffffffffffffffffffffffffffffffff169060200190929190505050610c08565b6040518082815260200191505060405180910390f35b34801561041d57600080fd5b50610426610c20565b604051808215151515815260200191505060405180910390f35b34801561044c57600080fd5b50610455610c9b565b604051808215151515815260200191505060405180910390f35b34801561047b57600080fd5b506104c86004803603604081101561049257600080fd5b81019080803573ffffffffffffffffffffffffffffffffffffffff16906020019092919080359060200190929190505050610cae565b604051808215151515815260200191505060405180910390f35b3480156104ee57600080fd5b506104f7610eac565b604051808215151515815260200191505060405180910390f35b600260009054906101000a900460ff1681565b60015481565b6000801515600260009054906101000a900460ff16151514151561054d57600080fd5b600360008573ffffffffffffffffffffffffffffffffffffffff1673ffffffffffffffffffffffffffffffffffffffff16815260200190815260200160002054821115151561059b57600080fd5b6105e4600360008673ffffffffffffffffffffffffffffffffffffffff1673ffffffffffffffffffffffffffffffffffffffff1681526020019081526020016000205483610f27565b600360008673ffffffffffffffffffffffffffffffffffffffff1673ffffffffffffffffffffffffffffffffffffffff16815260200190815260200160002081905550610670600360008573ffffffffffffffffffffffffffffffffffffffff1673ffffffffffffffffffffffffffffffffffffffff1681526020019081526020016000205483610f40565b600360008573ffffffffffffffffffffffffffffffffffffffff1673ffffffffffffffffffffffffffffffffffffffff168152602001908152602001600020819055506106fc600460008673ffffffffffffffffffffffffffffffffffffffff1673ffffffffffffffffffffffffffffffffffffffff1681526020019081526020016000205483610f40565b600460008673ffffffffffffffffffffffffffffffffffffffff1673ffffffffffffffffffffffffffffffffffffffff168152602001908152602001600020819055508273ffffffffffffffffffffffffffffffffffffffff168473ffffffffffffffffffffffffffffffffffffffff167fddf252ad1be2c89b69c2b068fc378daa952ba7f163c4a11628f55a4df523b3ef600660008873ffffffffffffffffffffffffffffffffffffffff1673ffffffffffffffffffffffffffffffffffffffff168152602001908152602001600020546040518082815260200191505060405180910390a3600190509392505050565b6000801515600260009054906101000a900460ff16151514151561081157600080fd5b60011515600260019054906101000a900460ff16151514151561083357600080fd5b61083f60015483610f40565b60018190555061088e600360003373ffffffffffffffffffffffffffffffffffffffff1673ffffffffffffffffffffffffffffffffffffffff1681526020019081526020016000205483610f40565b600360003373ffffffffffffffffffffffffffffffffffffffff1673ffffffffffffffffffffffffffffffffffffffff168152602001908152602001600020819055507f05f0ba1deb07f2c4b4471af40ed463c416db2fa06cc66d194fc67baac638bd29826040518082815260200191505060405180910390a160019050919050565b60066020528060005260406000206000915090505481565b60008060009054906101000a900473ffffffffffffffffffffffffffffffffffffffff1673ffffffffffffffffffffffffffffffffffffffff163373ffffffffffffffffffffffffffffffffffffffff1614151561098657600080fd5b60001515600260009054906101000a900460ff1615151415156109a857600080fd5b81600360003373ffffffffffffffffffffffffffffffffffffffff1673ffffffffffffffffffffffffffffffffffffffff16815260200190815260200160002054101515156109f657600080fd5b610a3f600360003373ffffffffffffffffffffffffffffffffffffffff1673ffffffffffffffffffffffffffffffffffffffff1681526020019081526020016000205483610f27565b600360003373ffffffffffffffffffffffffffffffffffffffff1673ffffffffffffffffffffffffffffffffffffffff168152602001908152602001600020819055506000610acd600360008673ffffffffffffffffffffffffffffffffffffffff1673ffffffffffffffffffffffffffffffffffffffff1681526020019081526020016000205484610f40565b905080600360008673ffffffffffffffffffffffffffffffffffffffff1673ffffffffffffffffffffffffffffffffffffffff168152602001908152602001600020819055506001600260016101000a81548160ff0219169083151502179055507fe6417e21e4e3a7a32489104ba484261721bc1aec3763894ac25c70f67c108119338585604051808473ffffffffffffffffffffffffffffffffffffffff1673ffffffffffffffffffffffffffffffffffffffff1681526020018373ffffffffffffffffffffffffffffffffffffffff1673ffffffffffffffffffffffffffffffffffffffff168152602001828152602001935050505060405180910390a1600191505092915050565b60036020528060005260406000206000915090505481565b60056020528060005260406000206000915090505481565b60046020528060005260406000206000915090505481565b60008060009054906101000a900473ffffffffffffffffffffffffffffffffffffffff1673ffffffffffffffffffffffffffffffffffffffff163373ffffffffffffffffffffffffffffffffffffffff16141515610c7d57600080fd5b6000600260006101000a81548160ff02191690831515021790555090565b600260019054906101000a900460ff1681565b6000801515600260009054906101000a900460ff161515141515610cd157600080fd5b81600360003373ffffffffffffffffffffffffffffffffffffffff1673ffffffffffffffffffffffffffffffffffffffff1681526020019081526020016000205410151515610d1f57600080fd5b610d68600360003373ffffffffffffffffffffffffffffffffffffffff1673ffffffffffffffffffffffffffffffffffffffff1681526020019081526020016000205483610f27565b600360003373ffffffffffffffffffffffffffffffffffffffff1673ffffffffffffffffffffffffffffffffffffffff168152602001908152602001600020819055506000610df6600360008673ffffffffffffffffffffffffffffffffffffffff1673ffffffffffffffffffffffffffffffffffffffff1681526020019081526020016000205484610f40565b905080600360008673ffffffffffffffffffffffffffffffffffffffff1673ffffffffffffffffffffffffffffffffffffffff168152602001908152602001600020819055508373ffffffffffffffffffffffffffffffffffffffff163373ffffffffffffffffffffffffffffffffffffffff167fddf252ad1be2c89b69c2b068fc378daa952ba7f163c4a11628f55a4df523b3ef856040518082815260200191505060405180910390a3600191505092915050565b60008060009054906101000a900473ffffffffffffffffffffffffffffffffffffffff1673ffffffffffffffffffffffffffffffffffffffff163373ffffffffffffffffffffffffffffffffffffffff16141515610f0957600080fd5b6001600260006101000a81548160ff02191690831515021790555090565b6000828211151515610f3557fe5b818303905092915050565b6000808284019050838110151515610f5457fe5b809150509291505056fea165627a7a723058206400481f96be26048f628eff88a7d925ad7cf965592fbe679fb84b99f2a8ae2c0029",
  "source": "pragma solidity >= 0.5.0 < 0.6.0;\nimport \"./SafeMath.sol\";\nimport \"./Owned.sol\";\n\n\ncontract Token is Owned {\n\n    uint256 public totalSupply;\n    bool public Activo = false;\n    bool public inicializacion = false;\n\n\n    event Transfer(\n        address indexed _from,\n        address indexed _to,\n        uint256 _value\n    );\n    event TransferInicial(\n        address Owner,\n        address _to,\n        uint256 _value\n    );\n\n    event TransferRetiro(\n        address indexed _from,\n        address indexed _to,\n        uint256 _value\n    );\n    event nuevoAhorrador(\n        uint Id, \n        string nombre, \n        uint fechaComienzoAhorro\n    );\n    event modificar(\n        uint idUsuario,\n        address adUsuario, \n        uint valorNuevo\n    );\n    event TransferAumentoSupply(\n        uint _value\n    );\n    \n\n    \n    mapping(address => uint256) public balanceOf;\n    mapping(address => uint256) public depositoOf;\n    mapping(address => uint) public ownerCuentaAhorro;\n    mapping(address => uint) public mesCount;\n       \n    \n    constructor(uint _initialSupply) public {\n        balanceOf[msg.sender] = _initialSupply; //Al realizar el desplegue del contracto 2_deploy_contracts se indica el initial supply\n        totalSupply = _initialSupply;\n\n    }\n\n    \n\n\n\n\n\n    //** @title detener el contrato. */\n    function DetenerContratoToken() public onlyOwner returns (bool) {\n        Activo = true;\n        /** @dev Modificar el valor de la variable true desactivando el Smart contract.*/\n    }\n    //** @title Activar el contrato. */\n    function ActivarContratoToken() public onlyOwner returns (bool) {\n        \n        Activo = false;\n        /** @dev Modificar el valor de la vriable true activando el Smart contract.*/\n    }\n\n    //** @title Crear Ahorrador. */\n    \n    //** @title Realizar transferencia inicial, solo ejecutable por el Owner. */    \n    function transferInicial(address _to, uint256 _value) public onlyOwner returns (bool success) {\n       /**   @param _to address de la cuenta a al que se quiere realizar la transacción.\n             @param _value cantidad de tokens que van a ser trasnferido.\n        */       \n        /** @dev verifica que el Smartcontract este activo\n        Verifica que el balance de quien realiza la transferncia sean mayores o iguales a el valor que se desea enviar\n        Se actualizan los balances de las cuentas, a la que envía se le resta y a la otra se le suma, y se actualiza en el mapping ahorrador\n        y BalanceOF*/\n        require(Activo == false);\n        require(balanceOf[msg.sender] >= _value);\n        balanceOf[msg.sender] = SafeMath.sub(balanceOf[msg.sender],_value);\n        uint256  saldo = SafeMath.add(balanceOf[_to],_value);   \n        balanceOf[_to] = saldo;   \n        inicializacion = true;\n     \n        /**@return Se emite el evento con las datos de address del que envía, el que recibe y la cantidad*/\n        emit TransferInicial(msg.sender, _to, _value);\n        /**@return Si se ha realizado la transacción devueleve al contrato CompraToken el valor true*/\n        return true;\n    }\n\n   //** @title Realizar transferencia a una cuenta. */ \n    function transfer(address _to, uint256 _value) public returns (bool success) {\n         /**   @param _to address de la cuenta a al que se quiere realizar la transacción.\n             @param _value cantidad de tokens que van a ser trasnferido.\n        */\n\n        /** @dev verifica que el Smartcontract este activo\n        Verifica que el balance de quien realiza la transferncia sean mayores o iguales a el valor que se desea enviar\n        Se actualizan los balances de las cuentas, a la que envía se le resta y a la otra se le suma, y se actualiza en el mapping ahorrador\n        y BalanceOF*/\n        require(Activo == false);\n        require(balanceOf[msg.sender] >= _value);        \n        balanceOf[msg.sender] = SafeMath.sub(balanceOf[msg.sender],_value);\n        uint256  saldo = SafeMath.add(balanceOf[_to],_value);   \n        balanceOf[_to] = saldo;   \n        /**@return Se emite el evento con las datos de address del que envía, el que recibe y la cantidad*/\n        emit Transfer(msg.sender, _to, _value);\n        /**@return Si se ha realizado la transacción devueleve al contrato CompraToken el valor true*/\n        return true;\n    }\n   \n    //** @title Realizar transferencia a el contrato el usuario. */ \n    function transferFrom(address _from, address _to, uint256 _value) public returns (bool success) {\n       /**   @param _to address de la cuenta a al que se quiere realizar la transacción.\n             @param _value cantidad de tokens que van a ser trasnferidos.\n             @param _fechaDeposito fecha en la que se realiza el deposito.\n\n        */       \n       /** @dev verifica que el Smartcontract este activo\n        Verifica que la fecha en al que se solicita el retiro sea superior a la definida.\n        Verifica que el mes del que realiza el depostivo se menor que 6\n        En caso de que la fecha en la que se realiza el deposito de mayor a la definida se le baja el valor puntualidad en el mapping Ahorrador.\n        Verifica que el balance de quien realiza la transferencia sean mayores o iguales a el valor que se desea enviar.\n        Se actualizan los balances de las cuentas, a la que envía se le resta y a la otra se le suma, y se actualiza en el mapping ahorrador\n        y BalanceOF*/\n        require(Activo == false);    \n\n        require(_value <= balanceOf[_from]);\n        \n        balanceOf[_from] = SafeMath.sub(balanceOf[_from],_value);\n        balanceOf[_to] = SafeMath.add(balanceOf[_to],_value);\n        depositoOf[_from] = SafeMath.add(depositoOf[_from],_value);\n        /**@return Se emite el evento con las datos de address del que envía, el que recibe y el mes del quién realiza el envío*/\n        emit Transfer(_from, _to, mesCount[_from]);\n        /**@return Si se ha realizado la transacción devueleve al contrato CompraToken el valor true*/\n        return true;\n    }\n\n    function transferAumentoSupply(uint _value) public returns (bool success) {\n       /**   @param _to address de la cuenta a al que se quiere realizar la transacción.\n             @param _value cantidad de tokens que van a ser trasnferido.\n        */\n                \n        /** @dev verifica que el Smartcontract este activo\n        Verifica que el balance de quien realiza la transferncia sean mayores o iguales a el valor que se desea enviar\n        Se actualizan los balances de las cuentas, a la que envía se le resta y a la otra se le suma, y se actualiza en el mapping ahorrador\n        y BalanceOF*/\n        require(Activo == false);\n        require(inicializacion == true);\n        totalSupply = SafeMath.add(totalSupply, _value);\n        balanceOf[msg.sender] = SafeMath.add(balanceOf[msg.sender], _value);\n        /**@return Se emite el evento con las datos de address del que envía, el que recibe y la cantidad*/\n        emit TransferAumentoSupply(_value);\n        /**@return Si se ha realizado la transacción devueleve al contrato CompraToken el valor true*/\n        return true;\n    }\n\n\n}\n",
  "sourcePath": "/home/omar/TFM_OP_2/TFM-Leasing/Proyecto/contracts/Token.sol",
  "compiler": {
    "name": "solc",
    "version": "0.5.0+commit.1d4f565a.Emscripten.clang"
  },
  "schemaVersion": "3.0.2",
  "updatedAt": "2019-04-18T13:03:09.632Z",
  "devdoc": {
    "methods": {}
  },
  "userdoc": {
    "methods": {}
  }
}