{
  "contractName": "Token",
  "abi": [
    {
      "constant": true,
      "inputs": [],
      "name": "Activo",
      "outputs": [
        {
          "name": "",
          "type": "bool"
        }
      ],
      "payable": false,
      "stateMutability": "view",
      "type": "function"
    },
    {
      "constant": true,
      "inputs": [],
      "name": "totalSupply",
      "outputs": [
        {
          "name": "",
          "type": "uint256"
        }
      ],
      "payable": false,
      "stateMutability": "view",
      "type": "function"
    },
    {
      "constant": true,
      "inputs": [],
      "name": "mes",
      "outputs": [
        {
          "name": "",
          "type": "uint256"
        }
      ],
      "payable": false,
      "stateMutability": "view",
      "type": "function"
    },
    {
      "constant": true,
      "inputs": [
        {
          "name": "",
          "type": "address"
        }
      ],
      "name": "mesCount",
      "outputs": [
        {
          "name": "",
          "type": "uint256"
        }
      ],
      "payable": false,
      "stateMutability": "view",
      "type": "function"
    },
    {
      "constant": true,
      "inputs": [
        {
          "name": "",
          "type": "address"
        }
      ],
      "name": "balanceOf",
      "outputs": [
        {
          "name": "",
          "type": "uint256"
        }
      ],
      "payable": false,
      "stateMutability": "view",
      "type": "function"
    },
    {
      "constant": true,
      "inputs": [
        {
          "name": "",
          "type": "address"
        }
      ],
      "name": "ownerCuentaAhorro",
      "outputs": [
        {
          "name": "",
          "type": "uint256"
        }
      ],
      "payable": false,
      "stateMutability": "view",
      "type": "function"
    },
    {
      "constant": true,
      "inputs": [
        {
          "name": "",
          "type": "address"
        }
      ],
      "name": "depositoOf",
      "outputs": [
        {
          "name": "",
          "type": "uint256"
        }
      ],
      "payable": false,
      "stateMutability": "view",
      "type": "function"
    },
    {
      "constant": true,
      "inputs": [],
      "name": "tDosMinutos",
      "outputs": [
        {
          "name": "",
          "type": "uint256"
        }
      ],
      "payable": false,
      "stateMutability": "view",
      "type": "function"
    },
    {
      "constant": true,
      "inputs": [],
      "name": "fechaComienzoAhorro",
      "outputs": [
        {
          "name": "",
          "type": "uint256"
        }
      ],
      "payable": false,
      "stateMutability": "view",
      "type": "function"
    },
    {
      "constant": true,
      "inputs": [
        {
          "name": "",
          "type": "address"
        }
      ],
      "name": "Ahorradores",
      "outputs": [
        {
          "name": "cuenta",
          "type": "address"
        },
        {
          "name": "id",
          "type": "uint256"
        },
        {
          "name": "name",
          "type": "string"
        },
        {
          "name": "prestamo",
          "type": "bool"
        },
        {
          "name": "ahorro",
          "type": "uint256"
        },
        {
          "name": "balance",
          "type": "uint256"
        },
        {
          "name": "mes",
          "type": "uint256"
        },
        {
          "name": "puntualidad",
          "type": "uint256"
        },
        {
          "name": "Alta",
          "type": "bool"
        }
      ],
      "payable": false,
      "stateMutability": "view",
      "type": "function"
    },
    {
      "inputs": [
        {
          "name": "_initialSupply",
          "type": "uint256"
        }
      ],
      "payable": false,
      "stateMutability": "nonpayable",
      "type": "constructor"
    },
    {
      "anonymous": false,
      "inputs": [
        {
          "indexed": true,
          "name": "_from",
          "type": "address"
        },
        {
          "indexed": true,
          "name": "_to",
          "type": "address"
        },
        {
          "indexed": false,
          "name": "_value",
          "type": "uint256"
        }
      ],
      "name": "Transfer",
      "type": "event"
    },
    {
      "anonymous": false,
      "inputs": [
        {
          "indexed": false,
          "name": "Owner",
          "type": "address"
        },
        {
          "indexed": false,
          "name": "_to",
          "type": "address"
        },
        {
          "indexed": false,
          "name": "_value",
          "type": "uint256"
        }
      ],
      "name": "TransferInicial",
      "type": "event"
    },
    {
      "anonymous": false,
      "inputs": [
        {
          "indexed": true,
          "name": "_from",
          "type": "address"
        },
        {
          "indexed": true,
          "name": "_to",
          "type": "address"
        },
        {
          "indexed": false,
          "name": "_value",
          "type": "uint256"
        }
      ],
      "name": "TransferRetiro",
      "type": "event"
    },
    {
      "anonymous": false,
      "inputs": [
        {
          "indexed": false,
          "name": "Id",
          "type": "uint256"
        },
        {
          "indexed": false,
          "name": "nombre",
          "type": "string"
        },
        {
          "indexed": false,
          "name": "fechaComienzoAhorro",
          "type": "uint256"
        }
      ],
      "name": "nuevoAhorrador",
      "type": "event"
    },
    {
      "anonymous": false,
      "inputs": [
        {
          "indexed": false,
          "name": "idUsuario",
          "type": "uint256"
        },
        {
          "indexed": false,
          "name": "adUsuario",
          "type": "address"
        },
        {
          "indexed": false,
          "name": "valorNuevo",
          "type": "uint256"
        }
      ],
      "name": "modificar",
      "type": "event"
    },
    {
      "constant": false,
      "inputs": [],
      "name": "DetenerContratoToken",
      "outputs": [
        {
          "name": "",
          "type": "bool"
        }
      ],
      "payable": false,
      "stateMutability": "nonpayable",
      "type": "function"
    },
    {
      "constant": false,
      "inputs": [],
      "name": "ActivarContratoToken",
      "outputs": [
        {
          "name": "",
          "type": "bool"
        }
      ],
      "payable": false,
      "stateMutability": "nonpayable",
      "type": "function"
    },
    {
      "constant": false,
      "inputs": [
        {
          "name": "nombre",
          "type": "string"
        },
        {
          "name": "idUsuario",
          "type": "uint256"
        },
        {
          "name": "fecha",
          "type": "uint256"
        }
      ],
      "name": "_crearAhorrador",
      "outputs": [
        {
          "name": "",
          "type": "bool"
        }
      ],
      "payable": false,
      "stateMutability": "nonpayable",
      "type": "function"
    },
    {
      "constant": false,
      "inputs": [
        {
          "name": "_to",
          "type": "address"
        },
        {
          "name": "_value",
          "type": "uint256"
        }
      ],
      "name": "transferInicial",
      "outputs": [
        {
          "name": "success",
          "type": "bool"
        }
      ],
      "payable": false,
      "stateMutability": "nonpayable",
      "type": "function"
    },
    {
      "constant": false,
      "inputs": [
        {
          "name": "_to",
          "type": "address"
        },
        {
          "name": "_value",
          "type": "uint256"
        }
      ],
      "name": "transfer",
      "outputs": [
        {
          "name": "success",
          "type": "bool"
        }
      ],
      "payable": false,
      "stateMutability": "nonpayable",
      "type": "function"
    },
    {
      "constant": false,
      "inputs": [
        {
          "name": "_to",
          "type": "address"
        },
        {
          "name": "_value",
          "type": "uint256"
        },
        {
          "name": "fechaRetiro",
          "type": "uint256"
        }
      ],
      "name": "transferRetiro",
      "outputs": [
        {
          "name": "success",
          "type": "bool"
        }
      ],
      "payable": false,
      "stateMutability": "nonpayable",
      "type": "function"
    },
    {
      "constant": false,
      "inputs": [
        {
          "name": "_from",
          "type": "address"
        },
        {
          "name": "_to",
          "type": "address"
        },
        {
          "name": "_value",
          "type": "uint256"
        },
        {
          "name": "fechaDeposito",
          "type": "uint256"
        }
      ],
      "name": "transferFrom",
      "outputs": [
        {
          "name": "success",
          "type": "bool"
        }
      ],
      "payable": false,
      "stateMutability": "nonpayable",
      "type": "function"
    }
  ],
  "bytecode": "0x608060405260016002556381b02cff60035560786004556000600560006101000a81548160ff02191690831515021790555034801561003d57600080fd5b50604051602080611dcf83398101806040528101908080519060200190929190505050336000806101000a81548173ffffffffffffffffffffffffffffffffffffffff021916908373ffffffffffffffffffffffffffffffffffffffff16021790555080600660003373ffffffffffffffffffffffffffffffffffffffff1673ffffffffffffffffffffffffffffffffffffffff168152602001908152602001600020819055508060018190555050611cd4806100fb6000396000f3006080604052600436106100f1576000357c0100000000000000000000000000000000000000000000000000000000900463ffffffff16806312029e60146100f657806318160ddd146101255780633f664062146101505780635bdf7d701461017b5780636fbaff3a146101d257806370a082311461023757806372a016811461028e5780638a655e40146102e55780638dae461d1461033c57806393fe0e031461036b578063a14333c614610400578063a9059cbb1461042b578063b555562714610490578063e2c6ebe0146104bf578063ec19175d146104ea578063fac571ff14610559578063fe99049a14610681575b600080fd5b34801561010257600080fd5b5061010b610710565b604051808215151515815260200191505060405180910390f35b34801561013157600080fd5b5061013a610723565b6040518082815260200191505060405180910390f35b34801561015c57600080fd5b50610165610729565b6040518082815260200191505060405180910390f35b34801561018757600080fd5b506101bc600480360381019080803573ffffffffffffffffffffffffffffffffffffffff16906020019092919050505061072f565b6040518082815260200191505060405180910390f35b3480156101de57600080fd5b5061021d600480360381019080803573ffffffffffffffffffffffffffffffffffffffff16906020019092919080359060200190929190505050610747565b604051808215151515815260200191505060405180910390f35b34801561024357600080fd5b50610278600480360381019080803573ffffffffffffffffffffffffffffffffffffffff169060200190929190505050610a21565b6040518082815260200191505060405180910390f35b34801561029a57600080fd5b506102cf600480360381019080803573ffffffffffffffffffffffffffffffffffffffff169060200190929190505050610a39565b6040518082815260200191505060405180910390f35b3480156102f157600080fd5b50610326600480360381019080803573ffffffffffffffffffffffffffffffffffffffff169060200190929190505050610a51565b6040518082815260200191505060405180910390f35b34801561034857600080fd5b50610351610a69565b604051808215151515815260200191505060405180910390f35b34801561037757600080fd5b506103e6600480360381019080803590602001908201803590602001908080601f01602080910402602001604051908101604052809392919081815260200183838082843782019150505050505091929192908035906020019092919080359060200190929190505050610ae4565b604051808215151515815260200191505060405180910390f35b34801561040c57600080fd5b50610415610e53565b6040518082815260200191505060405180910390f35b34801561043757600080fd5b50610476600480360381019080803573ffffffffffffffffffffffffffffffffffffffff16906020019092919080359060200190929190505050610e59565b604051808215151515815260200191505060405180910390f35b34801561049c57600080fd5b506104a561109e565b604051808215151515815260200191505060405180910390f35b3480156104cb57600080fd5b506104d4611119565b6040518082815260200191505060405180910390f35b3480156104f657600080fd5b5061053f600480360381019080803573ffffffffffffffffffffffffffffffffffffffff169060200190929190803590602001909291908035906020019092919050505061111f565b604051808215151515815260200191505060405180910390f35b34801561056557600080fd5b5061059a600480360381019080803573ffffffffffffffffffffffffffffffffffffffff1690602001909291905050506114c8565b604051808a73ffffffffffffffffffffffffffffffffffffffff1673ffffffffffffffffffffffffffffffffffffffff168152602001898152602001806020018815151515815260200187815260200186815260200185815260200184815260200183151515158152602001828103825289818151815260200191508051906020019080838360005b8381101561063e578082015181840152602081019050610623565b50505050905090810190601f16801561066b5780820380516001836020036101000a031916815260200191505b509a505050505050505050505060405180910390f35b34801561068d57600080fd5b506106f6600480360381019080803573ffffffffffffffffffffffffffffffffffffffff169060200190929190803573ffffffffffffffffffffffffffffffffffffffff16906020019092919080359060200190929190803590602001909291905050506115e8565b604051808215151515815260200191505060405180910390f35b600560009054906101000a900460ff1681565b60015481565b60025481565b600a6020528060005260406000206000915090505481565b6000806000809054906101000a900473ffffffffffffffffffffffffffffffffffffffff1673ffffffffffffffffffffffffffffffffffffffff163373ffffffffffffffffffffffffffffffffffffffff161415156107a557600080fd5b60001515600560009054906101000a900460ff1615151415156107c757600080fd5b82600660003373ffffffffffffffffffffffffffffffffffffffff1673ffffffffffffffffffffffffffffffffffffffff168152602001908152602001600020541015151561081557600080fd5b61085e600660003373ffffffffffffffffffffffffffffffffffffffff1673ffffffffffffffffffffffffffffffffffffffff1681526020019081526020016000205484611b91565b600660003373ffffffffffffffffffffffffffffffffffffffff1673ffffffffffffffffffffffffffffffffffffffff168152602001908152602001600020819055506108ea600660008673ffffffffffffffffffffffffffffffffffffffff1673ffffffffffffffffffffffffffffffffffffffff1681526020019081526020016000205484611baa565b905080600660008673ffffffffffffffffffffffffffffffffffffffff1673ffffffffffffffffffffffffffffffffffffffff1681526020019081526020016000208190555080600860008673ffffffffffffffffffffffffffffffffffffffff1673ffffffffffffffffffffffffffffffffffffffff168152602001908152602001600020600501819055507fe6417e21e4e3a7a32489104ba484261721bc1aec3763894ac25c70f67c108119338585604051808473ffffffffffffffffffffffffffffffffffffffff1673ffffffffffffffffffffffffffffffffffffffff1681526020018373ffffffffffffffffffffffffffffffffffffffff1673ffffffffffffffffffffffffffffffffffffffff168152602001828152602001935050505060405180910390a1600191505092915050565b60066020528060005260406000206000915090505481565b60096020528060005260406000206000915090505481565b60076020528060005260406000206000915090505481565b60008060009054906101000a900473ffffffffffffffffffffffffffffffffffffffff1673ffffffffffffffffffffffffffffffffffffffff163373ffffffffffffffffffffffffffffffffffffffff16141515610ac657600080fd5b6000600560006101000a81548160ff02191690831515021790555090565b6000801515600560009054906101000a900460ff161515141515610b0757600080fd5b6000600960003373ffffffffffffffffffffffffffffffffffffffff1673ffffffffffffffffffffffffffffffffffffffff16815260200190815260200160002054141515610b5557600080fd5b600660025411151515610b6757600080fd5b60066002541415610b7a57816003819055505b610120604051908101604052803373ffffffffffffffffffffffffffffffffffffffff168152602001848152602001858152602001600015158152602001600081526020016000815260200160025481526020016064815260200160011515815250600860003373ffffffffffffffffffffffffffffffffffffffff1673ffffffffffffffffffffffffffffffffffffffff16815260200190815260200160002060008201518160000160006101000a81548173ffffffffffffffffffffffffffffffffffffffff021916908373ffffffffffffffffffffffffffffffffffffffff160217905550602082015181600101556040820151816002019080519060200190610c88929190611c03565b5060608201518160030160006101000a81548160ff0219169083151502179055506080820151816004015560a0820151816005015560c0820151816006015560e082015181600701556101008201518160080160006101000a81548160ff021916908315150217905550905050600960003373ffffffffffffffffffffffffffffffffffffffff1673ffffffffffffffffffffffffffffffffffffffff16815260200190815260200160002060008154809291906001019190505550600254600a60003373ffffffffffffffffffffffffffffffffffffffff1673ffffffffffffffffffffffffffffffffffffffff168152602001908152602001600020819055506002600081548092919060010191905055507ff22b51bf76de7f480477d3eb5fb0a01c1c13a82e9d7a4988c285f28fbee1ea3b600254856003546040518084815260200180602001838152602001828103825284818151815260200191508051906020019080838360005b83811015610e10578082015181840152602081019050610df5565b50505050905090810190601f168015610e3d5780820380516001836020036101000a031916815260200191505b5094505050505060405180910390a19392505050565b60045481565b60008060001515600560009054906101000a900460ff161515141515610e7e57600080fd5b82600660003373ffffffffffffffffffffffffffffffffffffffff1673ffffffffffffffffffffffffffffffffffffffff1681526020019081526020016000205410151515610ecc57600080fd5b610f15600660003373ffffffffffffffffffffffffffffffffffffffff1673ffffffffffffffffffffffffffffffffffffffff1681526020019081526020016000205484611b91565b600660003373ffffffffffffffffffffffffffffffffffffffff1673ffffffffffffffffffffffffffffffffffffffff16815260200190815260200160002081905550610fa1600660008673ffffffffffffffffffffffffffffffffffffffff1673ffffffffffffffffffffffffffffffffffffffff1681526020019081526020016000205484611baa565b905080600660008673ffffffffffffffffffffffffffffffffffffffff1673ffffffffffffffffffffffffffffffffffffffff1681526020019081526020016000208190555080600860008673ffffffffffffffffffffffffffffffffffffffff1673ffffffffffffffffffffffffffffffffffffffff168152602001908152602001600020600501819055508373ffffffffffffffffffffffffffffffffffffffff163373ffffffffffffffffffffffffffffffffffffffff167fddf252ad1be2c89b69c2b068fc378daa952ba7f163c4a11628f55a4df523b3ef856040518082815260200191505060405180910390a3600191505092915050565b60008060009054906101000a900473ffffffffffffffffffffffffffffffffffffffff1673ffffffffffffffffffffffffffffffffffffffff163373ffffffffffffffffffffffffffffffffffffffff161415156110fb57600080fd5b6001600560006101000a81548160ff02191690831515021790555090565b60035481565b60008060001515600560009054906101000a900460ff16151514151561114457600080fd5b61119d600354611198600860008973ffffffffffffffffffffffffffffffffffffffff1673ffffffffffffffffffffffffffffffffffffffff16815260200190815260200160002060060154600454611bc8565b611baa565b83101515156111ab57600080fd5b60001515600860008773ffffffffffffffffffffffffffffffffffffffff1673ffffffffffffffffffffffffffffffffffffffff16815260200190815260200160002060030160009054906101000a900460ff16151514151561120d57600080fd5b83600660003373ffffffffffffffffffffffffffffffffffffffff1673ffffffffffffffffffffffffffffffffffffffff168152602001908152602001600020541015151561125b57600080fd5b6112a4600660003373ffffffffffffffffffffffffffffffffffffffff1673ffffffffffffffffffffffffffffffffffffffff1681526020019081526020016000205485611b91565b600660003373ffffffffffffffffffffffffffffffffffffffff1673ffffffffffffffffffffffffffffffffffffffff16815260200190815260200160002081905550611330600660003373ffffffffffffffffffffffffffffffffffffffff1673ffffffffffffffffffffffffffffffffffffffff1681526020019081526020016000205485611baa565b600660008773ffffffffffffffffffffffffffffffffffffffff1673ffffffffffffffffffffffffffffffffffffffff16815260200190815260200160002081905550600660008673ffffffffffffffffffffffffffffffffffffffff1673ffffffffffffffffffffffffffffffffffffffff16815260200190815260200160002054905080600860008773ffffffffffffffffffffffffffffffffffffffff1673ffffffffffffffffffffffffffffffffffffffff168152602001908152602001600020600501819055506001600860008773ffffffffffffffffffffffffffffffffffffffff1673ffffffffffffffffffffffffffffffffffffffff16815260200190815260200160002060030160006101000a81548160ff0219169083151502179055508473ffffffffffffffffffffffffffffffffffffffff163373ffffffffffffffffffffffffffffffffffffffff167f3430e0472f57805e83261c76ce1f2d0d7e7bac0354da2dc654928c6d29cd3a6c866040518082815260200191505060405180910390a360019150509392505050565b60086020528060005260406000206000915090508060000160009054906101000a900473ffffffffffffffffffffffffffffffffffffffff1690806001015490806002018054600181600116156101000203166002900480601f0160208091040260200160405190810160405280929190818152602001828054600181600116156101000203166002900480156115a05780601f10611575576101008083540402835291602001916115a0565b820191906000526020600020905b81548152906001019060200180831161158357829003601f168201915b5050505050908060030160009054906101000a900460ff16908060040154908060050154908060060154908060070154908060080160009054906101000a900460ff16905089565b6000806000801515600560009054906101000a900460ff16151514151561160e57600080fd5b6006600a60008973ffffffffffffffffffffffffffffffffffffffff1673ffffffffffffffffffffffffffffffffffffffff168152602001908152602001600020541115151561165d57600080fd5b6116b36003546116ae600a60008b73ffffffffffffffffffffffffffffffffffffffff1673ffffffffffffffffffffffffffffffffffffffff16815260200190815260200160002054600454611bc8565b611baa565b84111561174e57611707600860008973ffffffffffffffffffffffffffffffffffffffff1673ffffffffffffffffffffffffffffffffffffffff168152602001908152602001600020600701546010611b91565b600860008973ffffffffffffffffffffffffffffffffffffffff1673ffffffffffffffffffffffffffffffffffffffff168152602001908152602001600020600701819055505b600660008873ffffffffffffffffffffffffffffffffffffffff1673ffffffffffffffffffffffffffffffffffffffff16815260200190815260200160002054851115151561179c57600080fd5b6117e5600660008973ffffffffffffffffffffffffffffffffffffffff1673ffffffffffffffffffffffffffffffffffffffff1681526020019081526020016000205486611b91565b600660008973ffffffffffffffffffffffffffffffffffffffff1673ffffffffffffffffffffffffffffffffffffffff16815260200190815260200160002081905550611871600660008873ffffffffffffffffffffffffffffffffffffffff1673ffffffffffffffffffffffffffffffffffffffff1681526020019081526020016000205486611baa565b600660008873ffffffffffffffffffffffffffffffffffffffff1673ffffffffffffffffffffffffffffffffffffffff168152602001908152602001600020819055506118fd600760008973ffffffffffffffffffffffffffffffffffffffff1673ffffffffffffffffffffffffffffffffffffffff1681526020019081526020016000205486611baa565b600760008973ffffffffffffffffffffffffffffffffffffffff1673ffffffffffffffffffffffffffffffffffffffff16815260200190815260200160002081905550600760008873ffffffffffffffffffffffffffffffffffffffff1673ffffffffffffffffffffffffffffffffffffffff16815260200190815260200160002054915081600860008973ffffffffffffffffffffffffffffffffffffffff1673ffffffffffffffffffffffffffffffffffffffff16815260200190815260200160002060040181905550600660008873ffffffffffffffffffffffffffffffffffffffff1673ffffffffffffffffffffffffffffffffffffffff16815260200190815260200160002054905080600860008973ffffffffffffffffffffffffffffffffffffffff1673ffffffffffffffffffffffffffffffffffffffff16815260200190815260200160002060050181905550611a9c600a60008973ffffffffffffffffffffffffffffffffffffffff1673ffffffffffffffffffffffffffffffffffffffff168152602001908152602001600020546001611baa565b600a60008973ffffffffffffffffffffffffffffffffffffffff1673ffffffffffffffffffffffffffffffffffffffff168152602001908152602001600020819055508573ffffffffffffffffffffffffffffffffffffffff168773ffffffffffffffffffffffffffffffffffffffff167fddf252ad1be2c89b69c2b068fc378daa952ba7f163c4a11628f55a4df523b3ef600a60008b73ffffffffffffffffffffffffffffffffffffffff1673ffffffffffffffffffffffffffffffffffffffff168152602001908152602001600020546040518082815260200191505060405180910390a3600192505050949350505050565b6000828211151515611b9f57fe5b818303905092915050565b6000808284019050838110151515611bbe57fe5b8091505092915050565b6000806000841415611bdd5760009150611bfc565b8284029050828482811515611bee57fe5b04141515611bf857fe5b8091505b5092915050565b828054600181600116156101000203166002900490600052602060002090601f016020900481019282601f10611c4457805160ff1916838001178555611c72565b82800160010185558215611c72579182015b82811115611c71578251825591602001919060010190611c56565b5b509050611c7f9190611c83565b5090565b611ca591905b80821115611ca1576000816000905550600101611c89565b5090565b905600a165627a7a72305820980849052622f3737bcb5b1d38d99c65e0d8dae5ea0498333bfd51038198dd580029",
  "source": "pragma solidity ^0.4.2;\nimport \"./SafeMath.sol\";\nimport \"./Owned.sol\";\n\n\ncontract Token is Owned {\n\n    uint256 public totalSupply;\n    uint public mes = 1;\n    uint public fechaComienzoAhorro = 2175806719; //fecha 12 de diciembre de 2038, para que nadie pueda generar una transacción u operativa antes de que\n                                                 //se hallan registrado la totalidad de usuarios\n    uint public tDosMinutos = 120;\n    bool public Activo = false;\n\n\n    event Transfer(\n        address indexed _from,\n        address indexed _to,\n        uint256 _value\n    );\n    event TransferInicial(\n        address Owner,\n        address _to,\n        uint256 _value\n    );\n\n    event TransferRetiro(\n        address indexed _from,\n        address indexed _to,\n        uint256 _value\n    );\n    event nuevoAhorrador(\n        uint Id, \n        string nombre, \n        uint fechaComienzoAhorro\n    );\n    event modificar(\n        uint idUsuario,\n        address adUsuario, \n        uint valorNuevo\n    );\n    \n\n    \n    mapping(address => uint256) public balanceOf;\n    mapping(address => uint256) public depositoOf;\n    mapping(address => Ahorrador) public Ahorradores;\n    mapping(address => uint) public ownerCuentaAhorro;\n    mapping(address => uint) public mesCount;\n       \n    \n    constructor(uint256 _initialSupply) public {\n        balanceOf[msg.sender] = _initialSupply; //Al realizar el desplegue del contracto 2_deploy_contracts se indica el initial supply\n        totalSupply = _initialSupply;\n\n    }\n\n    struct Ahorrador {\n        address cuenta;\n        uint id;\n        string name;\n        bool prestamo;\n        uint ahorro; \n        uint balance;  \n        uint mes;\n        uint puntualidad;\n        bool Alta;\n    }\n\n\n\n\n\n    //** @title detener el contrato. */\n    function DetenerContratoToken() public onlyOwner returns (bool) {\n        Activo = true;\n        /** @dev Modificar el valor de la variable true desactivando el Smart contract.*/\n    }\n    //** @title Activar el contrato. */\n    function ActivarContratoToken() public onlyOwner returns (bool) {\n        Activo = false;\n        /** @dev Modificar el valor de la vriable true activando el Smart contract.*/\n    }\n\n    //** @title Crear Ahorrador. */\n    function _crearAhorrador(string nombre, uint idUsuario, uint fecha) public returns(bool) {\n        /** @param nombre nombre del usuario.\n            @param idUsuario identifiación del usuario.\n            @param fecha fecha en la que se realiza el alta del usuario.\n        */\n        /** @dev verifica que el Smartcontract este activo\n        verifica que la address no haya creado un usuario ya en la DAAP y finalmente verifica que no se hayan asignado ya todos los \n        periodos de retiro de Tokens*/\n       require(Activo == false);\n       require((ownerCuentaAhorro[msg.sender]) == 0);\n       require( mes <= 6);\n       /** @dev cuando se registra el sexto usuario, se inicializan las fechas para el contrato y para los usuarios, de acuerdo\n       a la fecha de registro de último usuario*/\n        if (mes == 6){\n        fechaComienzoAhorro = fecha;\n        }             \n        /** @dev se da de alta los valores del usuario que se ha registrado para cada uno de lo campos del strcut en el mapping Ahorrado\n        Se suma el 1 a los contadores mes y ownerCuenta Ahorro, mesCount y mes*/\n        Ahorradores[msg.sender] = Ahorrador(msg.sender, idUsuario, nombre, false, 0, 0, mes, 100 ,true);\n        ownerCuentaAhorro[msg.sender] ++;\n        mesCount[msg.sender] = mes;\n        mes ++;\n        /**@return emite el evento con los datos de mes, nombre y fecha de comienzoAhorro.*/\n        emit nuevoAhorrador(mes, nombre, fechaComienzoAhorro);\n        \n        \n    }\n    //** @title Realizar transferencia inicial, solo ejecutable por el Owner. */    \n    function transferInicial(address _to, uint256 _value) public onlyOwner returns (bool success) {\n       /**   @param _to address de la cuenta a al que se quiere realizar la transacción.\n             @param _value cantidad de tokens que van a ser trasnferido.\n        */\n        \n        \n        /** @dev verifica que el Smartcontract este activo\n        Verifica que el balance de quien realiza la transferncia sean mayores o iguales a el valor que se desea enviar\n        Se actualizan los balances de las cuentas, a la que envía se le resta y a la otra se le suma, y se actualiza en el mapping ahorrador\n        y BalanceOF*/\n        require(Activo == false);\n        require(balanceOf[msg.sender] >= _value);\n        balanceOf[msg.sender] = SafeMath.sub(balanceOf[msg.sender],_value);\n        uint256  saldo = SafeMath.add(balanceOf[_to],_value);   \n        balanceOf[_to] = saldo;   \n        Ahorradores[_to].balance = saldo;\n        /**@return Se emite el evento con las datos de address del que envía, el que recibe y la cantidad*/\n        emit TransferInicial(msg.sender, _to, _value);\n        /**@return Si se ha realizado la transacción devueleve al contrato CompraToken el valor true*/\n        return true;\n    }\n\n   //** @title Realizar transferencia a una cuenta. */ \n    function transfer(address _to, uint256 _value) public returns (bool success) {\n         /**   @param _to address de la cuenta a al que se quiere realizar la transacción.\n             @param _value cantidad de tokens que van a ser trasnferido.\n        */\n\n        /** @dev verifica que el Smartcontract este activo\n        Verifica que el balance de quien realiza la transferncia sean mayores o iguales a el valor que se desea enviar\n        Se actualizan los balances de las cuentas, a la que envía se le resta y a la otra se le suma, y se actualiza en el mapping ahorrador\n        y BalanceOF*/\n        require(Activo == false);\n        require(balanceOf[msg.sender] >= _value);        \n        balanceOf[msg.sender] = SafeMath.sub(balanceOf[msg.sender],_value);\n        uint256  saldo = SafeMath.add(balanceOf[_to],_value);   \n        balanceOf[_to] = saldo;   \n        Ahorradores[_to].balance = saldo;\n        /**@return Se emite el evento con las datos de address del que envía, el que recibe y la cantidad*/\n        emit Transfer(msg.sender, _to, _value);\n        /**@return Si se ha realizado la transacción devueleve al contrato CompraToken el valor true*/\n        return true;\n    }\n   //** @title Realizar transferencia a una cuenta, desde el contrato. */ \n    function transferRetiro(address _to, uint256 _value, uint fechaRetiro) public returns (bool success) {\n        /**   @param _to address de la cuenta a al que se quiere realizar la transacción.\n             @param _value cantidad de tokens que van a ser trasnferido.\n             @param _fechaRetiro fecha en la que se realiza el retiro.\n\n        */\n        /** @dev verifica que el Smartcontract este activo\n        Verifica que la fecha en al que se solicita el retiro sea superior a la definida.\n        Verifica que el balance de quien realiza la transferncia sean mayores o iguales a el valor que se desea enviar.\n        Se actualizan los balances de las cuentas, a la que envía se le resta y a la otra se le suma, y se actualiza en el mapping ahorrador\n        y BalanceOF*/\n        require(Activo == false);\n        require(fechaRetiro >= SafeMath.add(fechaComienzoAhorro,SafeMath.mul(Ahorradores[_to].mes,tDosMinutos)));\n        require(Ahorradores[_to].prestamo == false);\n        require(balanceOf[msg.sender] >= _value);\n\n        balanceOf[msg.sender] = SafeMath.sub(balanceOf[msg.sender],_value);\n        balanceOf[_to] = SafeMath.add(balanceOf[msg.sender],_value);\n        uint256 saldo = balanceOf[_to];          \n        Ahorradores[_to].balance = saldo;\n        /** @dev Se actualiza en el mapping el estado del valor prestamo, indicando que usuario ya ha realizado el retiro*/        \n        Ahorradores[_to].prestamo = true;\n        /**@return Se emite el evento con las datos de address del que envía, el que recibe y la cantidad*/\n        emit TransferRetiro(msg.sender, _to, _value);\n        /**@return Si se ha realizado la transacción devueleve al contrato CompraToken el valor true*/\n        return true;\n    }\n    //** @title Realizar transferencia a el contrato el usuario. */ \n    function transferFrom(address _from, address _to, uint256 _value, uint fechaDeposito) public returns (bool success) {\n       /**   @param _to address de la cuenta a al que se quiere realizar la transacción.\n             @param _value cantidad de tokens que van a ser trasnferidos.\n             @param _fechaDeposito fecha en la que se realiza el deposito.\n\n        */       \n       /** @dev verifica que el Smartcontract este activo\n        Verifica que la fecha en al que se solicita el retiro sea superior a la definida.\n        Verifica que el mes del que realiza el depostivo se menor que 6\n        En caso de que la fecha en la que se realiza el deposito de mayor a la definida se le baja el valor puntualidad en el mapping Ahorrador.\n        Verifica que el balance de quien realiza la transferencia sean mayores o iguales a el valor que se desea enviar.\n        Se actualizan los balances de las cuentas, a la que envía se le resta y a la otra se le suma, y se actualiza en el mapping ahorrador\n        y BalanceOF*/\n        require(Activo == false);\n        require(mesCount[_from] <= 6);\n        if(fechaDeposito > SafeMath.add(fechaComienzoAhorro,SafeMath.mul(mesCount[_from],tDosMinutos))){\n            Ahorradores[_from].puntualidad = SafeMath.sub(Ahorradores[_from].puntualidad,16);\n        }\n\n        require(_value <= balanceOf[_from]);\n        \n        balanceOf[_from] = SafeMath.sub(balanceOf[_from],_value);\n        balanceOf[_to] = SafeMath.add(balanceOf[_to],_value);\n        depositoOf[_from] = SafeMath.add(depositoOf[_from],_value);\n        uint256 ahorro = depositoOf[_from];\n        Ahorradores[_from].ahorro = ahorro;\n        uint256 saldo = balanceOf[_from];\n        Ahorradores[_from].balance = saldo;\n        mesCount[_from] = SafeMath.add(mesCount[_from],1);\n        /**@return Se emite el evento con las datos de address del que envía, el que recibe y el mes del quién realiza el envío*/\n        emit Transfer(_from, _to, mesCount[_from]);\n        /**@return Si se ha realizado la transacción devueleve al contrato CompraToken el valor true*/\n        return true;\n    }\n}",
  "sourcePath": "/home/omar/ProyectoAhorro/contracts/Token.sol",
  "compiler": {
    "name": "solc",
    "version": "0.4.24+commit.e67f0147.Emscripten.clang"
  },
  "schemaVersion": "2.0.1",
  "updatedAt": "2018-12-22T17:40:49.545Z"
}