{
  "contractName": "Token",
  "abi": [
    {
      "constant": true,
      "inputs": [],
      "name": "Activo",
      "outputs": [
        {
          "name": "",
          "type": "bool"
        }
      ],
      "payable": false,
      "stateMutability": "view",
      "type": "function",
      "signature": "0x12029e60"
    },
    {
      "constant": true,
      "inputs": [],
      "name": "totalSupply",
      "outputs": [
        {
          "name": "",
          "type": "uint256"
        }
      ],
      "payable": false,
      "stateMutability": "view",
      "type": "function",
      "signature": "0x18160ddd"
    },
    {
      "constant": true,
      "inputs": [
        {
          "name": "",
          "type": "address"
        }
      ],
      "name": "mesCount",
      "outputs": [
        {
          "name": "",
          "type": "uint256"
        }
      ],
      "payable": false,
      "stateMutability": "view",
      "type": "function",
      "signature": "0x5bdf7d70"
    },
    {
      "constant": true,
      "inputs": [
        {
          "name": "",
          "type": "address"
        }
      ],
      "name": "balanceOf",
      "outputs": [
        {
          "name": "",
          "type": "uint256"
        }
      ],
      "payable": false,
      "stateMutability": "view",
      "type": "function",
      "signature": "0x70a08231"
    },
    {
      "constant": true,
      "inputs": [
        {
          "name": "",
          "type": "address"
        }
      ],
      "name": "ownerCuentaAhorro",
      "outputs": [
        {
          "name": "",
          "type": "uint256"
        }
      ],
      "payable": false,
      "stateMutability": "view",
      "type": "function",
      "signature": "0x72a01681"
    },
    {
      "constant": true,
      "inputs": [
        {
          "name": "",
          "type": "address"
        }
      ],
      "name": "depositoOf",
      "outputs": [
        {
          "name": "",
          "type": "uint256"
        }
      ],
      "payable": false,
      "stateMutability": "view",
      "type": "function",
      "signature": "0x8a655e40"
    },
    {
      "inputs": [
        {
          "name": "_initialSupply",
          "type": "uint256"
        }
      ],
      "payable": false,
      "stateMutability": "nonpayable",
      "type": "constructor",
      "signature": "constructor"
    },
    {
      "anonymous": false,
      "inputs": [
        {
          "indexed": true,
          "name": "_from",
          "type": "address"
        },
        {
          "indexed": true,
          "name": "_to",
          "type": "address"
        },
        {
          "indexed": false,
          "name": "_value",
          "type": "uint256"
        }
      ],
      "name": "Transfer",
      "type": "event",
      "signature": "0xddf252ad1be2c89b69c2b068fc378daa952ba7f163c4a11628f55a4df523b3ef"
    },
    {
      "anonymous": false,
      "inputs": [
        {
          "indexed": false,
          "name": "Owner",
          "type": "address"
        },
        {
          "indexed": false,
          "name": "_to",
          "type": "address"
        },
        {
          "indexed": false,
          "name": "_value",
          "type": "uint256"
        }
      ],
      "name": "TransferInicial",
      "type": "event",
      "signature": "0xe6417e21e4e3a7a32489104ba484261721bc1aec3763894ac25c70f67c108119"
    },
    {
      "anonymous": false,
      "inputs": [
        {
          "indexed": true,
          "name": "_from",
          "type": "address"
        },
        {
          "indexed": true,
          "name": "_to",
          "type": "address"
        },
        {
          "indexed": false,
          "name": "_value",
          "type": "uint256"
        }
      ],
      "name": "TransferRetiro",
      "type": "event",
      "signature": "0x3430e0472f57805e83261c76ce1f2d0d7e7bac0354da2dc654928c6d29cd3a6c"
    },
    {
      "anonymous": false,
      "inputs": [
        {
          "indexed": false,
          "name": "Id",
          "type": "uint256"
        },
        {
          "indexed": false,
          "name": "nombre",
          "type": "string"
        },
        {
          "indexed": false,
          "name": "fechaComienzoAhorro",
          "type": "uint256"
        }
      ],
      "name": "nuevoAhorrador",
      "type": "event",
      "signature": "0xf22b51bf76de7f480477d3eb5fb0a01c1c13a82e9d7a4988c285f28fbee1ea3b"
    },
    {
      "anonymous": false,
      "inputs": [
        {
          "indexed": false,
          "name": "idUsuario",
          "type": "uint256"
        },
        {
          "indexed": false,
          "name": "adUsuario",
          "type": "address"
        },
        {
          "indexed": false,
          "name": "valorNuevo",
          "type": "uint256"
        }
      ],
      "name": "modificar",
      "type": "event",
      "signature": "0xe1d94afef150335ab9e416d675c2c9f6aa1cbaf1b5d3da7ee21696e553be11b5"
    },
    {
      "anonymous": false,
      "inputs": [
        {
          "indexed": false,
          "name": "_value",
          "type": "uint256"
        }
      ],
      "name": "TransferAumentoSupply",
      "type": "event",
      "signature": "0x05f0ba1deb07f2c4b4471af40ed463c416db2fa06cc66d194fc67baac638bd29"
    },
    {
      "constant": false,
      "inputs": [],
      "name": "DetenerContratoToken",
      "outputs": [
        {
          "name": "",
          "type": "bool"
        }
      ],
      "payable": false,
      "stateMutability": "nonpayable",
      "type": "function",
      "signature": "0xb5555627"
    },
    {
      "constant": false,
      "inputs": [],
      "name": "ActivarContratoToken",
      "outputs": [
        {
          "name": "",
          "type": "bool"
        }
      ],
      "payable": false,
      "stateMutability": "nonpayable",
      "type": "function",
      "signature": "0x8dae461d"
    },
    {
      "constant": false,
      "inputs": [
        {
          "name": "_to",
          "type": "address"
        },
        {
          "name": "_value",
          "type": "uint256"
        }
      ],
      "name": "transferInicial",
      "outputs": [
        {
          "name": "success",
          "type": "bool"
        }
      ],
      "payable": false,
      "stateMutability": "nonpayable",
      "type": "function",
      "signature": "0x6fbaff3a"
    },
    {
      "constant": false,
      "inputs": [
        {
          "name": "_to",
          "type": "address"
        },
        {
          "name": "_value",
          "type": "uint256"
        }
      ],
      "name": "transfer",
      "outputs": [
        {
          "name": "success",
          "type": "bool"
        }
      ],
      "payable": false,
      "stateMutability": "nonpayable",
      "type": "function",
      "signature": "0xa9059cbb"
    },
    {
      "constant": false,
      "inputs": [
        {
          "name": "_from",
          "type": "address"
        },
        {
          "name": "_to",
          "type": "address"
        },
        {
          "name": "_value",
          "type": "uint256"
        }
      ],
      "name": "transferFrom",
      "outputs": [
        {
          "name": "success",
          "type": "bool"
        }
      ],
      "payable": false,
      "stateMutability": "nonpayable",
      "type": "function",
      "signature": "0x23b872dd"
    },
    {
      "constant": false,
      "inputs": [
        {
          "name": "_value",
          "type": "uint256"
        }
      ],
      "name": "transferAumentoSupply",
      "outputs": [
        {
          "name": "success",
          "type": "bool"
        }
      ],
      "payable": false,
      "stateMutability": "nonpayable",
      "type": "function",
      "signature": "0x468d2649"
    }
  ],
  "bytecode": "0x60806040526000600260006101000a81548160ff02191690831515021790555034801561002b57600080fd5b50604051602080610ff78339810180604052602081101561004b57600080fd5b8101908080519060200190929190505050336000806101000a81548173ffffffffffffffffffffffffffffffffffffffff021916908373ffffffffffffffffffffffffffffffffffffffff16021790555080600360003373ffffffffffffffffffffffffffffffffffffffff1673ffffffffffffffffffffffffffffffffffffffff168152602001908152602001600020819055508060018190555050610f00806100f76000396000f3fe6080604052600436106100ba576000357c0100000000000000000000000000000000000000000000000000000000900463ffffffff16806312029e60146100bf57806318160ddd146100ee57806323b872dd14610119578063468d2649146101ac5780635bdf7d70146101ff5780636fbaff3a1461026457806370a08231146102d757806372a016811461033c5780638a655e40146103a15780638dae461d14610406578063a9059cbb14610435578063b5555627146104a8575b600080fd5b3480156100cb57600080fd5b506100d46104d7565b604051808215151515815260200191505060405180910390f35b3480156100fa57600080fd5b506101036104ea565b6040518082815260200191505060405180910390f35b34801561012557600080fd5b506101926004803603606081101561013c57600080fd5b81019080803573ffffffffffffffffffffffffffffffffffffffff169060200190929190803573ffffffffffffffffffffffffffffffffffffffff169060200190929190803590602001909291905050506104f0565b604051808215151515815260200191505060405180910390f35b3480156101b857600080fd5b506101e5600480360360208110156101cf57600080fd5b81019080803590602001909291905050506107b4565b604051808215151515815260200191505060405180910390f35b34801561020b57600080fd5b5061024e6004803603602081101561022257600080fd5b81019080803573ffffffffffffffffffffffffffffffffffffffff1690602001909291905050506108b5565b6040518082815260200191505060405180910390f35b34801561027057600080fd5b506102bd6004803603604081101561028757600080fd5b81019080803573ffffffffffffffffffffffffffffffffffffffff169060200190929190803590602001909291905050506108cd565b604051808215151515815260200191505060405180910390f35b3480156102e357600080fd5b50610326600480360360208110156102fa57600080fd5b81019080803573ffffffffffffffffffffffffffffffffffffffff169060200190929190505050610b61565b6040518082815260200191505060405180910390f35b34801561034857600080fd5b5061038b6004803603602081101561035f57600080fd5b81019080803573ffffffffffffffffffffffffffffffffffffffff169060200190929190505050610b79565b6040518082815260200191505060405180910390f35b3480156103ad57600080fd5b506103f0600480360360208110156103c457600080fd5b81019080803573ffffffffffffffffffffffffffffffffffffffff169060200190929190505050610b91565b6040518082815260200191505060405180910390f35b34801561041257600080fd5b5061041b610ba9565b604051808215151515815260200191505060405180910390f35b34801561044157600080fd5b5061048e6004803603604081101561045857600080fd5b81019080803573ffffffffffffffffffffffffffffffffffffffff16906020019092919080359060200190929190505050610c24565b604051808215151515815260200191505060405180910390f35b3480156104b457600080fd5b506104bd610e22565b604051808215151515815260200191505060405180910390f35b600260009054906101000a900460ff1681565b60015481565b6000801515600260009054906101000a900460ff16151514151561051357600080fd5b600360008573ffffffffffffffffffffffffffffffffffffffff1673ffffffffffffffffffffffffffffffffffffffff16815260200190815260200160002054821115151561056157600080fd5b6105aa600360008673ffffffffffffffffffffffffffffffffffffffff1673ffffffffffffffffffffffffffffffffffffffff1681526020019081526020016000205483610e9d565b600360008673ffffffffffffffffffffffffffffffffffffffff1673ffffffffffffffffffffffffffffffffffffffff16815260200190815260200160002081905550610636600360008573ffffffffffffffffffffffffffffffffffffffff1673ffffffffffffffffffffffffffffffffffffffff1681526020019081526020016000205483610eb6565b600360008573ffffffffffffffffffffffffffffffffffffffff1673ffffffffffffffffffffffffffffffffffffffff168152602001908152602001600020819055506106c2600460008673ffffffffffffffffffffffffffffffffffffffff1673ffffffffffffffffffffffffffffffffffffffff1681526020019081526020016000205483610eb6565b600460008673ffffffffffffffffffffffffffffffffffffffff1673ffffffffffffffffffffffffffffffffffffffff168152602001908152602001600020819055508273ffffffffffffffffffffffffffffffffffffffff168473ffffffffffffffffffffffffffffffffffffffff167fddf252ad1be2c89b69c2b068fc378daa952ba7f163c4a11628f55a4df523b3ef600660008873ffffffffffffffffffffffffffffffffffffffff1673ffffffffffffffffffffffffffffffffffffffff168152602001908152602001600020546040518082815260200191505060405180910390a3600190509392505050565b6000801515600260009054906101000a900460ff1615151415156107d757600080fd5b6107e360015483610eb6565b600181905550610832600360003373ffffffffffffffffffffffffffffffffffffffff1673ffffffffffffffffffffffffffffffffffffffff1681526020019081526020016000205483610eb6565b600360003373ffffffffffffffffffffffffffffffffffffffff1673ffffffffffffffffffffffffffffffffffffffff168152602001908152602001600020819055507f05f0ba1deb07f2c4b4471af40ed463c416db2fa06cc66d194fc67baac638bd29826040518082815260200191505060405180910390a160019050919050565b60066020528060005260406000206000915090505481565b60008060009054906101000a900473ffffffffffffffffffffffffffffffffffffffff1673ffffffffffffffffffffffffffffffffffffffff163373ffffffffffffffffffffffffffffffffffffffff1614151561092a57600080fd5b60001515600260009054906101000a900460ff16151514151561094c57600080fd5b81600360003373ffffffffffffffffffffffffffffffffffffffff1673ffffffffffffffffffffffffffffffffffffffff168152602001908152602001600020541015151561099a57600080fd5b6109e3600360003373ffffffffffffffffffffffffffffffffffffffff1673ffffffffffffffffffffffffffffffffffffffff1681526020019081526020016000205483610e9d565b600360003373ffffffffffffffffffffffffffffffffffffffff1673ffffffffffffffffffffffffffffffffffffffff168152602001908152602001600020819055506000610a71600360008673ffffffffffffffffffffffffffffffffffffffff1673ffffffffffffffffffffffffffffffffffffffff1681526020019081526020016000205484610eb6565b905080600360008673ffffffffffffffffffffffffffffffffffffffff1673ffffffffffffffffffffffffffffffffffffffff168152602001908152602001600020819055507fe6417e21e4e3a7a32489104ba484261721bc1aec3763894ac25c70f67c108119338585604051808473ffffffffffffffffffffffffffffffffffffffff1673ffffffffffffffffffffffffffffffffffffffff1681526020018373ffffffffffffffffffffffffffffffffffffffff1673ffffffffffffffffffffffffffffffffffffffff168152602001828152602001935050505060405180910390a1600191505092915050565b60036020528060005260406000206000915090505481565b60056020528060005260406000206000915090505481565b60046020528060005260406000206000915090505481565b60008060009054906101000a900473ffffffffffffffffffffffffffffffffffffffff1673ffffffffffffffffffffffffffffffffffffffff163373ffffffffffffffffffffffffffffffffffffffff16141515610c0657600080fd5b6000600260006101000a81548160ff02191690831515021790555090565b6000801515600260009054906101000a900460ff161515141515610c4757600080fd5b81600360003373ffffffffffffffffffffffffffffffffffffffff1673ffffffffffffffffffffffffffffffffffffffff1681526020019081526020016000205410151515610c9557600080fd5b610cde600360003373ffffffffffffffffffffffffffffffffffffffff1673ffffffffffffffffffffffffffffffffffffffff1681526020019081526020016000205483610e9d565b600360003373ffffffffffffffffffffffffffffffffffffffff1673ffffffffffffffffffffffffffffffffffffffff168152602001908152602001600020819055506000610d6c600360008673ffffffffffffffffffffffffffffffffffffffff1673ffffffffffffffffffffffffffffffffffffffff1681526020019081526020016000205484610eb6565b905080600360008673ffffffffffffffffffffffffffffffffffffffff1673ffffffffffffffffffffffffffffffffffffffff168152602001908152602001600020819055508373ffffffffffffffffffffffffffffffffffffffff163373ffffffffffffffffffffffffffffffffffffffff167fddf252ad1be2c89b69c2b068fc378daa952ba7f163c4a11628f55a4df523b3ef856040518082815260200191505060405180910390a3600191505092915050565b60008060009054906101000a900473ffffffffffffffffffffffffffffffffffffffff1673ffffffffffffffffffffffffffffffffffffffff163373ffffffffffffffffffffffffffffffffffffffff16141515610e7f57600080fd5b6001600260006101000a81548160ff02191690831515021790555090565b6000828211151515610eab57fe5b818303905092915050565b6000808284019050838110151515610eca57fe5b809150509291505056fea165627a7a723058208c0740d5d7d847cc2f1616ca9a69f2acb4fa4d8d28cfbe25afada397f12fa5300029",
  "source": "pragma solidity >= 0.5.0 < 0.6.0;\nimport \"./SafeMath.sol\";\nimport \"./Owned.sol\";\n\n\ncontract Token is Owned {\n\n    uint256 public totalSupply;\n    bool public Activo = false;\n\n\n    event Transfer(\n        address indexed _from,\n        address indexed _to,\n        uint256 _value\n    );\n    event TransferInicial(\n        address Owner,\n        address _to,\n        uint256 _value\n    );\n\n    event TransferRetiro(\n        address indexed _from,\n        address indexed _to,\n        uint256 _value\n    );\n    event nuevoAhorrador(\n        uint Id, \n        string nombre, \n        uint fechaComienzoAhorro\n    );\n    event modificar(\n        uint idUsuario,\n        address adUsuario, \n        uint valorNuevo\n    );\n    event TransferAumentoSupply(\n        uint _value\n    );\n    \n\n    \n    mapping(address => uint256) public balanceOf;\n    mapping(address => uint256) public depositoOf;\n    mapping(address => uint) public ownerCuentaAhorro;\n    mapping(address => uint) public mesCount;\n       \n    \n    constructor(uint _initialSupply) public {\n        balanceOf[msg.sender] = _initialSupply; //Al realizar el desplegue del contracto 2_deploy_contracts se indica el initial supply\n        totalSupply = _initialSupply;\n\n    }\n\n    \n\n\n\n\n\n    //** @title detener el contrato. */\n    function DetenerContratoToken() public onlyOwner returns (bool) {\n        Activo = true;\n        /** @dev Modificar el valor de la variable true desactivando el Smart contract.*/\n    }\n    //** @title Activar el contrato. */\n    function ActivarContratoToken() public onlyOwner returns (bool) {\n        \n        Activo = false;\n        /** @dev Modificar el valor de la vriable true activando el Smart contract.*/\n    }\n\n    //** @title Crear Ahorrador. */\n    \n    //** @title Realizar transferencia inicial, solo ejecutable por el Owner. */    \n    function transferInicial(address _to, uint256 _value) public onlyOwner returns (bool success) {\n       /**   @param _to address de la cuenta a al que se quiere realizar la transacción.\n             @param _value cantidad de tokens que van a ser trasnferido.\n        */\n        \n        \n        /** @dev verifica que el Smartcontract este activo\n        Verifica que el balance de quien realiza la transferncia sean mayores o iguales a el valor que se desea enviar\n        Se actualizan los balances de las cuentas, a la que envía se le resta y a la otra se le suma, y se actualiza en el mapping ahorrador\n        y BalanceOF*/\n        require(Activo == false);\n        require(balanceOf[msg.sender] >= _value);\n        balanceOf[msg.sender] = SafeMath.sub(balanceOf[msg.sender],_value);\n        uint256  saldo = SafeMath.add(balanceOf[_to],_value);   \n        balanceOf[_to] = saldo;   \n     \n        /**@return Se emite el evento con las datos de address del que envía, el que recibe y la cantidad*/\n        emit TransferInicial(msg.sender, _to, _value);\n        /**@return Si se ha realizado la transacción devueleve al contrato CompraToken el valor true*/\n        return true;\n    }\n\n   //** @title Realizar transferencia a una cuenta. */ \n    function transfer(address _to, uint256 _value) public returns (bool success) {\n         /**   @param _to address de la cuenta a al que se quiere realizar la transacción.\n             @param _value cantidad de tokens que van a ser trasnferido.\n        */\n\n        /** @dev verifica que el Smartcontract este activo\n        Verifica que el balance de quien realiza la transferncia sean mayores o iguales a el valor que se desea enviar\n        Se actualizan los balances de las cuentas, a la que envía se le resta y a la otra se le suma, y se actualiza en el mapping ahorrador\n        y BalanceOF*/\n        require(Activo == false);\n        require(balanceOf[msg.sender] >= _value);        \n        balanceOf[msg.sender] = SafeMath.sub(balanceOf[msg.sender],_value);\n        uint256  saldo = SafeMath.add(balanceOf[_to],_value);   \n        balanceOf[_to] = saldo;   \n        /**@return Se emite el evento con las datos de address del que envía, el que recibe y la cantidad*/\n        emit Transfer(msg.sender, _to, _value);\n        /**@return Si se ha realizado la transacción devueleve al contrato CompraToken el valor true*/\n        return true;\n    }\n   \n    //** @title Realizar transferencia a el contrato el usuario. */ \n    function transferFrom(address _from, address _to, uint256 _value) public returns (bool success) {\n       /**   @param _to address de la cuenta a al que se quiere realizar la transacción.\n             @param _value cantidad de tokens que van a ser trasnferidos.\n             @param _fechaDeposito fecha en la que se realiza el deposito.\n\n        */       \n       /** @dev verifica que el Smartcontract este activo\n        Verifica que la fecha en al que se solicita el retiro sea superior a la definida.\n        Verifica que el mes del que realiza el depostivo se menor que 6\n        En caso de que la fecha en la que se realiza el deposito de mayor a la definida se le baja el valor puntualidad en el mapping Ahorrador.\n        Verifica que el balance de quien realiza la transferencia sean mayores o iguales a el valor que se desea enviar.\n        Se actualizan los balances de las cuentas, a la que envía se le resta y a la otra se le suma, y se actualiza en el mapping ahorrador\n        y BalanceOF*/\n        require(Activo == false);    \n\n        require(_value <= balanceOf[_from]);\n        \n        balanceOf[_from] = SafeMath.sub(balanceOf[_from],_value);\n        balanceOf[_to] = SafeMath.add(balanceOf[_to],_value);\n        depositoOf[_from] = SafeMath.add(depositoOf[_from],_value);\n        /**@return Se emite el evento con las datos de address del que envía, el que recibe y el mes del quién realiza el envío*/\n        emit Transfer(_from, _to, mesCount[_from]);\n        /**@return Si se ha realizado la transacción devueleve al contrato CompraToken el valor true*/\n        return true;\n    }\n\n    function transferAumentoSupply(uint _value) public returns (bool success) {\n       /**   @param _to address de la cuenta a al que se quiere realizar la transacción.\n             @param _value cantidad de tokens que van a ser trasnferido.\n        */\n        \n        \n        /** @dev verifica que el Smartcontract este activo\n        Verifica que el balance de quien realiza la transferncia sean mayores o iguales a el valor que se desea enviar\n        Se actualizan los balances de las cuentas, a la que envía se le resta y a la otra se le suma, y se actualiza en el mapping ahorrador\n        y BalanceOF*/\n        //require(Activo == false);\n        require(Activo == false);\n        \n        totalSupply = SafeMath.add(totalSupply, _value);\n        balanceOf[msg.sender] = SafeMath.add(balanceOf[msg.sender], _value);\n        /**@return Se emite el evento con las datos de address del que envía, el que recibe y la cantidad*/\n        emit TransferAumentoSupply(_value);\n        /**@return Si se ha realizado la transacción devueleve al contrato CompraToken el valor true*/\n        return true;\n    }\n\n\n}\n",
  "sourcePath": "/home/omar/TFM_OP_1/TFM-Leasing/Proyecto/contracts/Token.sol",
  "compiler": {
    "name": "solc",
    "version": "0.5.0+commit.1d4f565a.Emscripten.clang"
  },
  "schemaVersion": "3.0.2",
  "updatedAt": "2019-04-18T09:44:04.459Z",
  "devdoc": {
    "methods": {}
  },
  "userdoc": {
    "methods": {}
  }
}